:040000000C94A401B7
:080010000C94B20A0C94E50AFD
:04001C000C94180B1D
:040024000C94C80868
:0C0038000C94C6080C94C7080C948A07AE
:0C0050000C9409090C94C5090C94D30908
:040060000C94450AAD
:140070000C94F2090C94150A0C94230A411E491ECA1EC71EC2
:14008400931E5B1EC41E651FF71D651F651F651F651F651F30
:14009800651FE31D651FCD1E651F651FEB1D3F1FA21DC01D57
:1400AC00651F651F651FF01EFB1E061F111F2D1F651F651FE4
:1400C000651F651F651F651FD41E3B1F651F651F651FDE1D49
:1400D400651F651F1C1F3D1F651F411F491F641F6F214321B6
:1400E80046213D21492140215F216F216F216F216F2159213A
:1400FC005F216F216F215F215F216F216F214B214E215121E3
:14011000542157215F215F215C214743323930310056323063
:1401240033004A756C20203720323031360030393A32353AC5
:1401380033300047433239303120202020202020202020209A
:14014C003333733F9A99593F0000003FCDCC4C3D0000C0405B
:140160005C8F423EC3F5883F000020410000803F000000443D
:14017400666667430000000000202020202020202020303081
:140188003030302020202020202020202020202020202020B3
:14019C0020904040404040404040404040404040400C0C0CBB
:1401B0000C0C0C0C0C0C0C40404040404040090909090909F1
:1401C400010101010101010101010101010101010101010113
:1401D8004040404040400A0A0A0A0A0A020202020202020247
:1401EC000202020202020202020202024040404020000000C7
:140200000000000000000000000000000000000000000000EA
:140214000000000000000000000000000000000000000000D6
:140228000000000000000000000000000000000000000000C2
:14023C000000000000000000000000000000000000000000AE
:1402500000000000000000000000000000000000000000009A
:14026400000000000000000000000000000000000000000086
:14027800000000000000000000000000000000804E00008024
:14028C003F0000003F000000000000000000000000FF0000E1
:1402A000000000020100000000000000000000000000000047
:1402B400280036012800540100000000010000000000000059
:1402C800000000140000000100000000445348445200010097
:1402DC000000000000000014000000010000010000000000F8
:1402F000000000000000000000004A4200415400444600440B
:140304005200445300564D00564600565200000000180100FC
:14031800446563004E6F76004F637400536570004175670027
:14032C004A756C004A756E004D617900417072004D617200FB
:14034000466562004A616E00CFEFD8E0CDBFDEBFC451D040BF
:140354000AEA08830024EFEAF1E015E0E03FF10711F00192A8
:14036800FBCF0083E9E9F2E0A0E0B1E013E000E00BBFE834C6
:14037C00F10721F0C89531960D92F9CF0E947220FFCFAA929B
:14039000BA922E9783E090E0998388832AED32E08E010B5F2C
:1403A4001F4F0E940622222428868091DF02803231F480E3ED
:1403B8008A832090DE022B8210C08091DE02803231F480E3EC
:1403CC008A832090DF022B8206C02090DE022A822090DF023F
:1403E0002B8222242C822090E30229862090E4022A86222498
:1403F4002B862BEA0E94F6290030010739F480E38093DA02B7
:1404080081E38093DB0273C027EA0E94F6290030010721F43A
:14041C0080E30E94C42D69C023EA0E94D02939F480E3809362
:14043000DA0283E38093DB025EC02FE90E94D02939F480E325
:140444008093DA0284E38093DB0253C02BE90E94D02939F46F
:1404580080E38093DA0285E38093DB0248C027E90E94D02933
:14046C0039F480E38093DA0286E38093DB023DC023E90E94F9
:14048000D02939F480E38093DA0287E38093DB0232C02FE88D
:140494000E94D02939F480E38093DA0288E38093DB0227C0F8
:1404A8002BE80E94D02939F480E38093DA0289E38093DB02B7
:1404BC001CC027E80E94D02939F481E38093DA0280E38093B0
:1404D000DB0211C023E80E94D02931F481E38093DA02809339
:1404E400DB0207C02FE70E94D02919F481E30E94C42D8FE23A
:1404F8008093DC022A802092DD022B802092DE028093DF0293
:14050C002090E3022092E0022090E4022092E102222420928F
:14052000E2022092E3022E96B990A99008952C970E94D62C02
:1405340080E08C838D838E838F830E94642A0E94C72AF894C2
:140548000E94692D442455240E94CF2B0E94822E44245524B7
:14055C000E94DC2E0E94A92A810192010E9464290E94C92299
:140570000E94F1290E94C22A810192010E9464290E94C9225C
:140584000E94062A0E94C22A0E94692A020D131D241D351DFC
:140598000E9468240E94C72A0E94252C0E94F1270E94762B9E
:1405AC001801290104E711E00E9473230E9464290E94C52B23
:1405C0000E94762B78942C9608950E94AF2C06E254D31A01D2
:1405D4004F5F5F4F86EB91E0F101E80FF91F00814AD386E0D0
:1405E80090E0481759078CF30091BC0142D30091BD013FD38D
:1405FC000091BE013CD30091BF01005D38D30091C00135D379
:140610000091C10132D33ED30AE010E082D584E190E00E94C5
:14062400B82A0E942D1003E126D300910C0123D32FD35991A4
:1406380049910895F999FECF12BD01BD20BDFA9AF99A0895AA
:14064C00F999FECF12BD01BDF89A00B508950E943B23AA24FC
:1406600013C00A2D1127F2DF402F8BE391E0EA2DFF27E80FF1
:14067400F91F208086EB91E0EA2DFF27E80FF91F2082A394B3
:140688008A2D863050F3282E8F5FA82E022D1127D9DFC02E87
:14069C004C2D86E0801720F483E08093BC0102C04093BC013B
:1406B0000E94982BCBDF0E94552E20F422242092BD0102C076
:1406C4004093BD010E94982BBFDFC02E4C2D83E0801720F419
:1406D80081E08093BE0102C04093BE010E94982BB1DFC02EA4
:1406EC004C2D80E1801720F48AE08093BF0102C04093BF01E3
:140700000E94982BA3DF0E94552E18F48093C00102C0409364
:14071400C0016A2D862F8F5F062F112795DFA02E4A2D81E04F
:14072800801718F48093C10102C04093C10181E08093E10594
:14073C0006E210E085DFA02E4A2D023019F482E08093E1058E
:140750000C9442230E941D2366270BC08BE391E0E62FFF273C
:14076400E80FF91F2081062F112766DF6395663098F3209155
:14077800BC010E94AA2E5EDF2091BD010E94AA2E59DF209127
:14078C00BE010E94B42C54DF2091BF010E94B42C4FDF209113
:1407A000C0010E94B42C4ADF2091C1010E94B42C45DF0C9420
:1407B40020230E94B22DEE24FF24CC24DD2402E210E042DF52
:1407C800602F03E210E03EDF402F6F3F71F00F3F61F0E62E6B
:1407DC00FF24FE2CEE24C42EDD2417012C283D280E944C2DCB
:1407F00006C020901D0130901E010E944C2D0E94B6290E9444
:140804000A2B0E94642C0E947D2CA98204E110E086D40EE2E4
:1408180030D208812ED209812CD238D20AE010E07CD42296CD
:14082C000C940123AA92BA9222970E94642C2A2D02E210E056
:14084000FDDE0E947D2CA9822A2D03E210E0F6DE0E94B629D2
:140854000E940A2B0EE20FD208810DD209810BD217D2229678
:14086800B990A9900895AA92BA920E94872C0E948C2C2A2DCF
:14087C0004E210E0DDDE0E94872C2A2D05E210E0D7DEB99056
:14089000A99008950E94B22D04E210E0D7DE602F05E210E00C
:1408A400D3DE402FE62EFF24FE2CEE24C42EDD2417012C284E
:1408B8003D280E94912C8CE090E08215930514F40E945F2E26
:1408CC000E94892B843FEFEF9E0724F484EF9FEF0E945F2E34
:1408E0000E94872C0E948C2CA8820E94872CA98204E110E0D6
:1408F40016D403E3C0D10881BED10981BCD1C8D104E110E0F2
:140908000CD422960C9401230E940E23C22E580185010E943B
:14091C00FA21E02E07C0EE2DFF27EA0DFB1D80E28083E394AB
:14093000EC14B8F3EC2DFF27EA0DFB1D222420820C94FC2214
:140944000E94AF2C09C08A01085D1F4F7DDE0E94672B0083E9
:140958004F5F5F4F88E090E04817590790F322242092F20229
:14096C000AEE12E00E9444261093D7020093D6023093D902FC
:140980002093D8024427552709C08A01085E1F4F5DDE0E94EA
:14099400672B00834F5F5F4F88E090E04817590790F322247E
:1409A8002092F2020AEE12E00E9444261093D3020093D202C0
:1409BC003093D5022093D4025991499108954A935A9324971E
:1409D0008AE090E00E941C2A4427552707C00E94672B0E94CD
:1409E400002E2ADE4F5F5F4F88E090E048175907A0F38AE0D9
:1409F8000E94792A89DF4427552709C00E94672B20818A012E
:140A0C00085E1F4F15DE4F5F5F4F88E090E04817590790F399
:140A20008AE00E941C2A4427552707C00E94672B0E94002EBE
:140A340003DE4F5F5F4F88E090E048175907A0F380E08093D4
:140A4800CE028093CF028093D0028093D1022496599149919D
:140A5C0008950E942523FBDD01E010E0F1DD602F77276F3FAD
:140A7000E0E07E0731F46EDE222433240E94912CF6DE66275F
:140A84007727442710C086EB91E00E94CC2AA0808BE391E00C
:140A98000E94CC2A2080A21419F061E070E045E04395453050
:140AAC0070F36030670721F144270BC08BE391E00E94CC2A16
:140AC000208086EB91E00E94CC2A20824395463098F383E02A
:140AD4008093BC0122242092BD0181E08093BE018AE08093D8
:140AE800BF0181E08093C0018093C1010E944C2C68DF2CDEC5
:140AFC002090BD01222031F00E948E2992600E94892905C0B1
:140B10000E948E299D7F0E9489292090BE01209241012090F5
:140B2400BF012092C30586B18170813019F40E94512D03C0BA
:140B3800222420922A010C942A234A935A930E942E2A44276A
:140B4C00552702E310E0DCD24F5F5F4F82E390E048175907A6
:140B6000B4F30E943E2B5991499108950E94152358014427D0
:140B740055270E942E2A05C002E010E0D0D24E5F5F4F4A1504
:140B88005B0568F40E94FB2D803DE7E09E0738F488E090E0A6
:140B9C000E94AA2C2816390658F30E943E2B0C941A23AA92E1
:140BB000BA9258010E942E2A8501B3D20E943E2BB990A990FA
:140BC4000895AA92BA92AA24BB240E9469298D7F0E946E29D2
:140BD8000E94EB2C2090E10520920A0181E0809350010E9496
:140BEC00BD2A025E1F4FE8D00E943E2C0E94352A11F08330C7
:140C000029F40E94692991600E946E29B990A9900895209096
:140C140039012220A1F020904D01222039F00E946E2D8FE0AA
:140C28008093C400789406C00E946E2D8FEB8093C400789475
:140C3C0001E010E070D2299822242092390108952090390117
:140C5000222049F40E946E2D86E08093C400789401E010E0BA
:140C64005ED2299A81E0809339010E9469298F7E0E946E2961
:140C7800089520903901222011F4479A469A2090C00025FE46
:140C8C00FCCF0093C60008950E946929877F0E946E298B7F16
:140CA0000E946E290E94302C0DE0E7DF20900001822D8870FE
:140CB400883021F0822D84708430B1F720903901222011F433
:140CC8004798469801E010E028C22090C00027FC02C021E04A
:140CDC0001C022271B9902C001E001C00027222E202289F7A9
:140CF0001B9B03C00027112703C00091C600112708950E9487
:140D0400152344275527E3DFA02E1A014F5F5F4F87E895E0D1
:140D1800F101E80FF91FA0821B9BF3CF2A9A87E895E0FA0189
:140D2C000E94CD2E8A010C941A230E94E42C0AC00E946929FE
:140D4000877F0E946E290E94B42E97DF4F5F5F4F4C155D0547
:140D54009CF30C9436232090C80025FEFCCF0093CE00112704
:140D680008950E94E42C05C00E94B42EF2DF4F5F5F4F4C1551
:140D7C005D05C4F30C9436238CEC81B98DE382B986EB84B946
:140D900085EE85B980ED87B98CE288B98AE18AB98AE68BB9E0
:140DA400089582E080936E00222425BA84BD85E085BD88EB3B
:140DB80086BD88E487BD88BD23BC08950E94AF2C0E94322EF4
:140DCC0081F0843071F0843161F0853151F0863141F08731F0
:140DE00031F0873021F0863011F0853029F48091CA058530F8
:140DF40009F035C000300107C1F00E94EB2A2016310608F4F4
:140E08002CC00E94692992600E946E290E94462B0E94692944
:140E1C0090610E946E298D7F0E946E290E94032B1AC00E9407
:140E300069299D7F0E946E290E942E2A80912A01823039F4B2
:140E44000E948E2A0E948E2A2224209250010E9469299F7E4C
:140E58000E946E2982B18C6082B90E94352A59F0833049F0BD
:140E6C00863039F0853029F0883119F0873009F040C0003023
:140E8000010791F00E94692992600E946E290E94462B0E94C1
:140E9400692990610E946E298D7F0E946E290E94032B2BC08E
:140EA8000E9469299D7F0E946E290E942E2A809150018130A0
:140EBC0039F40E948E2A0E948E2A2224209250010E946929C4
:140ED0009F7E0E946E2982B18C6082B90E9469299F7B0E946E
:140EE4006E29222420920C0180912A01853029F00E94692920
:140EF80091600E946E2910938B0000938A0010933501009305
:140F0C0034015991499108950A921A920E943A2A0E94A02D7E
:140F200080912A018831F1F48091C1059091C2058039E1E0AA
:140F34009E0710F40E94DC2D0E94552B19F4332009F4D8C03E
:140F4800C10101970E94F52B8030890709F0D0C00E9469297C
:140F5C0081600E946E29CAC08091C1059091C2058039E1E0A4
:140F70009E0710F40E94DC2D8091CC029091CD020196909390
:140F8400CD028093CC028CE39EE22090CC023090CD02821516
:140F98009305E0F4222433243092CD022092CC028091C9024F
:140FAC008F5F8093C9028BE32090C902821560F42224209299
:140FC000C9028091CA029091CB0201969093CB028093CA0221
:140FD4000E94552B11F4332061F0C10101970E94F52B803072
:140FE800890729F40E94692981600E946E292090BD053090C8
:140FFC00BE05222011F43320F1F0C10101979093BE05809350
:14101000BD0580308907A9F40E94692982600E946E290E943C
:141024000F2E839620903401309035012816390630F481E085
:1410380080931A0100271127C1DE2090BB053090BC05222045
:14104C0011F4332071F0C10101979093BC058093BB05803016
:14106000890729F40E94692984600E946E292090B905309050
:14107400BA05222011F4332061F0C10101970E948429803065
:14108800890729F40E948E2981600E9489292090B7053090ED
:14109C00B805222011F4332071F0C10101979093B80580933B
:1410B000B7058030890729F40E948E2980610E9489292090D5
:1410C400B5053090B605222011F4332099F0C1010197909343
:1410D800B6058093B5058030890751F40E94322E11F085303F
:1410EC0029F40E948E2991600E94892909900FBEF991E991CB
:14110000B9910E94542A1990099018950E94AF2C02C04F5F95
:141114005F4F40175107D8F35991499108950030010711F401
:1411280001E010E01093C0050093BF050E9469298E7F0E9440
:14113C006E298091000181708130D9F708952224209281006E
:1411500084E080936F0026BA209282008EEF8093850084E315
:141164008093840081E08093890080E7809388000E94F52E1C
:1411780081E0809387008CEC8093860081E2809380000895C4
:14118C00189518950E94032D8FB78A930E94FB2D019690933C
:1411A0004301809342018091440190914501883AE1E69E07B6
:1411B40028F40196909345018093440189918FBF0E94842DF8
:1411C8001895222427BA82E08093B0008093B1002092B200F2
:1411DC0084E28093B3002092B4002092B60023BC0895222443
:1411F0002092C60082E08093C00088ED8093C10086E080937C
:14120400C2002092C5008FEB8093C40008952A923A920A938A
:141218000E94032DFA932FB62A9220903901222009F06AC073
:14122C000E94302C0E9469298B7F0E946E290091C600209032
:141240004C01822D8F5F80934C0188EC91E00E94F92C008321
:141254000E94932B09F48EC020907505822D8F5F8093750587
:1412680087E895E00E94F92C008320903A01222009F42FC02B
:14127C000D3049F40E94692980610E946E2922240E94152B6E
:1412900073C0013181F481E080934E0122240E94152B809174
:1412A400C6019091C70101969093C7018093C60161C00331D5
:1412B80009F05EC0222420924E010E94152B8091C4019091EB
:1412CC00C50101969093C5018093C4014FC00D3049F40E94C5
:1412E000692980610E946E2922240E94612B44C00E94F12D16
:1412F40009F040C02224209275053CC00E94DC2C08F02CC0F1
:141308000E94302C0E9469298B7F0E946E298071803109F4BD
:14131C002DC00091C6000E94A02EC101019690937405809301
:14133000730583EF92E0F101E80FF91F00830D3049F40E94AD
:14134400692980610E946E2922240E94612B12C00E94F12DE3
:1413580079F40E94562C0CC00E94DC2C31F40E946929816040
:14136C000E946E2903C022242092750529902FBEF9910E942D
:14138000842D09913990299018958A939A938FB78A930E9490
:14139400692980620E946E2989918FBF9991899118958A9322
:1413A8009A938FB78A930E94692988600E946E2989918FBFE4
:1413BC0099918991189522242092CE002092C80088ED809364
:1413D000C90086E08093CA002092CD0087E08093CC0008959B
:1413E4002A928A939A93EA93FA932FB62A9280917605883000
:1413F80080F4282E8F5F8093760583EA95E00E94F92C209042
:14140C00CE0020824F9B03C081E080932F0129902FBEF991DB
:14142000E99199918991299018958A939A938FB78A930E9445
:14143400692980680E946E2989918FBF9991899118958A937B
:141448009A938FB78A930E94692980640E946E2989918FBF47
:14145C00999189911895222420927A0081E480937C0080E8BD
:1414700080BF20927B00209279002092780082E480937E00B0
:1414840020927A0008950E943A2AEA932FB62A928091E5056C
:14149800803408F05DC02090780033243092ED052092EC05A1
:1414AC00209079003324322C22244090EC055090ED0542280B
:1414C00053285092ED054092EC05C2018739E2E09E07E0F448
:1414D4001C01442455248090EA059090EB056090E80570901A
:1414E800E905620C731C841C951C7092E9056092E8059092C3
:1414FC00EB058092EA058091E5058F5F8093E5058091E5050A
:14151000803411F586E090E02091EA053091EB050091E80568
:141524001091E9058A930E941C221093E7050093E6052224D4
:141538002092E50580E08093E8058093E9058093EA0580938D
:14154C00EB050E94692998600E946E2929902FBEE9910E9474
:14156000542A18952A923A928A939A932FB62A920E94352AD8
:1415740041F0833031F0873021F08C3011F0853061F48091BE
:14158800C8059091C90501969093C9058093C8050E94AE2AB1
:14159C000FC0222433243092C9052092C80520905701222076
:1415B00019F00E94AE2A02C00E94FC2A29902FBE9991899130
:1415C4003990299018952A923A928A939A932FB62A920E94CF
:1415D800352A41F0833031F0873021F08C3011F0853061F40C
:1415EC008091C6059091C70501969093C7058093C6050E941C
:14160000AE2A0FC0222433243092C7052092C605209057017F
:14161400222019F00E94AE2A02C00E94FC2A29902FBE9991A3
:1416280089913990299018950A921A920E943A2A0E94A02DA8
:14163C00AA92BA9289B180768093B3052090B405382E8215B1
:1416500009F477C1A82EA22485FD28C08091250190912601CC
:1416640001960E94782D8091C8028F5F8093C80280911401C8
:141678009091150101969093150180931401809116019091E6
:14168C0017010196909317018093160180E390E00E94FF2B97
:1416A0008215930518F481E00E94782DA6FE76C02090B30511
:1416B40026FC2DC081E090E0A0E0B0E040901201509013015B
:1416C8002090100130901101280E391E4A1E5B1E3092110139
:1416DC002092100150921301409212012091C1053091C2055D
:1416F00005E010E00E94B92210930F0100930E010E940D2D63
:1417040081E090E00E94782D8093E00545C082E08093E00562
:1417180081E090E0A0E0B0E04090D8025090D9022090D602EF
:14172C003090D702280E391E4A1E5B1E3092D7022092D6027D
:141740005092D9024092D80281E090E0A0E0B0E00E94CD2CB0
:14175400280E391E4A1E5B1E3092CF022092CE025092D10249
:141768004092D00281E090E0A0E0B0E04090D4025090D5028B
:14177C002090D2023090D302280E391E4A1E5B1E3092D3023B
:141790002092D2025092D5024092D40280915B01813029F522
:1417A4000E94FF2B0E94892B43962816390631F082E390E0C3
:1417B8008215930508F0BDC082E080935B0100271127FCDA73
:1417CC000E94032B0E9469298D7F0E946E2981E180938100CA
:1417E00082B18C6082B982E080930B01A6C088EC90E0209020
:1417F4000E0130900F018215930528F080912701813009F0D8
:1418080098C080910A01813029F080912701813009F043C0A8
:14181C000E94FF2B0E94892B0B962816390631F082E390E082
:141830008215930508F035C000271127C3DA81E080930B010C
:1418440080912701813039F40E94B82D26FE03C081E0809397
:141858000B010E94032B0E9469298D7F0E946E299F7B0E946B
:14186C006E299F770E946E2920902A01822D843131F085316C
:1418800021F0863111F0873129F40E9469299D7F0E946E292D
:141894000E948E298D7F0E9489290E94AC2D80910A0182303E
:1418A80029F080912701813009F043C00E94A52E0E94892B62
:1418BC008096A816B90631F082E390E08A159B0508F035C063
:1418D0000027112777DA82E080930B0180912701813039F4BC
:1418E4000E94B82D26FC03C082E080930B010E94032B0E9491
:1418F80069298D7F0E946E299F7B0E946E299F770E946E2963
:14190C0020902A01822D843131F0853121F0863111F0873130
:1419200029F40E9469299D7F0E946E290E948E298D7F0E9406
:1419340089290E94AC2D2090B3052092B405B990A990099084
:141948000FBEF991E991B9910E94542A1990099018950EE073
:14195C000E943D0600912A010E94B12978D303E10E943D0646
:1419700000910C010E943D060C944A06F89402DA12DAE3DBDE
:1419840022DC33DC1CDD6BDD82E080936E0084E080936F0038
:1419980082E08093700081E080936B0080936C002224209200
:1419AC006D0080EE809373002DBA209269008BE080936800DE
:1419C00025BE20926400789408954A93402F89E0841708F425
:1419D40049E00FE00E943D06042F0E94B1290FE010E09DDBFC
:1419E800499108950E946929807098708030E8E09E0709F032
:1419FC0042C086B181708130C1F4809123019091240181301B
:141A1000E0E09E0729F0169A09E110E082DB169881E00E94AC
:141A2400D62D0E94202B0E9469299B7F0E946E2921C00E94B4
:141A3800C82C8031E2E09E0760F480308907C1F082E00E9445
:141A4C00D62D0E94692994600E946E290FC0222433243092F4
:141A600005012092040130922401209223010E9469299460D0
:141A74000E946E290E946929977F0E946E2908950E941D2323
:141A88002C9780ED97E00E94452C30F4222433240E94562DAA
:141A9C000E94252B80910401909105018F3FE0E09E0711F4CF
:141AB0009DDFCAC089E393E02090E6053090E70582159305C7
:141AC40058F4169A09E110E02ADB16980E94202B22242092A0
:141AD8005E01B6C00E941E2E80E192E048165906C8F085E684
:141AEC0084159505A8F081E080935E010E948E298F7D0E9441
:141B0000892980915D01813009F09EC062D3222420925D011D
:141B140004E610E004DB96C00E94C82C8031A2E09A0708F04C
:141B28008FC00E946929807098708030A8E09A0709F086C016
:141B3C000E94C82C8030A2E09A0708F07AC00E94EB2A609152
:141B50001B0170911C016219730940E051E08B010E945F244E
:141B64000E94C72A0E94EB2E8A010E945F240E9464290E949E
:141B7800C52B0E94C72A8B01009510950F5F1F4F0E945F240F
:141B8C000E94F12900E70E94782E0E94FE2C0E94F1290E9430
:141BA000A92A8A010E945F240E9464290E94C52B0E94F12931
:141BB4000E94A92A0E94BD2A0E945F240E9464290E949E2A61
:141BC8000E94F1290E94C82C8030E1E09E0730F480E091E0AC
:141BDC009093E7058093E6050091E6051091E7050E945D24BC
:141BF0000E94062A0E944B2BCE0108960E94FE2C0E94062AEC
:141C04000E944B2BCE019A938A930E9411240E94062A0E9450
:141C18004B2B0E943324A80180915E01813059F400300107FA
:141C2C0011F441E050E08A010E94E20681E080935D010E94C5
:141C40006929977F0E946E290E94F62D39F40E94202B0E942E
:141C540069298D7F0E946E290E941E2E87E692E0481659061B
:141C680008F43DC0C2018F32E3E09E0708F037C080915F0123
:141C7C009091600101969093600180935F018091020180723E
:141C90008032A1F080ED97E00E947D2D78F40E948E29806226
:141CA4000E9489290E945D2C0E94172AE8D302E310E035DA2B
:141CB8000E945D2C80E69AEE0E947D2D80F402D4169A04E1D4
:141CCC0010E029DA169806E910E025DA0E948E298F7D0E947E
:141CE00089290E945D2C2C960C9420234A930E9409060E943E
:141CF40069298F7E0E946E2920903A01222019F449E20E94FD
:141D0800452D209173053091740503EF12E00E949B060E9429
:141D1C00562C4991089584E690E00E94F52B0E94932B29F0A5
:141D30000E94552BD1F73320C1F702E010E0F1D90E94260640
:141D44000E94362D30F4232D332707E815E00E949B0622244B
:141D58002092750502E010E00C9491084A930E94090649E287
:141D6C000E9469298F7E0E946E290E94452DB8DF0E944A064C
:141D800081E08093390180934D010E9409062224209275051D
:141D9400809175058130E0F3409187052224209275050E94BB
:141DA8002606042F0E943D063199FECF12C01B9910C0209046
:141DBC004E01222061F00E9426062A981B9BFECF2A9A0E94B8
:141DD000842B8CDF0E944A06A4DF319BECCF0E94842B222452
:141DE40020924D010E9409060E94842B0C94000049910895D2
:141DF8000E942523619721E60E94732A0030010709F057C067
:141E0C0020903A01222049F541E050E080918905843209F0B8
:141E2000442780918A05853511F04427552780918B058A3A9C
:141E340011F04427552780918C05833311F044275527809161
:141E48008D05863611F04427552780918E058C3C0E94CA2D4B
:141E5C0009F4F3C00C940038F0C041E050E08091F50284322B
:141E700009F044278091F602843411F0442755278091F70247
:141E8400893411F0442755278091F802833511F044275527FA
:141E98008091F902803511F0442755278091FA028C340E941E
:141EAC00CA2D09F059DF222420923A01C6C024E60E94732AF8
:141EC00000300107F9F48BE391E0FE0101E110E0FA93EA932F
:141ED4009A938A930E94A823442755272224298ABA014F5FFA
:141EE8005F4FCE01FB01E80FF91F00810E943D0681E190E026
:141EFC00481759078CF3A1C027E631E002EE15E00E94E52980
:141F100069F4ECDE0E944A0604DF80918805863409F091C01F
:141F240081E080933A018DC02AE631E002EE15E00E94E529F7
:141F380069F4D8DE0E944A06F0DE80918805823509F07DC037
:141F4C0081E080933A0179C02DE631E002EE15E00E94E529E0
:141F600069F4C4DE0E944A06DCDE80918805833509F069C04A
:141F740081E080933A0165C020E731E002EE15E00E94E529D8
:141F880049F40E94260624E030E00AED15E00E946E2A55C0EB
:141F9C0023E731E002EE15E00E94E52921F50E9469298F7E2A
:141FB0000E946E290E94090605E30E94B12984E690E00E9453
:141FC400F52B0E94932B29F00E94552BD1F73320C1F70E94D9
:141FD800842B0E94362D30F40E945B2D05ED15E00E946E2AD2
:141FEC000E9426062AC026E731E002EE15E00E94E52919F568
:142000000E9469298F7E0E946E290E94090606E30E94B1293C
:1420140084E690E00E94F52B0E94932B29F00E94552BD1F7B9
:142028003320C1F70E94842B0E94362D30F40E945B2D00ED08
:14203C0015E00E946E2A0E9426060E94562C0E9469298F7E2E
:142050000E946E2961960C942A2327970E94E52B0BE00E9462
:14206400502B998388830E94AF2E8E010E5F1F4F0E94A52670
:1420780023E030E08E010E5F1F4F0E949B060E944A062796E5
:14208C0008954A9301E10E943D068091E105813011F443E02F
:1420A00001C044E0042F0E94B129499108950E941523222401
:1420B400209227010E944A2A0E945B2B0E94962E20921A01CD
:1420C80020902A01822D843131F0853121F0863111F087316D
:1420DC0029F40E9469290E94112A51F40E94352A39F08330A0
:1420F00029F0853019F0883109F029C00E94692992600E94A2
:142104006E290E94462B0E94692990610E946E292224332422
:142118000E94FD2940912A01443169F0453159F0463149F0B2
:14212C00473139F0453029F0483119F0463009F033C08FEF0E
:1421400080930A0181E090E00E9484292BC00E94692992603C
:142154000E946E29A090CC05B090CD050E94AF2E85010E9484
:14216800B92224E630E00E942A220E94732940910B014423FE
:14217C0011F04F3F11F40E94892D8FEF80930A0180912A018B
:14219000823041F462DF0E948E298F770E9489290E94842B0F
:1421A4000E94202D69F001E00E94B1290E94FA2B01E00E9438
:1421B800B1290E94FA2B01E00E94B1290E948E2980680E9432
:1421CC0089290C941A230E943B23289780EF8C8389E48D83B6
:1421E00082E08E8380E08F8380912A01823009F036C085E0C4
:1421F40090E00E94A52C8215930508F02EC00E94202B2224AC
:142208000E945B2B0E94782C25E030E00091320110913301A6
:14221C000E942A22A02E88E0801770F4BB2407C003E010E016
:142230000E949108C50101975C0188E090E08A159B05A4F3F6
:142244000E942E2A0E94E52B82B18C6082B90E94E52B8FEF50
:1422580080930A0131C080912A01853019F482B18C6082B90B
:14226C000E94352A31F0833021F0863011F0873009F50E946A
:14228000202BAA24BB240E94402D8931E0E09E0720F48AE0A6
:1422940090E05C0104C004E010E00E949108C50101965C01DC
:1422A8008AE090E0A816B90654F30E942E2A0E94E52B82B1A5
:1422BC008C6082B902E00E94B129222420920C010E94D62CE0
:1422D0008091E105813009F041C00E94192E0E949B2EC10142
:1422E4000B964816590608F437C0C10142964816590608F046
:1422F80031C080912A01853009F42CC00E94BD2A015F1F4FB0
:14230C000E94E20618C041E050E060E070E00E94A92A240ED3
:14232000351E461E571E0E94CF2B0E94C22A688079808A8068
:142334009B8026143704480459040CF408C00E94892B429666
:142348000E94FF2B2816390601F70E94172A0E94892D53C0F2
:14235C008091E105823009F043C00E94A52EC0905901D09049
:142370005A01C6010A96A816B90608F437C0C6018796A81685
:14238400B90608F031C080912A01853009F42CC00E94BD2A3A
:14239800015F1F4F0E94E20618C041E050E060E070E00E947E
:1423AC00A92A240E351E461E571E0E94CF2B0E94C22A6880DA
:1423C00079808A809B8026143704480459040CF408C00E9463
:1423D400892B87960E94FF2B2816390601F70E94172A0E945E
:1423E800892D0BC080912A01853039F08FEF80930A010E9408
:1423FC00EB2C0E94E30580912A01823081F00E948E29846090
:142410000E9489290E9469299F7B0E946E29222420920C01D8
:1424240091600E946E290E948E298F770E9489290E94692993
:142438009D7F0E946E299F7E0E946E2980912A01853011F4EF
:14244C000E94782C02E00E94B12948EE53E060E070E00E943D
:14246000CD2C421553056405750524F40E94F02A0E94E5047E
:14247400222433240E94962E28960C94422322240E945B2B20
:1424880083E020900B01282620920A0180912A018B3149F4E1
:14249C000E94BD2A0E94D22E8EE190E00E94842907C081E0AB
:1424B000809350010E94BD2A0E94D22E0E9469298D7F0E94A7
:1424C4006E290E943E2C089583E02090E10528262092E105E5
:1424D800222D06E210E00E941E03D5CD0E9415232797442761
:1424EC000BC087E895E00E94CC2A2080CE0102960E94CC2AF6
:1425000020824395453098F380912A01823009F044C084E6F8
:1425140090E020903201309033018215930514F40E94B82AB1
:142528008B81823381F42AE030E000913201109133010E9414
:14253C002622002331F40E948E2B0A970E94B82A05C00E9414
:142550008E2B05970E94B82A0E948E2B8530E0E09E0724F411
:1425640085E090E00E94B82A0E9469290E94112A81F42091D3
:14257800CC053091CD0500913201109133010E94B92224E6CB
:14258C0030E00E942A220E94732961DD34C00E94352A19F0C3
:1425A000833009F019C08091C30581508093C305843018F45D
:1425B40084E08093C3050E9498290E94CA2B0E94DF2B0E948C
:1425C8005F240E9464290E94C52B0E94E22A15C080912A01FC
:1425DC00853089F480914101815080934101813018F481E022
:1425F000809341010AE00E943D06009141010E94B1292796A7
:142604000C941A230E941523279744270BC087E895E00E9491
:14261800CC2A2080CE0102960E94CC2A20824395453098F39F
:14262C0080912A01823009F044C00E948E2B8530E0E09E073A
:1426400024F485E090E00E94B82A8B81823381F42AE030E0C5
:1426540000913201109133010E942622002331F40E948E2B4C
:142668000A960E94B82A05C00E948E2B05960E94B82A84E691
:14267C0090E020903201309033018215930514F40E94B82A48
:142690000E9469290E94112A81F42091CC053091CD0500910A
:1426A4003201109133010E94B92224E630E00E942A220E94F3
:1426B8007329CFDC38C00E94352A19F0833009F01BC080912D
:1426CC00C3058F5F8093C30580E12090C305821510F48093E2
:1426E000C3050E9498290E94CA2B0E94DF2B0E945F240E94B1
:1426F40064290E94C52B0E94E22A17C080912A01853099F4B0
:14270800809141018F5F8093410183E020904101821510F437
:14271C00809341010AE00E943D06009141010E94B129279679
:142730000C941A234A930E94F62D0E94A62D39F40E94172A91
:142744000E9469298D7F0E946E29499108950E940A23A0978B
:142758000E94642A0E94D72E0E94642A0E94E62E0E94642A80
:14276C000E94062A0E94642A0E94C72A0E94642A0E94F129D8
:14278000002411241D8A0C8AAA24BB2487E090E09F8B8E8BE8
:1427940088E0998F888F87E09B8F8A8F86E09D8F8C8F9F8F05
:1427A8008E8F84E07C0185E06C010E942C2D09F40BC380ED1A
:1427BC0097E00E94452C08F0FBC20E94692D3D8A2C8AA090E5
:1427D000C605B090C7050E94D12A222433240E94FD290E947A
:1427E400342B0E94562D209279010E94252B2C893D8989013A
:1427F8000E94142E0E94D72E950185010E94142E0E94E62E8C
:14280C000E943B2DCE0140969A938A930E9411240E94062A16
:142820000E94C22A0E94CA2B0E9464290E94822C84F481E027
:1428340090E09093520180935101222433243092B50120927E
:14284800B40182E30E943C2E33C0209051013090520122200C
:14285C0011F43320C1F00E940A2E8233E0E09E0790F481E086
:1428700090E00E94692E8215930520F4C10102970E943C2E01
:142884000E940A2E02969093B5018093B40182E390E02090A8
:14289800B4013090B5012816390650F0222433243092520192
:1428AC002092510130925401209253010E94C22A0E94642A39
:1428C0000E9464290E94822C61F50E94642A0E94C72A222426
:1428D400209279012090480130904901222041F4332031F4D2
:1428E8000E946E2E222011F4332041F180912A01833021F5CD
:1428FC000E94402D8232E0E09E0720F408E210E00E94B60555
:14291000222433240E947D2E309247012092460111C00E9453
:142924004B2B0E94F1270E94C72A80912A01833039F40E941E
:142938008E299E7F0E9489290E94372C0E94EB2E0E94642A73
:14294C000E9464290E94822C19F4AA24BB2403C081E090E0AA
:142960005C01CE01049608E611E00E9473239A938A930E949A
:1429740025262CF40E94692E0E94872E04C0222433240E9451
:14298800872E8091C305843009F01DC085010E945D24180161
:14299C00290104E611E00E94732338014901488559856A85CD
:1429B0007B850091C30511270E945F240E9464290E94DA2989
:1429C4000E891F890E943129FEC08091C305853009F01DC0A2
:1429D80085010E945D241801290104E611E00E9473233801B3
:1429EC004901488559856A857B850091C30511270E945F243D
:142A00000E9464290E94DA29088D198D0E943129DCC080910A
:142A1400C305863009F01DC085010E945D241801290104E684
:142A280011E00E94732338014901488559856A857B850091C3
:142A3C00C30511270E945F240E9464290E94DA290A8D1B8D4E
:142A50000E943129BAC08091C305873009F01DC085010E946E
:142A64005D241801290104E611E00E94732338014901488537
:142A780059856A857B850091C30511270E945F240E94642998
:142A8C000E94DA290C8D1D8D0E94312998C08091C305883069
:142AA00009F01DC085010E945D241801290104E611E00E94E3
:142AB400732338014901488559856A857B850091C3051127CA
:142AC8000E945F240E9464290E94DA290E8D1F8D0E943129BE
:142ADC0076C08091C305893009F01CC085010E945D24180187
:142AF000290104E611E00E94732338014901488559856A8578
:142B04007B850091C30511270E945F240E9464290E94DA2933
:142B180087010E94312955C08091C3058A3009F01CC0850122
:142B2C000E945D241801290104E611E00E9473233801490199
:142B4000488559856A857B850091C30511270E945F240E948F
:142B540064290E94DA2986010E94312934C085010E945D241B
:142B68001801290104E611E00E9473233801490148855985D5
:142B7C006A857B850091C30511270E945F240E9464290E94CF
:142B9000DA2900915301109154010E945D240E94642983017D
:142BA40094010E9429240E9493291801290100914A0110917B
:142BB8004B010E945D240E9464290E949E2A0E94F1290E94A3
:142BCC006E2E0E947D2E0E94692A0E94332410934701009360
:142BE000460180E197E220904401309045018215930508F09E
:142BF40072C00E940F2E0A960E94692A0E94332480179107BF
:142C080008F038C0809118019091190101969093190180937C
:142C1C0018018A30A0E09A0709F02AC00E94BB2931F00E9484
:142C3000A52C222019F5332009F520900C012220E9F401E35E
:142C44000E94B1290E94642A0E94F1290E94BD2A0E94E20601
:142C58000E94B92C0E94E9100E948E2984600E9489290E9413
:142C6C00F52A20903001222019F00DE60E94AD060E94EB2A0A
:142C80000E94692A0E94E72D90F420900C01222071F42090BD
:142C9400C001222009F0169A81E080930C010E9469299160DA
:142CA8000E946E2914C00E94EB2A0E94692A0E94E22D68F412
:142CBC0020900C01222049F01698222420920C010E946929E5
:142CD00091600E946E290E94142D80912A01843079F40E94E4
:142CE400B6290E94692A0E94E22D40F40E94BD2A015F1F4F8C
:142CF8000E945F240E94F1290E94EB2A0E94692A0E94E72D45
:142D0C0020F40E94F22C0E94F1290091C2011091C3010E94C8
:142D20005D240E94642900E60E94782E04960E94FE2C180142
:142D340029010CE511E00E9473230E9464290E949E2A0E940C
:142D48002D26D4F4CE0104960E94CA2B0E941B2D9CF40E9440
:142D5C00402D8132E0E09E0738F420900C01222019F40E9404
:142D70002E2A02C00E94202B81E08093790103C0222420929F
:142D8400790120901A012220B9F420907901222099F40E946C
:142D98003E2B0E94A92A0E94642A0E9464290E94822C21F485
:142DAC000E94CA2B0E94F1290E94692A0E94EC2D80910A01B4
:142DC0008F3F19F0282E20920B018FEF80930A010E948E291F
:142DD4000E94D92B61F40E94E9100E948E2984600E948929C4
:142DE8000E94F52A9E7F0E948929A0960C9401234A935A93E1
:142DFC0044270E947F2B09F504E10E94502B0E94692D82153D
:142E1000930508F443958AE090E00E94822E8215930508F4EB
:142E24004E5F042F0E94B129222433240E94FD2982E390E004
:142E38000E9484290E948E298E7F0E9489295991499108951C
:142E4C004A9344270E947F2BF1F42090B30526FC01C041E08D
:142E600081E02090C802821508F442E00BE20E943D06042FC9
:142E74000E94B12922242092C80286E490E00E9484290E9441
:142E88008E298E7F0E9489294427499108950E9415230E94C0
:142E9C007F2B09F013C10E9469290E94112A09F00DC10E9431
:142EB0008E298E7F0E948929409106014423F9F0413009F460
:142EC40034C0423009F452C0433009F458C0443009F46BC061
:142ED800453009F471C0463009F48EC0473009F494C0483042
:142EEC0009F4B1C0493009F4B7C04A3009F4CEC0E5C00E942B
:142F00004A2A81E08093360108E511E00E9473231801290145
:142F14000091CC051091CD050E94062980ED97E00E948429D0
:142F28000E947E29CDC008E50E941D291801290100913601DF
:142F3C0011270E9406290E94EB2980E991E00E948429809188
:142F50003601843129F40E947E2981E0809336010E94BB29EA
:142F640009F0B0C08AE080930601ACC00E94C92988EE93E083
:142F78000E9484290E947E29A3C00E94172A84EF91E00E94E1
:142F8C0084290E94EB2988E020903601821530F40E947E297B
:142FA00081E08093360190C00E940B2A8DC00E94C92980EEFC
:142FB4009EE20E9484290E947E2984C004E511E00E9473239B
:142FC800180129010091CC051091CD050E94062980EE9EE21E
:142FDC000E9484290E94EB2984E020903601821530F40E9434
:142FF0007E2981E08093360167C00E940B2A64C00E94C929C5
:1430040080EE9EE20E9484290E947E295BC000E511E00E949F
:143018007323180129010091CC051091CD050E94062980EEB7
:14302C009EE20E9484290E94EB2984E020903601821530F405
:143040000E947E2983E1809336013EC00E940B2A3BC00E9413
:14305400C92980EE9EE20E9484290E947E2932C008E50E946F
:143068001D29180129010091360111270E9406290E942A2C02
:14307C0084EF91E00E948429209036012220F1F40E947E29B6
:1430900081E08093360118C00E94172A0E94E9100E949F2BBF
:1430A4002092060181E0809308010E94F02A0FE20E943D0650
:1430B800009108010E943D06009107010E94B1290C941A2393
:1430CC000E9415230E947F2B09F01DC10E9469290E94112AE2
:1430E00009F017C10E948E298E7F0E94892940910601442312
:1430F400F9F0413009F434C0423009F452C0433009F458C074
:14310800443009F46BC0453009F471C0463009F48EC047303C
:14311C0009F494C0483009F4B1C0493009F4B7C04A3009F404
:14313000CFC0EFC00E944A2A81E08093360108E511E00E940C
:143144007323180129010091CC051091CD050E94062980ED8B
:1431580097E00E9484290E947E29D7C008E50E941D291801CF
:14316C0029010091360111270E9406290E94EB2980E991E0C4
:143180000E94842980913601843129F40E947E2981E0809315
:1431940036010E94BB2909F0BAC08AE080930601B6C00E945B
:1431A800C92988EE93E00E9484290E947E29ADC00E94172A50
:1431BC0084EF91E00E9484290E94EB2988E020903601821530
:1431D00030F40E947E2981E0809336019AC00E940B2A97C04B
:1431E4000E94C92980EE9EE20E9484290E947E298EC004E586
:1431F80011E00E947323180129010091CC051091CD050E94E0
:14320C00062980EE9EE20E9484290E94EB2984E02090360141
:14322000821530F40E947E2981E08093360171C00E940B2AE3
:143234006EC00E94C92980EE9EE20E9484290E947E2965C019
:1432480000E511E00E947323180129010091CC051091CD054C
:14325C000E94062980EE9EE20E9484290E94EB2984E0209086
:143270003601821530F40E947E2983E18093360148C00E94B7
:143284000B2A45C00E94C92980EE9EE20E9484290E947E29E2
:143298003CC008E50E941D29180129010091360111270E946C
:1432AC0006290E942A2C84EF91E00E9484292090360122208B
:1432C00009F027C00E947E2981E08093360121C00E94172A62
:1432D4000E94BB2919F40E949F2B04C080E991E00E948429FA
:1432E8000E946D2B23E030E0082F11270E942A22009307018D
:1432FC000FE20E943D06009108010E943D06009107010E942E
:14331000B1290C941A230E9415230E947F2B09F01DC10E9453
:1433240069290E94112A09F017C10E948E298E7F0E9489299B
:14333800409106014423F9F0413009F434C0423009F452C076
:14334C00433009F458C0443009F46BC0453009F471C0463030
:1433600009F48EC0473009F494C0483009F4B1C0493009F4EA
:14337400B7C04A3009F4CFC0EFC00E944A2A81E08093360158
:1433880008E511E00E947323180129010091CC051091CD0503
:14339C000E94062980E991E00E9484290E947E29D7C008E556
:1433B0000E941D29180129010091360111270E9406290E946B
:1433C400EB2980E991E00E94842980913601843129F40E94FC
:1433D8007E2981E0809336010E94BB2909F0BAC08AE0809319
:1433EC000601B6C00E94C92988EE93E00E9484290E947E293B
:14340000ADC00E94172A84EF91E00E9484290E94EB2988E017
:1434140020903601821530F40E947E2981E0809336019AC0B4
:143428000E940B2A97C00E94C92980ED97E00E9484290E94F9
:14343C007E298EC004E511E00E947323180129010091CC05D0
:143450001091CD050E94062980ED97E00E9484290E94EB293B
:1434640084E020903601821530F40E947E2981E0809336015A
:1434780071C00E940B2A6EC00E94C92980ED97E00E94842943
:14348C000E947E2965C000E511E00E947323180129010091DC
:1434A000CC051091CD050E94062980ED97E00E9484290E942E
:1434B400EB2984E020903601821530F40E947E2983E180932A
:1434C800360148C00E940B2A45C00E94C92980E991E00E94C5
:1434DC0084290E947E293CC008E50E941D2918012901009141
:1434F000360111270E9406290E942A2C80E991E00E94842967
:1435040020903601222009F027C00E947E2981E080933601B6
:1435180021C00E94172A0E94BB2919F40E949F2B04C080E9AF
:14352C0091E00E9484290E946D2B2CE030E0082F11270E9464
:143540002A22009307010FE20E943D06009108010E943D063B
:14355400009107010E94B1290C941A230E9415230E947F2B4B
:1435680009F01DC10E9469290E94112A09F017C10E948E293D
:14357C008E7F0E948929409106014423F9F0413009F434C050
:14359000423009F452C0433009F458C0443009F46BC045300D
:1435A40009F471C0463009F48EC0473009F494C0483009F4E7
:1435B800B1C0493009F4B7C04A3009F4CFC0EFC00E944A2AD6
:1435CC0081E08093360108E511E00E94732318012901009156
:1435E000CC051091CD050E94062980ED97E00E9484290E94ED
:1435F4007E29D7C008E50E941D29180129010091360111276D
:143608000E9406290E94EB2980E991E00E94842980913601B6
:14361C00843129F40E947E2981E0809336010E94BB2909F055
:14363000BAC08AE080930601B6C00E94C92988EE93E00E94F3
:1436440084290E947E29ADC00E94172A84EF91E00E948429F9
:143658000E94EB2988E020903601821530F40E947E2981E0F4
:14366C00809336019AC00E940B2A97C00E94C92980EE9EE2F6
:143680000E9484290E947E298EC004E511E00E947323180125
:1436940029010091CC051091CD050E94062980EE9EE20E94C2
:1436A80084290E94EB2984E020903601821530F40E947E295C
:1436BC0081E08093360171C00E940B2A6EC00E94C92980EE17
:1436D0009EE20E9484290E947E2965C000E511E00E9473239B
:1436E400180129010091CC051091CD050E94062980EE9EE2FB
:1436F8000E9484290E94EB2984E020903601821530F40E9411
:14370C007E2983E18093360148C00E940B2A45C00E94C929DC
:1437200080EE9EE20E9484290E947E293CC008E50E941D293E
:14373400180129010091360111270E9406290E942A2C84EF02
:1437480091E00E94842920903601222009F027C00E947E295B
:14375C0081E08093360121C00E94172A0E94BB2919F40E94B5
:143770009F2B04C080E991E00E9484290E946D2B23E030E041
:14378400082F11270E942A22009307010FE20E943D060091D2
:1437980008010E943D06009107010E94B1290C941A230E949B
:1437AC0025234427552760EF75E58FE391E00E94EB2A821500
:1437C00093051CF460E07DE702C060E07DE78FE391E00E94BE
:1437D400EB2A821593052CF4809159018C5DA82E04C080917E
:1437E8005901865EA82E129A81E1809381000E94372C8FE3A0
:1437FC0091E00E94EB2A8215930524F481010E94E2060EC070
:143810000CE411E00E947323180129010E94F22C0E94642959
:143824000E9493290E94EC2D08E010E00E949108442755277D
:1438380006C04F5F5F4F6417750708F412C00E94192E2A2C56
:14384C0033244214530459F0C2018233E0E09E0730F40E9478
:14386000A52C222051F7332041F70E94BE2D0C942A230E9452
:14387400202D09F07FC00E9497020E94762B8BEA95E00091C2
:14388800410111270E945F240E941B2D44F422240E945B2BFD
:14389C0086DF222433240E94FD290E948E290E94D92BA1F4BA
:1438B00020901A01222081F41698222420920C010E9469299B
:1438C40091600E946E290E94E9100E948E299E7F0E94892961
:1438D80088E893E120904401309045018215930508F030C0E6
:1438EC008EE591E00E94AA2C8215930590F420900C012220BA
:1439000071F42090C001222009F0169A81E080930C010E94CF
:14391400692991600E946E2911C08091C4059091C5058E358A
:14392800E1E09E0748F41698222420920C010E946929916011
:14393C000E946E290E94FC2A30924501209244010E94692943
:143950000E94D92B89F420900C01222009F4169803E10E9410
:143964003D0600910C010E94B1290E9469299E7F0E946E2968
:1439780008950E9469290E94112A09F052C080E797E10E9401
:14398C00452C08F04CC00E94A52C30927B0120927A0122248E
:1439A0000E945B2B0E94562D0E942D2E8435E1E09E0780F436
:1439B40085E020907E01821558F40E942D2E01960E94372EED
:1439C8008C010E94E206222420927E0180917E018F5F8093CC
:1439DC007E0185EB90E020907A0130907B0182159305E8F406
:1439F0000E94FA2B20907C0130907D010E944C2D0E94B629F5
:143A04000E940A2B81010E94E2060E94F02A0E9418040E94AF
:143A1800F02A0E94E91088E191E00E94372E0E94092C089590
:143A2C0024978AE090E00E941C2A27E00AEE12E00E948804EA
:143A400008E20E943D0628E030E00AEE12E00E949B068AE0F4
:143A540090E00E94792A0E94880428E030E00AEE12E00E94D7
:143A68006E2A249608950E946E2C0E944C2C0C94E5042090CC
:143A7C005B012220B1F480910B01813091F481E080935B01D0
:143A9000809350010E94BD2A055010400E94E2060E946929D2
:143AA4008D7F0E946E290E943E2C0895649721E231E08E0182
:143AB8000E943C262AED32E08E0180D40DE20E943D0622E113
:143ACC0030E08E010E946E2A64960895222420925C0105E339
:143AE0000E94B1290E94FA2B06E30E943D060C944A06ABD551
:143AF40027974427AA24BB240E9469298F7E0E946E29222428
:143B080020927505209087052092CA05622D613008F4D7C10C
:143B1C0084E3821568F08CE790E0E22DE150FF27EE0FFF1FDB
:143B3000E80FF91F25903490F1010994613709F452C0C3C13F
:143B440080915C01816080935C01209088052092D505209035
:143B580089052092D60520908A052092D70520908B0520927F
:143B6C00D80522242092D9050E9469298F7E0E946E29A5C1B2
:143B800080915C01826080935C01209088052092D0052090FD
:143B940089052092D10520908A052092D20520908B0520924D
:143BA800D30522242092D4050E9469298F7E0E946E2987C19E
:143BBC000E946E2C0E94E50482C18CE080932A0182E390E06C
:143BD0000E9484297AC18BE180932A0182E390E00E94842989
:143BE40072C180E4809331016EC10E9469290E94112A09F1B7
:143BF8000E942C2DF1F40E94142D0E94FD290E94342B0E948B
:143C0C0057100E94372C0E948E298B7F0E94892980912A0145
:143C2000853009F02CC080910B01823019F40E94E30525C0AB
:143C34000E94BE2D22C00E9469290E94112A19F00E942C2DF8
:143C4800D1F00E948E2984600E9489298F770E9489290E941A
:143C5C00E9100E94352A21F0833011F0853011F40E94F52A1A
:143C700020903001222019F00DE60E94AD06169824C10E9497
:143C840057100E948E298B7F0E9489291CC10E94E9100E94F4
:143C98008E2984600E9489290E94352A29F0833019F085309E
:143CAC0009F00DC10E94F52A0AC186B18170813029F420900B
:143CC000880520922A0103C0222420922A01222420927A002E
:143CD40000E10E943D0600912A010E94B12980916C00816080
:143CE80080936C0080916B00816080936B0060912A016430BE
:143CFC0011F0633049F40E9498298FEF80930A012224332447
:143D10000E94FD2980912A01853009F0D6C081E080934F0193
:143D2400D2C080912A01853079F420904F01222059F02224CA
:143D380020924F0180910B01813009F4C2C082E080930B01A7
:143D4C008091C1008F770E94F02E8F7E8093C1000E944112F5
:143D60000E94F02A8091C10080610E94F02E80688093C10064
:143D74000E9469298F7E0E946E2904E110E00E949108A1C050
:143D88000E9466129EC00E9472129BC00E94041398C00E947B
:143D9C0026060E94932B09F092C091C020908E052092BC0139
:143DB00020908F052092BD01209090052092BE0180919105EE
:143DC40080538093BF01209092052092C00120909305209291
:143DD800C1010E94AA0375C00E948E2981600E9489290E9461
:143DEC00BF2B84E180932A016AC00E948E2981600E9489297E
:143E00000E94BF2B85E180932A015FC00E948E2981600E9483
:143E140089290E94BF2B86E180932A0154C00E948E29816069
:143E28000E9489290E94BF2B87E180932A0149C020908805BA
:143E3C0020920801209089052092070120900801222009F0CB
:143E50003CC022242092060138C088E180932A0180916C0047
:143E64008E7F80936C0080916B008E7F80936B002AC0DADD16
:143E780028C0F9DD26C018DE24C081E0809357010E94FC2A24
:143E8C000E94092C1CC02090880533240E94912C0E949B2E11
:143EA000322C22240E94912C2090890533244090590150906C
:143EB4005A014228532850925A01409259010E94370401C0B3
:143EC800D8DD642F4F5F87E895E0E62FFF270E94CD2E4530BF
:143EDC00B0F32796B9C34A936A9327974F9BFECF4091A3052E
:143EF00020903001222009F4A2C0443519F40E9441129DC064
:143F0400413311F450DC99C0433409F496C0423439F420908E
:143F1800C001222009F48FC0169A8DC0423611F4169889C0D5
:143F2C00463421F482E00E94B92E83C0463621F481E00E9430
:143F4000B92E7DC0473441F40E9457100E948E298B7F0E948B
:143F5400892973C04D36B1F40E94202D09F06DC00E94E9109C
:143F68000E948E2984600E9489290E94352A29F0833019F0DE
:143F7C00853009F05EC00E94F52A5BC04E3441F489B18074A4
:143F9000803409F054C00E94411251C04E3629F44E994DC0C1
:143FA4000E9441124AC04235C9F484E080932A01222420923C
:143FB8007A0000E10E943D0600912A010E94B1290E94782C37
:143FCC000E9498298FEF80930A01222433240E94FD292FC08E
:143FE000453609F02CC080917605823020F401E010E00E94A8
:143FF40091086091A405605385E0861708F01DC0673108F06C
:144008001AC06093C30580E1861710F48093C3050E948C2ED6
:14401C000E9498290E948C2E0CE611E05ED30E94DF2B47D4F6
:144030000E9464298101920167D40E94E22A4135A9F420908C
:144044003001222089F483E080932A010E94B92C06E00E94C8
:144058003D0601E30E94B12981E0809330010E94B92C30C095
:14406C004B3171F520903001222051F10E9469290E94112AE8
:1440800011F40E94E91083E080932A012224209230010CE2D4
:1440940011E00E94910800E10E943D0600912A010E94B129EE
:1440A8000CE211E00E94910806E00E943D0600E30E94B129C0
:1440BC000E948E2984600E9489298F770E948929222420920D
:1440D0002F0120927605042F0E94AD062796699149910895C9
:1440E4000E94BE0C82B18C6082B90E948E2984600E94892971
:1440F80086B18170813019F40E94512D03C0222420922A01C8
:14410C008AE08093C3050CE611E0E7D20E94DF2BD0D30E94CD
:14412000642981019201F0D30E94E22A0E94B92C0E942F051B
:144134000E944A040E94E5020E94F02A0E94AD0C0E944710EE
:144148000E94F02A0E94DB030E94F02A0E94A20481E08093AF
:14415C00E5058FEF90E090930501809304010E940D2D26E252
:1441700031E00AED12E080D50E94C70121E231E00AED15E082
:1441840079D51CC1319928C01B991FC00E9426062A981B9973
:1441980002C0319BFBCF2A9A81E090E00E94A02E8215930587
:1441AC0068F42090F3022092E2052090F4022092E3052224DF
:1441C0002092E4050E94FC0E0E94090603C02A9A0E940906BB
:1441D400222420927505F2C080913101803439F4082F0E94B6
:1441E800AD06222420923101E7C0222430907605231410F483
:1441FC0072DEE0C00E94932B11F475DCDBC00E9469290E9498
:14421000D92BE9F40E94352A21F0833011F0853071F40E9437
:14422400FA2B03E10E943D0600910C010E94B12920900C01C1
:1442380020920D0102C00E9447100E9469299E7F0E946E296D
:14424C00B9C040912A01413008F433C08BE1841708F42FC097
:1442600084EE90E0E42FE150FF27EE0FFF1FE80FF91F25901F
:144274003490F10109940E94A9132FC00E94420D2CC00E9417
:144288009A1329C00E94A91326C0EFDA24C00E944B1721C0B6
:14429C000E9466181EC00E948B191BC00E94B01A18C065DB6B
:1442B00016C00E94FC1613C00E94261710C00E9409062224F7
:1442C4000E94F52E33240E94FD2981E1809381000E946929D8
:1442D80090610E946E2986B18170813011F441E001C044277D
:1442EC004423D9F420905E012220B9F480910401909105014F
:144300008F3FE0E09E0711F40E94F60C86E080932A018FEEAC
:1443140080937A00169A0FE010E00E949108169829C0809196
:144328002A01863029F586B1817081300E94A62DF9F4222401
:14433C0020927A000E94512D00E10E943D0600912A010E94FD
:14435000B12980915E01813061F40E94202B169A0E94E52BBA
:14436400169808EC10E00E9491080E94172A222420925E013E
:1443780020905701222001F1809158018F5F8093580184E6C7
:14438C00209058018215B0F40E94D12A8091B2019091B301A3
:1443A00001968215930540F402E30E94B1290E94782C222422
:1443B400209257010E94FC2A20925801E3CE08950E94282ED2
:1443C8002D912223E9F7119721912D932223E1F70895E02F1B
:1443DC00F12FA22FB32F01911D91011B19F41123D1F700276E
:1443F000110B0895E02FF12FAA27BB270190002011F01196C5
:14440400FBCF0A2F1B2F0895888199818030980769F0B12F0F
:14441800A02FF32FE22F21912D93019729F02223D1F72D939E
:14442C000197E9F708950E94642908950F920990002021F030
:144440000E94732D0A94FACF0F9008956894DA92D12E04C058
:14445400E894DA92D12ED32617FF02C00E94232E37FF04C0AF
:14446800309520952F5F3F4F09D0D7FE02C00E94232ED990DE
:14447C000895689401C0E894EA92FA928A93EE24FF2480E19B
:14449000000F111FEE1CFF1CE216F30618F0E21AF30A03952A
:1444A4008A95A1F716F40E2D1F2D8991F990E9900895E89487
:1444B80001C0689429D0CC2408C0E89401C0689423D037FD22
:1444CC00E2D0B7FD47D077240E94732E39D0B1F03CD0A1F03A
:1444E000E8E20E94BE2C771C881C991CAA1CBB1C88169906AC
:1444F400AA06BB0628F0881A990AAA0ABB0A0395EA9569F7F6
:1445080016F40E94962C11C07A928A929A92AA92BA92CA9228
:14451C00EA930E94C32C8B859C85AD85BE85C32E0EF0CB26F7
:144530000895C7FCAED00E949B2CE991C990B990A9909990B2
:144544008990799024960895E02FE12BE22BE32B0895E82F00
:14455800E92BEA2BEB2B089580959095A095B0958F5F9F4FE3
:14456C00AF4FBF4F08950A921A928A939A93029FC001129FED
:14458000900D039F900D8C019991899119900990089588D043
:144594007A929BD051F177249ED019F48C019D0124C00A9299
:1445A8001A92089FB02CA12C289F902C812C189FA00C911CC3
:1445BC00871C099FA00C911C871C199F900C811C0A9F900C6E
:1445D000811C389F800C299F800C1A9F800C0B9F800C19905F
:1445E40009900B2D1A2D292D382D799065C00E94042C089553
:1445F8000E94042CE990F99008950E94042CE990F990499190
:14460C0059916991799108957A936A935A934A93FA92EA9233
:14462000DA92CA92BA92AA9208955A934A93BA92AA920895AA
:144634000E94462E08950E94A02C08954991599169917991EC
:1446480008950E94A02CBA92AA9208950E94462E6991799114
:14465C0008955A934A93DA92CA92BA92AA9208950E94042C24
:144670004991599108950E94A02CDA92CA92BA92AA9208957A
:144684000E94042C49915991699179910895009510952095FC
:1446980030950F5F1F4F2F4F3F4F08958A929A92AA92BA92F4
:1446AC00EA930E94C32C89859A85AB85BC8508950E949B2C48
:1446C000E991B990A9909990899024960895EE27E02BE12B25
:1446D400E22BE32B0895EE27E82BE92BEA2BEB2B0895EA9399
:1446E800FA930A92E02FF12FC895002D3196C895102D3196B4
:1446FC00C895202D3196C895302D0990F991E99108950F92A4
:144710000990002021F00E94BE2C0A94FACF0F900895C0DFFD
:14472400D4DF99F00E94732ED6DF69F00E94412E20F4880E39
:14473800991EAA1EBB1E880F991FAA1FBB1FC3DF99F70E944F
:14474C00962CB6CFAA93BA93EA93FA930A92AF81B885ED8107
:14476000FE810030010731F0C8950D92319601501040F7CF43
:144774000990F991E991B991A99124960895689401C0E89480
:14478800E6D17AD109F436C00E94B32B75D109F439C0842DBB
:14479C00952D8C199D09A9F062F49095809501964C2C5D2C3B
:1447B000883160F50E94732D0197E1F708C08831E8F4B5948F
:1447C400A794979487940197D1F766242EF0080D191D2A1DC6
:1447D8003B1D07C0801A910AA20AB30A0E94962C33231AF448
:1447EC0052DF80E8682E6ED101C09FD1BDD108950E94EA2B38
:14480000DEF745D1C9F380E83827F6CF0E94962C4C2C5D2C0C
:144814006E2C332372F73BDF80E8682EEACF0E94392BAFDFD2
:14482800E991F991229608950E94392BA8DFE991F9913983D6
:14483C0028831A930A9308950E94A32A9EDFE991F99124962C
:1448500008950E94A32A97DFE991F9913B832A83198308833C
:1448640008950E94642E19D1F1F05520C2F08FE14816A0F41B
:1448780087E14816B1F048F4419489EE481A03C00E94732DD6
:14488C004A94E1F70CC087E1481A0E94BE2C4A94E1F705C0C5
:1448A0003FE7232F132F032F03C0662009F0F1DE89916990F4
:1448B400599049900895689401C0E8942227332746F017FD6B
:1448C800209517FD309503C0689401C0E8940E94642E87E1B6
:1448DC00482E552466242EF033231AF4D4DE80E8682EF0D05D
:1448F000899169905990499008950E94392B1FD0E991F99149
:14490400229608950E94A32A18D0E991F991249608950E94F6
:14491800392B11D0E991F991398328831A930A9308950E9452
:14492C00A32A07D0E991F9913B832A831983088308950A9204
:144940001A922A923A9207D10E9464290E94EA2BA6D009F4FE
:1449540049C0E62CD52CC42CB32EA22E912E802E0E94052E50
:144968009AD079F16E244C185D0880E8481653060CF02DC004
:14497C000E94952D0CF42FC080E23324232E122E012E302FFC
:14499000222711270027269417940794379527950E94BE2C57
:1449A400001C111C221C331C28F0081819082A083B0804C097
:1449B800080C191C2A1C3B1C0AF001608A9561F783D0D4D03C
:1449CC00399029901990099008950E94502E6620B1F359DEF5
:1449E000F4CF0E94312DF1CF0E94052EF4CFB3D0AA93BA939B
:1449F40054D061F1E62CD52CC42CA22E912E802E00811181E6
:144A08002281338148D001F10E948E2D0CF50E94952D0CF17A
:144A1C0088E1782E88279927AA27BB27BB2EB695A7959795B9
:144A3000879527951795079520F4880D991DAA1DBB1D7A9446
:144A440091F73B2F2A2F192F082F40D0B991A9918FD0089504
:144A58000E94502EF9CF0E94312DF6CF0E94392BC2DFE9917C
:144A6C00F991229608950E94A32ABBDFE991F99124960895F3
:144A80000ED021F0662009F004DE98940895002329F4112395
:144A940019F4222309F433230895F7DF99F08A93632E80E857
:144AA8006822220F331F432E8FE7481A55248827580A26955F
:144ABC0030E8232B332789919894089544245524662408953B
:144AD000DEDF09F40895AA93BA93D2019A938A938EE790E0EF
:144AE400332339F00E94412EA817B907CCF41196F7CF80956D
:144AF800909501962223BAF0000F111F221FA817B90714F0FC
:144B0C001197F6CF0027112722273327899199912D01B9916A
:144B2000A991089533270FEF102F2FE7322F899199912D012A
:144B340002C0AA93BA93A9DF49F0D201A158BF4F2D01342DF7
:144B4800220F369527953629B991A99108954A925A926A925D
:144B5C007A928A929A92AA92BA92CA92DA92EA92FA928A937C
:144B70009A93089599918991F990E990D990C990B990A990DD
:144B84009990899079906990599049900895E1DFAA93BA9330
:144B980082DF39F10E94B32B7EDF19F10E948E2D24F50E947F
:144BAC00952D3CF1A29EB12DA02D919E912D802DA09E0E94A1
:144BC0004B2E829E0E944B2E929E900DA11DB31FA19E900DF4
:144BD400A11DB31F2B2F1A2F092F880F001F111F221F331FE9
:144BE80073DFB991A991C2DF08950FEF102F2FE78FE7482E66
:144BFC00F6CF0E94312DF3CF0E94392BC4DFE991F9912296B9
:144C100008950E94A32ABDDFE991F991249608950E94A32A1E
:144C2400B6DFE991F9913B832A83198308830895A6DD3323DB
:144C380032F029DF11F001E00895002708950FEF08950E94BE
:144C4C00392BF2DFE991F9912296002308950E94A32AEADF6B
:144C6000E991F99124960023089511DF21F00F9300E83027E0
:144C74000F9108950E94282EC89531960D920020D9F70895A7
:144C8800F6DCC02ED12E249705C08C2D9D2D0196C82ED92EC2
:144C9C000E945A2E4AD100300107A9F7AA24BB24EC2DFD2DF7
:144CB00080818D3239F481E090E0A82EB92E0E949A2D07C045
:144CC400EC2DFD2D80818B3211F40E949A2D0E94D62C27C0E2
:144CD8000E94A92A4AE050E060E070E05A924A923A922A9219
:144CEC00042F152F262F372F16DD0E94082DEC2DFD2D619084
:144D0000CE2EDF2E772488249924260C371C481C591C40E311
:144D140050E060E070E0241A350A460A570A0E94CF2B0E945F
:144D28005A2E00D10030010799F6AA2011F4BB2021F00E94FA
:144D3C00692AA9DC02C00E94692A24969DCC95DC422F532FCD
:144D5000A02EB12E22976A857B85CA2CDB2C4030E0E05E0768
:144D640054F46A30E0E07E0731F4409550954F5F5F4F0E9437
:144D7800622D79836883242F352F0C2D1D2DBFD00A2D1B2D69
:144D8C0022967ACC3A932A9364DCA02EB12E24974E855F852C
:144DA000CA2CDB2C80E090E0A0E0B0E00E94D42B2816390604
:144DB4004A065B066CF44A30A0E05A0749F40E94992A65DC9C
:144DC8000A871B872C873D870E94622D5B834A830E94D42BB0
:144DDC000E94912E0C2D1D2D46D00A2D1B2D24963FDC2296BD
:144DF00008953A932A930EDCA02EB12E2497CA886C894A2D78
:144E04005B2D0E94A62B57DB0E94F1290E94A92AE22CF32C0F
:144E180089E090E0821593052CF0822D805D0E94EF2B04C056
:144E2C008E2D895A0E94EF2B0E94A62B3EDB0E871F87288B9E
:144E4000398B0E94C32E0CF4DECF2E843F8448885988889418
:144E5400222032044204520409F0D3CF0E94C82E22240E941B
:144E6800D02D2496CADB229608953A932A93D4DBA02EB12E9F
:144E7C002597CD84DE8422242C82CA8229843A844B845C8459
:144E90000E94912E0A2D1B2DACDFA7D12596A9DB2296089597
:144EA4003A932A93B5DBA02EB12EEC846E854A2D5B2D0E942F
:144EB800BE2EE1DAC02ED12E89E090E0801791072CF08C2D75
:144ECC00805D0E94EF2B04C08C2D895A0E94EF2B0E94BE2E8F
:144EE000D0DA1B870A870E94C32E2CF30A841B84002009F7E2
:144EF4001120F9F60E94C82E0E94D02D80DB229608958ADB3E
:144F0800C22ED32EA02EB12E2397E984FA8422242A82E882F6
:144F1C002C2D3D2D0A2D1B2DBFDF61D1239666CB0E94142CA3
:144F30000470112708950E94142C00711127089578DAAA926E
:144F4400BA922897AE84BF840E94D42B01E812E0C8DB0E9418
:144F580064290E94992A7DDE51F422243324EA2DFB2D318224
:144F6C0020820DE712E0B9DB31C00E94D42B0E94CF2B2A803D
:144F80003B80220C331C3B822A82832D99278E579040EA2D40
:144F9400FB2D918380838EE78B832A803B80369427943B82A0
:144FA8002A820E94D42B01E812E099DB0E9464290E94992AC5
:144FBC004EDE34F40E94692A52DE0E94062A04C00E94A92A1D
:144FD0000E94DC2E0E944B2B2896B990A9902496089527DA71
:144FE4002C970E94252D7DDB0E9464290E94992A32DE54F4BE
:144FF80081E090E09093EF058093EE0501E912E06EDBCAC008
:14500C000E94252D6ADB0E9464290E94992A1FDE21F401E9C7
:1450200012E061DBBDC08C2F9D2F0296998388830E943B2D81
:1450340085DF0E94062A2A8020FE0CC00E944B2B0E941F2C99
:14504800ECDB0E94062A8A819B8101979B838A830DE812E0EA
:14505C0044DB0E94082D6C807D808E809F8009E812E03BDB3B
:145070000E946429062D172D282D392DEADB0E94992AF7DCCE
:145084000E94062A0DC005E812E02BDB0E941F2CE7DC0E9442
:14509800062A8A819B81CC979B838A838CE390E02A803B80DB
:1450AC008215930564F311C00E94C22A05E812E014DB0E949B
:1450C00064290E94992A20DC0E94062A8A819B81CC969B8375
:1450D4008A8384EC9FEF0E94E12E54F381E0888780E08987E5
:1450E8008A878B87222433244A805B8042145304BCF0242CA6
:1450FC00352C359427940E94252C2A9202DB0E94C72A0E94FA
:14511000C22A0E94252CDEDB0E9464290E94992AA8DC0E9439
:14512400062A1AC08A819B81809590958F5F9F4F95958795EA
:145138000E94252C8A93E7DA0E94C72A0E94C22A0E94252C7E
:14514C00C3DB0E9464290E94992AD8DB0E94062A22243324FB
:145160003B822A820DE812E0BEDA0E94082D0E943B2D0E94D0
:145174001F2CC1DB0E941F2C59DB0E94992A77DC0E94062A95
:145188008A819B8101969B838A8382E090E00E94E12E24F390
:14519C000E944B2B6096089552DA81E090E082179307E0F450
:1451B000402F512F622F732F640F751F6150704010C0E42F7E
:1451C400F52FA080E62FF72F2080E42FF52F2082E62FF72FA4
:1451D800A0824F5F5F4F615070404617570768F335CAAA9293
:1451EC00BA92A02EB12E0A2D1B2D0E94FA21202F312F0A2D94
:145200001B2DD0DFB990A9900895FFFF0E945F243A932A93D7
:145214001A930A93810192010E9409260E9433245801209054
:145228001B0130901C01A20CB31C85010E94E206089511E05E
:14523C000E947323180129010091CC051091CD050E945F24E9
:145250003A932A931A930A93810192010E94092608950E9451
:145264005D243A932A931A930A93830194010E9422243801A7
:14527800490100915501109156010E945D243A932A931A939F
:14528C000A93830194010E942924810192010E94092618016A
:1452A000290100914A0110914B010E945D243A932A931A93AD
:1452B4000A93810192010E942224088319832A833B8308951D
:1452C8003A932A931A930A930895809100019091010108958F
:1452DC0090930101809300010895580120901B0130901C01E6
:1452F000A20CB31C85010E94E2060895809106018F5F809367
:14530400060108959093BA058093B905089590930301809367
:145318000201089580910201909103010895810192010E9454
:14532C00092608950CE00E943D068AE090E09983888320911E
:14534000C30533278E010E5F1F4F0E94A52622E030E08E01BF
:145354000E5F1F4F0E949B060E944A0608950E943D060E9411
:145368004A06089520901B0130901C0108954090120150903B
:14537C00130120901001309011018894222032044204520446
:1453900008950091CE051091CF050E94E206089531E08E01CC
:1453A4000B5F1F4F0E94ED2158010030010708958A019B0118
:1453B8000E941026830194010E9409263801490108950E945D
:1453CC00ED215801003001070895809136018F5F8093360111
:1453E0000895088319832A833B83089531E08E010B5F1F4F75
:1453F4000E94ED2108953092C9052092C8053092C705209209
:14540800C60508950C831D832E833F83089580910601815000
:14541C00809306010895807092708030E2E09E0708950027F8
:1454300011270E94E20608959B838A834090D8025090D90279
:145444002090D6023090D7024882598291010AEE12E00E9470
:14545800C826089580E18093810082B1837F82B90895209003
:14546C002A01822D843008952A923A924A925A926A927A92A9
:145480008A929A920A931A932A933A938A939A93AA930895D8
:1454940080E080931001809311018093120180931301089571
:1454A800A9919991899139912991199109919990899079905F
:1454BC0069905990499039902990089508E711E00E947323EA
:1454D0000895088119812A813B8108950E949B060E944A06CF
:1454E400089531E002EE15E00E94ED2108959B838A834090D9
:1454F800D4025090D5022090D2023090D302488259829101C3
:14550C000AEE12E00E94C82627E00AEE12E00895442755279C
:1455200002C04F5F5F4F80E395E748175907C8F30895022D34
:14553400132D242D352D0895810192010E9422240895FA93AC
:14554800EA93EC2FFD2F32960895288039804A805B80089583
:14555C008091C4059091C50501969093C5058093C405089579
:145570009093330180933201089500911B0110911C010895E5
:145584002C803D804E805F800895088719872A873B87089521
:14559800E42FFF27E80FF91F08952090B0013090B101309285
:1455AC00B3012092B2012090C4053090C5053092B1012092A9
:1455C000B001089510932C0100932B0130932E0120932D0127
:1455D40008952090CE053090CF05089504E610E00E9491085D
:1455E8000895222433243092B6052092B50508952224332452
:1455FC003092C5052092C4050895222433243092BE05209223
:14561000BD0508954090CE055090CF05421853085092CD0567
:145624004092CC05089533243092BC052092BB05809175055B
:14563800815080937505089501E010E00E94E20608952090BB
:14564C001601309017013092C3012092C20122243324309201
:1456600017012092160108953092C5052092C4050895FA9387
:14567400EA93EA81FB81089582B18C6082B9139881E18093A7
:1456880081000895139881E18093810008950C811D812E81D8
:14569C003F8108950E943D068AE090E008952090BF0530900D
:1456B000C00522200895332430921501209214010895332458
:1456C4003092BC052092BB0508958AEE92E0FA01E80FF91F4C
:1456D8000895222420920601809108018F5F80930801089561
:1456EC001093AC050093AB053093AE052093AD05089580918A
:14570000020181708130089502E010E00E9491080895809198
:14571400590190915A010895809132019091330108958091C7
:1457280000018071803108956A2D862F8F5FA82E062F1127B0
:14573C000895222433243092BA052092B90508952C2C3324E2
:14575000442455240E851F85288939895A924A923A922A926A
:145764000895E62CD52CC42CB32EA22E912E802E0081118160
:1457780022813381089522242092080120920701089581014F
:14578C0092010E94842408950CE611E00E947323089528822D
:1457A00039824A825B8208952A843B844C845D840895807049
:1457B40091708030E1E09E070895180129010091C305112759
:1457C800089509E110E00E9491080895008111812281338114
:1457DC000895E42FF52F81934E2F5F2F08959093C00580932E
:1457F000BF0508950AE010E00E9491080895209025013090FC
:1458040026010895A990B990C990D990089580916B0081608E
:1458180080936B0080916C00816080936C0008958DE791E09F
:14582C00202E312E280E391EE22DF32DC895002D08958C2F1D
:145840009D2F04969A938A930895088519852A853B850895D0
:1458540080913601815080933601089584E090E09093BC0588
:145868008093BB05089588EE93E09093B6058093B50508958B
:14587C0086E990E09093BE058093BD0508952090420130902E
:14589000430182159305089580E08093D2028093D3028093B2
:1458A400D4028093D502089522243324309274052092730591
:1458B8000895222433243092600120925F010895A090CE05CD
:1458CC00B090CF05AB2CBB24A7FCB094A882089580E08093DD
:1458E000D6028093D7028093D8028093D902089505E010E0A3
:1458F4000E9491080895A090CE05B090CF05089581019201FF
:145908000E942D260895A0905901B0905A010895AB2CBB2481
:14591C00A7FCB094089530925A01209259010895082D192DB2
:145930002A2D3B2D0895B991A9919991899108957A936A9398
:145944005A934A930895209014013090150108952090C40537
:145958003090C50508954A935A93442755270895462F6F5F83
:14596C00042F1127089502E310E00E9491080895000F111F33
:14598000221F331F08958A939A93AA93BA9308958091E60576
:145994009091E70508954090D0025090D1022090CE023090C0
:1459A800CF02089580E0888389838A838B83089580917305C5
:1459BC00909174058038E2E09E0708950E942F2369015801CA
:1459D00044275527089583E02090E105282620920B0108959D
:1459E4000091CE051091CF050E945F240895E22DFF27E80FE8
:1459F800F91F08959A938A930E94022608958A939A93AA93AE
:145A0C00EA930895202E312E422E532E0895222433243092D2
:145A2000C2052092C1050895222433243092450120924401FA
:145A340008959A938A930E9425260895809102018078803829
:145A480008952C843D844E845F8405E912E0089580910201F6
:145A5C008470843008950027102F202F302F0895222430903A
:145A70007505231408950C851D852E853F8508958091C201B9
:145A84009091C3010895222420927505042F0E943D06089565
:145A98003092CF052092CE0508952090BC0120922A0108955B
:145AAC00309243012092420108950E94791D0E94260624E044
:145AC00030E008958DE2EC2DFD2D8193CE2EDF2E0895209009
:145AD400C8053090C9050895F89422242092C5000895359516
:145AE800279517950795089590932601809325010895209039
:145AFC005F0130906001821593050895E991A9919991899151
:145B100008952090E10520920B0108956E244C0C5D1C80E828
:145B240048165306089581E848168FEF580608958E2F9F2F4E
:145B38000196C82ED92E0895BA93EA93FA930FB60A920895D3
:145B4C0011F441E001C0442741300895222420920A01209230
:145B60005B0108950E940A232297AA24BB240895222420926E
:145B740027012090B305089582E080930B010E94E305089548
:145B88008093DA0282E38093DB02089501F041E050E081E085
:145B9C0088230895E42DF52D20820A2D1B2D089590E0909329
:145BB000240180932301089501969093C2058093C1050895F1
:145BC4000E9433240215130508950E94332420163106089505
:145BD8000E9433240E94E20608958091000184708430089542
:145BEC008091000182708230089580914201909143010895FC
:145C000020818A01085D1F4F0895099119912991399108958F
:145C14008091B4019091B501089580911B0190911C0108953A
:145C28000E94B9220E945D2408954090250150902601089591
:145C3C004090E6055090E7050895109500950F5F1F4F08957D
:145C5000A02FB12FE22FF32F089580917C0190917D010895F7
:145C640020902A01822D8330089590937D0180937C01089584
:145C7800909354018093530108953695279517950795089530
:145C8C00A990B990499159910895800D911DA31FB31F0895B5
:145CA0000FEF102F2FE73FE70895C02E4C2D81E080170895DE
:145CB400EC2DFD2D00811127089590935A01809359010895BB
:145CC8004A925A926A928A9308952090530130905401089594
:145CDC002090460130904701089588249924AA24BB24089565
:145CF00011E00E947323CE0108953092490120924801089567
:145D04002090C6053090C70508953092560120925501089529
:145D180006E910E00E949108089548825982222D332D0895CF
:145D2C00309219012092180108952090590130905A0108955D
:145D400020907305309074050895A0902501B09026010895F7
:145D5400262E6F5F022D11270895209132013091330108959F
:145D6800FA01EA0DFB1D008108958093E1050E94661208954F
:145D7C002E2D33270A851B850895362E615022242314089563
:145D9000442E552E415050400895E80FF91F222420820895B8
:145DA400025E1F4F0E94E20608950C871D872E873F870895A7
:145DB8002C823D824E825F8208952A803B802816390608959D
:145DCC00088B198B2A8B3B8B0895288439844A845B840895C1
:145DE0008093C1008091C100089520928B0020928A00089556
:00000001FF
