:040000000C94724AA0
:040014000C943F56B3
:040024000C94CF5514
:040034000C943155A2
:040040000C94D154F7
:040050000C940456B2
:040058000C9433567B
:14008C0074524A52825282525C52325256528252685262523A
:1400A00082528252825250523E5238522C52F651FC510252AE
:1400B40008520E5214521A52205226526E5282528252825286
:1400C8008252445282525A51605166516C51725178517E51BB
:1400DC0084518A51905196519C51A251A851AE51B451BA51B0
:1400F000C051C651CC51D251D851DE51E451EA51F0518252B7
:14010400825282528252795282525A51605166516C51725139
:1401180078517E5184518A51905196519C51A251A851AE51EB
:14012C00B451BA51C051C651CC51D251D851DE51E451EA517F
:14014000F0517167EB68EB68EB68EB68EB68EB68E767EB68FF
:14015400ED68BD67ED68EB686268ED68EB68EB680F68EB68E7
:14016800ED68ED68ED68ED68EB68EB68EB68ED687F68DF6AB1
:14017C002D6B726B6E69C36BE769C36B756B786B416BC36BDA
:140190009E6B7B6B816BC36BA769B469736D7C6D7F6D796D8A
:1401A400826D766DAF6D856D886D886D886D8D6DAD6D886D7F
:1401B8008D6D8D6D8D6D8D6D8D6D956D956D956D956DA96D33
:1401CC00AD6DAD6D8D6D906DA26E836E9E6E9E6E9E6E587007
:1401E0005870B36E58705870E66E58705870C46E58705870EC
:1401F4005870D56E587058705870086F156F226F5870587078
:140208005870F76E996F7A6F956F956F956F58705870AA6F0F
:14021C0058705870DD6F58705870BB6F587058705870CC6FA5
:14023000587058705870FF6F10702170587058705870EE6F2E
:14024400CBCACCD5D3D3E2C7A2E8BB78ECB35EECB260EDB1CB
:140258005DECB35EECB35EECB35EECB35EECB35EECB35EEC5B
:14026C00B35EECB35EEEB25EEEB25EEEB25EEEB25EEEB25E7A
:14028000EEB25EEEB25EEEB25EE9B15FECB35DEBB25CE9B2E7
:140294005DEEB25EEDB15DE9B971E9C492DDD8D5D4CFCEECC7
:1402A800BD7FECB260EBB15FECB564EDB868EFBB6FEDBA71CA
:1402BC00EDBA71EDBA71EDBA71EDBA71EDBA71EDBA71EDBAF7
:1402D00071EDBA71EDBA71EDBA71EDBA71EDBA71EDBA71ED2C
:1402E400BA71EDBA71EDBA71EFBA71EFBB6FECBA6EEDB96D51
:1402F800EDB465EEB260EDB15FEBB76BDFC3A0EBB25DEAB309
:14030C005EEDB96CF0C078F1C481F0C484F1C586F1C586F16E
:14032000C586F1C586F1C586F1C586F1C586F1C586F0C58617
:14033400F0C586F0C586F0C586F0C586F0C586F0C586F0C59E
:1403480086F1C586F0C586F1C586F2C484EEC282EDC07CEEE5
:14035C00BD6FEDB45EE9B25DEAB975ECB35EF1B96CEFC27F0F
:14037000F0C788F3CB91F2CB97F3CD97F3CD97F3CD97F3CDD2
:1403840097F3CD97F3CD97F3CD97F3CD97F4CD96F4CD96F4D0
:14039800CD96F4CD96F4CD96F4CD96F4CD96F4CD96F4CD96E4
:1403AC00F3CC95F4CD96F3CB96F2CA95F2C88DF0C380EDBBCB
:1403C00073EBB25DECB669EDB45FEEBE7CF1C588F1CD97F402
:1403D400D0A0F3D2A1F3D2A1F3D2A1F3D2A1F3D2A1F3D2A141
:1403E800F3D2A1F3D2A1F3D2A1F3D2A1F3D2A1F3D2A1F3D2D8
:1403FC00A1F3D2A1F3D2A1F3D2A1F3D2A1F2D1A3F3D2A0F5F4
:14041000D2A0F5D39EF4D29DF4CD99F2C78EEEC080ECB767C4
:14042400EBB666EAB564EFC17AF1C98FF3CE9AF4D29DF4D4C1
:140438009FF5D1A1F5D1A1F5D1A1F5D1A1F5D1A1F5D1A1F5B2
:14044C00D1A1F5D1A1F3D2A1F3D2A1F3D2A1F3D2A1F3D2A1C5
:14046000F3D2A1F3D2A1F3D2A1F5D1A1F3D2A0F2D2A1F4D25F
:14047400A4F3D2A0F2D09BF3CB91EFC383F0BB6BEBB469ED7F
:14048800B361EFBE74F1C586F2CA90F3CE94F4CC98F3CE969F
:14049C00F3CE96F3CE96F3CE96F3CE96F3CE96F3CE96F3CE81
:1404B00096F3CD97F3CD97F3CD97F3CD97F3CD97F3CD97F3A5
:1404C400CD97F3CD97F3CE96F3CE96F4CD96F4CD96F4CE94B7
:1404D800F1CA93F2C689EEC178ECB767EDB568EAB35EEAB7AA
:1404EC0067F4BD78EEC283F2C784F1C487F1C687F0C484F159
:14050000C586F2C687BFA276F1C487F1C786F1C687F1C58692
:14051400F1C586F1C586F1C586F1C586F1C586F1C586F1C5B5
:1405280086F0C586F1C586F1C586F1C487F1C586F1C383F2E5
:14053C00BF79EDB86FEAB261EAB565EDB35AEDB15FECB46562
:14055000EDBA6AF0B970F1BA71EDBA71F0BB72EEBC70CFA58E
:140564006A9C8663EDBA71EFBA71EFBB6FEDBA71EDBA71ED2C
:14057800BA71EDBA71EDBA71EDBA71EDBA71EDBA71EDBB6FB5
:14058C00EFBB6FEEBA6EEDBB6FEDBA71EDB96CEEB667E9B146
:1405A0005FEDB15DEEB468EBB060EAB35EEBB25CECB35EEE09
:1405B400B25EEDB15FECB35EEBB15FECB260AA895B8A7E6C2E
:1405C800EFB25CEDB15DE9B25DEBB25DEBB25DEBB25DEBB2A4
:1405DC005DEBB25DEBB25DEBB25DEBB25DEBB15FECB260ECE1
:1405F000B260EBB15FEBB060ECB260EFB35FEDB15DECB35DF9
:14060400DDD9DEEAE6EBF2F0F0F8F5F7FBF9F8F7F7F7F6F71F
:14061800FBFEF9FBFFFAFBF8F7F9A19F9E929090FDFAFCFE84
:14062C00FBFDFDFAFCFDFBFBFDFBFBFDFBFBFDFBFBFDFBFB10
:14064000FDFBFBFDFBFBFDFBFBFDFBFAFFFBFAFEFAF9FDFBFE
:14065400FBFDFBFBFDFBFBFBF9F9F7F5F4F3EEEFE1DEE0E68F
:14066800E5E7F3F1F1F9F5F4FAF9FBFCF9FBF3F3F9FAFAFA50
:14067C00FDFBFBFAF9FB8A8888B2B0B0DEDCDBFDFBFBFBFB5F
:14069000FBFDFBFBFDFBFBFDFBFBFDFBFBFDFBFBFDFBFBFDAC
:1406A400FBFBFDFBFBFBFBFBFDFBFBFCFAFAFCFAFAFDFBFBA2
:1406B800FDFBFBFAFAFAF5F5F5F2EEF3E1DFDFE7E3E9F4EE67
:1406CC00F3F5F6F4FEF9F8FBF8FAF6F3FCF8F6FCFDFBFBF4B6
:1406E000F0EF858585C1C0BCD0D0D0F9FBFCFFFBFAFDFBFB14
:1406F400FDFBFBFDFBFBFDFBFBFDFBFBFDFBFBFDFBFBFDFB48
:14070800FBFDFBFBFDFBFBFEFCFCFFFAFBFFFAFBFFFAFBFD2D
:14071C00F8F9F7F5F5F2F0F0E1DFDFE2E6E7EBEDEEF5F6F432
:14073000FDF8F9FDF8FAF4F3FCF5F3F9FCFBFDD0CBCD9A928C
:140744008BC1C3C4CCCACAFBFBFBFFFBFAFDFBFBFDFBFBFDA6
:14075800FBFBFDFBFBFDFBFBFDFBFBFDFBFBFDFBFBFEFCFCE2
:14076C00FDFBFBFCF9FBFCFAFAFDFBFBFDFBFBFBF9F9F7F5E7
:14078000F5F4EFF0E1DFDFECE8E7EAE9F2F9F5F4FBF8FAFAB5
:14079400F9FBF5F3F9F3F2FBFCF8FDBABABA9A9793C3C3C370
:1407A800C3C4C2FEFBFDFDFBFBFDFBFAFDFBFAFDFBFAFDFB3D
:1407BC00FAFDFBFAFDFBFAFDFBFAFDFBFAFEFAF9FDFBFBFD86
:1407D000FBFBFEFCFCFEFCFCFDFBFBFBF9F9F7F5F5F0F1EFA2
:1407E400E1DFDFEAE7E9EEEAEFF7F3F8FBF9F9FAF7F9F5F241
:1407F800FBF6F3FCFCFAFAA4A09F9B9999C3C1C0D3D4D2EEC2
:14080C00ECECFFFAFBFEFCFCFDFBFBFDFBFBFDFBFBFDFBFB4A
:14082000FDFBFBFDFBFBFDFBFBFDFBFBFDFBFBFDFBFBFDFB1A
:14083400FBFDFBFBFDFBFBFBF9F9F7F5F5F2F0F0E2E0E0EBA2
:14084800E9E9F0ECF1F5F2F4FBF9F9F8F7FBF3F2FBF6F3FC86
:14085C00FBF8FA908E8D8D8B8BB2B0B0D9D9D9D2D0D0FEFC44
:14087000FCFDFBFBFDFBFBFEFCFCFDFBFBFDFBFBFDFBFBFDC6
:14088400FBFBFDFBFBFDFBFBFDFBFBFDFBFBFDFBFBFDFBFBB8
:14089800FDFBFBFBF9F9F7F5F5F1EFEFE2E0E0EAE8E8F1ED82
:1408AC00F2F3F0F2FBF9F9F9F8FCF3F2FCF5F2FBE7E4E69A89
:1408C0009897A3A1A1DADADACECECEC2C2C2FDFBFBFDFBFBEC
:1408D400FDFBFBFDFBFBFDFBFBFDFBFBFDFBFBFDFBFBFDFB66
:1408E800FBFDFBFBFDFBFBFDFBFBFDFBFBFDFBFBFDFBFBFB54
:1408FC00F9F9F7F5F5F2F0F0E1DFDEEAE8E8F2EFF1F4F1F341
:14091000FBF8FAF8F7FBF3F2FCF6F4FACECBCDA3A1A0AEAC93
:14092400ACFCFAFAC4C4C4AEACACFDFBFBFDFBFBFDFBFBFDFB
:14093800FBFBFDFBFBFDFBFBFDFBFBFDFBFBFDFBFBFDFBFB03
:14094C00FDFBFBFDFBFBFDFBFBFDFBFBFDFBFBFBF9F9F7F5FF
:14096000F5F2F0F0E1DFDEEAE8E8F1EDF2F4F0F5FBF8FAF9D5
:14097400F8FCF3F2FBFAF6FBC7C5C5A9A7A6D6D4D4FDFBFBF8
:14098800BEBCBCA4A2A2FCF9FBFDFBFBFDFBFBFDFBFBFDFB7C
:14099C00FBFDFBFBFDFBFBFDFBFBFDFBFBFDFBFBFDFBFBFD9D
:1409B000FBFBFDFBFBFDFBFBFDFBFBFBF9F9F7F5F5F1EFEFC7
:1409C400E2E0DFEAE7E9EDECF0F2F1F5FAF7F9F9F8FAF6F365
:1409D800FCFBF8FAC5C3C3ABA9A8D1CFCEFDFBFBD3D1D1AE57
:1409EC00ACABFBF8FAFDFBFBFDFBFBFDFBFBFDFBFBFDFBFBF4
:140A0000FDFBFBFDFBFBFDFBFBFDFBFBFDFBFBFDFBFBFDFB38
:140A1400FBFDFBFBFDFBFBFBF9F9F6F4F4F2F0F0E1DFDFE6CB
:140A2800E5E7ECEAF0F1EFF5F9F6F8FCF9FBF7F5FBFCFAFAA5
:140A3C00C6C4C4AAA8A7D1CFCEFCF9FBD5D3D3AFADADF8F78E
:140A5000FBFEFCFCFDFBFBFDFBFBFDFBFBFDFBFBFDFBFBFDE5
:140A6400FBFBFDFBFBFDFBFBFDFBFBFCFAFAFDFBFBFDFBFBD9
:140A7800FDFBFBFBF9F9F6F4F4F2F0F0E1DFDFE4E3E5ECEAB9
:140A8C00F0F1EFF5FAF7F9FDFBFBF9F8FCFDFBFBC7C5C5A9DA
:140AA000A7A6D0CECEFEFBFDD4D2D2AFAFAFF7F6FAFDFBFB34
:140AB400FDFBFBFDFBFBFDFBFBFDFBFBFDFBFBFDFBFBFDFB84
:140AC800FBFDFBFBFDFBFBFCFAFAFDFBFBFDFBFBFDFBFBFB75
:140ADC00F9F9F6F4F4F2F0F0DDDBE1E3E1E7ECEAF0F0EDF687
:140AF000FAF7F9FDFCF8FDFAFCFDFBFBC5C5C5ADABAAD0CE42
:140B0400CEFBFCFAD2D2D2B1AFAEF6F4FAFDFBFBFDFBFBFED2
:140B1800FCFCFCFAFAFDFAFCFCF9FBFDFBFBFFFAFBFDFBFB24
:140B2C00FDFBFBFDFBFBFDFBFBFDFBFBFDFBFBFBF9F9F9F41C
:140B4000F5F2F0F0DBD9DFE3E1E7ECEAF0F1EFF5FBF8FAFD17
:140B5400FBFAFDFBFBFDFBFBC5C5C5B2B0AFD5D3D3FAFBF9E9
:140B6800C3C3C3B1AFAEF6F4FAFDFBFBFEFCFCFCFAFAFEFC6B
:140B7C00FCFCFAFAFDFAFCD4D2D2FCFAFAFCFAFAFDFBFBFD3E
:140B9000FBFBFCFAFAFDFBFBFDFBFBFBF9F9F6F4F4F1EFEFEB
:140BA400DAD8DEE3E0E9EBE8F1F2F1F5FBF9F9FDFBFAFDFB8E
:140BB800FBFDFBFBC6C6C6B5B3B2B8B6B6FBFCFACECECEB29E
:140BCC00B0AFF6F4FAFCFAFAFCFAFAFFFAFBFCFAFAFDFBFB1B
:140BE000E1DEE03D3A3CFDFAFCFCFAFAFDFBFBFCFAFAFCFAF3
:140BF400FAFCFAFAFCFAFAFBF9F9F6F4F4F2F0F0DAD8DEE105
:140C0800E0E9EBE9EFF3F2F4FBF9F9FDFBFBFDFBFAFDFBFBAE
:140C1C00C5C5C5B8B6B5A8A4A3DADBD9E3E1E1B3B1B0F7F530
:140C3000FBFDFBFBFCFAFAFFFAFBFDFBFBFBF9F97372742085
:140C44001F21B6B5B7FFFAFBFFFAFBFCFAFAFDFBFBFCFAFA7F
:140C5800FDFBFBFBF9F9F7F5F5F1EFEFDAD7E0E3E0E9EBE9E7
:140C6C00EFF6F3F5FBF9F9FDFBFBFDFBFAFDFBFBC5C5C5BAD9
:140C8000B8B7918D8CB8B6B5EFEDEDB2B0AFF8F6FCFDFBFB6D
:140C9400FDFBFBFEF9FAFDFBFBEFECEE2D2C2E2120226365FA
:140CA80066FCFAFAFCFAFAFDFBFBFDFBFBFDFBFBFDFBFBFA2C
:140CBC00F8F8F7F5F5F1EFEFDAD7E0E2DFE8EDECF0F7F5F5A0
:140CD000FBF9F9FDFBFBFDFBFBFEFCFCC5C6C4B9B7B69D999C
:140CE40098C4C2C1F4F2F2B1AFAEF6F4FAFCFAFAFDFBFBFC74
:140CF800FAFAFDFBFBA8A7A9201F211E20211E2021E2E0E049
:140D0C00FDFBFBFDFBFBFDFBFBFDFBFBFCFAFAFAF8F8F6F443
:140D2000F4F2F0F0D9D6DFE3E1E7EFEFEFF8F6F6FCFAFAFD22
:140D3400FBFAFDFBFBFDFBFBC5C6C4BBB9B89C9897C5C3C240
:140D4800F3F1F1B3B1B0F5F3F9FDFBFBFDFBFBFCFAFAFDFA00
:140D5C00FC3B3A3C1E20211D1F201E20218E8C8CFDFBFBFC27
:140D7000FAFAFDFBFBFDFBFBFCFAFAFAF8F8F6F4F4F1EEF00E
:140D8400DAD7E0E5E3E9F3F1F0F7F5F5FCFAFAFDFBFAFDFB8A
:140D9800FBFEFCFCC5C6C4B9B7B69D9998C5C3C2F3F1F1B242
:140DAC00B0AFF7F5FBFCFAFAFCFAFAFDFBFBC6C3C51F1E206F
:140DC0001E1F231E20211E20212E2E2EFAFAFAFDFBFBFCFAA0
:140DD400FAFDFBFBFDFBFBFAF8F8F6F4F4F1EEF0DBDADEE918
:140DE800E6E8F2F0F0F7F5F5FBF9F9FDFBFBFDFBFBFDFBFBB0
:140DFC00C5C5C5BAB8B79D9998C5C3C3F1F1F1B2B0B0FAF67D
:140E1000FBFCFAFAFDFAFCFCF9FB7271731F1E201D1F201ED3
:140E240020211F1E20201F21A8A7A9FBFAFCFCFAFAFCFAFAF3
:140E3800FDFBFBFAF8F8F7F4F6F1EEF0DFDCDEE9E7E7F2F0E7
:140E4C00F0F7F5F5FBF9F9FDFBFBFEFCFCFEFCFCC5C5C5B9ED
:140E6000B7B69D9998C5C3C3F1F1F1B1AFAFFAF6FBFDFBFB38
:140E7400FCFAFAE2DFE1221F21201F21393B3C1E20212E2DAC
:140E88002F201F21575658FDFAFCFCFAFAFDFBFBFCFAFAFB01
:140E9C00F9F9F7F4F6F2EFF1E1DFDFEAE8E8F2F0F0F7F5F591
:140EB000FBF9F9FDFBFBFDFBFBFDFBFBC5C5C5B9B7B69D99BD
:140EC40098C5C3C3F1F1F1B2B0B0FCF9FBFEF9FAFDFBFB8FEF
:140ED8008C8E4B484AC4C3C58D8C8E201F21C4C3C5A8A7A978
:140EEC002E2D2FD4D1D3FDFBFBFCFAFAFDFBFBFBF9F9F6F443
:140F0000F4F2EFF1E1DFDFEAE8E8F2F0F0F7F5F5FBF9F9FD21
:140F1400FBFBFDFBFBFDFBFBC5C5C5B9B7B69D9998C5C3C35F
:140F2800F1F1F1B2B0AFFDFAFCFFFAFBFCFAFAC6C4C4FCF9B7
:140F3C00FBFCF9FB8D8C8E212022C4C3C5FAF9FBECEBEDD3DB
:140F5000D1D1FDFBFBFDFBFBFDFBFBFBF9F9F6F4F4F1EEF078
:140F6400E1DFDFEAE8E8F3F1F1F8F6F6FBF9F9FDFBFBFCFA91
:140F7800FAFDFBFBC5C5C5B9B7B69D9998C6C4C4F1F1F1B262
:140F8C00B0AFFCFAFAFDFBFBFCFAFAFDFBFBFDFBFBFDFAFC46
:140FA0008C8B8D201F21C4C3C5FCF9FBFDFAFCFDFBFBFCFA21
:140FB400FAFDFBFBFDFBFBFAF8F8F7F5F5F1EFEFDFDCDEE82E
:140FC800E6E6F2F0F0F7F5F5FAF8F8FDFBFBFDFBFBFCF9FBD6
:140FDC00C5C5C5BAB8B79D9998C5C3C3F1F1F1B2B0AFFDFB94
:140FF000FBFDFBFBFDFBFBFCFAFAFCFAFAFCF9FB8E8D8F1F73
:141004001E20C4C3C5FDFBFBFBF9F9FDFBFBFCFAFAFCFAFA9B
:14101800FDFBFBFBF9F9F6F4F4F1EFEFE0DDDFE9E7E7F3F100
:14102C00F1F7F5F5FBF9F9FDFAFCFCF9FBFBF8FAC5C5C5BA18
:14104000B8B79D9998C5C3C3F1F1F1B2B0AFFDFBFBFDFBFB4A
:14105400FDFBFBFCFAFAFDFBFBFCF9FB8C8B8D201F21C4C337
:14106800C5FCFAFAFDFBFBFCFAFAFEFCFCFCFAFAFBF9F9FB0E
:14107C00F9F9F7F5F5F1EFEFDFDEE0EAE8E8F2F0F0F6F4F4B7
:14109000FBF9F9FCF9FBFAF6FBFBF7FCC5C4C6BAB8B79D9AE7
:1410A40096C5C3C3F3F1F1B1AFAEFCFAFAFCFAFAFCFAFAFCA8
:1410B800FAFAFDFBFBFDFAFC8D8C8E201F21C4C3C7FCFAFA05
:1410CC00FCFAFAFDFBFBFCFAFAFDFBFBFCFAFAFAF8F8F7F584
:1410E000F5F1EFEFDDDCDEE7E6E8EFEFEFF6F3F5F9F6F8FA60
:1410F400F6FBFCF8FDFCFAFAC5C5C5BCB9B59C9995C5C3C388
:14110800F3F1F1B2B0AFFCFAFAFCFAFAFCFAFAFCFAFAFDFB35
:14111C00FBFDFBFB8D8C8E201F21C6C3C5FCFAFAFCFAFAFCA0
:14113000FAFAFCFAFAFDFBFBFDFBFBFBF9F9F6F4F4F1EEF047
:14114400E1DFDFE9E6E8F0ECF1F5F1F6FAF8F8FDFBFBFDFBC3
:14115800FBFCF9FBC5C5C5BBB7B69D9998C6C4C4F3F1F1B27E
:14116C00B0AFFCFAFAFCFAFAFDFBFBFCFAFAFDFBFBFDFAFC67
:141180008D8C8E1F1E20C4C3C5FCFAFAFCFAFAFCFAFAFDFB43
:14119400FBFDFBFBFDFBFBFBF9F9F7F5F5F2EFF1E1DEE0E93E
:1411A800E6E8F2F0F0F7F5F5FAF7F9FDFAFCFDFBFBF9F5FAFA
:1411BC00C3C2C4BBB7B69D9998C5C3C3F3F1F1B2B0AFFDFBB7
:1411D000FBFDFBFBFCFAFAFDFBFBFCFAFAFCF9FB8D8C8E2192
:1411E4002022C4C3C5FDFBFBFDFBFBFCFAFAFDFBFBFDFBFBAD
:1411F800FDFBFBFBF9F9F7F5F5F1EEF0E2E0DFEAE8E7F1EE1A
:14120C00F0F7F4F6FBF8FAFCF9FBF9F5FBFAF6FBC4C3C5BC44
:14122000B8B79D9998C5C3C3F3F1F1B2B0AFFDFBFBFDFBFB66
:14123400FDFBFBFCFAFAFDFBFBFBFAFC8C8B8D201F21C4C354
:14124800C5FDFBFBFDFBFBFCFAFAFCFAFAFCFAFAFCFAFAFA2D
:14125C00F8F8F6F3F5F2EFF1DFDBE0E9E6E8F1EFEEF6F4F4E1
:14127000F7F3F8F9F5FBFAF6FCFCF9FBC6C6C6BCB8B79D9A0F
:1412840096C5C3C3F3F1F1B2B0AFFCF9FBFCFAFAFDFBFBFDBF
:14129800FBFBFCFAFAFDFAFC8D8C8E201F21C3C2C4FDFBFB26
:1412AC00FDFBFBFCFAFAFDFBFBFDFBFBFCF9FBFAF7F9F6F3A2
:1412C000F5F1EEF0DDDCDEE6E5E9EBE9EFF0EEF4F6F5F7F99B
:1412D400F9F9FBFAFCFCFAFAC5C5C5BBB8B49D9A96C6C4C4A2
:1412E800F3F1F1B2B0B0FDFAFCFCFAFAFDFBFBFCFAFAFDFB4D
:1412FC00FBFCFAFA8D8C8E201F21C6C3C5FCFAFAFCFAFAFCC2
:14131000FAFAFCFAFAFCF9FBFCF9FBFAF7F9F6F3F5F0EDEF71
:14132400D9D8DCE5E1E6EFECEEF6F3F5FAF7F9FCF9FBFDFB03
:14133800FBFCFAFAC5C5C5BCB9B59D9998C5C3C3F3F1F1B29D
:14134C00B0AFFDFAFCFCFAFAFCFAFAFCFAFAFCFAFAFDFBFB88
:14136000FAFAFAFDFBFBFCFAFAFDFBFBFDFBFBFCFAFAFCFADC
:14137400FAFCF9FBFCF9FBFAF7F9F5F2F4F0EDEFDDDBDBE681
:14138800E4E4EDEBEBF4F2F2F7F5F5FBF9F9FBF8FAFAF7F949
:14139C00C5C5C5BCB8B79C9897C5C3C3F3F1F1B2B0AFFBF9D3
:1413B000F9FCFAFAFBF9F9FBF9F9FBF9F9FBF9F9FCFAFAFBA1
:1413C400F9F9FBF9F9FCFAFAFBF9F9FBF9F9FAF7F9FAF7F998
:1413D800F9F6F8F7F4F6F3F0F2EDEAECD9D7D7E0DFE1ECE7A7
:1413EC00E9EDEEECF7F2F3F6F4F4F7F5F5F7F5F5C4C4C4B9BC
:14140000B7B69D9998C4C4C4F3F1F1B2B0AFF7F5F5F6F6F6A8
:14141400F8F6F6F8F6F6F8F6F6F8F6F6F8F6F6F8F6F6F8F67E
:14142800F6F7F5F5F7F4F6F8F5F7F6F3F5F7F4F6F6F3F5F384
:14143C00F0F2EFECEEE9E7E7D3D2D6DBDBDBE6E1E3EBE8EAC7
:14145000EEECECEEF0F0F3EDF2F2F0F0C4C2C2BCB8B79D99A7
:1414640098C5C3C3F4F2F2B4AFB0F2F0F0F2F0F0F2F0F0F23E
:14147800F0F0F2F0F0F2F0F0F2EFF1F2EFF1F2EFF1F2EFF194
:14148C00F2EFF1F2EFF1F1EEF0F1EEF0F1EEF0EEEBEDEAE7A4
:1414A000E9E5E3E3CACBC9D4D4D4DFDDDDE2E0DFE8E3E4E8F9
:1414B400E7EBEBE9E9EAE8E8C2C2C2BBB7B69C9897C5C3C357
:1414C800F3F1F1B1AFAEECEAEAEAEAEAEAEAEAEAEAEAECEA5D
:1414DC00EAEBE9E9EBE9E9EBE9E9EBE9E9ECEAEAEBE8EAEBB6
:1414F000E8EAEAE7E9EAE7E9E9E6E8E6E4E4E2E0E0DAD9DB0D
:14150400C4C3C5CDCBCAD3D3D3D6D6DCDFDDDDE0E1DFE2E029
:14151800DFE0E0E0BDBDBDBAB8B79B9A96C4C4C4F2F2F2B241
:14152C00B0AFE0E0E0E2E0E0E2E0E0E2E0E0E2E0E0E2E0E082
:14154000E2E0E0E2E0E0E2E0E0E1DFDFE1DFDFE1DFDFE2E012
:14155400E0E2E0E0E1DFDFDEDCDCDAD8D8D2D1D300D3C6C86B
:14156800E1D1CBE7D9C6F1E1C4FAE5C5FEE5C3FDE6C6FDE501
:14157C00C7FDE5C7FFE6C6FFE6C6FFE6C6FFE6C6FFE5C7FF95
:14159000E5C7FDE5C9FDE5C9FDE5C9FDE5C7FDE6C6FDE7C4A0
:1415A400FAE7C6F6E7C7F6E7C6F9E6C3FBE5C2FDE3C5FCE37D
:1415B800C9F0E0C9E5DBC9DBD3CCC9C4C5E8D0C4E1C2ABD0CE
:1415CC00B78FC8AD7BCBA974D1AC78CEAB79CEAA7ACEAA7A22
:1415E000CEAA7ACEAA7AD0AA7ACEAA7ACEAA7ACEAA7CCEAACF
:1415F4007CCEAA7CCEAA7ACEAB79CCAB79CCAC77CBAC79C7F9
:14160800AC7AC7AC7ACBAC77CEAB79D0A878CFAA7ED2B589E4
:14161C00D8BE99F1DCC1E6D9CBDEB88ED8AC71D9AE6FDDB2D5
:141630006FE2B36FE7B874E4B878E1B879E1B87AE1B87AE1F3
:14164400B87AE3B77AE1B879E1B879E1B879E1B879E1B879F2
:14165800E1B978E1B978DFB978DFBA76E1BA76E2BA79E3B979
:14166C0078E7B979E9B979E7B476E1AE70DBAD6DD9AD70DAE9
:14168000B47EF3D9B5DDAF75E2AE62EAB96DF3C278F7C47E3A
:14169400F9C884F3C683F1C585F0C685F1C585F0C685F1C51F
:1416A80085F0C683F1C683F0C683F1C683F0C683F0C683F061
:1416BC00C782F0C782F0C782F0C782F1C481F3C381F2C28085
:1416D000F4C280F7C381F6C17EEFBA71E3B067DEAE66DCB7C7
:1416E40083DEAE6EF0B96EF2C379F1C883F3CB91F2CA95F460
:1416F800CE94F6CE94F4CE94F6CD96F4CD96F6CD96F4CE946F
:14170C00F6CE94F4CE94F6CE94F4CE94F4CE94F4CF93F4CEFF
:1417200094F4CE94F4CE94F5CE97F7CF9AF6CE99F3CB96F317
:14173400CB91F5C98CF2C47DEDBB6FE9B463D9B071E0AF6BBD
:14174800F7C077F5C982F5CF8FF7D29EF3CF9FF7D29EF9D2D2
:14175C009EF7D29EF9D29EF7D29EF9D29EF7D39DF9D39DF774
:14177000D39DF9D39DF7D39DF9D29EF9D29EF9D29EF9D1A080
:14178400F9D1A0F3CE9CF3CE9CF5CF9FF8D3A1F5D39EF3CE37
:1417980094F2C887F6C57BECB661D6AC67E3B26EF9C47BF615
:1417AC00CA8AF4CE94F5D39DF4D49FF5D39EF7D29EF5D39E80
:1417C000F7D2A0F5D2A0F7D2A0F5D39EF7D29EF5D39EF7D2E0
:1417D4009EF5D39EF7D2A0F7D1A1F7D1A1F7D0A3F9D1A1FFEE
:1417E800D7A3FCD49FFBD19CF9D39DF3D39EF1CF99EFCA8E2F
:1417FC00F2C581F4BE69DCAF6BE3B169F1BD70F5C583F6CA78
:141810008FF5CD93F3CE96F3CE96F3CE96F3CD97F3CD97F33A
:14182400CD97F3CD97F3CE96F3CE96F3CE96F3CE96F3CD9742
:14183800F3CD97F4CC98F4CC98F4CB9AF6CC97F7CB90FBCFC7
:14184C0092FCCF96F5CC95F2CD95F2CE92F2C788F0BF79ED43
:14186000B764DBAE6AE5B567EFB863F6C073F8C47EF9C687B2
:14187400F5C387F1C586F1C586F1C586F2C687F1C586F1C53C
:1418880086F1C586F1C586F1C586F1C586F1C586F1C586F16D
:14189C00C487F1C487F1C487F3C585F7C77FF7C680F3C48780
:1418B000F2C48AF2C687F5C480F5BE73F1B96AE8B362D6ACB3
:1418C4006BD7AC69E1B066E7B56DE7B672E3B477E2B37BE3A9
:1418D800B77CE3B77AE3B77AE3B77AE3B77AE3B77AE3B77A51
:1418EC00E3B77AE4B87BE4B87BE4B87BE4B87BE4B87BE4B8C5
:141900007BE4B87BE5B97AE8B975E6B976E1B57FDEB47FE3F5
:14191400B77CE7B777EBB46FE7B16ADDAF68D0AD75C8A78092
:14192800CCA878CCAA74CDAE77CBAA7CD0AF82CCAB7ACEAA88
:14193C007ACDA979CDA979CDA979CEAA7ACEAA7ACEAA7ACDAD
:14195000A979CDA979CDA979CDA979CDA979CDA979CDA979C7
:14196400CDAA78D0AB77CEAA7AC9A980C6A780C8A97CCCAB59
:141978007AD2A978D1A975C9A876C6AD85FFE8D8FFF7DFFF8D
:14198C00FDDDFFFFE1FFFBDEFFF9DDFFFFE3FFFFE1FFFFE142
:1419A000FFFFE0FFFFE1FFFFE2FFFFE2FFFFE1FFFFE2FFFFF9
:1419B400E2FFFFE2FFFFE2FFFFE2FFFFE2FFFFE2FFFFE2FFFE
:1419C800FFDFFFFFE3FFFFE5FFFFE6FFFFE3FFFFE2FFFFE1E5
:1419DC00FFFDDFFFF7D7FAEBD1F0E6E6FDF0EEFFF4ECFFFE26
:1419F000F4FFF9F2FFFAF3FFFCF3FFFCF3FFFCF3FFFBF2FF64
:141A0400FBF2FFFDF4FFFDF4FFFDF4FFFDF3FFFDF3FFFDF344
:141A1800FFFDF3FFFDF3FFFDF3FFFEF1FFFEF1FFFEF0FFFD28
:141A2C00EFFFFCF2FFFDF0FFFFF1FFFEF0FFFAEEFFF5ECFD3E
:141A4000F4E7F0E9E0E5E1E7F4EDF4F9F4F6FEF9FBFAF6FBBC
:141A5400F9F5FAFBF8FAFDFAFCFBFAFCFCF9FBF9F8FAFDFAF3
:141A6800FCFCFBFDFEFBFDFAFAFAFCFAFAFAFAFAFCFAFAFACE
:141A7C00FAFAFCFAF9FAFBF9FCFAF9FFFDFCFFFAFAFFFAF9B9
:141A9000FEFBF7FEFEF8FFFEFAFEF9FAFAF5F7F1EFEFE8E8F1
:141AA400E8E4E3E5F2EFF1F8F5F7FBF8FAF9F8FCF7F3F8F830
:141AB800F5F7FDF8FAFDFAFCFDF8FAFAF8F8FDF8F9FDFBFB92
:141ACC00FFFAFBFDFBFAFFFBFAFDFBFAFFFBFAFDFBFAFFFC59
:141AE000F8FDFCF8FDFBFAFDFAFCFDFAFCFCF9FBFCFAFAFB56
:141AF400FBFBFBFAFCF9F7FDF3F3F9EDEEF2E6E7EBE7E7E7F1
:141B0800F0EEEEF5F3F3FAF7F9FDFCFEF5F4F6F7F4F6FEF88B
:141B1C00FDFEFBFDFEF9FBFAF7F9FDF8FAFDFAFCFFFAFBFD13
:141B3000FBFBFFFAFBFDFBFBFFFBFAFDFBFAFFFBFAFDFBFAF8
:141B4400FDFBFBFBFAFCFAFBFFFCFBFDFCFBFDFCFBFDFBFAE4
:141B5800FCF6F6FCF1F4F9EDF0F4E5E6EAEBE9E9F3EEEDF8AE
:141B6C00F3F2FCF7F8FAF8F8F4F4F4F7F6FAFAF6FCFAF9FD0C
:141B8000FFFBFFF7F6FAF9F5FAF9F8FCFEFBFDFBFAFCFDFABE
:141B9400FCFBFAFCFDFBFBFBFBFBFDFBFBFBFBFBFBFBFBF99E
:141BA800FBFCFBFAFCFDFBFBFFFAFBFFFBFCFDFBFBF9F9F986
:141BBC00F3F5F5EEF0F0E7E7E7EDE8E9F3EDEEF8F2F3FDF857
:141BD000F9F9F8FAF5F4F8F2F1F5FDFBFFFAF9FDFAF8FEF895
:141BE400F7FBF9F8FCF7F6FAFDFCFFFBFAFEFBFAFCFBFAFC5A
:141BF800FBFAFCFBFAFCFBFAFCFBFAFCFBFAFCF9FBFBFBFB3F
:141C0C00FBFDFBFBFFFAFBFFFBFCFFFBFAFBFAF6F5F7F1F040
:141C2000F1EDE7E8E6EBE8EAF2ECF1F8F3F5FBF7FCF7F6FFD7
:141C3400F3F2FCF3F1F7FEFAFFFFFDFFF9F5FAFFFEFFF9F61B
:141C4800F8FBF8FAFDFAFCFDFAFCFDFBFBFDFBFBFDFBFBFDE7
:141C5C00FBFBFDFBFBFDFBFBFDFBFBFBFCFAFBFCFAFDFBFAD1
:141C7000FFFBFAFFFBFCFFFBFAFDFBF3F7F8EEF0F2ECE7E81D
:141C8400E6E9E8EAF0ECF1F5F2F4FBF7FDF5F6FFF1F2FCF853
:141C9800F7FBFAF7F9FFFCFEFFFCFEF9F6F8F9F6F8FAF7F9B2
:141CAC00FBF8FAFDFBFBFDFBFBFDFBFBFDFBFBFDFBFBFDFB80
:141CC000FBFDFBFBFDFBFBFBFBFBFBFCFAFDFBFAFFFAFBFF68
:141CD400FBFCFFFBFAFCFBF1F9F8EEF0F2ECE7E8E6E7E9EA0D
:141CE800ECEEEFF5F3F3F8F7F9F5F8FDF1F3FBFAF9FBFCFAAF
:141CFC00FAFAF8F8FDFBFBCDCBCBFCFAFAF8F6F6FBF9F9FDDC
:141D1000FBFBFDFBFBFDFBFBFDFBFBFDFBFBFDFBFBFDFBFB17
:141D2400FDFBFBFBFBFBFBFBFBFDFBFBFFFAFBFFFAFCFFFA01
:141D3800FBFCFAF2F9F7EFF0F1EFE7E7E7E6E7EBEBECF0F4DD
:141D4C00F2F2FAF8F8F7F9FAF4F6F7F9F8FAFDFBFBFDFBFB19
:141D6000DEDCDCA19F9FF8F6F6FBF9F9FCFAFAFDFBFBFDFB4E
:141D7400FBFDFBFBFDFBFBFDFBFBFDFBFBFDFBFBFDFAFCFDB1
:141D8800FAFCFDFAFCFDFBFBFDFBFBFDF9FEFFFAFCFCF9F4A6
:141D9C00F7F7F1F2F0F0E7E6E8E5E5EBE9E8F1F5EDF7FDF68A
:141DB000FBFCFBF7F9F8F4FAFAFAFAF9FBFEFDFFB3B2B48FD3
:141DC4008E90F6F5F7FAF9FBF8F7F9FBFAFCFBFAFCFBFAFC62
:141DD800FBFAFCFBFAFCFBFAFCFBFAFCFDFAFCFDFAFCFDFA56
:141DEC00FCFDFBFBFBFBFBFBFAFEFDFAFCFAF8F7F7F5F4F262
:141E0000EEF3EAE6EBE4E3ECE9E8F1F4ECF7FDF5FCFFFCF805
:141E1400FCF9F4FEFCFBFCFBFDFAF9FB9F9EA08D8C8EFEFD7B
:141E2800FFF7F6F8F7F6F8FBFAFCFBFAFCFBFAFCFBFAFCFB1E
:141E3C00FAFCFBFAFCFBFAFCFDFAFCFDFAFCFDFAFCFCFAFAF1
:141E5000FDFBFBFBFAFCFDFAFCFAF8F7F7F5F5F2EEF3E8E73B
:141E6400EBE2E3E7E9E9EFF2F0F6FAF6FBFFFAFBFFFBFAFC6B
:141E7800FAF9FFFDFDFEFCFC8A8888B2AFB1DEDBDDF9F6F84B
:141E8C00FAF7F9FEFBFDFBF8FAFEFBFDFCF9FBFDFAFCFBF8A9
:141EA000FAFEFCFCFCFAFAFDFBFBFDFBFBFDFBFBFFFAFBFD84
:141EB400FBFBFDFBFBFBF9F9F6F4F4F0F0F0E8E8E8E2E3E732
:141EC800E9EAEEF2F1F5FBF7FCFFFAFCFFFAFBFEFCFCFDFBA8
:141EDC00FAEEECEC898787BEBBBDD2CFD1FDFAFCF6F3F5FD25
:141EF000FAFCFFFCFEFAF7F9FEFBFDFFFCFECAC7C91D1B1B69
:141F0400929090FBFCFAFDFBFAFDFBFBFFFAFBFFFAFBFFFA60
:141F1800FBFBF9F9F6F4F4EDF0EEE8E9E7E1E2E6E9EAEEF30F
:141F2C00F2F4FBF8FAFFFAFBFFFAFBFEFCFCFFFDFDD0CECE8B
:141F4000959393C5C2C4CBC8CAFDFAFCF8F5F7FFFCFEFBF867
:141F5400FAFCF9FBFCF9FBFCF9FBC4C1C3201E1E8F8D8DFB67
:141F6800FCFAFDFBFAFDFBFBFFFAFBFFFAFBFFFAFBFBF9F9C1
:141F7C00F6F4F4EDF0EEE8E9E7E1E2E6E9EAEEF3F2F4FBF8BA
:141F9000FAFDFBFBFFFAFBFCFAFAFDFBFBB9B7B7959393C9CE
:141FA400C6C8C5C2C4FAF7F9FBF8FAF7F4F6FFFEFFFEFBFDA6
:141FB800FDFAFCFFFCFEC9C6C82523238E8C8CFBFCFAFDFBD8
:141FCC00FAFDFBFBFFFAFBFFFAFBFFFAFBFBF9F9F6F4F4ED80
:141FE000F0EEE8E9E7E0E1E5EAEBEFF4F3F5FBF9F9FDFBFA32
:141FF400FFFBFAFAF8F8FFFEFEA7A5A59A9898C4C2C2D6D453
:14200800D4EEEBEDF9F6F8FEFBFDFDFAFCFBF8FAFEFBFDF97E
:14201C00F6F8C6C3C51C1A1A918F8FFBFCFAFDFBFAFDFBFB9F
:14203000FFFAFBFFFAFBFFFAFBFBF9F9F6F4F4EDF0EEE8E959
:14204400E7E3E2E6EBECF0F5F5F5FBF9F9FDFBFAFFFBFAFF7E
:14205800FDFDFBF9F98D8B8B8F8D8DB0AEAED9D7D7D4D1D336
:14206C00F9F6F8FBF8FAFDFAFCFEFBFDF8F5F7FFFCFEC5C23F
:14208000C4232121918F8FFBFCFAFDFBFAFDFBFBFFFAFBFFAB
:14209400FAFBFFFAFBFBF9F9F6F4F4EDF0EEE8E9E7E4E3E753
:1420A800EDEEF2F6F6F6FCFAFAFDFBFAFFFBFAFDFBFBE5E3E4
:1420BC00E39D9B9BA19F9FDEDCDCD3D1D1C1BEC0F4F1F3FF5A
:1420D000FDFFF9F6F8FFFCFEFEFBFDFAF7F9C9C6C81D1A1C96
:1420E4008F8D8DFBFCFAFDFBFAFDFBFBFFFAFBFFFAFCFFFA87
:1420F800FCFBF9F9F6F4F4EDF0EEE8E9E7E5E4E8EEF0F1F713
:14210C00F7F7FDFBFAFDFCF8FFFCFBFDFBFAD2D0D0A19F9FB5
:14212000AEACACFAF8F8C4C2C2B1AEB0F9F6F8FBF8FAFEFB97
:14213400FDFAF7F9FCF9FBFDFAFCC6C3C5221F218F8C8EFB79
:14214800FBFBFDFBFAFDFBFBFFFAFBFFFAFCFFFAFCFBF9F9DD
:14215C00F6F4F4EDF0EEE8E9E7E6E5E7EEF0F1F6F6F6FAF8B9
:14217000F7FEFDF9FFFCFBFEFCFBC5C3C3ACAAAAD2D0D0FBCD
:14218400F9F9BBB9B9A4A2A2FAF8F8FBF9F9FFFFFFF8F5F788
:14219800FBF8FAFDFAFCC8C5C7221F21908D8FF7F7F7FFFE0F
:1421AC00FEFBF9F9FBF6F7FFFEFFFCF7F9F9F7F7F6F4F4EDB2
:1421C000EFEFE8E8E8E7E6E8EEF0F1F6F6F6FAF8F7FEFDF932
:1421D400FFFBFAFCFAFAC7C5C5A8A6A6D2D0D0FEFCFCD3D1C2
:1421E800D1B2B0B0FAF8F8FFFDFDF8F6F6FEFBFDFFFEFFFC4B
:1421FC00F9FBC4C1C3201D1F8D8A8CFCFCFCF9F7F7FEFCFCC3
:14221000FFFDFEFEF9FBFFFAFCFBF9F9F8F6F6EEF0F0E8E86A
:14222400E8E7E6E8EFF1F2F6F6F6FAF8F8FEFCFBFFFBFAFE84
:14223800FCFCC4C1C3ADABABCFCDCDF9F7F7D3D1D1AFADAD81
:14224C00F9F7F7FBF9F9FFFDFDFCF9FBFBF8FAF8F5F7C9C661
:14226000C82421238E8B8DFEFEFEFBF9F9FCFAFAFCF7F8FDD5
:14227400F8FAFFFCFEF6F4F4F7F5F5EEF0F0E8E8E8E8E7E96E
:14228800EFF1F2F6F6F6FAF8F8FEFCFCFEF9FAFFFEFFC1BE42
:14229C00C0ABA9A9CECCCCF9F7F7D9D7D7B0AEAEFDFBFBFEA0
:1422B000FCFCFDFBFBD1CED0F1EEF0FFFEFFC3C0C225222445
:1422C4008E8B8DF7F7F7FEFCFCC6C4C4FFFBFCFFFBFDFDF855
:1422D800FAFFFDFDF6F4F4EEF0F0E8E8E8E7E7E7EEF0F0F622
:1422EC00F5F7FBF8FAFEFBFDFEF9FBFBF8FAC8C5C7ACAAAADC
:14230000D5D3D3F9F7F7D5D3D3B2B0B0FEFCFCFBF9F9FFFDFB
:14231400FDD3D1D12F2D2DAAA7A9C3C0C2201D1F8F8C8EC4B2
:14232800C4C44E4C4C8C8A8AFEF9FAFFFAFCFDF8FAF7F5F5DD
:14233C00F8F6F6EDEFEFE8E8E8E7E7E7EEF0F0F5F4F6FBF8D1
:14235000FAFEFBFDFEF9FBFAF7F9CBC8CAB2B0B0D2D0D0FFCD
:14236400FDFDC0BEBEB0AEAEFCFAFAFFFDFDFAF8F8FDFBFB5D
:14237800595757232022312E30221F213D3A3C2020201E1CA7
:14238C001CE5E3E3FBF6F7FFFAFCFEF9FBFDFBFBF7F5F5EDE6
:1423A000EFEFE7E7E7E7E7E7EEF0F0F5F4F6FAF7F9FEFAFF53
:1423B400FDF7FCFEFBFDC6C3C5B2B0B0B9B7B7FBF9F9CECC21
:1423C800CCB5B3B3FDFBFBFCFAFAFDFBFBFDFBFBA8A6A6223B
:1423DC001F211D1A1C242025221F211F1F1F787676FDFAFCDB
:1423F000FDF8FAFFFCFEFFFCFEFAF8F8F5F3F3EDEFEFE8E898
:14240400E8E6E8E8EEF0F0F5F4F6F8F7F9FDFAFCFCF7F9F8BA
:14241800F5F7CBC8CAB8B6B6A4A2A2D8D6D6E4E2E2B1AFAF20
:14242C00FDFBFBFCFAFAFFFDFDFAF8F8FFFDFD2E2D2F26230A
:1424400025201F21211E20232323C1BFBFFFFCFEFFFBFDFD0F
:14245400F8FAFFFBFDF8F6F6F7F7F7F0F0F0E8E8E8E4E6E68A
:14246800ECEEEFF4F4F4F6F6F6FBF9F8FBF9F8FAFAFAC7C785
:14247C00C7B5B5B58E8E8EB7B7B7EEEEEEB0B0B0F9F9F9F9D9
:14249000F9F9FAFAFAFEFEFEF7F7F78B8D8D2222221B1D1D19
:1424A4002222223D3B3BFEF9FAFFFCFEFBF6F8FCF9FBFDFA51
:1424B800FCFBFBFBF4F4F4F0F0F0E9E9E9E6E5E7EEEDF1F44A
:1424CC00F3F7F8F5F7FCFAF9FDFCF8FDFBFAC8C6C6B7B7B7E3
:1424E000999797C1C1C1F2F0F0B0B0B0FDFBFBFBFBFBFFFF1A
:1424F400FFF7F7F7FEFEFEE2E4E41C1C1C1F21211F1F1FAB8F
:14250800A9A9FEF9FAFDF8FAFFFCFEFEFBFDFDFAFCF8F8F8C3
:14251C00F7F7F7EFEFEFE8E8E8E7E5EBEFEDF3F5F1FCF9F5EB
:14253000FBFDFBFAFFFCF7FDF9F8C8C3C4B9B7B79F9A9BC7B9
:14254400C5C5F6F1F2B2B0B0FFFAFBFFFCFEF7F4F6FFFDFF45
:14255800FAF7F9F8F7F9696668201F21312E30F5F0F2FCF7AD
:14256C00F9FEF9FBFFFBFDFAF6FBFBF7FCF8F7F9F3F2F4EFF0
:14258000EFEFE7E7E7E8E6ECF0EDF6F8F2FDF9F4FDFDF8F968
:14259400FCF8F7FBF7F6C8C3C4B9B7B79D9899C4C2C2F6F1ED
:1425A800F2B2B0B0FEF9FAFDFAFCFBF8FAFDFAFCFEFBFDFE63
:1425BC00FBFDB7B4B61F1C1E716E70FAF7F9FFFCFEFFFCFE6E
:1425D000FFFAFCFCF8FDFBF7FCFCFBFDF2F1F3EFEFEFE9E7BC
:1425E400E7E6E5E9EFEDF3F6F1FAF7F2FBFBF5FAFBF5FAFCE4
:1425F800FAFAC8C6C6B7B7B79A9898C2C1C3F4F1F3B0AFB16A
:14260C00FDFAFCF9F8FAFCFBFDFDFCFEF8F7F9FBFAFCFFFE1B
:14262000FF3C3B3DE2DFE1FCF9FBFFFDFFFDF7FCFEF8FDFF84
:14263400FBFFFBF7FCFAF7F9F6F3F5F1EEF0E9E6E8E5E4E6AD
:14264800EDECF0F5F1F6F8F4F9FEF8FDFEF8FDFEFBFDC4C490
:14265C00C4B6B6B69B9B9BC4C3C5F0EFF1AEADAFFCFBFDFC9D
:14267000FBFDF8F7F9FAF9FBFBFAFCFAF9FBF8F7F9D3D2D448
:14268400FBFAFCFEFBFDF9F6F8FCF9FBFCF8FDFCF8FDFDF9AC
:14269800FEF7F4F6F7F4F6F1EEF0E9E6E8E4E3E5ECEBEDF385
:1426AC00F4F2F8F6F5FDFBFAFEFCFBFCFAFAC6C4C4B9B7B705
:1426C0009C9A9AC6C4C4F2F0F0B0AEAEFCFAFAFFFDFDFBF92D
:1426D400F9FFFDFDFDFBFBFCFCFCFCFCFCFCFCFCF7F7F7FB51
:1426E800FBFBF7F6F8FFFEFFFBFAFCF9F8FAFDFCFEF8F7F94C
:1426FC00F6F5F7EDEDEDE7E5E5E3E3E3ECECECF2F3F1F5F642
:14271000F2F8F9F7FBF9F8FAF8F8CBC6C7BBB9B99C9798C3F2
:14272400C1C1F7F2F3B3B1B1FDF8F9FAF8F8FFFCFDF9F7F777
:14273800FBF9F9F9F7F7FBF9F9FAFAFAFBFBFBFBFBFBF8F80C
:14274C00F8F9F9F9F6F5F7FBFAFCF5F4F6F4F3F5F1F0F2EB4A
:14276000EBEBE5E3E3E0E0E0EAEBE9ECEFEDF2F2F2F5F3F907
:14277400F6F2F8F8F3F4C9C4C3BAB6B59E9998C9C5C4F6F115
:14278800F0B3AFAEFBF6F5FAF6F5FBF6F5FAF6F5FAF6F5FAC8
:14279C00F6F5FAF6F5F8F6F5F8F6F5F5F6F4F4F6F6F5F5F5F5
:1427B000F4F4F4F4F3F5F4F3F5F1F1F1EDEDEDE6E6E6E2E073
:1427C400E0DDDBDBE0E1DFE7EAE8EAECEDEFECF5F5F0F9F6CE
:1427D800F1F3C8C4C3BCB8B79E9A99C8C4C3F5F1F0B6B2B180
:1427EC00F3EFEEF4F0EFF4F0EFF4F0EFF4F0EFF2F0EFF2F00A
:14280000EFF2F0EFF2F0EFF0F1EFF1F2F0F0F0F0EFEFEFEF04
:14281400EEF0EFEEF0ECECECE8E8E8E6E6E6D9D7D7D3D1D1DB
:14282800E2E0DFE1E2E0E3E2E4E8E6ECE8E6ECE9E7E7C0BE06
:14283C00BDB8B9B7999A98C0C1BFEEEFEDB3B4B2EBECEAE90B
:14285000E9E9E9E9E9E9E9E9E9E9E9E9E9E9E9E9E9E9E9E940
:14286400E8E8E8E8E8E8EBE9E9EBE9E9EAE8E8E9E6E8E9E636
:14287800E8E6E3E5E2DFE1DAD8D8D9D7D7D0CACFD5D0D1DA4A
:14288C00D8D7E2E0E0DFDBE0E1DDE2E1E1E1BEBEBEB8BBB9A4
:1428A000989A9AC4C7C5F1F3F3ADB0AEDADCDCDFE1E1DFE133
:1428B400E1DFE1E1DFE1E1DFE1E1DFE1E2DFE1E1E1E1E1E185
:1428C800DFDFE4DFE0E4DFE0E3DEE0E3DEE0E2DCE1DFDADC82
:1428DC00DCD7D9D6D1D3CEC9CB00CFCACBCFCACBCFCACBC292
:1428F000C2C2CFCACBD2D0D0CFD1D1D6D4D4D6D4D4D6D4D48F
:14290400D6D4D4D6D4D4D5D3D3D6D4D4D6D4D4D6D4D4D6D424
:14291800D4D6D4D4D6D4D4D6D4D4D6D4D4D6D4D4D6D4D4D50E
:14292C00D3D3D5D3D3D5D3D3D5D3D3D6D4D4D6D4D4D6D4D406
:14294000D6D4D4D6D4D4D6D4D4D6D4D4D6D4D4D6D4D4D6D4E5
:14295400D4D6D4D4D6D4D4D6D4D4D6D4D4D4D4D4D4D4D4D4D7
:14296800D4D4D4D4D4D4D5D3D5D6D4D6D4D4D6D4D4D6D4D4C2
:14297C00D4D4D4D4D4D4D7D5D5D6D4D4D7D5D5D4D4D4D4D4AB
:14299000D4D4D4D4D4D4D4D4D4D4D4D4D4D4D4D4D4D3D5D7A0
:1429A400D5D5D5D3D3D2D2D2D1D1D1D6D4D4D6D4D4D6D4D497
:1429B800CACCCCCACCCCC3C3C3CFCACBCFCACBCFCACBCFCA39
:1429CC00CBCFCACBCFCACBD3D1D1D7D7D7DCDCDCDFDDDDE15C
:1429E000DFDFE1DFDFE1DFDFE1DFDFE1DFDFE1DFDFE1DFDF6B
:1429F400E1DFDFE1DFDFE1DFDFE1DFDFE1DFDFE1DEE0E1DE56
:142A0800E0E1DEE0E1DEE0E1DFDFE1DFDFE1DFDFE1DFDFE13F
:142A1C00DFDFE1DFDFE1DFDFE1DFDFE1DEE0E1DEE0E1DEE02E
:142A3000E1DEE0E1DEE0E1DEE0E1DEE0E1DEE0E1DEE0E2DF17
:142A4400E1E2DFE1E2DFE1E2E0E0E2E0E0E2E0E0E2E0E0E2EF
:142A5800E0E0E2E0E0E2E0E0E2E0E0E2E0E0E2E0E0E2E0E0DE
:142A6C00E2E0E0E2E0E0E2E0E0E2E0E0E2E0E0E2E0E0E2E0C8
:142A8000E0E2E0E0E2E0E0E1DEE0E1DEE0E0DDDFDBDBDBE1D2
:142A9400DFDFE1DFDFE1DFDFD7D7D7D7D7D7D2D2D2CBCBCB51
:142AA800CFCACBCFCACBCFCACBCBCBCBD6D4D4DCDADAE2E0BD
:142ABC00E0E5E5E5E8E6E6EAE8E8EAE8E8EAE8E8EAE8E8EAF1
:142AD000E8E8EAE8E8EAE8E8EAE8E8EAE8E8EAE8E8EAE8E8C6
:142AE400EAE8E8EAE7E9EAE7E9EAE7E9EAE7E9EAE7E9EAE7B1
:142AF800E9EAE7E9EAE7E9EAE7E9EAE7E9EAE7E9EAE7E9EA9B
:142B0C00E7E9EAE7E9EAE7E9EAE7E9EAE7E9EAE7E9EAE7E989
:142B2000EAE7E9EAE7E9EAE7E9EAE7E9EAE7E9EAE7E9EAE774
:142B3400E9EBE8EAEBE9E9EAE8E8EAE8E8EAE8E8EAE8E8EA58
:142B4800E8E8EAE8E8EAE8E8EAE8E8EAE8E8EAE8E8EAE8E84D
:142B5C00EAE8E8EAE8E8EAE8E8EAE8E8EAE8E8EBE8EAEAE735
:142B7000E9E9E6E8E7E4E6EAE8E8EAE8E8EAE8E8E1E1E1E14E
:142B8400E1E1DBDBDBD5D5D5CBCBCBCFCACBC5C5C5D2D2D2E1
:142B9800DDDBDBE4E2E2EAE8E8EEECECF3EEEFF1EFEFF2F0ED
:142BAC00F0F2F0F0F2F0F0F2F0F0F2F0F0F2F0F0F1EFEFF24A
:142BC000F0F0F2F0F0F2F0F0F2F0F0F2EFF1F2EFF1F2EFF135
:142BD400F2EFF1F2EFF1F2EFF1F2EFF1F2EFF1F2EFF1F2EF20
:142BE800F1F2EFF1F2EFF1F2EFF1F2EFF1F2EFF1F2EFF1F20A
:142BFC00EFF1F2EFF1F2EFF1F2EFF1F2EFF1F2EFF1F2EFF1F9
:142C1000F2EFF1F2EFF1F2EFF1F2EFF1F2EFF1F3F1F1F3F1DD
:142C2400F1F3F1F1F3F1F1F3F1F1F3F1F1F3F1F1F3F1F1F3BA
:142C3800F1F1F3F1F1F3F1F1F3F1F1F3F1F1F3F1F1F3F1F1A8
:142C4C00F3F1F1F3F0F2F2EFF1F1EEF0EFECEEF2F0F0F2F0AC
:142C6000F0F2F0F0E8E7E9E8E7E9E2E1E3DCDBDDD3D3D3C6B5
:142C7400C4C4CBCBCBD9D7D7E3E1E1EAE8E8F1EFEFF4F2F2D6
:142C8800F8F3F4F7F5F5F7F5F5F7F5F5F7F5F5F7F5F5F7F508
:142C9C00F5F7F5F5F7F5F5F7F5F5F7F5F5F7F5F5F7F5F5F7F2
:142CB000F4F6F7F4F6F7F4F6F7F4F6F7F4F6F7F4F6F7F4F6E0
:142CC400F7F4F6F7F4F6F7F4F6F7F4F6F7F4F6F7F4F6F7F4CB
:142CD800F6F7F4F6F7F4F6F7F4F6F7F4F6F7F4F6F7F4F6F7B5
:142CEC00F4F6F7F4F6F7F4F6F7F4F6F7F4F6F7F4F6F7F4F6A4
:142D0000F7F4F6F7F5F5F7F5F5F7F5F5F7F5F5F7F5F5F7F58D
:142D1400F5F7F5F5F7F5F5F7F5F5F7F5F5F7F5F5F7F5F5F779
:142D2800F5F5F7F5F5F7F5F5F7F5F5F8F5F7F8F5F7F7F4F661
:142D3C00F5F2F4F7F5F5F7F5F5F7F5F5F1EEF0F1EEF0E9E896
:142D5000EAE1E0E2D7D6D8CCCCCCD1D1D1DDDBDBE7E2E3EE59
:142D6400ECECF3F1F1F8F6F6FCF7F8FBF9F9FBF9F9FBF9F918
:142D7800FBF9F9FBF9F9FBF9F9FBF9F9FBF9F9FBF9F9FBF9C5
:142D8C00F9FBF9F9FBF9F9FBF8FAFBF8FAFBF8FAFBF8FAFBB1
:142DA000F8FAFBF8FAFBF8FAFBF8FAFBF8FAFBF8FAFBF8FA9F
:142DB400FBF8FAFBF8FAFBF8FAFBF8FAFBF8FAFBF8FAFBF88A
:142DC800FAFBF8FAFBF8FAFBF8FAFBF8FAFBF8FAFBF8FAFB74
:142DDC00F9F9FBF9F9FBF9F9FBF9F9FBF9F9FBF9F9FBF9F963
:142DF000FBF9F9FBF9F9FBF9F9FBF9F9FBF9F9FBF9F9FBF94D
:142E0400F9FBF9F9FBF9F9FBF9F9FBF9F9FBF9F9FBF9F9FC37
:142E1800F9FBFCF9FBFBF8FAF8F5F7FBF9F9FBF9F9FBF9F92A
:142E2C00F5F2F4F5F2F4EFECEEE7E4E6DCDBDDD1D0D2D4D2B5
:142E4000D2E0DBDCEAE5E6F0EEEEF6F4F4F9F7F7FCFAFAFCE3
:142E5400FAFAFDFBFBFDFBFBFDFBFBFDFBFBFDFBFBFDFBFBC4
:142E6800FCFAFAFDFBFBFDFBFBFDFBFBFDFBFBFDFAFCFDFAB0
:142E7C00FCFDFAFCFDFAFCFDFAFCFDFAFCFDFAFCFDFAFCFD97
:142E9000FAFCFDFAFCFDFAFCFDFAFCFDFAFCFDFAFCFDFAFC86
:142EA400FDFAFCFDFAFCFDFAFCFDFAFCFDFAFCFDFAFCFDFA71
:142EB800FCFDFAFCFDFBFBFDFBFBFDFBFBFDFBFBFDFBFBFE5A
:142ECC00FCFCFEFCFCFEFCFCFEFCFCFEFCFCFEFCFCFEFCFC36
:142EE000FEFCFCFEFCFCFEFCFCFEFCFCFEFCFCFEFCFCFEFC20
:142EF400FCFEFCFCFEFCFCFDFBFBFDFAFCFDFAFCFBF8FAFD1F
:142F0800FBFBFDFBFBFDFBFBF7F4F6F7F4F6F1EEF0E9E6E891
:142F1C00E0DDDFD4D2D2D4D2D2E1DFDFE9E7E7F0EEEEF9F406
:142F3000F5FBF9F9FDFAFCFDFBFBFDFBFBFDFBFBFDFBFBFDEF
:142F4400FBFBFDFBFBFDFBFBFDFBFBFDFBFBFDFBFBFDFBFBD1
:142F5800FDFBFBFDFAFCFDFAFCFDFAFCFDFAFCFDFAFCFDFABC
:142F6C00FCFDFAFCFDFAFCFDFAFCFDFAFCFDFAFCFDFAFCFDA6
:142F8000FAFCFDFAFCFDFAFCFDFAFCFDFAFCFDFAFCFDFAFC95
:142F9400FDFAFCFDFAFCFDFAFCFDFAFCFDFAFCFDFAFCFDFB7F
:142FA800FBFEFCFCFEFCFCFEFCFCFEFCFCFEFCFCFEFCFCFE58
:142FBC00FCFCFEFCFCFEFCFCFEFCFCFEFCFCFEFCFCFEFCFC45
:142FD000FEFCFCFEFCFCFEFCFCFEFCFCFEFCFCFDFBFBFDFB34
:142FE400FBFEFCFCFCFAFAFDFBFBFDFBFBFDFBFBF8F5F7F843
:142FF800F5F7F2EFF1EAE7E9E1DEE0D6D4D3D5D3D3E1DFDF17
:14300C00E9E7E7F2F0F0F8F3F4FDF8FAFCF9FBFDFBFBFDFB7E
:14302000FBFCFAFAFCFAFAFCFAFAFCFAFAFDFBFBFDFBFBFDFE
:14303400FBFBFDFBFBFDFBFBFDFBFBFDFAFCFDFAFCFDFAFCE0
:14304800FDFAFCFDFAFCFDFAFCFDFAFCFDFAFCFDFAFCFDFACB
:14305C00FCFDFAFCFDFAFCFDFAFCFDFAFCFDFAFCFDFAFCFDB5
:14307000FAFCFDFAFCFDFAFCFDFAFCFDFAFCFDFAFCFDFAFCA4
:14308400FDFAFCFDFAFCFDFAFCFDFAFCFDFAFCFEFCFCFEFC89
:14309800FCFEFCFCFEFCFCFEFCFCFEFCFCFEFCFCFEFCFCFE66
:1430AC00FCFCFEFCFCFEFCFCFEFCFCFEFCFCFEFCFCFEFCFC54
:1430C000FEFCFCFEFCFCFEFCFCFDFBFBFCFAFAFDFBFBFCFA4E
:1430D400FAFCFAFAF8F6F6F8F6F6F2EFF1EBE8EAE1DEE0D533
:1430E800D5D5D6D4D4E1DFDFEAE8E8F2F0F0F7F5F5FBF9F9B3
:1430FC00FDFBFBFDFBFBFDFBFBFDFBFBFDFBFBFDFBFBFDFB16
:14311000FBFDFBFBFDFBFBFDFAFCFDFAFCFDFBFBFDFBFBFD01
:14312400FAFCFEFBFDFDFAFCFDFBFBFDFAFCFDFAFCFDFAFCEC
:14313800FDFAFCFDFAFCFDFAFCFDFAFCFDFAFCFDFAFCFDFADA
:14314C00FCFDFAFCFDFAFCFDFAFCFDFAFCFDFAFCFDFAFCFDC4
:14316000FAFCFDFAFCFDFAFCFDFAFCFDFAFCFDFAFCFDFAFCB3
:14317400FDFAFCFDFBFBFDFBFBFDFBFBFDFBFBFDFBFBFDFB9D
:14318800FBFEFCFCFEFCFCFEFCFCFEFCFCFEFCFCFEFCFCFE76
:14319C00FCFCFEFCFCFDFBFBFDFBFBFEFCFCFDFBFBFEFBFD6C
:1431B000FCF9FBFDFBFBFDFBFBFDFBFBF8F5F7F8F5F7F4F195
:1431C400F3E9E8EAE0DFE1D6D5D1D6D4D4E1DFDFEAE8E8F264
:1431D800F0F0F7F5F5FBF9F9FDFBFBFDFBFBFDFBFBFDFBFB69
:1431EC00FDFBFBFDFBFBFDFBFBFDFBFBFDFBFBFDFAFCFCFA27
:14320000FAFDFBFBFCFAFAFDFBFBFCF9FBFDFBFBFDFBFBFD17
:14321400FBFBFDFBFBFDFBFBFDFAFCFDFAFCFDFAFCFDFAFCFE
:14322800FDFAFCFDFAFCFDFAFCFDFAFCFDFAFCFDFAFCFDFAE9
:14323C00FCFDFAFCFDFAFCFDFAFCFDFAFCFDFAFCFDFAFCFDD3
:14325000FAFCFDFAFCFDFAFCFDFAFCFDFBFBFDFBFBFDFBFBC2
:14326400FDFBFBFDFBFBFDFBFBFEFCFCFEFCFCFEFCFCFEFCA1
:14327800FCFEFCFCFEFCFCFEFCFCFEFCFCFDFBFBFDFBFBFD8B
:14328C00FBFBFEFCFCFDFAFCFCF9FBFDFBFBFDFBFBFDFBFB86
:1432A000F8F5F7F8F5F7F3F0F2EBE8EAE0DFE1D6D4D4D6D4F8
:1432B400D4E1DFDFEAE8E8F2F0F0F7F5F5FBF9F9FDFBFBFD49
:1432C800FBFBFDFBFBFDFBFBFDFBFBFDFBFBFDFBFBFDFBFB4A
:1432DC00FDFBFBFCFAFAFCFAFAC9C7C7FDFBFBFCFAFAFDFBD9
:1432F000FBFDFBFBFCFAFAFDFBFBFDFBFBFDFBFBFDFBFBFD23
:14330400FBFBFDFAFCFDFAFCFDFAFCFDFAFCFDFAFCFDFAFC0D
:14331800FDFAFCFDFAFCFDFAFCFDFAFCFDFAFCFDFAFCFDFAF8
:14332C00FCFDFAFCFDFAFCFDFAFCFDFAFCFDFAFCFDFAFCFDE2
:14334000FAFCFDFAFCFDFAFCFDFAFCFDFAFCFDFAFCFDFAFCD1
:14335400FDFAFCFDFBFBFDFBFBFDFBFBFDFBFBFDFBFBFDFBBB
:14336800FBFEFCFCFEFCFCFDFAFCFEFBFDFDFBFBFCFAFAFDA1
:14337C00FBFBFDFBFBFDFBFBF8F6F6F8F6F6F2F0F0EBE9E90A
:14339000DFDFDFD4D4D4D6D4D4E1DFDFEAE8E8F2F0F0F7F57B
:1433A400F5FBF9F9FDFBFBFDFBFBFDFBFBFDFBFBFDFBFBFD77
:1433B800FBFBFDFBFBFDFBFBFDFBFBFDFBFBDDDBDBA3A1A1C7
:1433CC00FCFAFAFDFBFBFCFAFAFDFBFBFDFBFBFDFBFBFDFB49
:1433E000FBFDFBFBFDFBFBFDFAFCFDFAFCFDFAFCFDFAFCFD2F
:1433F400FAFCFDFAFCFDFAFCFDFAFCFDFAFCFDFAFCFDFAFC1D
:14340800FDFAFCFDFAFCFDFAFCFDFAFCFDFAFCFDFAFCFDFA07
:14341C00FCFDFAFCFDFAFCFDFAFCFDFAFCFDFAFCFDFAFCFDF1
:14343000FAFCFDFAFCFDFAFCFDFAFCFDFBFBFDFBFBFDFBFBE0
:14344400FDFBFBFDFBFBFDFBFBFEFCFCFEFCFCFEFBFDFDFAC2
:14345800FCFEFCFCFCFAFAFDFBFBFDFBFBFDFBFBF8F6F6F8C9
:14346C00F6F6F3F1F1E8E7E9DFDEE0CFCFD5D6D4D4E1DFDFA6
:14348000EAE8E8F2F0F0F7F5F5FBF9F9FDFBFBFDFBFBFDFB00
:14349400FBFDFBFBFDFBFBFDFBFBFDFBFBFDFBFBFDFBFBFC7B
:1434A800FAFAB5B3B38E8C8CFCFAFAFDFBFBFDFAFCFDFAFC92
:1434BC00FCFAFAFDFAFCFDFAFCFDFAFCFDFAFCFDFAFCFDFA56
:1434D000FCFDFAFCFDFAFCFDFAFCFDFAFCFDFAFCFDFAFCFD3D
:1434E400FAFCFDFAFCFDFAFCFDFAFCFDFAFCFDFAFCFDFAFC2C
:1434F800FDFAFCFDFAFCFDFAFCFDFAFCFDFAFCFDFAFCFDFA17
:14350C00FCFDFAFCFDFAFCFDFAFCFDFAFCFDFAFCFDFAFCFD00
:14352000FAFCFDFAFCFDFAFCFDFBFBFDFBFBFDFBFBFEFCFCEC
:14353400FEFCFCFEFBFDFDFBFBFEFCFCFCFAFAFDFBFBFDFBD3
:14354800FBFDFBFBF8F6F6F8F6F6F3F0F2E7E6E8DEDDDFCFC6
:14355C00CFD5D6D4D4E1DFDFEAE8E8F2F0F0F7F5F5FBF9F940
:14357000FDFBFBFDFBFBFDFBFBFDFBFBFDFBFBFDFBFBFDFB9D
:14358400FBFDFBFBFDFBFBFDFBFBA19F9F949292FCFAFAFDDB
:14359800FBFBFCF9FBFCF9FBFDFBFBFDFAFCFDFAFCFDFAFC7D
:1435AC00FDFAFCFDFAFCFDFAFCFDFAFCFDFAFCFDFAFCFDFA62
:1435C000FCFDFAFCFDFAFCFDFAFCFDFAFCFDFAFCFDFAFCFD4C
:1435D400FAFCFDFAFCFDFAFCFDFAFCFDFAFCFDFAFCFDFAFC3B
:1435E800FDFAFCFDFAFCFDFAFCFDFAFCFDFAFCFDFAFCFDFA26
:1435FC00FCFDFAFCFDFAFCFDFAFCFDFAFCFDFAFCFDFAFCFD10
:14361000FBFBFDFBFBFEFCFCFEFCFCFEFBFDFEFCFCFDFBFBF2
:14362400FCFAFAFDFBFBFDFBFBFDFBFBF7F4F6F7F4F6EFEE2A
:14363800F0E7E6EADCDAE0CDCDD3D6D4D4E1DFDFEAE8E8F20B
:14364C00F0F0F7F5F5FBF9F9FDFBFBFDFBFBFDFBFBFDFBFBF0
:14366000FDFBFBFDFBFBFDFBFBFDFBFBFDFBFBFDFBFB8B8990
:1436740089B0AEAEDFDDDDFCFAFAFDFAFCFDFBFBFDFBFBFD4E
:14368800FBFBFDFAFCFDFAFCFDFAFCFDFAFCFDFAFCFDFAFC86
:14369C00FDFAFCFDFAFCFDFAFCFDFAFCFDFAFCFDFAFCFDFA71
:1436B000FCFDFAFCFDFAFCFDFAFCFDFAFCFDFAFCFDFAFCFD5B
:1436C400FAFCFDFAFCFDFAFCFDFAFCFDFAFCFDFAFCFDFAFC4A
:1436D800FDFAFCFDFAFCFDFAFCFDFAFCFDFAFCFDFAFCFDFA35
:1436EC00FCFDFAFCFDFAFCFDFBFBFDFBFBFEFCFCFEFCFCFD19
:14370000FBFBFEFCFCFDFBFBFBF9F9FDFBFBFDFBFBFDFBFB10
:14371400F4F3F5F4F3F5EEEDF1E5E3E9DBD8E1CDCCD6D6D4BF
:14372800D4E1DFDFEAE8E8F2F0F0F7F5F5FBF9F9FDFBFBFDD0
:14373C00FBFBFDFBFBFDFBFBFDFBFBFDFBFBFDFBFBFDFBFBD1
:14375000FDFBFBF2F0F0888686C1BFBFD0CECEFDFBFBFCFA78
:14376400FAFDFBFBFCFAFAFDFBFBFDFBFBFDFBFBFDFBFBFDAB
:14377800FAFCFDFAFCFDFAFCFDFAFCFDFAFCFDFAFCFDFAFC95
:14378C00FDFAFCFDFAFCFDFAFCFDFAFCFDFAFCFDFAFCFDFA80
:1437A000FCFDFAFCFDFAFCFDFAFCFDFAFCFDFAFCFDFAFCFD6A
:1437B400FAFCFDFAFCFDFAFCFDFAFCFDFAFCFDFAFCFDFAFC59
:1437C800FDFAFCFDFAFCFDFAFCFDFAFCFDFAFCFDFBFBFDFB43
:1437DC00FBFEFCFCFEFCFCFEFCFCFDFBFBFEFCFCFBF8FAFD29
:1437F000FBFBFDFBFBFDFBFBF3F2F4F3F2F4EDEBF1E3E0E9C2
:14380400DAD6E1D0CED4D5D3D3E1DFDFEAE8E8F2F0F0F7F51B
:14381800F5FCF7F8FFFAFBFDFBFBFCFAFAFDFBFBFCFAFAFD05
:14382C00FBFBFCFAFAFDFBFBFCFAFAD0CBCC92908FC6C4C35A
:14384000CDCBCBFDFAFCFDFBFBFCFAFAFCF9FBFFFAFCFBFA61
:14385400FCFBFAFCFAF9FBFCF8FDFFFAFCFDFAFCFDFAFCFDBC
:14386800FBFBFAF9FBFAF9FBFDFAFCFEFAFFF8FAFAF9FBFCB4
:14387C00FFFAFCFDFAFCFDFBFBF9FBFCFFFAFCFCF8FDFDFB8F
:14389000FBFDFBFBFBFAFCFDFAFCFBFAFEFDF9FEF9FCFAFC80
:1438A400FAFAFDF9FFFCF9FBFDFAFCFFFAFCFBFBFBFBF9FF6B
:1438B800FDFBFBFDFAFCFFFAFCFEFCFCFBFBFBD8C4D7DBC527
:1438CC00D8E9E0EAF7F6FAFCFAFAFDFBFBFCFAFAF1F1F7F1D9
:1438E000F1F7EAEAF0E2DFE8DAD7E0D2D1D5D5D3D3E1DFDF5C
:1438F400EAE8E8F2F0F0F7F5F5FCF7F8FFFAFBFCFAFAFCFA8E
:14390800FAFCFAFAFDFBFBFDFBFBFCFAFAFCFAFAFDFBFBBB4D
:14391C00B9B9999796C4C2C1C6C4C4FCF9FBFCFAFAFDFBFBF7
:14393000FCF9FBFDFBFAFCFAFAFCF9FBFFFAFBF8FBF9FDFAEA
:14394400FC986597772D75E9E0EAFDFAFCFAFAFAD1B6D07962
:143958002D75B78EB4FFFAFCFAFAFAFBFAFC833C7F762C7498
:14396C00FBFCFABE9ABE772D75BE99BFFBFBFBFDFAFCFBFA38
:14398000FCFCF8FDC09ABE742E75BF9ABCFBFBFBFCF9FB78A9
:143994002D77884785FCFBFDFCFAFAFFF9FEFAFAFABB9CBD4B
:1439A800833A82762D75792B787A2E76986297FCFAFAFCFA03
:1439BC00FAFDFBFBF2F0F6F2F0F6EAE6F1E2E0ECDBDBE1D381
:1439D000D3D3D5D3D3E1DFDFEAE8E8F2F0F0F7F5F5FAF8F8CC
:1439E400FFFAFBFCFAFAFDFBFBFCFAFAFDFBFBFCFAFAFDFB2D
:1439F800FBFCFAFAFDFBFBA2A0A09B9998C4C2C1D6D4D4ED7D
:143A0C00EAECFDFBFBFCFAFAFDFAFCFCF8FDFDFAFCFBFBFB25
:143A2000FCFAFAFDFBFAFEF9FB813C7F772D75FDFAFCFCF981
:143A3400FBFBFAFCD8C4D77A2E769D649BFAFAFAFDF9FEE79C
:143A4800E0E7792D759C659EFBFBFBD7C4D9792B78A272A2B2
:143A5C00FDFAFCFDFAFCFDFBFBF3EDF2823B7E833981F2EB56
:143A7000F2FFFAFCE0D0E2792D759B649BFEF9FBFEFCFBFD30
:143A8400FBFBBE9ABE772E77894788C09BBDBF9CBEAC7DABA9
:143A9800A16FA5FDFBFBFCFAFAFDFBFBEEEEF4EEEEF4EAE71E
:143AAC00F0E0E1EBE0DDDFD7D5D4D5D3D3E1DFDFEAE8E8F288
:143AC000F0F0F7F5F5FAF8F8FDFBFBFDFBFBFDFBFBFDFBFB7B
:143AD400FDFBFBFCFAFAFCFAFAFDFBFBFCFAFA8F8D8C8C8A6A
:143AE80089B3B1B1D9D9D9D2D0D0FDFBFBFCFAFAFDFAFCFD5C
:143AFC00FAFCFCFAFAFDFBFBFBFBFBFDFBFBE8DFE9772C7630
:143B10009B659AFDFAFCFFFAFCFBFBFBE9E0EA782B759B6464
:143B24009BFDFBFBFBFBFBCFB6D2772D75BA8DB8FCFAFADBD4
:143B3800C1D9782E769C6299FFFAFBF9FBFBFBFBFBC098C13F
:143B4C00772D75C09ABEFBFBFBFBFBFBC8A9C6772E74BE9AAA
:143B6000BEFDFBFBFAF9FDFDF9FE884889792D75E8DEEAFD9B
:143B7400FBFAFBFAFEFAF9FDF4F1FAFDFBFBFDFBFBFDFBFBAD
:143B8800EBECF6EBECF6EEE8F3E5E4E8DFDFDFD4D4D4D5D354
:143B9C00D3E1DFDFEAE8E8F2F0F0F7F5F5FAF8F8FDFBFBFD5C
:143BB000FBFBFCFAFAFCFAFAFCFAFAFDFBFBFCFAFAFCFAFA68
:143BC400E8E6E69A9897A3A1A1D8D8D8D0D0D0C4C2C2FDFB53
:143BD800FBFDFBFBFCFAFAFCFAFAFBFBFBFEF8FDFBF9F9FB3F
:143BEC00FAFCD9C4DA792D75B68DB3FDFBFBFCFAFAFAF9FB76
:143C0000FBFBFB7A2E76823981FDFBFBFFFAFCBF9ABC792DC2
:143C140075C7A8C5FAFCFCFAFAFA772C76772E76752D737B4F
:143C28002B78772D75792D74803A80F3ECF3FBFAFCFBFAFCC4
:143C3C00C199BC772C76CFB7CFFAF9FBFBFAFCF9FBFB762B81
:143C5000757B2D74F3ECF3FDFAFCFAF9FBF8F5FEF5F3F9FC54
:143C6400FAFAFCFAFAFCFAFAEFEBF6EFEBF6E7E9F1E5E6EA62
:143C7800E1DEE0D2D4D4D5D3D3E1DFDFEAE8E8F2F0F0F7F58D
:143C8C00F5FAF8F8FDFBFBFCFAFAFDFBFBFDFBFBFCFAFAFD8F
:143CA000FBFBFDFBFBFCFAFACDCBCBA3A1A0AEACACFAFAFAFC
:143CB400C3C3C3AFADADFCFAFAFCF9FBFDFBFBFCFAF9F8FCF4
:143CC800F7FDFAFCFDFBFAFBFAFCBD99BD792F77C6A8C5FABC
:143CDC00FAFAFDFBFBFEF9FBFFF7FEAB81AA7A2D779C64977C
:143CF000BB9CBD915792782D77E2D0E1FDF9FEFDFBFB772CF9
:143D040076792C76BC9BBEBB9ABD9C629C772D75BE9CBAFB31
:143D1800FAFEFCFAFAF8FAFB9B649B7A2D77E8DFE9FBFAFC69
:143D2C00FFFAFBFDF9FEA371A1772E7692588FE3D0E1FAF9CB
:143D4000FBF7F5FBF4F2F8FDFBFBFDFBFBFCFAFAEBECF6EB21
:143D5400ECF6EAE9F3EAE8E8E2DFE1D6D4D3D5D3D3E1DFDFC0
:143D6800EAE8E8F2F0F0F7F5F5FAF8F8FDFBFBFCFAFAFCFA17
:143D7C00FAFDFBFBFDFBFBFCFAFAFCFAFAFDFBFBC7C5C5AA85
:143D9000A9A5D4D2D2FDFAFCBEBCBCA3A1A1FCFAFAFDFAFC68
:143DA400FCFAFAFCF8FDFAF9FBFCF8FDFCF9FBFAFAFAA67255
:143DB800A2792C76DAC4D7FAFBF9FCF9FBFDFAFCF3EEF0B66D
:143DCC008DB3772D757A2D77792D75772E74772E76FDF9FE29
:143DE000FEF9FBFFFAFB9B659A762D75FAF9FBFDFAFC8C4981
:143DF40087823B7EF4EEF3FCF8FDFEFBFDFAFAFA803A80779E
:143E08002D75FFFAFCFEFBFDFDF9FEF7FBFCE3D1E289468949
:143E1C007A2C79782D79C7A6C8F5F5FBEEEFF9FCFAFAFDFB7D
:143E3000FBFDFBFBEDEBF7EDEBF7EDEAF3EAE8E8E2E0E0D6F6
:143E4400D4D3D5D3D3E1DFDFEAE8E8F2F0F0F7F5F5FAF8F852
:143E5800FDFBFBFDFBFBFCFAFAFDFBFBFDFBFBFCFAFAFDFBB2
:143E6C00FBFCFAFAC5C3C3ABAAA6D0CECEFCF9FBD4D2D2AE8F
:143E8000ACABFCFAFAFCF9FBFDFBFBFCFAFAFFFBFCFDFBFB2B
:143E9400FDFAFCFAFAFA8B4886772D79FAFAFAFBFBFBFDFBEC
:143EA800FBFCF9FB925791772E74C7A8C5FBFBFBF4ECF37818
:143EBC002D779C6499FCFAFAFDFBFAFBFAFEA472A2762E7410
:143ED000EDDFEBD0B5CF772E76BD99BDFCF8FDFDFBFBFCF9CC
:143EE400FBE9E0EA792D749A639AFBFAFCFCFAFAFBFAFCFF9A
:143EF800FAFBFEF9FBF1EDF3B78EB4762D75772D75CFB0CF86
:143F0C00F4F1FAFCFAFAFDFBFBFDFBFBF0ECF8F0ECF8E8EB71
:143F2000EFEAE7E9DFDFDFD6D3D5D3D3D3DFDFDFEAE8E8F207
:143F3400F0F0F7F5F5FBF9F9FDFBFBFCFAFAFDFBFBFDFBFB02
:143F4800FCFAFAFDFBFBFDFBFBFDFBFBC7C5C5A9A7A6D0CEB7
:143F5C00CEFCFAFAD4D2D2B0AEAEFDFBFBFCFAFAFBFBFBFF3C
:143F7000F9FEFAFBF7FCF9FBFCF9FBFDFBFB792D75915791F3
:143F8400FCFAFAFCFAFAFDFBFBC6A7C6772D75B88BB6FDFB19
:143F9800FBFAFAFADAC4D6792C76AD7FAAFAF9FBFBFBFBFBED
:143FAC00FBFBBD98C0782E76D9C3D69C6497833A7EF1EDF3C5
:143FC000FDFBFBFFFAFBFBFBFBD8C2DB772D75B78DB6FDFA96
:143FD400FCFBFAFCFCF9FBFBFCFAFAFCFCFCF8FEFDFBFBC074
:143FE8009BBD792C76996299F1F0F9FDFBFBFDFBFBFCFAFA0E
:143FFC00EDECF6EDECF6F0ECF1E8E7E9DFDEE0D6D4D3D3D3CE
:14401000D3DFDFDFEAE8E8F2F0F0F7F5F5FBF9F9FDFBFBFCE3
:14402400FAFAFDFBFBFDFBFBFCFAFAFDFBFBFDFBFBFDFBFBE5
:14403800C7C5C5A9A7A6D0CECEFDFBFBD4D2D2B0AEAEFDFB52
:14404C00FBFDFBFBFCFAFAFBFAFCFDFBFBFCFAFAFDFBFBD7E4
:14406000C2D87A2E76AF7DADF8FAFBFCFAF9FAFAFABF9BBFD8
:14407400772D75B58EB4FAFBF9FCF9FBC098C1772E76BF99BE
:14408800BDFCF8FDFFFAFCFCFAFABF9BBF762D75C8A8C779B0
:14409C002C76BB9ABDFBFAFEFBFBFBFDFAFCFDFAFCBA9AB985
:1440B0007B2C75C7A9C6FBFAFCFBFAFCFBFBFBFDFAFCFEF7EF
:1440C400FEFCFCFCFBFBFBCCB6CF792B78A170A4F3EFFBFD09
:1440D800FBFBFDFBFBFCFAFAF0EDF6F0EDF6ECEDF1E8E8E8D3
:1440EC00E1DDE2D2D4D4D3D3D3DFDFDFEAE8E8F2F0F0F7F518
:14410000F5FBF9F9FDFBFBFCFAFAFDFBFBFDFBFBFCFAFAFD13
:14411400FBFBFDFBFBFDFBFBC7C5C5ADABAAD0CECEFCFAFA0C
:14412800D4D2D2B1AFAEFCFAFAFCFAFAFCFAFAFBFBFBC6A7CF
:14413C00C89C639A9A6597925692782E768B48869C64999B55
:14415000649BC8A8C7E9DEE67A2D77772D75AD7FADBD9BBA56
:144164009A6499782D79D7C1D9FBFBFBFAFAFAFFFCFBD7C2B3
:14417800D87A2E76874985813C7FF4EDF4FAFAFABA8DB89A50
:14418C00639A9D639D884889772E779156909B659A9D659A63
:1441A000E2D0E1CEB6CEAC7EACC299BEB78EB4823A80772C5F
:1441B40076D4C0D7F0EFF9FDFBFBFDFBFBFCFAFAEDEBF7EDAC
:1441C800EBF7EEEDF1ECE7E9DFDEE0D4D3D5D3D3D3DFDFDF4A
:1441DC00EAE8E8F2F0F0F7F5F5FBF9F9FDFBFBFCFAFAFDFB9A
:1441F000FBFDFBFBFCFAFAFDFBFBFDFBFBFDFBFBC7C5C5B201
:14420400B0AFD5D3D3FDFBFBC4C2C2B2B0AFFDFBFBFCFAFA9D
:14421800FCFAFAFAF9FBAD80AB792C76772D75782E76762DE9
:14422C0076782D77792D74792D75D9C4DAFCF9FBD9C4D3A33D
:1442400071A17B2C75772C76782E76935690FFFAFCFDFBFBA6
:14425400FBFCFAFCF9FBE0D1DF792D75772C76BC9BBEFBFAA7
:14426800FCFEFBFD8B4886762D75782E76772E74782B75771B
:14427C002E76772C767B2C75FBFBFBBD99BD762E74772D7520
:14429000762C78884889D1B4CDF6F6FCF3F2FBFDFBFBFDFBA2
:1442A400FBFCFAFAEEEEF4EEEEF4EEECF2E9E6E8E0E0E0D385
:1442B800D2D4D3D3D3DFDFDFEAE8E8F2F0F0F7F5F5FBF9F9DC
:1442CC00FDFBFBFCFAFAFDFBFBFDFBFBFCFAFAFDFBFBFDFB3A
:1442E000FBFDFBFBC7C5C5B6B4B3B8B6B6FCFAFAD0CECEB33B
:1442F400B1B0FDFBFBFDFBFBFDFBFBFAF9FBFDFBFBFBF9F9AE
:14430800FEF8FDFEF9FBFCFAF9FAFAFAFCF9FBFBFAFCFBF80B
:14431C00FAFFFAFCF7F9FAFBFAFEFCF9FBFCFAFAFFFAFCFAF2
:14433000F9FBFFFAFCFCFAFAFBFAFCFFFBFDFDFAFCFAFAFAD7
:14434400FAF9FDFDFAFCFDFBFBFAFBF9FDFAFCFBFAFCFFF9C5
:14435800FEFEF9FBFEFCFCFDFBFBFDF9FEFEFBFDFDFAFCF8A3
:14436C00FAFBE9E0EAD8C4D7E3D0E1FEF8FDF6FAFBF9F8FCC3
:14438000F5F4F8FDFBFBFDFBFBFCFAFAF5F3F9F5F3F9ECE9DB
:14439400F2E8E7E9E2E0E0D5D2D4D3D3D3DFDFDFEAE8E8F28C
:1443A800F0F0F7F5F5FBF9F9FDFBFBFCFAFAFDFBFBFDFBFB8A
:1443BC00FCFAFAFDFBFBFDFBFBFDFBFBC7C5C5B8B6B5A5A368
:1443D000A3DCDADAE2E0E0B2B0B0FCFAFAFDFAFCFBF9F9FF23
:1443E400FAFBFDF8FAFCFAFAFCF9FBFBFCFAFDF8FAFCF9FB31
:1443F800FAF9FDFBF9F9FCFAFAFEF9FAFFF9FAFAF9FBFAF920
:14440C00FBFFFAFCFBF9F9FCFAF9FFF8FBFEF8FDF8FAFAFA05
:14442000F9FBFBF9F9FDFBFBFDFBFBFEF9FBFCF9FBFCF9FBEF
:14443400F9FCFAFCF9FBFCFBFDFBFAFCFAF9FBFDF9FEFBFAD9
:14444800FEFAFBF9FDFAFCFFFBFDFEF9FBF9FAFEFEFBFDFBB6
:14445C00FBFBFAF9FBFCF7FFF3F3F9FDFBFBFDFBFBFCFAFAC1
:14447000F6F4F4F6F4F4EBE7F3EAE6ECDFE0DED2D4D5D3D33D
:14448400D3DFDFDFEAE8E8F2F0F0F7F5F5FBF9F9FDFBFBFC6B
:14449800FAFAFDFBFBFDFBFBFCFAFAFDFBFBFDFBFBFDFBFB6D
:1444AC00C7C5C5BCB8B78E8C8BB7B5B5F1EFEFB2B0B0FDFBE1
:1444C000FBFCF9FBFCF9FBFCF9FBFAF9FBFCFAFAFEF9FBF954
:1444D400F8FAFCF8FDFCFAFAFEF9FBF9F8FAFCF9FBFDF8FA45
:1444E800F6FBFAFEF9FBFEF9FBFEF9FAFCF9FBFCF9FBFBF82D
:1444FC00FAFEF9FBFCF9FBFFF7FEFDFBFBFFFAFBFEF9FAFC08
:14451000FAF9FFFAFCFCFAFAFFFAFCFDFBFBF9FAF8FCFAFAFC
:14452400FBFBFBFBFAFCFCF8FDFBFBFBFDF9FEFDFBFBFDFAE1
:14453800FCF9FBFBFDFAFCFDF9FEF9F8FCFAF9FBF4F1FAFDE6
:14454C00FBFBFDFBFBFCFAFAF1F1F7F1F1F7ECEEEFE5E3E956
:14456000DFDFDFD7D2D4D3D3D3DFDFDFEAE8E8F2F0F0F7F59F
:14457400F5FBF9F9FDFBFBFCFAFAFDFBFBFDFBFBFCFAFAFD9B
:14458800FBFBFDFBFBFDFBFBC7C5C5BCB9B59A9897C5C3C3B4
:14459C00F3F1F1B2B0B0FCFAFAFCF9FBFCF9FBFEF9FBFCFA6C
:1445B000FAFEF9FBFEF9FAFCF8FDFEF9FBFEFAF9FAFAFAFF59
:1445C400F8FBFCFAF9FCF8FEFDFAFCFCFAF9FFF8FDFAF9FB4B
:1445D800FBF8FAFCF9FBFDFAFCFCFAF9FCFAF9FCFAFAFAF93E
:1445EC00FBFCF9FBF8FAFBFAF9FBFBF9F9FDFBFBFCFAFAFD28
:14460000FBFBFDFBFBFDFAFCFDFAFCFEF9FAFDFBFBFBFBFB02
:14461400FBFBFBFDFAFCFDFAFCFBFAFCFCF9FBFAF9FBFAF9F9
:14462800FBF7F7FDF5F4F8FDFBFBFDFBFBFCFAFAEEEDF6EE22
:14463C00EDF6F2EFF1E5E2EBE1DEE0D4D4D4D4D4D4DFDFDFCF
:14465000EAE8E8F2F0F0F6F4F4FBF9F9FDFAFCFDFAFCFDFB21
:14466400FBFDFBFBFCF9FBFCF9FBFCF9FBFCFAFAC5C5C5BA8B
:14467800B8B79D9A96C5C3C3F1F1F1B4B0AFFCF9FBFCF9FBE1
:14468C00FEF9FBFCF9FBFCF9FBFCF9FBFCF9FBFCF9FBFCF983
:1446A000FBFCF9FBFCF9FBFCF9FBFCF9FBFCF9FBFCF9FBFC6F
:1446B400F9FBFCF9FBFCF9FBFCF9FBFCF9FBFCF9FBFCF9FB5E
:1446C800FCF9FBFCF9FBFCF9FBFCF9FBFCF9FBFCF9FBFCF949
:1446DC00FBFCF9FBFCF9FBFCF9FBFCF9FBFCF9FBFCF9FBFD32
:1446F000FBFBFDFBFBFDFBFBFDFAFCFDFAFCFDFAFCFDFAFC0E
:14470400FDFAFCFBFAFEF9F8FAF8F7FBF8F6FCFDFBFBFDFB11
:14471800FBFCF9FBF0EDF6F0EDF6EDECF0E7E6EADBD9DFD514
:14472C00D2D4D3D3D3DFDFDFEAE8E8F2F0F0F6F4F4FBF9F966
:14474000FDFAFCFDFAFCFDFAFCFDFBFBFCF9FBFCF9FBFCF9C4
:14475400FBFCFAFAC5C5C5BAB8B79D9A96C5C3C3F1F1F1B44F
:14476800B0AFFCF9FBFCF9FBFCF9FBFCF9FBFCF9FBFCF9FB3E
:14477C00FCF9FBFCF9FBFCF9FBFCF9FBFCF9FBFCF9FBFCF994
:14479000FBFCF9FBFCF9FBFCF9FBFCF9FBFCF9FBFCF9FBFC7E
:1447A400F9FBFCF9FBFCF9FBFCF9FBFCF9FBFCF9FBFCF9FB6D
:1447B800FCF9FBFCF9FBFCF9FBFCF9FBFCF9FBFCF9FBFCF958
:1447CC00FBFCF9FBFCF9FBFDFBFBFDFBFBFDFBFBFDFBFBFD35
:1447E000FAFCFDFAFCFDFAFCFDFAFCFBFAFCFAF9FDF9F8FC28
:1447F400F7F5FBFDFAFCFDFBFBFCF9FBF3F2F6F3F2F6ECE969
:14480800F2E6E4EADEDDE1CDCED2D3D3D3E1DFDFE9E7E7F12D
:14481C00EFEFF6F4F4FBF9F9FCF9FBFCF9FBFCF9FBFCF9FB1F
:14483000FCF9FBFCF9FBFCF9FBFCFAFAC5C5C5BAB8B79D9A05
:1448440096C5C3C3F1F1F1B2B0AFFCF9FBFCF9FBFCF9FBFCCF
:14485800F9FBFCF9FBFCF9FBFCF9FBFCF9FBFCF9FBFCF9FBB8
:14486C00FCF9FBFCF9FBFCF9FBFCF9FBFCF9FBFCF9FBFCF9A3
:14488000FBFCF9FBFCF9FBFCF9FBFCF9FBFCF9FBFCF9FBFC8D
:14489400F9FBFCF9FBFCF9FBFCF9FBFCF9FBFCF9FBFCF9FB7C
:1448A800FCF9FBFCF9FBFCF9FBFCF9FBFCF9FBFCFAFAFCFA66
:1448BC00FAFCFAFAFCFAFAFDFBFBFDFBFBFDFAFCFDFAFCFB47
:1448D000FAFCFAF9FDF9F8FCF7F5FBFCF9FBFCF9FBFCF9FB4A
:1448E400F4F3F7F4F3F7ECEAF0E5E4E8DDDCE0D3D2D4D3D3D5
:1448F800D3E1DFDFE9E6E8F1EFEFF6F4F4FAF7F9FCF9FBFC00
:14490C00F9FBFCF9FBFCF9FBFCF9FBFCF9FBFCF9FBFCFAFA03
:14492000C5C5C5BAB8B79D9A96C5C3C3F1F1F1B2B0AFFCF91A
:14493400FBFCF9FBFCF9FBFCF9FBFCF9FBFCF9FBFCF9FBFCD8
:14494800F9FBFCF9FBFCF9FBFCF9FBFCF9FBFCF9FBFCF9FBC7
:14495C00FCF9FBFCF9FBFCF9FBFCF9FBFCF9FBFCF9FBFCF9B2
:14497000FBFCF9FBFCF9FBFCF9FBFCF9FBFCF9FBFCF9FBFC9C
:14498400F9FBFCF9FBFCF9FBFCF9FBFCF9FBFCF9FBFCF9FB8B
:14499800FCF9FBFCF9FBFCF9FBFCF9FBFCFAFAFCFAFAFCFA75
:1449AC00FAFCFAFAFDFBFBFBFAFCFBFBFBF9F8FCF7F6FAFC68
:1449C000F9FBFCF9FBFCF9FBF3F1F7F3F1F7EFEEF0E5E4E8DB
:1449D400DCDBDFD1D0D4D3D3D3E1DFDFE9E6E8F1EEF0F6F43C
:1449E800F4FAF7F9FCF9FBFCF9FBFCF9FBFCF9FBFCF9FBFC31
:1449FC00F9FBFCF9FBFCFAFAC7C5C5BAB8B79D9A96C5C3C341
:144A1000F1F1F1B2B0AFFCF9FBFCF9FBFCF9FBFCF9FBFCF9F9
:144A2400FBFCF9FBFCF9FBFCF9FBFCF9FBFCF9FBFCF9FBFCE7
:144A3800F9FBFCF9FBFCF9FBFCF9FBFCF9FBFCF9FBFCF9FBD6
:144A4C00FCF9FBFCF9FBFCF9FBFCF9FBFCF9FBFCF9FBFCF9C1
:144A6000FBFCF9FBFCF9FBFCF9FBFCF9FBFCF9FBFCF9FBFCAB
:144A7400F9FBFCF9FBFCF9FBFCF9FBFCF9FBFCF9FBFCF9FB9A
:144A8800FCF9FBFCFAFAFCFAFAFCFAFAFCFAFAFAF9FBFAFA88
:144A9C00FAF9F8FAF6F5F9FCF9FBFCF9FBFCF9FBF2F0F6F2A3
:144AB000F0F6EFEEF0E7E6EADEDDE1D1CFD5D3D3D3E1DEE05F
:144AC400E9E6E8F1EEF0F6F3F5FAF7F9FCF9FBFCF9FBFCF9BB
:144AD800FBFCF9FBFCF9FBFCF9FBFCF9FBFCF9FBC7C5C5BA14
:144AEC00B8B79D9A96C5C3C3F1F1F1B2B0AFFCF9FBFAF9FB6D
:144B0000FCF9FBFCF9FBFCF9FBFCF9FBFCF9FBFCF9FBFCF90C
:144B1400FBFCF9FBFCF9FBFCF9FBFCF9FBFCF9FBFCF9FBFCF6
:144B2800F9FBFCF9FBFCF9FBFCF9FBFCF9FBFCF9FBFCF9FBE5
:144B3C00FCF9FBFCF9FBFCF9FBFCF9FBFCF9FBFCF9FBFCF9D0
:144B5000FBFCF9FBFCF9FBFCF9FBFCF9FBFCF9FBFCF9FBFCBA
:144B6400F9FBFCF9FBFCF9FBFCF9FBFCF9FBFCF9FBFCFAFAA9
:144B7800FCFAFAFBFBFBFBFAFCFAF9FBF6F5F9FCF9FBFCF9A0
:144B8C00FBFCF9FBF3F2F4F3F2F4EDEBF1E6E5E9DEDDDFD38E
:144BA000D2D4D5D3D3E1DEE0E9E6E8F1EEF0F6F3F5FAF7F9F3
:144BB400FCF9FBFCF9FBFCF9FBFCF9FBFCF9FBFCF9FBFCF958
:144BC800FBFCF9FBC7C5C5BCB8B79D9A96C5C3C3F3F1F1B2D3
:144BDC00B0AFFCF9FBFAF9FBFCF9FBFCF9FBFCF9FBFCF9FBC8
:144BF000FCF9FBFCF9FBFCF9FBFCF9FBFCF9FBFCF9FBFCF91C
:144C0400FBFCF9FBFCF9FBFCF9FBFCF9FBFCF9FBFCF9FBFC05
:144C1800F9FBFCF9FBFCF9FBFCF9FBFCF9FBFCF9FBFCF9FBF4
:144C2C00FCF9FBFCF9FBFCF9FBFCF9FBFCF9FBFCF9FBFCF9DF
:144C4000FBFCF9FBFCF9FBFCF9FBFCF9FBFCF9FBFCF9FBFCC9
:144C5400F9FBFCF9FBFCF9FBFCF9FBFAFAFAFAF9FBFBFAFCBB
:144C6800F6F5F9FCF9FBFCF9FBFCF9FBF4F3F5F4F3F5EEEDF1
:144C7C00F1E6E5E7DFDEE0D1D0D4D5D3D3E1DEE0E9E6E8F1AD
:144C9000EEF0F6F3F5FAF7F9FCF9FBFCF9FBFCF9FBFCF9FBAA
:144CA400FCF9FBFCF9FBFCF9FBFCF9FBC7C5C5BCB8B79D9A89
:144CB80096C5C3C3F3F1F1B2B0AFFCF9FBFAF9FBFCF9FBFC57
:144CCC00F9FBFCF9FBFCF9FBFCF9FBFCF9FBFCF9FBFCF9FB40
:144CE000FCF9FBFCF9FBFCF9FBFCF9FBFCF9FBFCF9FBFCF92B
:144CF400FBFCF9FBFCF9FBFCF9FBFCF9FBFCF9FBFCF9FBFC15
:144D0800F9FBFCF9FBFCF9FBFCF9FBFCF9FBFCF9FBFCF9FB03
:144D1C00FCF9FBFCF9FBFCF9FBFCF9FBFCF9FBFCF9FBFCF9EE
:144D3000FBFCF9FBFCF9FBFCF9FBFCF9FBFCF9FBFCF9FBFADA
:144D4400FAFAFAFAFAFAF9FBF7F6F8FCF9FBFCF9FBFCF9FBD6
:144D5800F1F0F4F1F0F4EEEDEFE5E4E6DDDCDED3D2D4D3D36E
:144D6C00D3E0DDDFE9E6E8F1EEF0F6F3F5FAF7F9FCF9FBFE88
:144D8000F9FBFCF9FBFCF9FBFCF9FBFCF9FBFCF9FBFBF9F98E
:144D9400C7C5C5B9B7B69D9A96C5C3C3F1F1F1B2B0AFFCF9A3
:144DA800FBFAF9FBFCF9FBFCF9FBFCF9FBFCF9FBFCF9FBFC62
:144DBC00F9FBFCF9FBFCF9FBFCF9FBFCF9FBFCF9FBFCF9FB4F
:144DD000FCF9FBFCF9FBFCF9FBFCF9FBFCF9FBFCF9FBFCF93A
:144DE400FBFCF9FBFCF9FBFCF9FBFCF9FBFCF9FBFCF9FBFC24
:144DF800F9FBFCF9FBFCF9FBFCF9FBFCF9FBFCF9FBFCF9FB13
:144E0C00FCF9FBFCF9FBFCF9FBFCF9FBFCF9FBFCF9FBFCF9FD
:144E2000FBFCF9FBFCF9FBFCF9FBFCF9FBFCFAFAF9F6F8FCF0
:144E3400F9FBFCF9FBFCF9FBF0EEF4F0EEF4EEECF2E7E6E871
:144E4800DCDBDDD4D1D3D3D3D3E0DDDFE9E6E8F1EEF0F6F3C6
:144E5C00F5FAF7F9FBF8FAFCF9FBFCF9FBFCF9FBFCF9FBFCBA
:144E7000F9FBFCF9FBFCFAFAC7C5C5B9B7B69D9A96C5C3C3CB
:144E8400F1F1F1B2B0AFFBF8FAFAF9FBFCF9FBFCF9FBFCF986
:144E9800FBFCF9FBFCF9FBFCF9FBFCF9FBFCF9FBFCF9FBFC6F
:144EAC00F9FBFCF9FBFCF9FBFCF9FBFCF9FBFCF9FBFCF9FB5E
:144EC000FCF9FBFCF9FBFCF9FBFCF9FBFCF9FBFCF9FBFCF949
:144ED400FBFCF9FBFCF9FBFCF9FBFCF9FBFCF9FBFCF9FBFC33
:144EE800F9FBFCF9FBFCF9FBFCF9FBFCF9FBFCF9FBFCF9FB22
:144EFC00FCF9FBFCF9FBFCF9FBFCF9FBFCF9FBFCF9FBFCF90D
:144F1000FBFBF9F9FAF7F9FCF9FBFCF9FBFCF9FBF2F0F6F221
:144F2400F0F6ECEBEFE7E6E8DEDDDFCFD0D4D3D3D3E1DEE0F3
:144F3800E9E6E8F1EEF0F6F3F5FAF7F9FCF9FBFCF9FBFCF942
:144F4C00FBFCF9FBFCF9FBFCF9FBFCF9FBFCFAFAC5C5C5B99E
:144F6000B7B69D9A96C5C3C3F1F1F1B2B0AFFBF8FAFAF9FBF9
:144F7400FCF9FBFCF9FBFCF9FBFCF9FBFCF9FBFCF9FBFCF994
:144F8800FBFCF9FBFCF9FBFCF9FBFCF9FBFCF9FBFCF9FBFC7E
:144F9C00F9FBFCF9FBFCF9FBFCF9FBFCF9FBFCF9FBFCF9FB6D
:144FB000FCF9FBFCF9FBFCF9FBFCF9FBFCF9FBFCF9FBFCF958
:144FC400FBFCF9FBFCF9FBFCF9FBFCF9FBFCF9FBFCF9FBFC42
:144FD800F9FBFCF9FBFCF9FBFCF9FBFCF9FBFCF9FBFCF9FB31
:144FEC00FCF9FBFCF9FBFCF9FBFCF9FBFAF7F9FCF9FBFCF922
:14500000FBFCF9FBF2F1F5F2F1F5ECEBEFE7E6E8DFDEE0D019
:14501400D1D5D3D3D3E0DDDFE9E6E8F1EEF0F6F3F5FAF7F97F
:14502800FCF9FBFCF9FBFCF9FBFCF9FBFCF9FBFCF9FBFCF9DF
:14503C00FBFAFAFAC5C5C5B9B7B69D9A96C5C3C3F1F1F1B265
:14505000B0AFFCF9FBFAF9FBFCF9FBFCF9FBFCF9FBFCF9FB4F
:14506400FCF9FBFCF9FBFCF9FBFCF9FBFCF9FBFCF9FBFCF9A3
:14507800FBFCF9FBFCF9FBFCF9FBFCF9FBFCF9FBFCF9FBFC8D
:14508C00F9FBFCF9FBFCF9FBFCF9FBFCF9FBFCF9FBFCF9FB7C
:1450A000FCF9FBFCF9FBFCF9FBFCF9FBFCF9FBFCF9FBFCF967
:1450B400FBFCF9FBFCF9FBFCF9FBFCF9FBFCF9FBFCF9FBFC51
:1450C800F9FBFCF9FBFCF9FBFCF9FBF9F8FAF8F7FBFCF9FB4B
:1450DC00F8F7F9FCF9FBFCF9FBFCF9FBF2F1F5F2F1F5ECEB81
:1450F000EFE5E4E6DEDDDFD5D3D3D3D3D3E0DDDFE9E6E8F13C
:14510400EEF0F6F3F5FAF7F9FCF9FBFCF9FBFCF9FBFCF9FB31
:14511800FCF9FBFCF9FBFAF9FBFAFAFAC5C5C5B9B7B69D9A1B
:14512C0096C5C3C3F1F1F1B2B0AFFCF9FBFAF9FBFCF9FBFBE1
:14514000F8FAFBF8FAFBF8FAFBF8FAFBF8FAFBF8FAFBF8FADB
:14515400FBF8FAFCF9FBFCF9FBFCF9FBFCF9FBFCF9FBFCF9B5
:14516800FBFBF8FAFBF8FAFCF9FBFCF9FBFCF9FBFCF9FBFCA2
:14517C00F9FBFCF9FBFCF9FBFCF9FBFCF9FBFCF9FBFCF9FB8B
:14519000FCF9FBFCF9FBFCF9FBFCF9FBFCF9FBFCF9FBFCF976
:1451A400FBFCF9FBFCF9FBFCF9FBFCF9FBFCF9FBFCF9FBF864
:1451B800F7FBF7F5FBF8F7FBF7F6F8FCF9FBFCF9FBFCF9FB6B
:1451CC00F3F1F7F3F1F7EEEDF1E6E5E7DCDBDFD6D4D3D2D2E4
:1451E000D2E0DDDFE8E5E7F0EDEFF6F3F5FAF7F9FCF9FBFC19
:1451F400F9FBFCF9FBFCF9FBFCF9FBFCF9FBFCF9FBFCFAFA13
:14520800C7C5C5B9B7B69D9A96C5C3C3F1F1F1B2B0AFFCF92A
:14521C00FBFAF9FBFCF9FBFBF8FAFBF8FAFBF8FAFBF8FAFBF6
:14523000F8FAFBF8FAFBF8FAFBF8FAFCF9FBFCF9FBFCF9FBE1
:14524400FCF9FBFCF9FBFCF9FBFCF9FBFCF9FBFCF9FBFCF9C1
:14525800FBFCF9FBFCF9FBFCF9FBFCF9FBFCF9FBFCF9FBFCAB
:14526C00F9FBFCF9FBFCF9FBFCF9FBFCF9FBFCF9FBFCF9FB9A
:14528000FCF9FBFCF9FBFCF9FBFCF9FBFCF9FBFCF9FBFCF985
:14529400FBFCF9FBFCF9FBF7F6FAF9F7FDFAF9FDF7F6FAFC84
:1452A800F9FBFCF9FBFCF9FBF1F0F4F1F0F4ECEBEFE6E5E7FC
:1452BC00DBDADED1D0D4D1D1D1DFDCDEE7E4E6EFECEEF6F367
:1452D000F5FAF7F9FCF9FBFBF8FAFCF9FBFCF9FBFCF9FBFC42
:1452E400F9FBFCF9FBFCFAFAC7C5C5BAB8B79D9A96C5C3C350
:1452F800F1F1F1B2B0AFFBF8FAF9F8FAFBF8FAFBF8FAFBF819
:14530C00FAFBF8FAFBF8FAFBF8FAFBF8FAFBF8FAFBF8FAFB0A
:14532000F8FAFBF8FAFBF8FAFBF8FAFBF8FAFBF8FAFBF8FAF9
:14533400FBF8FAFBF8FAFBF8FAFBF8FAFBF8FAFBF8FAFBF8E4
:14534800FAFBF8FAFBF8FAFAF9FBFAF9FBFAF9FBFAF9FBFACB
:14535C00F9FBFAF9FBFAF9FBFAF9FBFCF9FBFCF9FBFCF9FBAF
:14537000FCF9FBFCF9FBFCF9FBFCF9FBFCF9FBF9F8FAF8F79F
:14538400FBF6F5F9F5F4F6FCF9FBFCF9FBFCF9FBF3F2F6F3B9
:14539800F2F6ECEBEFE6E5E7DAD9DDD0CFD1CECECEDCD9DBA7
:1453AC00E5E2E4EDEAECF3F0F2F6F3F5F7F6F8FAF7F9FAF70C
:1453C000F9FAF7F9FBF8FAFBF8FAFBF8FAFBF9F9C6C4C4BA3A
:1453D400B8B79D9A96C5C3C3F1F1F1B1AFAEFBF8FAF9F8FA85
:1453E800FAF7F9FAF7F9FAF7F9FAF7F9FAF7F9FAF7F9FAF744
:1453FC00F9FAF7F9FAF7F9FAF7F9FAF7F9FAF7F9FAF7F9FA2E
:14541000F7F9FAF7F9FAF7F9FAF7F9FAF7F9FAF7F9FAF7F91C
:14542400FAF7F9FAF7F9FAF7F9FAF7F9FAF7F9F9F8FAF9F806
:14543800FAF9F8FAF9F8FAF9F8FAF9F8FAF9F8FAF9F8FAFBE9
:14544C00F8FAFBF8FAFBF8FAFBF8FAFBF8FAFBF8FAFBF8FACC
:14546000FBF8FAF7F6F8F7F6FAF7F6F8F4F3F5FAF7F9FAF7E3
:14547400F9FBF8FAF1F0F4F1F0F4EAE9EBE3E2E4D9D8DCCED2
:14548800CACFCDCACCD9D6D8DEDDDFE9E6E8F1ECEEF4F2F299
:14549C00F3F3F3F4F4F4F5F5F5F7F5F5F7F5F5F6F3F5F7F4DD
:1454B000F6F6F4F4C5C3C3BCB8B79A9995C5C3C3F4F2F2B102
:1454C400AFAFF6F4F4F8F3F5F8F3F5F8F3F4F8F3F5F8F3F539
:1454D800F6F3F5F6F3F5F6F4F4F6F3F5F6F3F5F6F3F5F6F3A3
:1454EC00F5F6F3F5F6F3F5F6F3F5F6F3F5F6F3F5F6F3F5F68D
:14550000F4F4F6F4F4F6F4F4F6F3F5F6F3F5F6F3F5F6F3F57B
:14551400F4F3F5F6F3F5F6F3F5F6F3F5F6F3F5F4F3F5F5F46A
:14552800F6F5F4F6F5F4F6F5F4F6F5F4F6F5F4F6F5F4F6F54A
:14553C00F4F6F5F4F6F5F4F6F5F4F6F5F4F6F5F4F6F4F3F53A
:14555000F1F0F2F5F5F5F7F5F5F7F5F5EDECEEEDECEEE4E37E
:14556400E5E2DFE1D9D7D7C9C8CCCFCACBD1D1D1DBDBDBE27E
:14557800E2E2E5E7E7EDECEEF2ECF1F0EDEFF1EEF0F2EFF1A5
:14558C00F2EFF1F2EFF1F1EEF0F1EEF0C4C2C2B9B7B69C9A25
:1455A00099C5C3C3F4F2F2B3B1B1F0EEEEF1EEF0F1EEF0F1CB
:1455B400EEF0F1EEF0F1EEF0F1EEF0F1EEF0F1EEF0F1EEF02B
:1455C800F1EEF0F1EEF0F1EEF0F1EEF0F1EEF0F1EEF0F1EE16
:1455DC00F0F1EEF0F1EEF0F1EEF0F1EEF0F1EEF0F1EEF0F100
:1455F000EEF0F1EEF0F1EEF0F1EEF0EFEEF0EFEEF0EFEEF0F5
:14560400EFEEF0EFEEF0EFEEF0EFEEF0EFEEF0F0EFF1F0EFE2
:14561800F1F0EFF1F0EFF1F0EFF1F0EFF1F0EFF1F0EFF1EFBE
:14562C00EEF2EFEEF0EEEEEEECEBEDF1EEF0F2EFF1F2EFF1BC
:14564000E7E5EBE7E5EBDEDCE2DAD9DDD2D1D3C4C3C7CFCA5F
:14565400CBCFCACBD6D3D5DCD9DBE1E1E1E3E3E3E7E7E7E81C
:14566800E8E8E8E8E8E9E9E9E7E7E7E9E8EAE8E7E9E9E9E908
:14567C00C2C0C0BCB8B79C9897C5C3C3F3F1F1B1AFAFEBE9DF
:14569000E9EAE7E9EAE7E9EAE7E9EAE7E9EAE7E9EAE7E9EAD7
:1456A400E8E8EAE8E8EAE7E9EAE7E9EAE7E9EAE7E9EAE7E9C6
:1456B800EAE7E9EAE7E9EAE7E9EAE7E9EAE7E9EAE7E9EAE7B1
:1456CC00E9EAE7E9EAE7E9EAE7E9EAE7E9EAE7E9EAE7E9EA9B
:1456E000E7E9EAE7E9EAE7E9EAE7E9EAE7E9EAE7E9EAE7E98A
:1456F400EAE7E9EAE7E9EAE7E9EAE7E9EAE7E9EAE7E9EBE873
:14570800EAEBE8EAEBE8EAEAE8E8E9E6E8E7E6E8E4E3E5E86F
:14571C00E8E8E9E9E9E7E7E7DCDAE0DCDAE0D8D6DCD4D3D705
:14573000CFCACBCFCACBCFCACBCFCACBCFCACBD7D0D5D8D746
:14574400DBDADCDDE0DEDEE3E0E2E0DDDFE1DEE0E1DEE0E1E7
:14575800DEE0E1DEE0E0DDDFC0BEBEBCB8B79D9998C6C4C4C1
:14576C00F3F1F1B3B1B0E0DEDEE2DFE1E0DDDFE1DEE0E1DE08
:14578000E0E1DEE0E1DEE0E1DEE0E1DEE0E1DEE0E1DEE0E19A
:14579400DEE0E1DEE0E1DEE0E1DEE0E1DEE0E1DEE0E1DEE089
:1457A800E1DEE0DFDEE0DFDEE0DFDEE0DFDEE0DFDEE0DFDE80
:1457BC00E0DFDEE0DFDEE0DFDEE0DFDEE0E1DEE0E1DEE0E166
:1457D000DEE0E1DEE0E1DEE0E1DEE0E1DEE0DFDEE0DFDEE051
:1457E400DFDEE0DFDEE0DFDEE0DFDEE0DFDEE0DFDFDFE0DF44
:1457F800E1DCDAE0D5D4DEE0DDDFE1DEE0E1DEE0D2D1DAD276
:14580C00D1DAD2D1D3CBCBCBCFCACBCFCACBCFCACBCFCACB76
:14582000CFCACBCAC8C8CFCCCED3D0D2D8D2D3D4D1D3D7D537
:14583400D5D6D4D4D7D4D6D5D2D4D7D4D6D6D4D4BDBBBBBC23
:14584800B7B89B9998C5C3C3F4F1F3B2B0B0D6D3D5D6D3D5E0
:14585C00D6D3D5D6D3D5D6D3D5D6D3D5D6D4D4D6D4D4D6D49A
:14587000D4D6D3D5D6D3D5D6D3D5D6D3D5D6D3D5D6D3D5D686
:14588400D3D5D6D3D5D6D3D5D6D3D5D6D3D5D6D3D5D6D3D574
:14589800D6D3D5D6D3D5D6D3D5D6D3D5D6D3D5D6D3D5D6D35F
:1458AC00D5D6D3D5D6D3D5D6D3D5D6D3D5D6D3D5D6D3D5D649
:1458C000D3D5D6D3D5D6D3D5D6D3D5D4D3D5D4D3D5D4D3D53E
:1458D400D4D3D5D4D3D5D2D0D6CDCAD3CECDD1D7D5D5D6D44F
:1458E800D4D7D4D6CCCBCDCCCBCDC7C6C8CFCACBCFCACBCFA3
:1458FC00CACB00F3E7D3F3E7D3F3E7D3F3E7D3F5E7DFF6E9B5
:14591000DFF8EBE1F6E9DFF6E8E0F6E8E0F6E8E0F3E9DFF33A
:14592400E9DFF3EADDF3EADDF3E9DCF3EADDF3EADDF5EBDE49
:14593800F5EBDEF6ECDFF5EBE1F5EBE1F5EBE1F5EBE1F5EBF8
:14594C00E1F5EBE1F5EBE1F5EBE1F5EBE1F5EAE0F6ECDFF6EC
:14596000ECDFF5EBE1F5EBE1F5EBE1F5EBE1F5EBE1F5EBE1E2
:14597400F5EAE0F5EAE0F5EBE1F5EBE1F5EBE1F5EBE1F5EBBD
:14598800E1F6ECE2F5EBE1F5EAE2F6ECE2F5EBE1F5EAE0F5AB
:14599C00EAE0F3E9DFF5EAE0F3E8DEF3E8DEF3E9DCF3E8DED0
:1459B000F3E9DCF3E9DCF3E9DCF3E9DCF5EBDEF5EAE0F1E8AD
:1459C400DEF3E8E0F6E9E3ECE0DCF3E7D3F3E7D3F3E7D3F3D2
:1459D800E7D3F3E7D3F3E7D3F3E7D3F3E7D3ECDFD7F9ECE2E4
:1459EC00F3E7D3FAECDEF6E9D9F8EADCF9EBDDF8EADCF5E963
:145A0000DBF5E9DBF5E9DBF6EADCF3EBDAF5EBDAF8EEDBF85E
:145A1400EBD9F9EBDBFAECDCF8EEDCFAF1DFF5ECDEF9EFE125
:145A2800F8EEE0FAF1E2F8ECDEF9EEDFFAEFE1F9EEDFFEF3CE
:145A3C00E4F8ECDEFAF1E0F5ECDBF8EFDEF5EEDCF9F1DFF5E7
:145A5000ECDBF9F1DFF8EFDEF6EEDDF6EEDDF8EFDEF8EFDEE1
:145A6400F8EFDEF8EFDEF6EEDDF6EEDDF6EEDDF6EEDFF6EEBA
:145A7800DDF6EEDDF6EEDDF6EEDDF8EEDCF8EEDCF6ECDBF6C3
:145A8C00ECDBF6ECDAF5EBDAF5EBD9F5EAD8F5EAD8F5EAD8EB
:145AA000F5EBD9F5EBDAF3EBDAF6EADCF6EADCF6E9DDF3E7B9
:145AB400D3F3E7D3F3E7D3F3E7D3F3E7D3F3E7D3F3E7D3F30A
:145AC800E7D3F3E7DBF1E6D8F9EBDBF8EBD9F6EAD6F6EAD8C3
:145ADC00F8EBD9F8EBD9F5EAD8F5EAD9F5EBD9F6ECDAF5EE77
:145AF000DAF6ECDAFDF1DEFAECDAFDF1DEFBEEDEFAEEDDFA2E
:145B0400EFDEFBF1E0F9EEDFF5ECDEF6EBDDFDF1E3FBF1E212
:145B1800FAEFE1FDEFE1FAEFDEFBF1E0FAF1E0FAF3E1F9F1CC
:145B2C00DFFAF1E0F9F1DFF9F1DFF5EEDCF8EFDEF9F1DFF9E3
:145B4000F1DFF9F1DFF9F1DFF9F1DFF9F1DFFAF1E0FAF3E1C4
:145B5400F8EFDEF8EFDEF8F1DDF8EFDEF8F1DDF8F1DDF9EEB5
:145B6800DCF9EEDCF9EEDCF8EEDAF8EEDAF6EED9F6EED9F6D7
:145B7C00ECD8F5EBD7F5EBD7F5EBD7F8ECD8F5EBD7F6EBD701
:145B9000F5EAD8F5EBDAF5E9DBF3E7D3F3E7D3F3E7D3F3E7F6
:145BA400D3F3E7D3F3E7D3F6EADCF6E8D8F9ECDAF9EED9F6D9
:145BB800EAD6FBEED8FAECD6FAECD6FAEBD8F8ECD8F8EBD9AB
:145BCC00F6EED9F8EEDAF9EFDBF9EEDCF9EEDCFBEEDEF9EE51
:145BE000DDFDF1E3F9EEDFFBF3E5F9EFE2FAF1E3FAF1E4F90A
:145BF400EFE2FBF3E5F9EFE2FDF3E6FAEEE2F9EFE1FDF3E6F0
:145C0800F9EFE2FAF1E6F9EFE5F8EEE4FBF3E8FAF1E7F9EEC7
:145C1C00E4FFF6EDFAF1E6FBF1E7FBF3E5FAF1E4FAF1E3FAA0
:145C3000F1E3FAF1E3FAF1E4FAF1E2FAF1E2FAF1E0F9EFE1C1
:145C4400F9F1DFF9F1DFFAF1DFFAEFDEFAEFDEFAEFDDFAEEB4
:145C5800DCFAEEDCFAEEDBF9ECDAF8EBD9F8ECD8F6EBD5FAEE
:145C6C00ECD6F8ECD6F9EBD5F6EBD5F8ECD8F9ECDAF8EADC00
:145C8000F3E7D3F8EADCF3E7D3F3E7D3F3E7D3F5E9DBF5E808
:145C9400D6FDF1DEF6EAD4F8ECD6FBEFD7FAECD6FAECD6FAB9
:145CA800EBD8F9EED9F9ECDAF8EEDAF9EEDCFAF1DCFAF1DE93
:145CBC00FAF3E1F5ECDEFDF3E5F3EADDFBF3E6FAF1E6F3EE32
:145CD000E2F6EFE6F9F1E8F9F1E8F6EFE6F9F1E8F5EBE1FB16
:145CE400F3E8FBF3E8F9EFE5FBF3E8FAF1E8FAF1E8FDF3EAD8
:145CF800F9EFE6FAF1E8FFF6ECF5EAE2FAF1E8FDF3E8FDF3BA
:145D0C00E8FBF1E7FBF1E7FBF1E7FBF1E7FAF1E6FAF1E4FAB5
:145D2000F1E4FAF1E4FAF1E4FAF1E2FAF1E2FAF1E2FBF1E2C7
:145D3400FAEFE1FAF1DFFAEFDEFBEEDEFAEEDDFAECDCFAEECA
:145D4800DBF9ECDAFAECD6FAECD6FAEED5FAEED5FAEED5FA04
:145D5C00ECD6F8ECD8F6E9D9F3E6DCF6E9D9F3E6DCF3E6DC26
:145D7000F3E6DCF6EADCF5EBD9F3E8D6F5E9D3FBF1DAF6E8EF
:145D8400D2F9EBD5F9EED7FAEEDAFAEEDBFAEEDDFAEFDDFAB8
:145D9800EFDEF9F1DEFAF1E0F6EEE1FAF5E9F1EEE2F8F3E965
:145DAC00F5F3E8CCC9C1ABA8A0908D858B88808A877F8D8AEE
:145DC000828D8A82938E85B6B1A8E6E1D8FAF5EBFBF5EAF6B6
:145DD400F1E5FDF6EBF9F3E7FAF3E8F9F3E7FBF5EAFEF5EAD5
:145DE800FAF3E8FBF3E6FBF3E6FAF3E5FDF5E7FEF5E8FEF5B1
:145DFC00E8FBF3E8FAF1E7FAF1E7FAF1E7FAF1E7FAF3E5FAC1
:145E1000F1E4FAF1E4FAF1E4FAF1E3FBF1E2FAEFE1FAEFE1DB
:145E2400FAEEE0F9EEDFF9EEDDFAEEDDFBEEDBFAECD9FAECEA
:145E3800D6FAECD6FAEED5FAECD6F6EBD7F6E8D8F6E9DFF629
:145E4C00E8D8F6E9DFF6E9DFF6E9DFF6EBDDF5EAD9F3E9D71F
:145E6000F8ECD8F8ECD8F6EAD4FAECD9FAEEDAFAEEDCFBEED4
:145E7400DEFBEEE0FAEFE1FAEFE1FAF1E2FAF3E3F6EFE4F881
:145E8800F3E9F5EFE6827F77312F2624201A221F1A1F1A155B
:145E9C0025221D24211C211F19241F1A201D1528221A6865F4
:145EB0005DFBF5EEF8F3E9D4CDC4D1CCC3FAF3EAFAF5EDFF58
:145EC400F8EEF5EEE4FEF6EEFBF5EAFDF6EBFBF5EAFBF3E8D3
:145ED800FAF5E9FFF5EBFDF6EBFAF5E9FAF3E9FAF3E9FAF3B0
:145EEC00E8FBF3E8FBF3E8FAF1E7FAF1E7FBF1E7FAF1E4FACE
:145F0000F1E4FAF1E3FBEFE3FAEFE1FAEFE1FAEEE0FAEEE0F9
:145F1400FAEEDDFAECDAF9EAD7F9EBD5F9EBD5FAECD6F8EC28
:145F2800D8F5EBDAF6E9DFF5EBDAF6E9DFF6E9DFF6E9DFF130
:145F3C00E7DAF3E8DAF8EEDCF5EBD9F5E8D6FAEEDAFAEEDC27
:145F5000FAEEDBFAEEDDFAEEE0FAEEE2FAF1E3FAF1E3FAF19C
:145F6400E4FAF1E7FBF3E8FBF5EBFAF3EA3F3A32312B246957
:145F780065608A8681C7C2BFC1BCB9C2BDBAC5C0BDC5BEBB88
:145F8C00C5BFBA908783D6D0C9F8F1EAFDF6EF262019242161
:145FA00019322C25726F67D1CBC4FEF8F1FAF5EEF8F3E9FA17
:145FB400F5EDFBF6EEFDF5ECFAF5EBFDF5ECFAF5EDFAF5EBCC
:145FC800FAF5EBFAF5EBFAF5EBFAF3EAFAF5E9FAF5E9FAF5C1
:145FDC00E9FBF3E8FAF3E5FBF3E5FBF3E5FAF1E4FAF1E2FAE4
:145FF000F1E2F9EFE1FAEFE1FBEEE0FBEBDEFAECDAFAEBD82D
:14600400F8ECD6F6EBD5F6ECD8F6ECDBF1E6DCF6ECDBF1E65A
:14601800DCF1E6DCF1E6DCF6ECDFF6EBDDF3E9D8F5EBD9F650
:14602C00ECDAF8EBD9F9ECDAFAECDCF9EEDFFAEEE2FAF1E3FF
:14604000FAEFE5FAF1E6FAF1E7FAF1E7FAF1E7F8EEE5F9F182
:14605400E9FEF6EEFAF5F0F9F3EEFAF5F0F8F3EFFAF6F1F921
:14606800F3F1F8F1EDFBF5F1FFF6F1FDF3EFFBF3ECFAF3ED10
