:040000000C94A201B9
:080010000C94990A0C94CC0A2F
:04001C000C94FF0A37
:040024000C94AF0881
:0C0038000C94AD080C94AE080C947107F9
:0C0050000C94F0080C94AC090C94BA0954
:040060000C942C0AC6
:140070000C94D9090C94FC090C940A0AA51DAD1D2E1E2B1E80
:14008400F71DBF1D281EC91E621DC91EC91EC91EC91EC91E49
:14009800C91E4E1DC91E311EC91EC91E561DA31E0D1D2B1D58
:1400AC00C91EC91EC91E541E5F1E6A1E751E911EC91EC91E04
:1400C000C91EC91EC91EC91E381E9F1EC91EC91EC91E491D62
:1400D400C91EC91E801EA11EC91EA51EAD1EC81ED520A920D4
:1400E800AC20A320AF20A620C520D520D520D520D520BF2048
:1400FC00C520D520D520C520C520D520D520B120B420B720F1
:14011000BA20BD20C520C520C220474332393031005632306A
:14012400330046656220323720323031350031353A34373AD1
:14013800353700474332393031202020202020202020202091
:14014C009A99593F0000003FCDCC4C3D0000C0405C8F423E08
:14016000C3F5883F000020410000803F00000544666667432D
:14017400000000000020202020202020202030303030302047
:14018800202020202020202020202020202020202090404033
:14019C00404040404040404040404040400C0C0C0C0C0C0CBB
:1401B0000C0C0C40404040404040090909090909010101011D
:1401C400010101010101010101010101010101014040404017
:1401D80040400A0A0A0A0A0A0202020202020202020202023F
:1401EC000202020202020202404040402000000000000000CF
:140200000000000000000000000000000000000000000000EA
:140214000000000000000000000000000000000000000000D6
:140228000000000000000000000000000000000000000000C2
:14023C000000000000000000000000000000000000000000AE
:1402500000000000000000000000000000000000000000009A
:14026400000000000000000000000000000000000000000086
:140278000000000000000000000000804E0000803F000000E5
:14028C003F000000000000000000000000FF0000000000011F
:1402A0000200000000000000000000000000000028003601E9
:1402B4002800540100000000010000000000000000000014A4
:1402C8000000000100000000445348445200010000000000AB
:1402DC000000001400000001000001000000000000000000F8
:1402F0000000000000004A4200415400444600445200445322
:1403040000564D0056460056520000000018010044656300D9
:140318004E6F76004F63740053657000417567004A756C0008
:14032C004A756E004D617900417072004D6172004665620019
:140340004A616E00CFEFD8E0CDBFDEBFC451D0400AEA08834D
:140354000024EFEAF1E015E0E03FF10711F00192FBCF0083DA
:14036800E5E9F2E0A0E0B1E013E000E00BBFE434F10721F012
:14037C00C89531960D92F9CF0E94D81FFFCFAA92BA922E972E
:1403900083E090E0998388832AED32E08E010B5F1F4F0E942D
:1403A4006E21222428868091DF02803231F480E38A832090D9
:1403B800DE022B8210C08091DE02803231F480E38A832090EC
:1403CC00DF022B8206C02090DE022A822090DF022B82222409
:1403E0002C822090E30229862090E4022A8622242B862BEAC5
:1403F4000E9469290030010739F480E38093DA0281E3809393
:14040800DB0273C027EA0E9469290030010721F480E30E9439
:14041C002A2D69C023EA0E94432939F480E38093DA0283E34C
:140430008093DB025EC02FE90E94432939F480E38093DA0205
:1404440084E38093DB0253C02BE90E94432939F480E3809375
:14045800DA0285E38093DB0248C027E90E94432939F480E3A6
:14046C008093DA0286E38093DB023DC023E90E94432939F4F0
:1404800080E38093DA0287E38093DB0232C02FE80E944329A5
:1404940039F480E38093DA0288E38093DB0227C02BE80E94DE
:1404A800432939F480E38093DA0289E38093DB021CC027E80E
:1404BC000E94432939F481E38093DA0280E38093DB0211C07A
:1404D00023E80E94432931F481E38093DA028093DB0207C0D0
:1404E4002FE70E94432919F481E30E942A2D8FE28093DC0214
:1404F8002A802092DD022B802092DE028093DF022090E302EF
:14050C002092E0022090E4022092E10222242092E20220928E
:14052000E3022E96B990A99008952C970E943C2D80E08C83C2
:140534008D838E838F830E94CF290E942E2AF8940E94BF2CD3
:14054800442455240E94D52C0E94CE2D442455240E94372E96
:14055C000E94A82A810192010E94DC280E9431220E94642938
:140570000E94962A810192010E94DC280E9431220E94792921
:140584000E94962A0E94C529020D131D241D351D0E94D0230A
:140598000E942E2A0E947C2B0E9469270E94E22A18012901E9
:1405AC0000E711E00E94DB220E94DC280E94922B0E94E22A11
:1405C00078942C9608950E94162C06E243D31A014F5F5F4F63
:1405D40086EB91E0F101E80FF91F008139D386E090E048176E
:1405E80059078CF30091BC0131D30091BD012ED30091BE012E
:1405FC002BD30091BF01005D27D30091C00124D30091C101A9
:1406100021D32DD30AE010E06BD584E190E00E94332A0E9452
:14062400091003E115D300910C0112D31ED359914991089508
:14063800F999FECF12BD01BD20BDFA9AF99A0895F999FECFC2
:14064C0012BD01BDF89A00B508950E94A322AA2413C00A2DEA
:140660001127F2DF402F8BE391E0EA2DFF27E80FF91F208043
:1406740086EB91E0EA2DFF27E80FF91F2082A3948A2D8630FE
:1406880050F3282E8F5FA82E022D1127D9DFC02E4C2D86E015
:14069C00801720F483E08093BC0102C04093BC010E94F42A5A
:1406B000CBDF0E948D2D20F422242092BD0102C04093BD0113
:1406C4000E94F42ABFDFC02E4C2D83E0801720F481E08093DB
:1406D800BE0102C04093BE010E94F42AB1DFC02E4C2D80E1E3
:1406EC00801720F48AE08093BF0102C04093BF010E94F42AFD
:14070000A3DF0E948D2D18F48093C00102C04093C0016A2D3A
:14071400862F8F5F062F112795DFA02E4A2D81E0801718F404
:140728008093C10102C04093C10181E08093E10506E210E05F
:14073C0085DFA02E4A2D023019F482E08093E1050C94AA22FA
:140750000E94852266270BC08BE391E0E62FFF27E80FF91FCB
:140764002081062F112766DF6395663098F32091BC010E9405
:14077800462E5EDF2091BD010E94462E59DF2091BE010E94ED
:14078C000C2C54DF2091BF010E940C2C4FDF2091C0010E9461
:1407A0000C2C4ADF2091C1010E940C2C45DF0C9488220E9487
:1407B400302DEE24FF24CC24DD2402E210E042DF602F03E245
:1407C80010E03EDF402F6F3F71F00F3F61F0E62EFF24FE2C92
:1407DC00EE24C42EDD2417012C283D280E94C92C06C0209026
:1407F0001D0130901E010E94C92C0E9437290E947C2A0E9475
:14080400CA2B0E94EE2BA98204E110E06FD40EE21FD2088183
:140818001DD209811BD227D20AE010E065D422960C94692277
:14082C00AA92BA9222970E94CA2B2A2D02E210E0FDDE0E9438
:14084000EE2BA9822A2D03E210E0F6DE0E9437290E947C2A16
:140854000EE2FED10881FCD10981FAD106D22296B990A99014
:140868000895AA92BA920E94F32B0E94F82B2A2D04E210E0A5
:14087C00DDDE0E94F32B2A2D05E210E0D7DEB990A9900895EB
:140890000E94302D04E210E0D7DE602F05E210E0D3DE402F44
:1408A400E62EFF24FE2CEE24C42EDD2417012C283D280E9467
:1408B800022C8CE090E08215930514F40E94232E0E94B22A7A
:1408CC00843FEFEF9E0724F484EF9FEF0E94232E0E94F32B06
:1408E0000E94F82BA8820E94F32BA98204E110E0FFD303E39D
:1408F400AFD10881ADD10981ABD1B7D104E110E0F5D3229686
:140908000C9469220E947622C22E580185010E946221E02E74
:14091C0007C0EE2DFF27EA0DFB1D80E28083E394EC14B8F329
:14093000EC2DFF27EA0DFB1D222420820C9464220E94162C73
:1409440009C08A01085D1F4F7DDE0E94552B00834F5F5F4F1C
:1409580088E090E04817590790F322242092F2020AEE12E09B
:14096C000E94AC251093D7020093D6023093D9022093D802F2
:140980004427552709C08A01085E1F4F5DDE0E94552B008374
:140994004F5F5F4F88E090E04817590790F322242092F202ED
:1409A8000AEE12E00E94AC251093D3020093D2023093D50265
:1409BC002093D4025991499108954A935A930E94FA29442743
:1409D000552709C00E94552B20818A01085D1F4F2BDE4F5FF6
:1409E4005F4F88E090E04817590790F38AE00E94D4298ADFC5
:1409F8004427552709C00E94552B20818A01085E1F4F16DE25
:140A0C004F5F5F4F88E090E04817590790F380E08093CE021D
:140A20008093CF028093D0028093D1022496599149910895F8
:140A34000E948D220EDE01E010E004DE602F77276F3FE0E023
:140A48007E0731F481DE222433240E94022C09DF6627772711
:140A5C00442710C086EB91E00E94382AA0808BE391E00E94C4
:140A7000382A2080A21419F061E070E045E04395453070F34B
:140A84006030670721F144270BC08BE391E00E94382A208095
:140A980086EB91E00E94382A20824395463098F383E0809373
:140AAC00BC0122242092BD0181E08093BE018AE08093BF0153
:140AC00081E08093C0018093C1010E94A82B7BDF3FDE20907C
:140AD400BD01222031F00E94062992600E94012905C00E94F7
:140AE80006299D7F0E9401292090BE01209241012090BF0110
:140AFC002092C30586B18170813019F40E94982C03C0222417
:140B100020922A010C9492224A935A930E948F294427552795
:140B240002E310E0D8D24F5F5F4F82E390E048175907B4F3A7
:140B38000E94A02A5991499108950E947D225801442755275B
:140B4C000E948F2905C002E010E0CCD24E5F5F4F4A155B05EC
:140B600068F40E94602D803DE7E09E0738F488E090E00E9427
:140B7400FD2B2816390658F30E94A02A0C948222AA92BA9245
:140B880058010E948F298501AFD20E94A02AB990A990089514
:140B9C00AA92BA92AA24BB240E94E1288D7F0E94E6280E9407
:140BB0007E2C2090E10520920A0181E0809350010E941F2A84
:140BC400025E1F4FEAD00E94BC2B0E94962921F0833011F0E6
:140BD800853029F40E94E12891600E94E628B990A9900895CC
:140BEC00209039012220A1F020904D01222039F00E94E62C1B
:140C00008FE08093C400789406C00E94E62C8FEB8093C400C3
:140C1400789401E010E06AD229982224209239010895209073
:140C28003901222049F40E94E62C86E08093C400789401E021
:140C3C0010E058D2299A81E0809339010E94E1288F7E0E94BF
:140C5000E628089520903901222011F4479A469A2090C00083
:140C640025FEFCCF0093C60008950E94E128877F0E94E62837
:140C78008B7F0E94E6280E94E22B0DE0E7DF20900001822DEC
:140C8C008870883021F0822D84708430B1F720903901222068
:140CA00011F44798469801E010E022C22090C00027FC02C074
:140CB40021E001C022271B9902C001E001C00027222E202250
:140CC80089F71B9B03C00027112703C00091C60011270895D1
:140CDC000E947D2244275527E3DFA02E1A014F5F5F4F87E866
:140CF00095E0F101E80FF91FA0821B9BF3CF2A9A87E895E038
:140D0400FA010E94792D8A010C9482220E943C2C0AC00E9453
:140D1800E128877F0E94E6280E94512D97DF4F5F5F4F4C15B5
:140D2C005D059CF30C949E222090C80025FEFCCF0093CE009B
:140D4000112708950E943C2C05C00E94512DF2DF4F5F5F4FAE
:140D54004C155D05C4F30C949E228CEC81B98DE382B986EBE3
:140D680084B985EE85B980ED87B98CE288B98AE18AB98AE60F
:140D7C008BB9089582E080936E00222425BA84BD85E085BD92
:140D900088EB86BD88E487BD88BD23BC08950E94162C0E94A2
:140DA400B02D81F0843071F0843161F0853151F0863141F0F3
:140DB800873131F0873021F0863011F0853029F48091CA051D
:140DCC00853009F035C000300107C1F00E94672B20163106E6
:140DE00008F42CC00E94E12892600E94E6280E94AD2A0E94AF
:140DF400E12890610E94E6288D7F0E94E6280E946A2A1AC075
:140E08000E94E1289D7F0E94E6280E948F2980912A01823017
:140E1C0039F40E940F2A0E940F2A2224209250010E94E128EB
:140E30009F7E0E94E62882B18C6082B90E94962959F083302A
:140E440049F0863039F0853029F0883119F0873009F03AC048
:140E58000030010791F00E94E12892600E94E6280E94AD2A07
:140E6C000E94E12890610E94E6288D7F0E94E6280E946A2A34
:140E800025C00E94E1289D7F0E94E6280E948F298091500146
:140E9400813039F40E940F2A0E940F2A2224209250010E94CB
:140EA800E1289F7E0E94E62882B18C6082B90E94E1289F7B41
:140EBC000E94E628222420920C0191600E94E62810938B009E
:140ED00000938A0010933501009334015991499108950A9253
:140EE4001A920E94B5290E94FA2C80912A018831F1F480911B
:140EF800C1059091C2058039E1E09E0710F40E94122D0E9492
:140F0C00DC2A19F4332009F4D8C0C10101970E94972B803068
:140F2000890709F0D0C00E94E12881600E94E628CAC08091CD
:140F3400C1059091C2058039E1E09E0710F40E94122D8091E6
:140F4800CC029091CD0201969093CD028093CC028CE39EE27E
:140F5C002090CC023090CD0282159305E0F422243324309212
:140F7000CD022092CC028091C9028F5F8093C9028BE3209058
:140F8400C902821560F422242092C9028091CA029091CB0215
:140F980001969093CB028093CA020E94DC2A11F4332061F08E
:140FAC00C10101970E94972B8030890729F40E94E12881608A
:140FC0000E94E6282090BD053090BE05222011F43320F1F0FD
:140FD400C10101979093BE058093BD0580308907A9F40E9475
:140FE800E12882600E94E6280E94742D839620903401309059
:140FFC0035012816390630F481E080931A0100271127C7DE77
:141010002090BB053090BC05222011F4332071F0C101019786
:141024009093BC058093BB058030890729F40E94E128846015
:141038000E94E6282090B9053090BA05222011F4332061F01C
:14104C00C10101970E94F6288030890729F40E940629816067
:141060000E9401292090B7053090B805222011F4332071F0CC
:14107400C10101979093B8058093B7058030890729F40E9460
:14108800062980610E9401292090B5053090B605222011F44C
:14109C00332099F0C10101979093B6058093B505803089071F
:1410B00051F40E94B02D11F0853029F40E94062991600E9431
:1410C400012909900FBEF991E991B9910E949B291990099092
:1410D80018950E94162C02C04F5F5F4F40175107D8F35991F1
:1410EC00499108950030010711F401E010E01093C005009370
:14110000BF050E94E1288E7F0E94E6288091000181708130FB
:14111400D9F7089522242092810084E080936F0026BA209269
:1411280082008EEF8093850084E38093840081E08093890021
:14113C0080E7809388000E94502E81E0809387008CEC8093F7
:14115000860081E2809380000895189518950E94612C8FB7A3
:141164008A930E94602D019690934301809342018091440181
:1411780090914501883AE1E69E0728F401969093450180939F
:14118C00440189918FBF0E94E12C1895222427BA82E08093AA
:1411A000B0008093B1002092B20084E28093B3002092B400D1
:1411B4002092B60023BC089522242092C60082E08093C00050
:1411C80088ED8093C10086E08093C2002092C5008FEB80938B
:1411DC00C40008952A923A920A930E94612CFA932FB62A921C
:1411F00020903901222009F06AC00E94E22B0E94E1288B7F38
:141204000E94E6280091C60020904C01822D8F5F80934C01D5
:1412180088EC91E00E94482C00830E94022B09F48EC020907A
:14122C007505822D8F5F8093750587E895E00E94482C00838D
:1412400020903A01222009F42FC00D3049F40E94E12880617B
:141254000E94E62822240E94712A73C0013181F481E0809305
:141268004E0122240E94712A8091C6019091C7010196909325
:14127C00C7018093C60161C0033109F05EC0222420924E0109
:141290000E94712A8091C4019091C50101969093C5018093BD
:1412A400C4014FC00D3049F40E94E12880610E94E628222466
:1412B8000E94D62A44C00E94562D09F040C0222420927505EC
:1412CC003CC00E94342C08F02CC00E94E22B0E94E1288B7FC8
:1412E0000E94E6288071803109F42DC00091C6000E94EC2DAC
:1412F400C1010196909374058093730583EF92E0F101E80F99
:14130800F91F00830D3049F40E94E12880610E94E62822243A
:14131C000E94D62A12C00E94562D79F40E94D42B0CC00E94A8
:14133000342C31F40E94E12881600E94E62803C0222420922D
:14134400750529902FBEF9910E94E12C099139902990189573
:141358008A939A938FB78A930E94E12880620E94E62889917D
:14136C008FBF9991899118958A939A938FB78A930E94E128D6
:1413800088600E94E62889918FBF9991899118952224209270
:14139400CE002092C80088ED8093C90086E08093CA002092B7
:1413A800CD0087E08093CC0008952A928A939A93EA93FA9371
:1413BC002FB62A9280917605883080F4282E8F5F80937605F2
:1413D00083EA95E00E94482C2090CE0020824F9B03C081E0E3
:1413E40080932F0129902FBEF991E99199918991299018955E
:1413F8008A939A938FB78A930E94E12880680E94E6288991D7
:14140C008FBF9991899118958A939A938FB78A930E94E12835
:1414200080640E94E62889918FBF99918991189522242092D3
:141434007A0081E480937C0080E880BF20927B002092790037
:141448002092780082E480937E0020927A0008950E94B52926
:14145C00EA932FB62A928091E505803408F05DC02090780072
:1414700033243092ED052092EC05209079003324322C222496
:141484004090EC055090ED05422853285092ED054092EC0545
:14149800C201823AE3E09E07E0F41C01442455248090EA0588
:1414AC009090EB056090E8057090E905620C731C841C951C03
:1414C0007092E9056092E8059092EB058092EA058091E5053B
:1414D4008F5F8093E5058091E505803411F586E090E02091DD
:1414E800EA053091EB050091E8051091E9058A930E948421DF
:1414FC001093E7050093E60522242092E50580E08093E8058D
:141510008093E9058093EA058093EB050E94E12898600E947C
:14152400E62829902FBEE9910E949B2918952A923A928A93CD
:141538009A932FB62A920E94962941F0833031F0873021F0A3
:14154C008C3011F0853061F48091C8059091C905019690933D
:14156000C9058093C8050E94242A0FC0222433243092C905DD
:141574002092C80520905701222019F00E94242A02C00E943D
:141588005C2A29902FBE999189913990299018952A923A9228
:14159C008A939A932FB62A920E94962941F0833031F0873033
:1415B00021F08C3011F0853061F48091C6059091C7050196EF
:1415C4009093C7058093C6050E94242A0FC022243324309228
:1415D800C7052092C60520905701222019F00E94242A02C0B1
:1415EC000E945C2A29902FBE999189913990299018950A920E
:141600001A920E94B5290E94FA2CAA92BA9289B18076809317
:14161400B3052090B405382E821509F475C1A82EA22485FD53
:1416280028C0809125019091260101960E94F52C8091C80212
:14163C008F5F8093C8028091140190911501019690931501A2
:14165000809314018091160190911701019690931701809318
:14166400160180E390E00E946C2B8215930518F481E00E9411
:14167800F52CA6FE74C02090B30526FC2DC081E090E0A0E09D
:14168C00B0E040901201509013012090100130901101280E1A
:1416A000391E4A1E5B1E30921101209210015092130140929F
:1416B40012012091C1053091C20505E010E00E9421221093B3
:1416C8000F0100930E010E94662C81E090E00E94F52C809381
:1416DC00E00543C082E08093E00581E090E0A0E0B0E0409007
:1416F000D8025090D9022090D6023090D702280E391E4A1E3B
:141704005B1E3092D7022092D6025092D9024092D80281E069
:1417180090E00E94872B280E391E4A1E5B1E3092CF02209246
:14172C00CE025092D1024092D00281E090E0A0E0B0E04090CF
:14174000D4025090D5022090D2023090D302280E391E4A1EFA
:141754005B1E3092D3022092D2025092D5024092D402809179
:141768005B01813029F50E946C2B0E94B22A43962816390635
:14177C0031F082E390E08215930508F0BDC082E080935B01EE
:141790000027112704DB0E946A2A0E94E1288D7F0E94E6286A
:1417A40081E18093810082B18C6082B982E080930B01A6C0FA
:1417B80088EC90E020900E0130900F018215930528F0809152
:1417CC002701813009F098C080910A01813029F080912701C0
:1417E000813009F043C00E946C2B0E94B22A0B962816390673
:1417F40031F082E390E08215930508F035C000271127CBDACB
:1418080081E080930B0180912701813039F40E941E2D26FE24
:14181C0003C082E080930B010E946A2A0E94E1288D7F0E94E5
:14183000E6289F7B0E94E6289F770E94E62820902A01822D7C
:14184400843131F0853121F0863111F0873129F40E94E128BB
:141858009D7F0E94E6280E9406298D7F0E9401290E94182D20
:14186C0080910A01823029F080912701813009F043C00E94F9
:14188000AB2D0E94B22A8096A816B90631F082E390E08A15D6
:141894009B0508F035C0002711277FDA82E080930B01809169
:1418A8002701813039F40E941E2D26FC03C081E080930B01D4
:1418BC000E946A2A0E94E1288D7F0E94E6289F7B0E94E628B1
:1418D0009F770E94E62820902A01822D843131F0853121F017
:1418E400863111F0873129F40E94E1289D7F0E94E6280E944A
:1418F80006298D7F0E9401290E94182D2090B3052092B4051B
:14190C00B990A99009900FBEF991E991B9910E949B29199082
:14192000099018950EE00E942A0600912A010E940B296FD3D9
:1419340003E10E942A0600910C010E942A060C943706F89410
:141948000ADA1ADAE5DB24DC35DC1EDD6DDD82E080936E00BA
:14195C0084E080936F0082E08093700081E080936B008093BA
:141970006C00222420926D0080EE809373002DBA209269009C
:141984008BE08093680025BE20926400789408954A93402F7B
:1419980089E0841708F449E00FE00E942A06042F0E940B2948
:1419AC000FE010E09FDB499108950E94E12880709870803004
:1419C000E8E09E0709F042C086B181708130C1F480912301E8
:1419D400909124018130E0E09E0729F0169A09E110E084DBA1
:1419E800169881E00E94242D0E94CB2A0E94E1289B7F0E94EB
:1419FC00E62821C00E946D2C8932E2E09E0760F480308907F7
:141A1000C1F082E00E94242D0E94E12894600E94E6280FC09E
:141A24002224332430920501209204013092240120922301D5
:141A38000E94E12894600E94E6280E94E128977F0E94E628DA
:141A4C0008950E9485222C9780ED97E00E94C32B30F42224FF
:141A600033240E94722C0E94872A80910401909105018F3F7D
:141A7400E0E09E0711F49DDFBAC082EA93E00E94BA2D8215FF
:141A8800930558F4169A09E110E02EDB16980E94CB2A222448
:141A9C0020925E01A8C04090E6055090E70589E292E04816FB
:141AB0005906A8F082EA93E08415950580F081E080935E01D6
:141AC40080915D01813009F092C05DD3222420925D0104E633
:141AD80010E00ADB8AC00E946D2C8932A2E09A0708F083C087
:141AEC000E94E128807098708030A8E09A0709F07AC00E9495
:141B00006D2C8832A2E09A0708F06EC00E94672B60911B01F4
:141B140070911C016219730944E152E08B010E94C7230E9497
:141B28002E2A0E94322E8A010E94C7230E94DC280E94922B33
:141B3C000E942E2A8B01009510950F5F1F4F0E94C7230E94CB
:141B500064290CE60E94D82D0E944D2C0E9464290E94A82A9D
:141B64008A010E94C7230E94DC280E94922B0E9464290E9480
:141B7800A82A0E941F2A0E94C7230E94DC280E94E9290E9414
:141B8C0064290091E6051091E7050E94C5230E9479290E943F
:141BA0009B2ACE0108960E944D2C0E9479290E949B2ACE016A
:141BB4009A938A930E9479230E9479290E949B2A0E949B238A
:141BC800A80180915E01813059F40030010711F441E050E064
:141BDC008A010E94CF0681E080935D010E94E128977F0E94BE
:141BF000E6280E945B2D39F40E94CB2A0E94E1288D7F0E948C
:141C0400E6280E94BA2DC1018A3EE2E09E0708F031C086E8ED
:141C180092E08215930508F02BC080915F01909160010196AA
:141C2C009093600180935F010E946A2D61F080ED97E00E949D
:141C4000DA2C38F40E94062980620E9401290E94DB2B80E6D1
:141C54009AEE0E94DA2C08F5B7D3169A0FE010E045DA169869
:141C68000E9406298F7D0E9401290E94DB2B13C00E94DB2B9C
:141C7C000E946A2D71F40E9484297DD304E610E031DA04E14D
:141C900010E02EDA0E9406298F7D0E9401292C960C94882293
:141CA4004A930E94F6050E94E1288F7E0E94E62820903A015F
:141CB800222019F449E20E948A2C209173053091740503EFF1
:141CCC0012E00E9488060E94D42B4991089584E690E00E944E
:141CE000972B0E94022B29F00E94DC2AD1F73320C1F702E0E9
:141CF40010E0FCD90E9413060E94852C30F4232D332707E84C
:141D080015E00E94880622242092750502E010E00C9478083E
:141D1C004A930E94F60549E20E94E1288F7E0E94E6280E9404
:141D30008A2CB8DF0E94370681E08093390180934D010E94C2
:141D4400F605222420927505809175058130E0F340918705B2
:141D58002224209275050E941306042F0E942A063199FECFAE
:141D6C0012C01B9910C020904E01222061F00E9413062A98FE
:141D80001B9BFECF2A9A0E94C12A8CDF0E943706A4DF319BE2
:141D9400ECCF0E94C12A222420924D010E94F6050E94C12A83
:141DA8000C940000499108950E948D22619721E60E94EE2907
:141DBC000030010709F057C020903A01222049F541E050E00F
:141DD00080918905843209F0442780918A05853511F0442780
:141DE400552780918B058A3A11F04427552780918C058333CA
:141DF80011F04427552780918D05863611F044275527809197
:141E0C008E058C3C0E94002D09F4F3C00C940038F0C041E03F
:141E200050E08091F502843209F044278091F602843411F09A
:141E3400442755278091F702893411F0442755278091F802F9
:141E4800833511F0442755278091F902803511F0442755273D
:141E5C008091FA028C340E94002D09F059DF222420923A0172
:141E7000C6C024E60E94EE2900300107F9F48BE391E0FE0112
:141E840001E110E0FA93EA939A938A930E9410234427552768
:141E98002224298ABA014F5F5F4FCE01FB01E80FF91F0081CB
:141EAC000E942A0681E190E0481759078CF3A1C027E631E0C1
:141EC00002EE15E00E944D2969F4ECDE0E94370604DF809117
:141ED4008805863409F091C081E080933A018DC02AE631E04C
:141EE80002EE15E00E944D2969F4D8DE0E943706F0DE809118
:141EFC008805823509F07DC081E080933A0179C02DE631E04C
:141F100002EE15E00E944D2969F4C4DE0E943706DCDE809117
:141F24008805833509F069C081E080933A0165C020E731E056
:141F380002EE15E00E944D2949F40E94130624E030E00AED95
:141F4C0015E00E94CA2955C023E731E002EE15E00E944D29CA
:141F600021F50E94E1288F7E0E94E6280E94F60505E30E94C8
:141F74000B2984E690E00E94972B0E94022B29F00E94DC2A57
:141F8800D1F73320C1F70E94C12A0E94852C30F40E94772C29
:141F9C0005ED15E00E94CA290E9413062AC026E731E002EE02
:141FB00015E00E944D2919F50E94E1288F7E0E94E6280E94F8
:141FC400F60506E30E940B2984E690E00E94972B0E94022B42
:141FD80029F00E94DC2AD1F73320C1F70E94C12A0E94852C81
:141FEC0030F40E94772C00ED15E00E94CA290E9413060E94A4
:14200000D42B0E94E1288F7E0E94E62861960C94922227975C
:142014000E94E92B0BE00E94B72A998388830E944C2D8E01C3
:142028000E5F1F4F0E940D2623E030E08E010E5F1F4F0E94D5
:14203C0088060E943706279608954A9301E10E942A06809127
:14205000E105813011F443E001C044E0042F0E940B294991F5
:1420640008950E947D222224209227010E94AB290E94D02A58
:142078000E94F62D20921A0120902A01822D843131F08531AC
:14208C0021F0863111F0873129F40E94E1280E94892951F45E
:1420A0000E94962939F0833029F0853019F0883109F029C07D
:1420B4000E94E12892600E94E6280E94AD2A0E94E1289061B6
:1420C8000E94E628222433240E94702940912A01443169F0B2
:1420DC00453159F0463149F0473139F0453029F0483119F0D0
:1420F000463009F033C08FEF80930A0181E090E00E94F6284D
:142104002BC00E94E12892600E94E628A090CC05B090CD057C
:142118000E944C2D85010E94212224E630E00E9492210E941C
:14212C00EB2840910B01442311F04F3F11F40E94EB2C8FEF7D
:1421400080930A0180912A01823041F462DF0E9406298F7732
:142154000E9401290E94C12A0E949D2C69F001E00E940B29A3
:142168000E94452B01E00E940B290E94452B01E00E940B29D1
:14217C000E94062980680E9401290C9482220E947D22809134
:142190002A01823009F031C085E090E00E94402B8215930563
:1421A40050F58FEF80930A010E94CB2A22240E94D02A25E0C8
:1421B80030E000913201109133010E949221A02E88E0801748
:1421CC0070F44A2D552706C003E010E00E94780841505040CC
:1421E00088E090E084179507ACF30E948F290E94E92B82B1FA
:1421F4008C6082B930C080912A01853021F4169882B18C60ED
:1422080082B90E94962931F0833021F0863011F08730F9F4E6
:14221C000E94CB2A442755270E94BA2C8931E0E09E0718F47D
:142230004AE050E004C004E010E00E9478084F5F5F4F8AE0C0
:1422440090E04817590764F30E948F290E94E92B82B18C60D1
:1422580082B902E00E940B29222420920C018091E1058130D2
:14226C0019F50E94A12D0E94E22DC1010B9648165906D0F04F
:14228000C101429648165906A8F480912A01853089F00E944B
:142294001F2A0E94CF060E94B22A42960E946C2B281639066A
:1422A800C1F70E9484290E94EB2C30C08091E105823029F5AB
:1422BC000E94AB2D4091590150915A01CA010A96A816B90645
:1422D000D0F0CA018796A816B906A8F480912A01853089F0CF
:1422E4000E941F2A0E94CF060E94B22A87960E946C2B281672
:1422F8003906C1F70E9484290E94EB2C07C08FEF80930A0170
:14230C000E947E2C0E94CE0580912A01823081F00E940629CC
:1423200084600E9401290E94E1289F7B0E94E628222420928C
:142334000C0191600E94E6280E9406298F770E9401290E94A2
:14234800E1289D7F0E94E6289F7E0E94E62802E00E940B2927
:14235C0088EE93E00E94872B82159305A405B50524F40E94E4
:142370004E2A0E94E304222433240E94F62D0C94822222246C
:142384000E94D02A83E020900B01282620920A0180912A0143
:142398008B3149F40E941F2A0E94052E8EE190E00E94F628D9
:1423AC0007C081E0809350010E941F2A0E94052E0E94E12826
:1423C0008D7F0E94E6280E94BC2B089583E02090E1052826E0
:1423D4002092E105222D06E210E00E941C0331CE0E947D2235
:1423E800279744270BC087E895E00E94382A2080CE010296FE
:1423FC000E94382A20824395453098F380912A01823009F068
:1424100044C084E690E020903201309033018215930514F4CC
:142424000E94332A8B81823381F42AE030E0009132011091F0
:1424380033010E948E21002331F40E94192B0A970E94332A3D
:14244C0005C00E94192B05970E94332A0E94192B8530E0E0DB
:142460009E0724F485E090E00E94332A0E94E1280E948929D8
:1424740081F42091CC053091CD0500913201109133010E948F
:14248800212224E630E00E9492210E94EB28BDDD34C00E94A9
:14249C00962919F0833009F019C08091C30581508093C3055A
:1424B000843018F484E08093C3050E9410290E94352B0E949A
:1424C4004F2B0E94C7230E94DC280E94922B0E94532A15C005
:1424D80080912A01853089F480914101815080934101813058
:1424EC0018F481E0809341010AE00E942A06009141010E94E9
:142500000B2927960C9482220E947D22279744270BC087E8EE
:1425140095E00E94382A2080CE0102960E94382A20824395B5
:14252800453098F380912A01823009F044C00E94192B853019
:14253C00E0E09E0724F485E090E00E94332A8B81823381F404
:142550002AE030E000913201109133010E948E21002331F42B
:142564000E94192B0A960E94332A05C00E94192B05960E94F6
:14257800332A84E690E020903201309033018215930514F40A
:14258C000E94332A0E94E1280E94892981F42091CC05309185
:1425A000CD0500913201109133010E94212224E630E00E941B
:1425B40092210E94EB282BDD38C00E94962919F0833009F095
:1425C8001BC08091C3058F5F8093C30580E12090C305821512
:1425DC0010F48093C3050E9410290E94352B0E944F2B0E9471
:1425F000C7230E94DC280E94922B0E94532A17C080912A01B6
:14260400853099F4809141018F5F8093410183E02090410195
:14261800821510F4809341010AE00E942A06009141010E948D
:14262C000B2927960C9482224A930E945B2D0E940C2D39F456
:142640000E9484290E94E1288D7F0E94E628499108950E94B7
:142654007222A0970E94CF290E94142E0E94CF290E941E2EA1
:142668000E94CF290E9479290E94CF290E942E2A0E94CF2952
:14267C000E946429002411241D8A0C8AAA24BB2487E090E001
:142690009F8B8E8B88E0998F888F87E09B8F8A8F86E09D8F10
:1426A4008C8F9F8F8E8F84E07C0185E06C010E94A92C09F495
:1426B8000FC380ED97E00E94C32B08F0FFC20E94BF2C3D8ABB
:1426CC002C8AA090C605B090C7050E943D2A222433240E94F5
:1426E00070290E94BC2A0E94722C209279010E94872A2C8951
:1426F4003D8989010E94652D0E94142E950185010E94652D1A
:142708000E941E2E0E94C42CCE0140969A938A930E94792310
:14271C000E9479290E94962A0E94352B0E94DC280E942F2C5E
:1427300084F481E090E0909352018093510122243324309212
:14274400B5012092B40182E30E94E72D33C020905101309094
:142758005201222011F43320C1F00E946F2D8233E0E09E0777
:14276C0090F481E090E00E94C42D8215930520F4C1010297D3
:142780000E94E72D0E946F2D02969093B5018093B40182E3B3
:1427940090E02090B4013090B5012816390650F0222433248C
:1427A800309252012092510130925401209253010E94962A85
:1427BC000E94CF290E94DC280E942F2C61F50E94CF290E943A
:1427D0002E2A2224209279012090480130904901222041F4B1
:1427E400332031F40E94C92D222011F4332041F180912A01C9
:1427F800833021F50E94BA2C8232E0E09E0720F408E210E075
:14280C000E94A105222433240E940A2E3092470120924601F6
:1428200011C00E949B2A0E9469270E942E2A80912A01833051
:1428340039F40E9406299E7F0E9401290E94A12B0E94322E39
:142848000E94CF290E94DC280E942F2C19F4AA24BB2403C0C2
:14285C0081E090E05C01CE01049604E611E00E94DB229A932A
:142870008A930E948D252CF40E94C42D0E94FB2D04C022245C
:1428840033240E94FB2D8091C305843009F01DC085010E9494
:14289800C5231801290100E611E00E94DB223801490148853B
:1428AC0059856A857B850091C30511270E94C7230E94DC2888
:1428C0000E9459290E891F890E94A92800C18091C3058530DF
:1428D40009F01DC085010E94C5231801290100E611E00E944E
:1428E800DB2238014901488559856A857B850091C305112731
:1428FC000E94C7230E94DC280E945929088D198D0E94A928C4
:14291000DEC08091C305863009F01DC085010E94C523180187
:14292400290100E611E00E94DB2238014901488559856A85E2
:142938007B850091C30511270E94C7230E94DC280E945929A4
:14294C000A8D1B8D0E94A928BCC08091C305873009F01DC0E3
:1429600085010E94C5231801290100E611E00E94DB22380161
:142974004901488559856A857B850091C30511270E94C7234E
:142988000E94DC280E9459290C8D1D8D0E94A9289AC0809150
:14299C00C305883009F01DC085010E94C5231801290100E698
:1429B00011E00E94DB2238014901488559856A857B850091D5
:1429C400C30511270E94C7230E94DC280E9459290E8D1F8D62
:1429D8000E94A92878C08091C305893009F01CC085010E94B1
:1429EC00C5231801290100E611E00E94DB22380149014885E6
:142A000059856A857B850091C30511270E94C7230E94DC2832
:142A14000E94592987010E94A92857C08091C3058A3009F0EC
:142A28001CC085010E94C5231801290100E611E00E94DB22F5
:142A3C0038014901488559856A857B850091C30511270E9436
:142A5000C7230E94DC280E94592986010E94A92836C0850148
:142A64000E94C5231801290100E611E00E94DB223801490198
:142A7800488559856A857B850091C30511270E94C7230E94F1
:142A8C00DC280E94592900915301109154010E94C5230E9407
:142AA000DC28830194010E949123810192010E947125180149
:142AB400290100914A0110914B010E94C5230E94DC280E9449
:142AC800E9290E9464290E94C92D0E940A2E0E94C5290E9415
:142ADC009B23109347010093460180E197E20E94A22C08F021
:142AF00074C00E94742D0A960E94C5290E949B23801791079C
:142B040008F038C08091180190911901019690931901809381
:142B180018018A30A0E09A0709F02AC00E94292931F00E941B
:142B2C00402B222019F5332009F520900C012220E9F401E3C9
:142B40000E940B290E94CF290E9464290E941F2A0E94CF0680
:142B54000E94202C0E94C5100E94062984600E9401290E94E5
:142B6800632A20903001222019F00DE60E949A060E94672B37
:142B7C000E94C5290E94472D90F420900C01222071F4209007
:142B9000C001222009F0169A81E080930C010E94E128916068
:142BA4000E94E62814C00E94672B0E94C5290E94422D68F468
:142BB80020900C01222049F01698222420920C010E94E12873
:142BCC0091600E94E628222433240E94522C80912A018430A7
:142BE00069F40E9437290E94C5290E94422D30F40E941F2AD2
:142BF4000E94C7230E9464290E94672B0E94C5290E94472D38
:142C080040F40091CE051091CF050E94C7230E94642900915F
:142C1C00C2011091C3010E94C5230E94DC280CE50E94D82DB4
:142C300004960E944D2C1801290108E511E00E94DB220E9479
:142C4400DC280E94E9290E949525D4F4CE0104960E94352B35
:142C58000E94432C9CF40E94BA2C8132E0E09E0738F420904B
:142C6C000C01222019F40E948F2902C00E94CB2A81E08093D1
:142C8000790103C022242092790120901A012220C9F4209017
:142C940079012220A9F40E94A02A0E94A82A0E94CF290E94B7
:142CA800DC280E942F2C21F40E94352B0E9464290E94C52941
:142CBC000E949B230E94CF0680910A018F3F19F0282E209232
:142CD0000B018FEF80930A010E9406290E943A2B61F40E9479
:142CE400C5100E94062984600E9401290E94632A9E7F0E9498
:142CF8000129A0960C9469224A935A9344270E94142B09F529
:142D0C0004E10E94B72A0E94BF2C8215930508F443958AE051
:142D200090E00E94CE2D8215930508F44E5F042F0E940B29B1
:142D3400222433240E94702982E390E00E94F6280E9406294D
:142D48008E7F0E9401295991499108954A9344270E94142B14
:142D5C00F1F42090B30526FC01C041E081E02090C8028215A0
:142D700008F442E00BE20E942A06042F0E940B292224209271
:142D8400C80286E490E00E94F6280E9406298E7F0E9401292D
:142D98004427499108950E947D220E94142B09F013C10E94B4
:142DAC00E1280E94892909F00DC10E9406298E7F0E94012945
:142DC000409106014423F9F0413009F434C0423009F452C0F4
:142DD400433009F458C0443009F46BC0453009F471C04630AE
:142DE80009F48EC0473009F494C0483009F4B1C0493009F468
:142DFC00B7C04A3009F4CEC0E5C00E94AB2981E08093360181
:142E100004E511E00E94DB22180129010091CC051091CD051D
:142E24000E947E2880ED97E00E94F6280E94FB28CDC004E573
:142E38000E949528180129010091360111270E947E280E94FA
:142E4C00532980E991E00E94F62880913601843129F40E94A0
:142E6000FB2881E0809336010E94292909F0B0C08AE08093B6
:142E74000601ACC00E943C2988EE93E00E94F6280E94FB2862
:142E8800A3C00E94842984EF91E00E94F6280E94532988E05A
:142E9C0020903601821530F40E94FB2881E08093360190C0C0
:142EB0000E947E298DC00E943C2980EE9EE20E94F6280E9421
:142EC400FB2884C000E511E00E94DB22180129010091CC0579
:142ED8001091CD050E947E2880EE9EE20E94F6280E9453295F
:142EEC0084E020903601821530F40E94FB2881E0809336015C
:142F000067C00E947E2964C00E943C2980EE9EE20E94F62874
:142F14000E94FB285BC00CE411E00E94DB2218012901009175
:142F2800CC051091CD050E947E2880EE9EE20E94F6280E94B9
:142F3C00532984E020903601821530F40E94FB2883E18093C3
:142F500036013EC00E947E293BC00E943C2980EE9EE20E945D
:142F6400F6280E94FB2832C004E50E94952818012901009168
:142F7800360111270E947E280E94812B84EF91E00E94F6289C
:142F8C00209036012220F1F40E94FB2881E08093360118C0DB
:142FA0000E9484290E94C5100E94FB2A2092060181E0809363
:142FB40008010E944E2A0FE20E942A06009108010E942A06B7
:142FC800009107010E940B290C9482220E947D220E94142B20
:142FDC0009F01DC10E94E1280E94892909F017C10E94062969
:142FF0008E7F0E940129409106014423F9F0413009F434C06A
:14300400423009F452C0433009F458C0443009F46BC045309E
:1430180009F471C0463009F48EC0473009F494C0483009F478
:14302C00B1C0493009F4B7C04A3009F4CFC0EFC00E94AB2907
:1430400081E08093360104E511E00E94DB2218012901009184
:14305400CC051091CD050E947E2880ED97E00E94F6280E9496
:14306800FB28D7C004E50E949528180129010091360111270F
:14307C000E947E280E94532980E991E00E94F62880913601F8
:14309000843129F40E94FB2881E0809336010E94292909F0FD
:1430A400BAC08AE080930601B6C00E943C2988EE93E00E9412
:1430B800F6280E94FB28ADC00E94842984EF91E00E94F628C1
:1430CC000E94532988E020903601821530F40E94FB2881E0A2
:1430E000809336019AC00E947E2997C00E943C2980EE9EE2A3
:1430F4000E94F6280E94FB288EC000E511E00E94DB22180167
:1431080029010091CC051091CD050E947E2880EE9EE20E94DC
:14311C00F6280E94532984E020903601821530F40E94FB2898
:1431300081E08093360171C00E947E296EC00E943C2980EEC3
:143144009EE20E94F6280E94FB2865C00CE411E00E94DB22CD
:14315800180129010091CC051091CD050E947E2880EE9EE215
:14316C000E94F6280E94532984E020903601821530F40E94C9
:14318000FB2883E18093360148C00E947E2945C00E943C290D
:1431940080EE9EE20E94F6280E94FB283CC004E50E94952870
:1431A800180129010091360111270E947E280E94812B84EFC7
:1431BC0091E00E94F62820903601222009F027C00E94FB2800
:1431D00081E08093360121C00E9484290E94292919F40E946D
:1431E400FB2A04C080E991E00E94F6280E94EB2A23E030E08A
:1431F800082F11270E949221009307010FE20E942A06009110
:14320C0008010E942A06009107010E940B290C9482220E947E
:143220007D220E94142B09F01DC10E94E1280E94892909F04B
:1432340017C10E9406298E7F0E940129409106014423F9F0DC
:14324800413009F434C0423009F452C0433009F458C0443093
:14325C0009F46BC0453009F471C0463009F48EC0473009F45E
:1432700094C0483009F4B1C0493009F4B7C04A3009F4CFC01D
:14328400EFC00E94AB2981E08093360104E511E00E94DB22ED
:14329800180129010091CC051091CD050E947E2880E991E0E8
:1432AC000E94F6280E94FB28D7C004E50E9495281801290167
:1432C0000091360111270E947E280E94532980E991E00E9418
:1432D400F62880913601843129F40E94FB2881E0809336013E
:1432E8000E94292909F0BAC08AE080930601B6C00E943C296A
:1432FC0088EE93E00E94F6280E94FB28ADC00E94842984EF21
:1433100091E00E94F6280E94532988E020903601821530F450
:143324000E94FB2881E0809336019AC00E947E2997C00E9489
:143338003C2980ED97E00E94F6280E94FB288EC000E511E08F
:14334C000E94DB22180129010091CC051091CD050E947E286E
:1433600080ED97E00E94F6280E94532984E0209036018215B5
:1433740030F40E94FB2881E08093360171C00E947E296EC009
:143388000E943C2980ED97E00E94F6280E94FB2865C00CE4AC
:14339C0011E00E94DB22180129010091CC051091CD050E94D3
:1433B0007E2880ED97E00E94F6280E94532984E02090360156
:1433C400821530F40E94FB2883E18093360148C00E947E2976
:1433D80045C00E943C2980E991E00E94F6280E94FB283CC07A
:1433EC0004E50E949528180129010091360111270E947E28FA
:143400000E94812B80E991E00E94F62820903601222009F0AE
:1434140027C00E94FB2881E08093360121C00E9484290E947B
:14342800292919F40E94FB2A04C080E991E00E94F6280E946A
:14343C00EB2A2CE030E0082F11270E949221009307010FE2FB
:143450000E942A06009108010E942A06009107010E940B29BB
:143464000C9482220E947D220E94142B09F01DC10E94E1286C
:143478000E94892909F017C10E9406298E7F0E9401294091A0
:14348C0006014423F9F0413009F434C0423009F452C043307F
:1434A00009F458C0443009F46BC0453009F471C0463009F451
:1434B4008EC0473009F494C0483009F4B1C0493009F4B7C01B
:1434C8004A3009F4CFC0EFC00E94AB2981E08093360104E531
:1434DC0011E00E94DB22180129010091CC051091CD050E9492
:1434F0007E2880ED97E00E94F6280E94FB28D7C004E50E9497
:143504009528180129010091360111270E947E280E9453294D
:1435180080E991E00E94F62880913601843129F40E94FB2826
:14352C0081E0809336010E94292909F0BAC08AE080930601F5
:14354000B6C00E943C2988EE93E00E94F6280E94FB28ADC01F
:143554000E94842984EF91E00E94F6280E94532988E020903A
:143568003601821530F40E94FB2881E0809336019AC00E94F1
:14357C007E2997C00E943C2980EE9EE20E94F6280E94FB28C3
:143590008EC000E511E00E94DB22180129010091CC0510911E
:1435A400CD050E947E2880EE9EE20E94F6280E94532984E0C9
:1435B80020903601821530F40E94FB2881E08093360171C0BC
:1435CC000E947E296EC00E943C2980EE9EE20E94F6280E941D
:1435E000FB2865C00CE411E00E94DB22180129010091CC056A
:1435F4001091CD050E947E2880EE9EE20E94F6280E9453293C
:1436080084E020903601821530F40E94FB2883E18093360135
:14361C0048C00E947E2945C00E943C2980EE9EE20E94F6288F
:143630000E94FB283CC004E50E949528180129010091360172
:1436440011270E947E280E94812B84EF91E00E94F628209050
:143658003601222009F027C00E94FB2881E08093360121C0B4
:14366C000E9484290E94292919F40E94FB2A04C080E991E095
:143680000E94F6280E94EB2A23E030E0082F11270E949221E8
:14369400009307010FE20E942A06009108010E942A060091C7
:1436A80007010E940B290C9482220E948522442755270E941A
:1436BC00B22A8B3FEFEF9E071CF4682F6F5C03C06091590151
:1436D0006B5F129A81E1809381000E94A12B0E943C2908E01D
:1436E40010E00E9478084427552706C04F5F5F4F0E94412EA6
:1436F80008F412C00E94A12D262E33244214530459F0C2011C
:14370C008233E0E09E0730F40E94402B222051F7332041F749
:143720000E94402B222011F4332019F00E94292961F42090EC
:143734000C01222041F401E30E940B290E9406299E7F0E94B3
:1437480001290E9484290E948F290E94412E20F4169A0E9423
:14375C00C12A16980C9488220E949D2C09F074C00E949502A5
:143770000E94E22A8BEA95E00091410111270E94C7230E9474
:14378400432C44F422240E94D02A91DF222433240E94702960
:143798000E9406290E943A2BA1F420901A01222081F4169880
:1437AC00222420920C010E94E12891600E94E6280E94C51041
:1437C0000E9406299E7F0E94012988E893E10E94A22C50F5A2
:1437D4008EE591E00E94FD2B8215930590F420900C01222081
:1437E80071F42090C001222009F0169A81E080930C010E94E9
:1437FC00E12891600E94E6280DC020900C01222049F016985C
:14381000222420920C010E94E12891600E94E6280E945C2A2B
:143824000E94522C0E94E1280E943A2B89F420900C01222042
:1438380009F4169803E10E942A0600910C010E940B290E9405
:14384C00E1289E7F0E94E62808950E94E1280E94892909F0FD
:1438600052C080E797E10E94C32B08F04CC00E94402B309200
:143874007B0120927A0122240E94D02A0E94722C0E949C2D0A
:143888008435E1E09E0780F485E020907E01821558F40E9480
:14389C009C2D01960E94D32D8C010E94CF06222420927E019B
:1438B00080917E018F5F80937E0185EB90E020907A01309029
:1438C4007B0182159305E8F40E94452B20907C0130907D01EC
:1438D8000E94C92C0E9437290E947C2A81010E94CF060E9460
:1438EC004E2A0E9416040E944E2A0E94C51088E191E00E9487
:14390000D32D0E94712B08950E94FA2927E00AEE12E00E9480
:14391400860408E20E942A0628E030E00AEE12E00E94880627
:143928008AE090E00E94D4290E94860428E030E00AEE12E0E4
:14393C000E94CA29249608950E94B22B0E94A82B0C94E30410
:1439500020905B012220B1F480910B01813091F481E08093A9
:143964005B01809350010E941F2A055010400E94CF060E94E6
:14397800E1288D7F0E94E6280E94BC2B0895649721E231E041
:14398C008E010E94A4252AED32E08E017DD40DE20E942A0663
:1439A00022E130E08E010E94CA2964960895222420925C01F0
:1439B40005E30E940B290E94452B06E30E942A060C94370697
:1439C800A8D527974427AA24BB240E94E1288F7E0E94E62830
:1439DC00222420927505209087052092CA05622D613008F48C
:1439F000D0C184E3821568F08CE790E0E22DE150FF27EE0F96
:143A0400FF1FE80FF91F25903490F1010994613709F452C0D2
:143A1800BCC180915C01816080935C01209088052092D50595
:143A2C00209089052092D60520908A052092D70520908B05AE
:143A40002092D80522242092D9050E94E1288F7E0E94E628A5
:143A54009EC180915C01826080935C01209088052092D0057B
:143A6800209089052092D10520908A052092D20520908B057C
:143A7C002092D30522242092D4050E94E1288F7E0E94E62873
:143A900080C10E94B22B0E94E3047BC18CE080932A0182E38E
:143AA40090E00E94F62873C18BE180932A0182E390E00E9489
:143AB800F6286BC180E48093310167C10E94E1280E948929E0
:143ACC00D1F00E94A92CB9F4222433240E94522C0E94702909
:143AE0000E94BC2A0E9433100E94A12B0E9406298B7F0E947A
:143AF400012980912A01853021F5D9DD22C00E94E1280E94A8
:143B0800892919F00E94A92CD1F00E94062984600E94012935
:143B1C008F770E9401290E94C5100E94962921F0833011F026
:143B3000853011F40E94632A20903001222019F00DE60E94D7
:143B44009A06169824C10E9433100E9406298B7F0E940129AE
:143B58001CC10E94C5100E94062984600E9401290E94962923
:143B6C0029F0833019F0853009F00DC10E94632A0AC186B1C3
:143B80008170813029F42090880520922A0103C0222420929D
:143B94002A01222420927A0000E10E942A0600912A010E946F
:143BA8000B2980916C00816080936C0080916B008160809388
:143BBC006B0060912A01643011F0633049F40E9410298FEFB0
:143BD00080930A01222433240E94702980912A01853009F001
:143BE400D6C081E080934F01D2C080912A01853079F42090D3
:143BF8004F01222059F0222420924F0180910B01813009F4CB
:143C0C00C2C082E080930B018091C1008F770E94552E8F7E97
:143C20008093C1000E94C1110E944E2A8091C10080610E94D9
:143C3400552E80688093C1000E94E1288F7E0E94E62804E1F0
:143C480010E00E947808A1C00E94E6119EC00E94F2119BC0FE
:143C5C000E94841298C00E9413060E94022B09F092C091C09E
:143C700020908E052092BC0120908F052092BD012090900595
:143C84002092BE018091910580538093BF0120909205209275
:143C9800C001209093052092C1010E94A80375C00E94062948
:143CAC0081600E9401290E942F2B84E180932A016AC00E94EC
:143CC000062981600E9401290E942F2B85E180932A015FC055
:143CD4000E94062981600E9401290E942F2B86E180932A01BD
:143CE80054C00E94062981600E9401290E942F2B87E18093BF
:143CFC002A0149C02090880520920801209089052092070190
:143D100020900801222009F03CC022242092060138C088E14F
:143D240080932A0180916C008E7F80936C0080916B008E7FBB
:143D380080936B002AC0E4DD28C000DE26C01FDE24C081E060
:143D4C00809357010E945C2A0E94712B1CC020908805332422
:143D60000E94022C0E94E22D322C22240E94022C209089051C
:143D740033244090590150905A014228532850925A0140928B
:143D880059010E94350401C0DFDD642F4F5F87E895E0E62F3B
:143D9C00FF270E94792D4530B0F32796BDC34A936A932797B8
:143DB0004F9BFECF4091A30520903001222009F4A4C04435D2
:143DC40019F40E94C1119FC0413311F470DC9BC0433409F477
:143DD80098C0423439F42090C001222009F491C0169A8FC0DC
:143DEC00423611F416988BC0463421F482E00E94002E85C047
:143E0000463621F481E00E94002E7FC0473441F40E94331018
:143E14000E9406298B7F0E94012975C04D36B1F40E949D2C2B
:143E280009F06FC00E94C5100E94062984600E9401290E94C4
:143E3C00962929F0833019F0853009F060C00E94632A5DC0C4
:143E50004E3441F489B18074803409F056C00E94C11153C02F
:143E64004E3629F44E994FC00E94C1114CC04235D9F484E08B
:143E780080932A01222420927A0000E10E942A0600912A0117
:143E8C000E940B2905E010E00E9478080E9410298FEF8093E9
:143EA0000A01222433240E9470292FC0453609F02CC08091CB
:143EB4007605823020F401E010E00E9478086091A405605379
:143EC80085E0861708F01DC0673108F01AC06093C30580E189
:143EDC00861710F48093C3050E94F12D0E9410290E94F12DFB
:143EF00008E611E060D30E944F2B49D40E94DC2881019201B8
:143F040069D40E94532A4135A9F420903001222089F483E037
:143F180080932A010E94202C06E00E942A0601E30E940B29F7
:143F2C0081E0809330010E94202C30C04B3171F5209030013B
:143F4000222051F10E94E1280E94892911F40E94C51083E00B
:143F540080932A012224209230010CE211E00E94780800E110
:143F68000E942A0600912A010E940B290CE211E00E947808E0
:143F7C0006E00E942A0600E30E940B290E94062984600E9469
:143F900001298F770E940129222420922F0120927605042F99
:143FA4000E949A0627966991499108950E94A30C82B18C6029
:143FB80082B90E94062984600E94012986B18170813019F453
:143FCC000E94982C03C0222420922A018AE08093C30508E662
:143FE00011E0E9D20E944F2BD2D30E94DC2881019201F2D3E0
:143FF4000E94532A0E94202C0E941A050E9448040E94E30276
:144008000E944E2A0E94920C0E9423100E944E2A0E94D903DD
:14401C000E944E2A0E94A00481E08093E5058FEF90E09093C1
:144030000501809304010E94662C26E231E00AED12E082D5D1
:144044000E94C50121E231E00AED15E07BD51EC1319928C01F
:144058001B991FC00E9413062A981B9902C0319BFBCF2A9A74
:14406C0081E090E00E94EC2D8215930568F42090F3022092D2
:14408000E2052090F4022092E30522242092E4050E94D80E9C
:144094000E94F60503C02A9A0E94F605222420927505F4C031
:1440A80080913101803439F4082F0E949A062224209231013D
:1440BC00E9C0222430907605231410F470DEE2C00E94022BCC
:1440D00011F47ADCDDC00E94E1280E943A2BE9F40E949629F4
:1440E40021F0833011F0853071F40E94452B03E10E942A0621
:1440F80000910C010E940B2920900C0120920D0102C00E945F
:14410C0023100E94E1289E7F0E94E628BBC040912A0141300C
:1441200008F433C08BE1841708F42FC084EE90E0E42FE15084
:14413400FF27EE0FFF1FE80FF91F25903490F10109940E947D
:1441480029132FC00E94270D2CC00E941A1329C00E942913E0
:14415C0026C002DB24C00E94CF1621C00E94EA171EC00E941D
:144170000F191BC00E94341A18C06DDB16C00E94801613C047
:144184000E94AA1610C00E94F60522240E94502E33240E94F9
:14419800702981E1809381000E94E12890610E94E62886B101
:1441AC008170813011F441E001C044274423D9F420905E01C8
:1441C0002220B9F480910401909105018F3FE0E09E0711F487
:1441D4000E94DB0C86E080932A018FEE80937A00169A0FE001
:1441E80010E00E947808169829C080912A01863029F586B1D3
:1441FC00817081300E940C2DF9F4222420927A000E94982C6D
:1442100000E10E942A0600912A010E940B2980915E01813034
:1442240061F40E94CB2A169A0E94E92B169808EC10E00E9400
:1442380078080E948429222420925E0120905701222011F100
:14424C00809158018F5F8093580184E6209058018215C0F4DC
:144260000E943D2A8091B2019091B30101968215930550F49E
:1442740002E30E940B2905E010E00E94780822242092570134
:144288000E945C2A20925801E1CE08950E94A62D2D9122232B
:14429C00E9F7119721912D932223E1F70895E02FF12FA22F5A
:1442B000B32F01911D91011B19F41123D1F70027110B0895D3
:1442C400E02FF12FAA27BB270190002011F01196FBCF0A2FA8
:1442D8001B2F0895888199818030980769F0B12FA02FF32F4F
:1442EC00E22F21912D93019729F02223D1F72D930197E9F745
:1443000008950E94DC2808950F920990002021F00E94AE2CE2
:144314000A94FACF0F9008956894DA92D12E04C0E894DA92DF
:14432800D12ED32617FF02C00E94922D37FF04C030952095DC
:14433C002F5F3F4F09D0D7FE02C00E94922DD990089568947E
:1443500001C0E894EA92FA928A93EE24FF2480E1000F111F22
:14436400EE1CFF1CE216F30618F0E21AF30A03958A95A1F7DF
:1443780016F40E2D1F2D8991F990E9900895E89401C06894AE
:14438C0029D0CC2408C0E89401C0689423D037FDE2D0B7FDA6
:1443A00047D077240E94BF2D39D0B1F03CD0A1F0E8E20E9416
:1443B400252C771C881C991CAA1CBB1C88169906AA06BB066D
:1443C80028F0881A990AAA0ABB0A0395EA9569F716F40E94E8
:1443DC00112C11C07A928A929A92AA92BA92CA92EA930E9468
:1443F0001B2C8B859C85AD85BE85C32E0EF0CB260895C7FC8C
:14440400AED00E94072CE991C990B990A990999089907990B1
:1444180024960895E02FE12BE22BE32B0895E82FE92BEA2B26
:14442C00EB2B089580959095A095B0958F5F9F4FAF4FBF4F2D
:1444400008950A921A928A939A93029FC001129F900D039FE7
:14445400900D8C019991899119900990089588D07A929BD038
:1444680051F177249ED019F48C019D0124C00A921A92089FEA
:14447C00B02CA12C289F902C812C189FA00C911C871C099FF8
:14449000A00C911C871C199F900C811C0A9F900C811C389F72
:1444A400800C299F800C1A9F800C0B9F800C199009900B2D2F
:1444B8001A2D292D382D799065C00E944A2B08950E944A2BF5
:1444CC00E990F99008950E944A2BE990F99049915991699166
:1444E000799108957A936A935A934A93FA92EA92DA92CA927D
:1444F400BA92AA9208955A934A93BA92AA9208950E943C2E94
:1445080008950E942A2C0895499159916991799108950E9466
:14451C002A2CBA92AA9208950E943C2E6991799108955A9376
:144530004A93DA92CA92BA92AA9208950E944A2B49915991D2
:1445440008950E942A2CDA92CA92BA92AA9208950E944A2BCA
:144558004991599169917991089500951095209530950F5FC8
:14456C001F4F2F4F3F4F08958A929A92AA92BA92EA930E9435
:144580001B2C89859A85AB85BC8508950E94072CE991B9900D
:14459400A9909990899024960895EE27E02BE12BE22BE32BFA
:1445A8000895EE27E82BE92BEA2BEB2B0895EA93FA930A92B8
:1445BC00E02FF12FC895002D3196C895102D3196C895202D60
:1445D0003196C895302D0990F991E99108950F9209900020C2
:1445E40021F00E94252C0A94FACF0F900895C0DFD4DF99F041
:1445F8000E94BF2DD6DF69F00E947E2D20F4880E991EAA1E9D
:14460C00BB1E880F991FAA1FBB1FC3DF99F70E94112CB6CF39
:14462000AA93BA93EA93FA930A92AF81B885ED81FE810030CC
:14463400010731F0C8950D92319601501040F7CF0990F991FC
:14464800E991B991A99124960895689401C0E894E6D17AD1CE
:14465C0009F436C00E941E2B75D109F439C0842D952D8C1918
:144670009D09A9F062F49095809501964C2C5D2C883160F5C1
:144684000E94AE2C0197E1F708C08831E8F4B594A79497942A
:1446980087940197D1F766242EF0080D191D2A1D3B1D07C03A
:1446AC00801A910AA20AB30A0E94112C33231AF452DF80E880
:1446C000682E6ED101C09FD1BDD108950E949C2BDEF745D161
:1446D400C9F380E83827F6CF0E94112C4C2C5D2C6E2C3323BA
:1446E80072F73BDF80E8682EEACF0E94C62AAFDFE991F99160
:1446FC00229608950E94C62AA8DFE991F991398328831A9324
:144710000A9308950E94F4299EDFE991F991249608950E9422
:14472400F42997DFE991F9913B832A831983088308950E9419
:14473800B52D19D1F1F05520C2F08FE14816A0F487E1481671
:14474C00B1F048F4419489EE481A03C00E94AE2C4A94E1F7D9
:144760000CC087E1481A0E94252C4A94E1F705C03FE7232FC9
:14477400132F032F03C0662009F0F1DE8991699059904990D7
:144788000895689401C0E8942227332746F017FD209517FD91
:14479C00309503C0689401C0E8940E94B52D87E1482E55246D
:1447B00066242EF033231AF4D4DE80E8682EF0D08991699066
:1447C4005990499008950E94C62A1FD0E991F99122960895A8
:1447D8000E94F42918D0E991F991249608950E94C62A11D058
:1447EC00E991F991398328831A930A9308950E94F42907D0D1
:14480000E991F9913B832A831983088308950A921A922A926D
:144814003A9207D10E94DC280E949C2BA6D009F449C0E62C4F
:14482800D52CC42CB32EA22E912E802E0E940F2E9AD079F1BA
:14483C006E244C185D0880E8481653060CF02DC00E94F02C47
:144850000CF42FC080E23324232E122E012E302F222711270C
:144864000027269417940794379527950E94252C001C111C55
:14487800221C331C28F0081819082A083B0804C0080C191CC4
:14488C002A1C3B1C0AF001608A9561F783D0D4D03990299030
:1448A0001990099008950E94882D6620B1F359DEF4CF0E9408
:1448B400572CF1CF0E940F2EF4CFB3D0AA93BA9354D061F188
:1448C800E62CD52CC42CA22E912E802E008111812281338132
:1448DC0048D001F10E94CE2C0CF50E94F02C0CF188E1782E57
:1448F00088279927AA27BB27BB2EB695A7959795879527951E
:144904001795079520F4880D991DAA1DBB1D7A9491F73B2F59
:144918002A2F192F082F40D0B991A9918FD008950E94882DCC
:14492C00F9CF0E94572CF6CF0E94C62AC2DFE991F9912296D6
:1449400008950E94F429BBDFE991F991249608950ED021F023
:14495400662009F004DE98940895002329F4112319F422235F
:1449680009F433230895F7DF99F08A93632E80E86822220F1B
:14497C00331F432E8FE7481A55248827580A269530E8232BE1
:1449900033278991989408954424552466240895DEDF09F414
:1449A4000895AA93BA93D2019A938A938EE790E0332339F057
:1449B8000E947E2DA817B907CCF41196F7CF80959095019621
:1449CC002223BAF0000F111F221FA817B90714F01197F6CF78
:1449E0000027112722273327899199912D01B991A99108952E
:1449F40033270FEF102F2FE7322F899199912D0102C0AA9330
:144A0800BA93A9DF49F0D201A158BF4F2D01342D220F369527
:144A1C0027953629B991A99108954A925A926A927A928A925E
:144A30009A92AA92BA92CA92DA92EA92FA928A939A93089507
:144A440099918991F990E990D990C990B990A9909990899092
:144A580079906990599049900895E1DFAA93BA9382DF39F114
:144A6C000E941E2B7EDF19F10E94CE2C24F50E94F02C3CF144
:144A8000A29EB12DA02D919E912D802DA09E0E94832D829EED
:144A94000E94832D929E900DA11DB31FA19E900DA11DB31FF3
:144AA8002B2F1A2F092F880F001F111F221F331F73DFB9910A
:144ABC00A991C2DF08950FEF102F2FE78FE7482EF6CF0E94C8
:144AD000572CF3CF0E94C62AC4DFE991F991229608950E945D
:144AE400F429BDDFE991F991249608950E94F429B6DFE991DC
:144AF800F9913B832A83198308830895A6DD332332F029DFEE
:144B0C0011F001E00895002708950FEF08950E94C62AF2DF54
:144B2000E991F9912296002308950E94F429EADFE991F99179
:144B340024960023089511DF21F00F9300E830270F910895D4
:144B48000E94A62DC89531960D920020D9F70895F6DCC02ED4
:144B5C00D12E249705C08C2D9D2D0196C82ED92E0E94972D49
:144B700052D100300107A9F7AA24BB24EC2DFD2D80818D3286
:144B840039F481E090E0A82EB92E0E94062D07C0EC2DFD2D83
:144B980080818B3211F40E94062D0E943C2D27C00E94A82A0B
:144BAC004AE050E060E070E05A924A923A922A92042F152F44
:144BC000262F372F16DD0E945C2CEC2DFD2D6190CE2EDF2ECC
:144BD400772488249924260C371C481C591C40E350E060E0D8
:144BE80070E0241A350A460A570A0E94D52C0E94972D00D161
:144BFC000030010799F6AA2011F4BB2021F00E94C529A9DC0E
:144C100002C00E94C52924969DCC95DC422F532FA02EB12E0A
:144C240022976A857B85CA2CDB2C4030E0E05E0754F46A3060
:144C3800E0E07E0731F4409550954F5F5F4F0E94B32C79836B
:144C4C006883242F352F0C2D1D2DBFD00A2D1B2D22967ACC23
:144C60003A932A9364DCA02EB12E24974E855F85CA2CDB2C5A
:144C740080E090E0A0E0B0E00E942A2B281639064A065B0627
:144C88006CF44A30A0E05A0749F40E941A2A65DC0A871B87C6
:144C9C002C873D870E94B32C5B834A830E942A2B0E94DD2DBE
:144CB0000C2D1D2D46D00A2D1B2D24963FDC229608953A93E1
:144CC4002A930EDCA02EB12E2497CA886C894A2D5B2D0E94E5
:144CD800072B57DB0E9464290E94A82AE22CF32C89E090E0BB
:144CEC00821593052CF0822D805D0E945B2B04C08E2D895A53
:144D00000E945B2B0E94072B3EDB0E871F87288B398B0E9436
:144D1400282E0CF4DECF2E843F8448885988889422203204CE
:144D28004204520409F0D3CF0E942D2E22240E94362D24963E
:144D3C00CADB229608953A932A93D4DBA02EB12E2597CD8476
:144D5000DE8422242C82CA8229843A844B845C840E94DD2DE7
:144D64000A2D1B2DACDFB7D12596A9DB229608953A932A938B
:144D7800B5DBA02EB12EEC846E854A2D5B2D0E94192EE1DAE4
:144D8C00C02ED12E89E090E0801791072CF08C2D805D0E94CA
:144DA0005B2B04C08C2D895A0E945B2B0E94192ED0DA1B87BC
:144DB4000A870E94282E2CF30A841B84002009F71120F9F6D6
:144DC8000E942D2E0E94362D80DB229608958ADBC22ED32ECF
:144DDC00A02EB12E2397E984FA8422242A82E8822C2D3D2D52
:144DF0000A2D1B2DBFDF71D1239666CB89E791E0202E312ED8
:144E0400280E391EE22DF32DC895002D04701127089589E79B
:144E180091E0202E312E280E391EE22DF32DC895002D0071B1
:144E2C001127089568DAAA92BA922897AE84BF840E942A2BA8
:144E40000DE712E0B8DB0E94DC280E941A2A6DDE51F4222483
:144E54003324EA2DFB2D3182208209E712E0A9DB31C00E9466
:144E68002A2B0E94D52C2A803B80220C331C3B822A82832D43
:144E7C0099278E579040EA2DFB2D918380838EE78B832A802A
:144E90003B80369427943B822A820E942A2B0DE712E089DB24
:144EA4000E94DC280E941A2A3EDE34F40E94C52942DE0E94D8
:144EB800792904C00E94A82A0E94372E0E949B2A2896B99097
:144ECC00A9902496089517DA2C970E94912C6DDB0E94DC2841
:144EE0000E941A2A22DE54F481E090E09093EF058093EE05A2
:144EF4000DE812E05EDBCAC00E94912C5ADB0E94DC280E9424
:144F08001A2A0FDE21F40DE812E051DBBDC08C2F9D2F0296A0
:144F1C00998388830E94C42C85DF0E9479292A8020FE0CC08C
:144F30000E949B2A0E94612BDCDB0E9479298A819B8101971E
:144F44009B838A8309E812E034DB0E945C2C6C807D808E801B
:144F58009F8005E812E02BDB0E94DC28062D172D282D392D69
:144F6C00DADB0E941A2AE7DC0E9479290DC001E812E01BDBF1
:144F80000E94612BD7DC0E9479298A819B81CC979B838A8343
:144F94008CE390E02A803B808215930564F311C00E94962A0C
:144FA80001E812E004DB0E94DC280E941A2A10DC0E9479297F
:144FBC008A819B81CC969B838A8384EC9FEF0E944B2E54F3CD
:144FD00081E0888780E089878A878B87222433244A805B8088
:144FE40042145304BCF0242C352C359427940E947C2B2A9226
:144FF800F2DA0E942E2A0E94962A0E947C2BCEDB0E94DC28E5
:14500C000E941A2A98DC0E9479291AC08A819B8180959095B7
:145020008F5F9F4F959587950E947C2B8A93D7DA0E942E2A49
:145034000E94962A0E947C2BB3DB0E94DC280E941A2AC8DB00
:145048000E947929222433243B822A8209E812E0AEDA0E94FD
:14505C005C2C0E94C42C0E94612BB1DB0E94612B49DB0E9478
:145070001A2A67DC0E9479298A819B8101969B838A8382E016
:1450840090E00E944B2E24F30E949B2A6096089542DA81E0FF
:1450980090E082179307E0F4402F512F622F732F640F751F64
:1450AC006150704010C0E42FF52FA080E62FF72F2080E42F7A
:1450C000F52F2082E62FF72FA0824F5F5F4F6150704046179F
:1450D400570768F325CAAA92BA92A02EB12E0A2D1B2D0E94CA
:1450E8006221202F312F0A2D1B2DD0DFB990A9900895FFFF37
:1450FC000E94C7233A932A931A930A93810192010E947125F3
:145110000E949B23580120901B0130901C01A20CB31C850126
:145124000E94CF06089511E00E94DB22180129010091CC052E
:145138001091CD050E94C7233A932A931A930A93810192017B
:14514C000E94712508950E94C5233A932A931A930A93830198
:1451600094010E948A233801490100915501109156010E9453
:14517400C5233A932A931A930A93830194010E94912381017A
:1451880092010E9471251801290100914A0110914B010E949A
:14519C00C5233A932A931A930A93810192010E948A23088354
:1451B00019832A833B8308953A932A931A930A9308958091C5
:1451C4000001909101010895909301018093000108955801E7
:1451D80020901B0130901C01A20CB31C85010E94CF06089503
:1451EC009093BA058093B9050895809106018F5F809306013F
:145200000895909303018093020108958091020190910301EA
:1452140008950E942A060E94370608950CE00E942A068AE073
:1452280090E0998388832091C30533278E010E5F1F4F0E94FC
:14523C000D2622E030E08E010E5F1F4F0E9488060E943706A0
:14525000089540901201509013012090100130901101889427
:145264002220320442045204089520901B0130901C0108953F
:145278000091CE051091CF050E94CF06089531E08E010B5F2B
:14528C001F4F0E94552158010030010708950E9455215801E9
:1452A000003001070895809136018F5F8093360108958A017D
:1452B4009B010E947825830194010E9471253801490108959A
:1452C800088319832A833B83089531E08E010B5F1F4F0E9489
:1452DC00552108953092C9052092C8053092C7052092C60591
:1452F00008950C831D832E833F8308958091060181508093D2
:1453040006010895002711270E94CF060895807092708030DC
:14531800E2E09E07089580E18093810082B1837F82B908957B
:14532C0020902A01822D84300895A991999189913991299190
:1453400019910991999089907990699059904990399029908D
:14535400089580E080931001809311018093120180931301B2
:1453680008952A923A924A925A926A927A928A929A920A9357
:14537C001A932A933A938A939A93AA930895088119812A81F4
:145390003B8108950E9488060E943706089504E711E00E9486
:1453A400DB2208959B838A834090D4025090D5022090D2024F
:1453B8003090D3024882598291010AEE12E00E94302627E02C
:1453CC000AEE12E00895810192010E948A23089531E002EE44
:1453E00015E00E9455210895FA93EA93EC2FFD2F3296089559
:1453F40024978AE090E09B838A834090D8025090D9022090D0
:14540800D6023090D7024882598291010AEE12E00E94302606
:14541C0008954427552702C04F5F5F4F80E395E7481759073C
:14543000C8F30895022D132D242D352D089500911B01109103
:145444001C0108958091C4059091C50501969093C50580933E
:14545800C4050895088719872A873B87089590933301809331
:14546C0032010895E42FFF27E80FF91F08952090B001309056
:14548000B1013092B3012092B2012090C4053090C5053092C6
:14549400B1012092B001089504E610E00E9478080895109316
:1454A8002C0100932B0130932E0120932D01089522243324F7
:1454BC003092C5052092C4050895222433243092B60520926C
:1454D000B5050895222433243092BE052092BD0508953324E7
:1454E4003092BC052092BB0580917505815080937505089539
:1454F8004090CE055090CF05421853085092CD054092CC053D
:14550C00089520901601309017013092C3012092C20122240E
:145520003324309217012092160108952C803D804E805F80CA
:1455340008950C811D812E813F81089582B18C6082B913988A
:1455480081E1809381000895288039804A805B80089513986E
:14555C0081E18093810008958091590190915A0108950E9482
:145570002A068AE090E008953092C5052092C405089502E0FA
:1455840010E00E9478080895FA93EA93EA81FB81089501E0F5
:1455980010E00E94CF06089533243092150120921401089568
:1455AC0033243092BC052092BB0508952090BF053090C00509
:1455C000222008951093AC050093AB053093AE052093AD0586
:1455D4000895222420920601809108018F5F80930801089566
:1455E8006A2D862F8F5FA82E062F1127089522243324309236
:1455FC00BA052092B9050895809100018071803108952C2C26
:145610003324442455240E851F85288939895A924A923A9210
:145624002A9208958091020181708130089580913201909161
:1456380033010895E62CD52CC42CB32EA22E912E802E0081EB
:14564C0011812281338108952A843B844C845D8408952224C3
:145660002092080120920701089508E611E00E94DB22089509
:14567400807091708030E1E09E0708952090140130901501E3
:1456880008950AE010E00E9478080895A990B990C990D99094
:14569C000895180129010091C305112708958AEE92E0FA0107
:1456B000E80FF91F0895E42FF52F81934E2F5F2F08958C2F8C
:1456C4009D2F04969A938A9308952090CE053090CF050895D1
:1456D8002090250130902601089580916B00816080936B0089
:1456EC0080916C00816080936C000895088519852A853B8596
:145700000895809136018150809336010895A0E0B0E0409018
:14571400D0025090D1022090CE023090CF0208958101920139
:145728000E94EC2308959093C0058093BF05089500811181B0
:14573C0022813381089588EE93E09093B6058093B505089534
:1457500080E08093D2028093D3028093D4028093D5020895A6
:1457640080E08093D6028093D7028093D8028093D902089582
:1457780086E990E09093BE058093BD05089520904201309033
:14578C004301821593050895A090CE05B090CF05AB2CBB242C
:1457A000A7FCB094A882089522243324309274052092730545
:1457B4000895222433243092600120925F01089584E090E001
:1457C8009093BC058093BB05089509E110E00E9478080895E0
:1457DC00A090CE05B090CF050895A0905901B0905A01089543
:1457F000AB2CBB24A7FCB09408952090C4053090C5050895CB
:1458040030925A01209259010895B991A99199918991089565
:14581800462F6F5F042F11270895082D192D2A2D3B2D08955A
:14582C004A935A934427552708958A939A93AA93BA930895A9
:1458400002E310E00E9478080895000F111F221F331F089551
:145854007A936A935A934A930895810192010E9495250895C1
:1458680080917305909174058038E2E09E0708950E949722F2
:14587C00690158014427552708959A938A930E948D25089596
:14589000E22DFF27E80FF91F08959A938A930E946A2508950B
:1458A400309245012092440108950027102F202F302F0895A3
:1458B800202E312E422E532E08958A939A93AA93EA93089500
:1458CC00222433243092C2052092C10508958091E605909170
:1458E000E7050895309243012092420108950E94E41C0E944F
:1458F400130624E030E0089583E02090E105282620920B01D1
:14590800089522243090750523140895222420927505042FF5
:14591C000E942A0608952C843D844E845F8401E912E0089569
:145930002090BC0120922A010895809102018078803808951B
:14594400209044013090450182159305089580910201847080
:1459580084300895359527951795079508958DE2EC2DFD2DCD
:14596C008193CE2EDF2E08958091C2019091C3010895209067
:14598000C8053090C90508950C851D852E853F850895309212
:14599400CF052092CE0508956E244C0C5D1C80E84816530687
:1459A8000895288239824A825B82089520905F013090600172
:1459BC00821593050895E991A991999189910895F8942224A4
:1459D0002092C50008952090E10520920B01089581E84816F7
:1459E4008FEF5806089590932601809325010895BA93EA934C
:1459F800FA930FB60A92089501F041E050E081E08823089525
:145A0C008E2F9F2F0196C82ED92E089511F441E001C0442778
:145A20004130089501969093C2058093C10508952224209275
:145A34000A0120925B0108952224209227012090B305089583
:145A480090E0909324018093230108958093DA0282E3809357
:145A5C00DB0208950E9472222297AA24BB240895E42DF52D50
:145A700020820A2D1B2D089580E0888389838A838B83089535
:145A84000E949B230215130508950E949B2320163106089578
:145A980020913201309133010895FA01EA0DFB1D008108955C
:145AAC0080910001847084300895809100018270823008953C
:145AC000809142019091430108950E9421220E94C523089570
:145AD400809102018072803208958091B4019091B50108952F
:145AE80080911B0190911C010895E80FF91F2224208208950E
:145AFC0036952795179507950895800D911DA31FB31F0895BE
:145B10000FEF102F2FE73FE70895C02E4C2D81E0801708956F
:145B2400109500950F5F1F4F0895EC2DFD2D00811127089521
:145B380080917C0190917D01089540902501509026010895F5
:145B4C00A02FB12FE22FF32F0895A0902501B090260108956C
:145B600020902A01822D833008954A925A926A928A930895D9
:145B74002090E6053090E705089588249924AA24BB24089586
:145B88002090530130905401089520904601309047010895B7
:145B9C002090C6053090C705089590937D0180937C01089583
:145BB00011E00E94DB22CE01089548825982222D332D0895F4
:145BC4002090590130905A010895909354018093530108958F
:145BD8002090730530907405089506E910E00E94780808951D
:145BEC003092190120921801089530925601209255010895A3
:145C00008093E1050E94E6110895025E1F4F0E94CF0608957F
:145C1400309249012092480108950991199129913991089573
:145C28000C871D872E873F8708952E2D33270A851B85089598
:145C3C00088B198B2A8B3B8B089590935A018093590108957D
:145C5000362E6150222423140895442E552E4150504008955E
:145C6400288439844A845B8408952C823D824E825F820895BE
:145C7800A990B99049915991089580EF95E584179507089578
:145C8C00262E6F5F022D112708952A803B802816390608955F
:145CA00020928B0020928A0008958093C1008091C100089597
:00000001FF
