:040000000C949E01BD
:080010000C94600A0C948F0AA5
:04001C000C94BE0A78
:040024000C947B08B5
:0C0038000C9479080C947A080C940207D0
:0C0050000C94BC080C9478090C948609F0
:040060000C94F809FB
:140070000C94A5090C94C8090C94D609761C7E1CF41CF11CF5
:14008400BF1C901CEE1C911D3E1C911D911D911D911D911D69
:14009800911D2A1C911DF71C911D911D321C691DE91B071C48
:1400AC00911D911D911D1A1D251D301D3B1D571D911D911D48
:1400C000911D911D911D911DFE1C651D911D911D911D251C8D
:1400D400911D911D461D671D911D6B1D731D901DAA1F4F1F2B
:1400E800521F491F551F4C1F6B1FAA1FAA1FAA1FAA1F6B1F14
:1400FC00651FAA1FAA1F6B1F6B1FAA1FAA1F571F5A1F5D1FC9
:14011000601F631F6B1F6B1F681F4743323930310056323031
:1401240031004A756C20323920323031340031353A30313ABE
:14013800323800474332393031202020202020202020202093
:14014C009A99593F0000003FCDCC4C3D0000C0405C8F423E08
:14016000C3F5883F000020410000803F0040324466666743C0
:14017400000000000020202020202020202030303030302047
:14018800202020202020202020202020202020202090404033
:14019C00404040404040404040404040400C0C0C0C0C0C0CBB
:1401B0000C0C0C40404040404040090909090909010101011D
:1401C400010101010101010101010101010101014040404017
:1401D80040400A0A0A0A0A0A0202020202020202020202023F
:1401EC000202020202020202404040402000000000000000CF
:140200000000000000000000000000000000000000000000EA
:140214000000000000000000000000000000000000000000D6
:140228000000000000000000000000000000000000000000C2
:14023C000000000000000000000000000000000000000000AE
:1402500000000000000000000000000000000000000000009A
:14026400000000000000000000000000000000000000000086
:140278000000000000000000000000804E0000803F000000E5
:14028C003F000000000000000000000000FF0000000000011F
:1402A0000200000000000000000000000000002800360128C1
:1402B4000054010000000000000000000000000000140000CD
:1402C800000100004453484452000100000000000000001497
:1402DC0000000001000100000000000000000000004A420080
:1402F000415400444600445200445300564D005646005652C7
:1403040000000000180100446563004E6F76004F6374005314
:14031800657000417567004A756C004A756E004D617900411F
:0F032C007072004D617200466562004A616E009A
:14033C00CFEFD8E0CDBFDEBFC451D0400AEA08830024E6EA76
:14035000F1E015E0E73EF10711F00192FBCF0083E5E9F2E035
:14036400A0E0B1E013E000E00BBFEB33F10721F0C89531968C
:140378000D92F9CF0E948A1EFFCFAA92BA922E9783E090E0D2
:14038C009983888321ED32E08E010B5F1F4F0E94F61F2224B2
:1403A00028868091D602803231F480E38A832090D5022B8237
:1403B40010C08091D502803231F480E38A832090D6022B8201
:1403C80006C02090D5022A822090D6022B8222242C8220904F
:1403DC00DA0229862090DB022A8622242B8622EA0E94DF279A
:1403F0000030010739F480E38093D10281E38093D20273C0CD
:140404002EE90E94DF270030010721F480E30E94812B69C0FE
:140418002AE90E94B92739F480E38093D10283E38093D20278
:14042C005EC026E90E94B92739F480E38093D10284E380931D
:14044000D20253C022E90E94B92739F480E38093D10285E356
:140454008093D20248C02EE80E94B92739F480E38093D10297
:1404680086E38093D2023DC02AE80E94B92739F480E38093FC
:14047C00D10287E38093D20232C026E80E94B92739F480E336
:140490008093D10288E38093D20227C022E80E94B92739F480
:1404A40080E38093D10289E38093D2021CC02EE70E94B92735
:1404B80039F481E38093D10280E38093D20211C02AE70E94EB
:1404CC00B92731F481E38093D1028093D20207C026E70E9470
:1404E000B92719F481E30E94812B8FE28093D3022A802092B4
:1404F400D4022B802092D5028093D6022090DA022092D702E8
:140508002090DB022092D80222242092D9022092DA022E96A1
:14051C00B990A99008952C970E946F2B80E08C838D838E831D
:140530008F830E945A280E94B728F8940E943B2B442455248B
:140544000E94DF2A0E94A32B442455240E94DA2B0E942C2909
:14055800810192010E9452270E94B9200E94DA270E94362940
:14056C00810192010E9452270E94B9200E94F6270E94362910
:140580000E944128020D131D241D351D0E9456220E94B728EF
:140594000E94BC290E94DF250E947A291801290100E711E0C6
:1405A8000E9463210E9452270E94182A0E947A2978942C9607
:1405BC0008950E94F72A06E2F8D21A014F5F5F4F8DEA91E0BA
:1405D000F101E80FF91F0081EED286E090E0481759078CF3C1
:1405E4000091B301E6D20091B401E3D20091B501E0D2009181
:1405F800B601005DDCD20091B701D9D20091B801D6D2E2D293
:14060C000AE010E0F3D484E190E00E947A280E947B0F03E110
:14062000CAD200910C01C7D2D3D2599149910895F999FECF8E
:1406340012BD01BD20BDFA9AF99A0895F999FECF12BD01BD98
:14064800F89A00B508950E942B21662713C0062F1127F2DF2E
:14065C00A02E87E391E0E62FFF27E80FF91F20808DEA91E00F
:14067000E62FFF27E80FF91F20826395663058F30E94D32A12
:14068400DDDFC02EAC2C86E0801720F483E08093B30102C0E3
:14069800A092B3010E94B228CFDF0E94EB2A20F4222420927B
:1406AC00B40102C0A092B4010E94B228C3DFC02EAC2C83E095
:1406C000801720F481E08093B50102C0A092B5010E94B2282B
:1406D400B5DFC02EAC2C80E1801720F48AE08093B60102C0B6
:1406E800A092B6010E94B228A7DF0E94EB2A18F48093B70185
:1406FC0002C0A092B7010E94B2289CDF0E94EB2A18F4809371
:14071000B80102C0A092B8010C9432210E940D21662709C056
:1407240087E391E00E947E2A2081062F11277EDF63956630A3
:14073800A8F32091B3010E94D32A76DF2091B4010E94D32AB4
:14074C0071DF2091B5010E94B2286CDF2091B6010E94B22837
:1407600067DF2091B7010E94B22862DF2091B8010E94B22833
:140774005DDF0C9410210E943B2A02E210E05EDF602F03E2D8
:1407880010E05ADF402F6F3F71F00F3F61F0E62EFF24FE2CB6
:14079C00EE24C42EDD2417012C283D280E94362B06C02090FA
:1407B0001C0130901D010E94362B0E9481270E9403290E947D
:1407C400312A0E94922AA9820AE010E013D40EE2F0D1088142
:1407D800EED10981ECD1F8D10AE010E009D422960C94F1201E
:1407EC00AA92BA9222970E94312A2A2D02E210E019DF0E94F6
:14080000922AA9822A2D03E210E012DF0E9481270E940329C8
:140814000EE2CFD10881CDD10981CBD1D7D12296B990A99011
:140828000895AA92BA920E94A82B0E94832A2A2D04E210E0A6
:14083C00F9DE0E94A82B2A2D05E210E0F3DEB990A99008953E
:140850000E943B2A04E210E0F3DE602F05E210E0EFDE402F44
:140864006F3F21F40F3F11F466274427E62EFF24FE2CEE24FF
:14087800C42EDD2417012C283D280E94402B51010E94832AFA
:14088C00A8825101A9820AE010E0B0D303E38DD108818BD12B
:1408A000098189D195D10AE010E0A6D322960C94F1200E949C
:1408B400FE20C22E580185010E94EA1FE02E07C0EE2DFF2782
:1408C800EA0DFB1D80E28083E394EC14B8F3EC2DFF27EA0D50
:1408DC00FB1D222420820C94EC200E94F72A09C08A01085DE0
:1408F0001F4FA6DE0E94122A00834F5F5F4F88E090E048170E
:14090400590790F322242092E90201EE12E00E94322410939D
:14091800CE020093CD023093D0022093CF024427552709C0D0
:14092C008A01085E1F4F86DE0E94122A00834F5F5F4F88E0CF
:1409400090E04817590790F322242092E90201EE12E00E948B
:1409540032241093CA020093C9023093CC022093CB02599171
:14096800499108954A935A930E945F284427552709C00E94BF
:14097C00122A20818A01085D1F4F54DE4F5F5F4F88E090E0C6
:140990004817590790F38AE00E947F288ADF4427552709C045
:1409A4000E94122A20818A01085E1F4F3FDE4F5F5F4F88E080
:1409B80090E04817590790F380E08093C5028093C602809351
:1409CC00C7028093C80224965991499108950E9415216627F1
:1409E000772735DE442710C08DEA91E00E94DC28A08087E3FF
:1409F40091E00E94DC282080A21419F061E070E045E04395EB
:140A0800453070F36030670721F144270BC087E391E00E943F
:140A1C00DC2820808DEA91E00E94DC2820824395463098F319
:140A300083E08093B30122242092B40181E08093B5018AE047
:140A44008093B60181E08093B7018093B8010E941D2A8ADF8A
:140A580061DE2090B401222031F00E947C2792600E9477270C
:140A6C0005C00E947C279D7F0E9477272090B50120923D01BA
:140A80002090B6012092BA050E94D02B0C941A214A935A9348
:140A94000E94FB274427552702E310E0A0D24F5F5F4F82E39B
:140AA80090E048175907B4F30E9424295991499108950E9472
:140ABC0005215801442755270E94FB2705C002E010E094D2FF
:140AD0004E5F5F4F4A155B0568F40E946B2C803DE7E09E073A
:140AE40038F488E090E00E94742A2816390658F30E94242903
:140AF8000C940A21AA92BA9258010E94FB27850177D20E9409
:140B0C002429B990A99008950E94F82B0E9457278D7F0E94D6
:140B20005C27B6DF0E94AD28EDD00E945F290E94252C2092A6
:140B34000A0180912801813029F00E94572791600E945C2768
:140B4800B990A9900895209035012220A1F020904901222085
:140B5C0039F00E94C92A8FE08093C400789406C00E94C92A1A
:140B70008FEB8093C400789401E010E03DD22998222420927B
:140B84003501089520903501222049F40E94C92A86E0809317
:140B9800C400789401E010E02BD2299A81E0809335010E949C
:140BAC0057278F7E0E945C27089520903501222011F4479ADA
:140BC000469A2090C00025FEFCCF0093C60008950E945727CD
:140BD400877F0E945C278B7F0E945C270E944C2A0DE0E7DFE8
:140BE80020900001822D8870883021F0822D84708430B1F7D9
:140BFC0020903501222011F44798469801E010E0F5C12090C4
:140C1000C00027FC02C021E001C022271B9902C001E001C008
:140C24000027222E202289F71B9B03C00027112703C0009157
:140C3800C600112708950E94052144275527E3DFA02E1A01B3
:140C4C004F5F5F4F8EE795E0F101E80FF91FA0821B9BF3CFB3
:140C60002A9A8EE795E0FA01E80FF91F222420828A010C94B5
:140C74000A210E94BD2A0AC00E945727877F0E945C270E9401
:140C8800932C95DF4F5F5F4F4C155D059CF30C9426212090E0
:140C9C00C80025FEFCCF0093CE00112708950E94BD2A05C00A
:140CB0000E94932CF2DF4F5F5F4F4C155D05C4F30C94262141
:140CC4008CEC81B98DE382B986EB84B985EE85B981ED87B9B2
:140CD8008CE288B98AE18AB98AE68BB9089582E080936E0077
:140CEC00222425BA84BD85E085BD88EB86BD88E487BD88BD3C
:140D000023BC08950E94F82B0E94072C61F0843051F08431CE
:140D140041F0853131F0863121F0873111F0853029F480915F
:140D2800C105853009F02AC000300107C1F00E9488292016E7
:140D3C0031060CF421C00E94572792600E945C270E943B294E
:140D50000E94572790610E945C278D7F0E945C270E940E294F
:140D64000FC00E9457279D7F0E945C270E94FB270E94572767
:140D78009F7E0E945C2782B18C6082B90E94252819F0833020
:140D8C0009F02FC00030010791F00E94572792600E945C277B
:140DA0000E943B290E94572790610E945C278D7F0E945C27D2
:140DB4000E940E291AC00E9457279D7F0E945C270E94FB2753
:140DC8000E9457279F7E0E945C2782B18C6082B90E9457273B
:140DDC009F7B0E945C27222420920C0191600E945C27109306
:140DF0008B0000938A001093330100933201B990A99008958B
:140E04000E942A28809128018831F1F48091B8059091B90561
:140E18008039E1E09E0710F40E94632B0E94462919F4332002
:140E2C0009F4D0C0C10101970E94F8298030890709F0C8C047
:140E40000E94572781600E945C27C2C08091B8059091B90549
:140E54008039E1E09E0710F40E94632B8091C3029091C4027A
:140E680001969093C4028093C3028CE39EE22090C3023090FA
:140E7C00C40282159305E0F4222433243092C4022092C302FD
:140E90008091C0028F5F8093C0028BE32090C002821560F4ED
:140EA40022242092C0028091C1029091C20201969093C20249
:140EB8008093C1020E94462911F4332061F0C10101970E949A
:140ECC00F8298030890729F40E94572781600E945C272090BE
:140EE000B4053090B505222011F43320D9F0C10101979093EB
:140EF400B5058093B4058030890791F40E94572782600E94FB
:140F08005C270E9481270E94B12C4214530431F481E0809343
:140F1C00190100271127F0DE2090B2053090B305222011F454
:140F3000332071F0C10101979093B3058093B20580308907BA
:140F440029F40E94572784600E945C272090B0053090B10578
:140F5800222011F4332061F0C10101970E94722780308907C5
:140F6C0029F40E947C2781600E9477272090AE053090AF0517
:140F8000222011F4332061F0C10101970E94B62C8030890754
:140F940029F40E947C2780610E9477270E947B2B11F4332026
:140FA80099F0C10101979093AD058093AC058030890751F434
:140FBC000E94072C11F0853029F40E947C2791600E94772703
:140FD00009900FBE0E942C2B0E9446281990099018950E940D
:140FE400F72A02C04F5F5F4F40175107D8F3599149910895DF
:140FF8000030010711F401E010E01093B7050093B6050E9488
:14100C0057278E7F0E945C278091000181708130D9F70895FF
:1410200022242092810084E080936F0026BA209282008EEFCC
:141034008093850084E38093840081E08093890080E780939B
:1410480088000E94842C81E0809387008CEC8093860081E24B
:14105C00809380000895AA92BA9258010E9488292A143B049F
:1410700034F4510180910C018F5F80930C010E948127A214C6
:14108400B304ECF40E940D2AD1F480912801843009F45101E6
:141098000E9457279F7B0E945C2780912801833061F40E9401
:1410AC007B2B49F4332039F40E947C279E7F0E9477270E9489
:1410C00073290E940D2A91F40E948127A214B30414F420DD66
:1410D4000BC0850115DE0E9481270E94B12C2414350410F486
:1410E8000E949F28B990A9900895189518950E94C12B8FB73E
:1410FC008A930E946B2C019690933F0180933E0180914001EC
:1411100090914101883AE1E69E0728F401969093410180930F
:14112400400189918FBF0E94B72B1895222427BA82E0809341
:14113800B0008093B1002092B20084E28093B3002092B40039
:14114C002092B60023BC089522242092C60082E08093C000B8
:1411600088ED8093C10086E08093C2002092C5008FEB8093F3
:14117400C40008952A923A920A930E94C12BFA932FB62A9225
:1411880020903501222009F06AC00E944C2A0E9457278B7FC6
:14119C000E945C270091C60020904801822D8F5F80934801D1
:1411B0008FEB91E00E94CE2A00830E94832909F48EC02090DA
:1411C4006C05822D8F5F80936C058EE795E00E94CE2A00837E
:1411D80020903601222009F42FC00D3049F40E945727806173
:1411EC000E945C2722240E94F82873C0013181F481E0809374
:141200004A0122240E94F8288091BD019091BE01019690931E
:14121400BE018093BD0161C0033109F05EC0222420924A0187
:141228000E94F8288091BB019091BC0101969093BC018093BB
:14123C00BB014FC00D3049F40E94572780610E945C272224ED
:141250000E94402944C00E94392C09F040C0222420926C0512
:141264003CC00E94A42A08F02CC00E944C2A0E9457278B7FE4
:141278000E945C278071803109F42DC00091C6000E94C62BC7
:14128C00C101019690936B0580936A058AEE92E0F101E80F0D
:1412A000F91F00830D3049F40E94572780610E945C272224B9
:1412B4000E94402912C00E94392C79F40E94452A0CC00E9456
:1412C800A42A31F40E94572781600E945C2703C0222420923E
:1412DC006C0529902FBEF9910E94B72B099139902990189510
:1412F0008A939A938FB78A930E94572780620E945C278991FC
:141304008FBF9991899118958A939A938FB78A930E945727C9
:1413180088600E945C2789918FBF9991899118952224209263
:14132C00CE002092C80088ED8093C90086E08093CA0020921F
:14134000CD0087E08093CC0008952A928A939A93EA93FA93D9
:141354002FB62A9280916D05883080F4282E8F5F80936D056C
:141368008AE995E00E94CE2A2090CE0020824F9B03C081E0C1
:14137C0080932D0129902FBEF991E9919991899129901895C8
:141390008A939A938FB78A930E94572780680E945C27899155
:1413A4008FBF9991899118958A939A938FB78A930E94572729
:1413B80080640E945C2789918FBF99918991189522242092C7
:1413CC007A0081EC80937C0080E880BF20927B002092790098
:1413E0002092780082E480937E0020927A0008952A923A9287
:1413F4004A925A926A927A928A929A920A931A932A933A93F9
:141408008A939A932FB62A928091DC05803408F04EC0209089
:14141C00780033243092E4052092E305209079003324322CCA
:1414300022244090E3055090E405422853285092E40540925F
:14144400E3051201442455248090E1059090E2056090DF05E7
:141458007090E005620C731C841C951C7092E0056092DF0590
:14146C009092E2058092E1058F5F8093DC058034E1F486E09A
:1414800090E0830194018A930E940C201093DE050093DD05E9
:1414940022242092DC0580E08093DF058093E0058093E10523
:1414A8008093E2050E94572798600E945C2729902FBE0E94B1
:1414BC00462818952A923A920E94272B0E94252841F08330B2
:1414D00031F0873021F08D3011F0853061F48091BF05909161
:1414E400C00501969093C0058093BF050E94C1280FC0222439
:1414F80033243092C0052092BF0520905201222019F00E949C
:14150C00C12802C00E94F1280E94452B3990299018952A9268
:141520003A920E94272B0E94252841F0833031F0873021F03B
:141534008D3011F0853061F48091BD059091BE05019690936A
:14154800BE058093BD050E94C1280FC0222433243092BE057B
:14155C002092BD0520905201222019F00E94C12802C00E94CA
:14157000F1280E94452B3990299018950E942A280E94052151
:1415840089B180768093AA052090AB05382E821509F463C1E3
:14159800A82EA22485FD2DC0809124019091250101969093FD
:1415AC002501809324018091BF028F5F8093BF028091140113
:1415C00090911501019690931501809314018091160190919F
:1415D40017010196909317018093160180E390E02090240147
:1415E800309025018215930520F4222433240E94E42BA6FED4
:1415FC0073C02090AA0526FC2CC081E090E0A0E0B0E040908A
:141610001201509013012090100130901101280E391E4A1E37
:141624005B1E30921101209210015092130140921201209116
:14163800B8053091B90505E010E00E94A92010930F010093DC
:14164C000E010E94E42A0E94E42B81E08093D70543C082E065
:141660008093D70581E090E0A0E0B0E04090CF025090D00253
:141674002090CD023090CE02280E391E4A1E5B1E3092CE0253
:141688002092CD025092D0024092CF0281E090E00E94AB292F
:14169C00280E391E4A1E5B1E3092C6022092C5025092C8021D
:1416B0004092C70281E090E0A0E0B0E04090CB025090CC025F
:1416C4002090C9023090CA02280E391E4A1E5B1E3092CA020F
:1416D8002092C9025092CC024092CB0280915601813009F020
:1416EC002EC00E946B2A44962816390631F08BE490E08215D7
:14170000930508F0A8C00E94FB27442755274F5F5F4F88EE60
:1417140093E048175907CCF300271127F1DA0E940E290E942B
:1417280057278D7F0E945C2782E08093560181E1809381003C
:14173C0082B18C6082B982E080930B0186C088EC90E02090E4
:141750000E0130900F018215930508F07CC080910A01813076
:1417640009F037C00E946B2A0D962816390631F082E390E034
:141778008215930508F02BC000271127BFDA20900A012092E6
:14178C000B010E940E290E9457278D7F0E945C279F7B0E9457
:1417A0005C279F770E945C2720902801822D843131F0853163
:1417B40021F0863111F0873129F40E9457279D7F0E945C2722
:1417C8000E947C278D7F0E9477270E948D2B80910A01823054
:1417DC0009F03BC0A0902401B09025010E94972A8296A81611
:1417F000B90631F082E390E08A159B0508F02BC000271127AF
:141804007FDA20900A0120920B010E940E290E9457278D7FF9
:141818000E945C279F7B0E945C279F770E945C272090280144
:14182C00822D843131F0853121F0863111F0873129F40E942D
:1418400057279D7F0E945C270E947C278D7F0E9477270E94A2
:141854008D2B2090AA052092AB050E940A2109900FBE0E9432
:141868002C2B0E9446281990099018950EE00E94DB05009115
:14187C0028010E94942739D303E10E94DB0500910C010E9420
:14189000DB050C94E805F89415DA25DAC1DB48DC59DC42DD49
:1418A40091DD82E080936E0084E080936F0082E08093700014
:1418B80081E080936B0080936C00222420926D0080EE8093D8
:1418CC0073002DBA209269008BE08093680025BE20926400B4
:1418E000789408954A93402F89E0841708F449E00FE00E9445
:1418F400DB05042F0E9494270FE010E07BDB499108950E9422
:141908005727807098708030E8E09E0709F038C00E94622A19
:14191C0060F481E090E090932301809322010E9457279B7FDB
:141930000E945C2724C00E949C2AB0F480308907F1F00E94CB
:1419440057270E94752B11F001E0CADF82E090E0909323012B
:14195800809322010E94572794600E945C270BC022243324A4
:14196C0030920501209204010E94572794600E945C270E940D
:141980005727977F0E945C2708950E9415212C97809104014C
:14199400909105018F3FE0E09E0711F4B2DFADC00E94622AB4
:1419A80018F40E94192BA7C04090DD055090DE0580E593E085
:1419BC0048165906A8F080EE8415950588F080910A018F3FBF
:1419D00009F095C00E94A62804E110E00DDB82E390E00E9411
:1419E4007A280E948A0589C00E949C2A08F085C00E9457270E
:1419F800807098708030E8E09E0709F07CC08091DD0590917D
:141A0C00DE058A3CE2E09E0708F06EC08F32E0E09E0730F446
:141A20008FE290E09093DE058093DD050E94882960911A0177
:141A340070911B01621973094AE952E08B010E944D220E94E6
:141A4800B7280E948E2C8A010E944D220E9452270E94182AB4
:141A5C000E94B7288B01009510950F5F1F4F0E944D220E94A0
:141A7000DA270CE60E94FD2B0E944F2B0E94DA270E942C29EF
:141A84008A010E944D220E9452270E94182A0E94DA270E946E
:141A98002C290E94AD280E944D220E9452270E9455280E9481
:141AAC00DA270091DD051091DE050E944B220E94F6270E94BE
:141AC0001529CE0108960E944F2B0E94F6270E941529CE01DD
:141AD4009A938A930E94FF210E94F6270E9415290E9421226E
:141AE80058010E9482068FEF80930A010E945727977F0E94F3
:141AFC005C270E94482C39F40E9420280E9457278D7F0E9458
:141B10005C2786B18170813079F00E94612C61F088E592E09D
:141B24000E94B62C0E947C278F7E0E94772780620E94772775
:141B380086B181708130F9F40E94612CE1F40E94662C49F062
:141B4C0016D30E947C278F7E0E9477270E94F02A0BC00E94E1
:141B6000662C41F41CD30E947C278F7E0E9477270E94F02A6D
:141B74000E947C278F7D0E9477272C960C941A214A930E94B0
:141B8800A7050E9457278F7E0E945C2720903601222019F415
:141B9C0049E20E94122B20916A0530916B050AEE12E00E944E
:141BB0003B060E94452A4991089584E690E00E94F8290E9419
:141BC400832929F00E944629D1F73320C1F702E010E010DAA8
:141BD8000E94C4050E94082B30F4232D33270EE715E00E945F
:141BEC003B06222420926C0502E010E00C94FC074A930E9447
:141C0000A70549E20E9457278F7E0E945C270E94122BB8DF31
:141C14000E94E80581E080933501809349010E94A705222492
:141C280020926C0580916C058130E0F340917E052224209233
:141C3C006C050E94C405042F0E94DB053199FECF12C01B99E6
:141C500010C020904A01222061F00E94C4052A981B9BFECF72
:141C64002A9A0E941F298CDF0E94E805A4DF319BECCF0E9418
:141C78001F292224209249010E94A7050E941F290C940000F6
:141C8C00499108950E941521619728E50E9499280030010755
:141CA00009F057C020903601222049F541E050E080918005D2
:141CB400843209F0442780918105853511F0442755278091B8
:141CC80082058A3A11F04427552780918305833311F044271A
:141CDC00552780918405863611F044275527809185058C3CD7
:141CF0000E94932B09F4F5C00C940038F2C041E050E08091E2
:141D0400EC02843209F044278091ED02843411F04427552723
:141D18008091EE02893411F0442755278091EF02833511F056
:141D2C00442755278091F002803511F0442755278091F10218
:141D40008C340E94932B09F059DF222420923601C8C02BE577
:141D54000E94992800300107F9F48BE391E0FE0101E110E043
:141D6800FA93EA939A938A930E949821442755272224298AD8
:141D7C00BA014F5F5F4FCE01FB01E80FF91F00810E94DB055F
:141D900081E190E0481759078CF3A3C02EE531E009ED15E0BD
:141DA4000E94C32769F4ECDE0E94E80504DF80917F058634B7
:141DB80009F093C081E0809336018FC021E631E009ED15E0CE
:141DCC000E94C32769F4D8DE0E94E805F0DE80917F058235BB
:141DE00009F07FC081E0809336017BC024E631E009ED15E0CB
:141DF4000E94C32769F4C4DE0E94E805DCDE80917F058335BA
:141E080009F06BC081E08093360167C027E631E009ED15E0C7
:141E1C000E94C32739F40E940D2B01ED15E00E941B2859C03E
:141E30002AE631E009ED15E00E94C32731F50E9457278F7EB3
:141E44000E945C270E94A70505E30E94942784E690E00E9456
:141E5800F8290E94832929F00E944629D1F73320C1F70E9468
:141E6C001F290E94082B40F40E94C01B0E940D2B0CEC15E0CD
:141E80000E941B280E94C4052CC02DE631E009ED15E00E9461
:141E9400C32729F50E9457278F7E0E945C270E94A70506E3A9
:141EA8000E94942784E690E00E94F8290E94832929F00E9423
:141EBC004629D1F73320C1F70E941F290E94082B40F40E943B
:141ED000C01B0E940D2B07EC15E00E941B280E94C4050E946F
:141EE400452A0E9457278F7E0E945C2761960C941A21279799
:141EF80009E110E00E94FC070BE00E943129998388830E94A7
:141F0C003E2C8E010E5F1F4F0E94932423E00E940828279602
:141F200008954A9301E10E94DB058091D805813011F443E008
:141F340001C044E0042F0E949427499108950E9405210E9443
:141F480011280E94EA28209218012092190120902801822D79
:141F5C00843131F0853121F0863111F0873129F40E94572727
:141F70000E94022849F40E94252831F0833021F0853011F0CA
:141F8400883121F50E94572792600E945C270E943B290E949B
:141F9800572790610E945C2722240E94E6274091280144313D
:141FAC0049F0453139F0463129F0473119F0453009F033C0D7
:141FC0008FEF80930A0181E090E00E9472272BC00E9457275A
:141FD40092600E945C27A090C305B090C4050E943E2C85014F
:141FE8000E94A92024E630E00E941A200E94612740910B017D
:141FFC00442311F04F3F11F40E94252C8FEF80930A01809136
:142010002801823041F46FDF0E947C278F770E9477270E9431
:142024001F290E940D2A69F001E00E9494270E94BC2801E089
:142038000E9494270E94BC2801E00E9494270E947C27806846
:14204C000E9477270C940A210E94052180912801823061F56B
:1420600085E090E00E94F3298215930528F50E94572C0E94C6
:14207400EA280E944A2B25E030E000913001109131010E94E3
:142088001A20A02E8CE0801760F44A2D552704C00E944A2B17
:14209C00415050408CE090E084179507BCF30E94FB270EE19A
:1420B00010E00E94FC071AC00E94A6280E94252811F083309A
:1420C40099F4442755270E94BC280E945E2B8431E0E09E07C9
:1420D80010F44AE050E04F5F5F4F8AE090E0481759077CF332
:1420EC008FEF80930A0183E02090D805282620920B010E94A6
:142100008A050E94BC2802E00E9494270E94BC2802E00E946D
:1421140094270E94BC2880912801823081F00E947C278460F0
:142128000E9477270E9457279F7B0E945C27222420920C01FF
:14213C0091600E945C270E947C278F770E9477270E945727CE
:142150009D7F0E945C279F7E0E945C2788EE93E00E94AB2999
:1421640082159305A405B50524F40E94FD290E94B6040C94F9
:142178000A210E94EA2883E020900B01282620920A010E94A8
:14218C00A6280E9457278D7F0E945C270E945F29089583E0F6
:1421A0002090D80528262092D80520902801222039F42090C9
:1421B4000B01282620920A010E94A628B0DE0E9457278D7FD6
:1421C8000E945C270E945F2908950E940521279744270BC05B
:1421DC008EE795E00E94DC282080CE0102960E94DC28208210
:1421F0004395453098F380912801823009F044C084E690E040
:1422040020903001309031018215930514F40E947A288B816C
:14221800823381F42AE030E000913001109131010E94162001
:14222C00002331F40E9455290A970E947A2805C00E9455296C
:1422400005970E947A280E9455298530E0E09E0724F485E0F3
:1422540090E00E947A280E9457270E94022881F42091C305E8
:142268003091C40500913001109131010E94A92024E630E0BE
:14227C000E941A200E94612738DE34C00E94252819F0833093
:1422900009F019C08091BA0581508093BA05843018F484E0D1
:1422A4008093BA050E94A0270E94A6290E94E2290E944D22BC
:1422B8000E9452270E94182A0E94E12815C0809128018530A4
:1422CC0089F480913D01815080933D01813018F481E08093DF
:1422E0003D010AE00E94DB0500913D010E94942727960C94B7
:1422F4000A210E940521279744270BC08EE795E00E94DC285F
:142308002080CE0102960E94DC2820824395453098F3809189
:14231C002801823009F044C00E9455298530E0E09E0724F483
:1423300085E090E00E947A288B81823381F42AE030E000919F
:142344003001109131010E941620002331F40E9455290A96A1
:142358000E947A2805C00E94552905960E947A2884E690E08F
:14236C0020903001309031018215930514F40E947A280E946D
:1423800057270E94022881F42091C3053091C40500913001C5
:14239400109131010E94A92024E630E00E941A200E946127D7
:1423A800A6DD38C00E94252819F0833009F01BC08091BA0557
:1423BC008F5F8093BA0580E12090BA05821510F48093BA0510
:1423D0000E94A0270E94A6290E94E2290E944D220E94522746
:1423E4000E94182A0E94E12817C080912801853099F48091F2
:1423F8003D018F5F80933D0183E020903D01821510F4809355
:14240C003D010AE00E94DB0500913D010E94942727960C9489
:142420000A214A930E94482C11F441E001C04427413039F49A
:142434000E9420280E9457278D7F0E945C27499108950E9440
:14244800FA20A0970E945A280E944D2C0E945A280E94522CAC
:14245C000E945A280E94F6270E945A280E94B7280E945A28C0
:142470000E94DA27002411241D8A0C8AAA24BB2487E090E09B
:142484009F8B8E8B88E0998F888F87E09B8F8A8F86E09D8F1E
:142498008C8F9F8F8E8F84E07C0185E06C010E94592B09F4F4
:1424AC001AC380ED97E020903E0130903F018215930508F045
:1424C00006C30E943B2B3D8A2C8AA090BD05B090BE050E9423
:1424D400CB2822240E94E6273092BC052092BB050E94F32B57
:1424E8002092700120901601309017013092BA012092B90135
:1424FC002224332430921701209216012C893D8989010E94E5
:14251000CB2B0E944D2C950185010E94CB2B0E94522C0E9430
:14252400AC2ACE0140969A938A930E94FF210E94F6270E94BB
:1425380036290E94A6290E9452270E948D2A84F481E090E002
:14254C0090934D0180934C01222433243092AC012092AB0140
:1425600082E30E94202C33C020904C0130904D01222011F4CF
:142574003320C1F00E94892C8233E0E09E0790F481E090E089
:142588000E94DF2B8215930520F4C10102970E94202C0E9465
:14259C00892C02969093AC018093AB0182E390E02090AB011E
:1425B0003090AC012816390650F02224332430924D0120928E
:1425C4004C0130924F0120924E010E9436290E945A280E94DC
:1425D80052270E948D2A61F50E945A280E94B728222420922A
:1425EC0070012090440130904501222041F4332031F40E94DE
:14260000D52B222011F4332041F180912801833021F50E9455
:142614005E2B8232E0E09E0720F408E210E00E945D052224D8
:1426280033240E94EE2B309243012092420111C00E941529E0
:14263C000E94DF250E94B72880912801833039F40E947C2704
:142650009E7F0E9477270E9473290E948E2C0E945A280E94B9
:1426640052270E948D2A19F4AA24BB2403C081E090E05C01E5
:14267800CE01049604E611E00E9463219A938A930E941324C1
:14268C002CF40E94DF2B0E94E92B04C0222433240E94E92BA1
:1426A0008091BA05843009F01DC085010E944B2218012901F4
:1426B40000E611E00E94632138014901488559856A857B85F8
:1426C8000091BA0511270E944D220E9452270E94C9270E8921
:1426DC001F890E941F2700C18091BA05853009F01DC08501B8
:1426F0000E944B221801290100E611E00E9463213801490104
:14270400488559856A857B850091BA0511270E944D220E94EC
:1427180052270E94C927088D198D0E941F27DEC08091BA0511
:14272C00863009F01DC085010E944B221801290100E611E05E
:142740000E94632138014901488559856A857B850091BA05F2
:1427540011270E944D220E9452270E94C9270A8D1B8D0E949A
:142768001F27BCC08091BA05873009F01DC085010E944B22A9
:14277C001801290100E611E00E9463213801490148855985DB
:142790006A857B850091BA0511270E944D220E9452270E94F0
:1427A400C9270C8D1D8D0E941F279AC08091BA05883009F02B
:1427B8001DC085010E944B221801290100E611E00E9463215B
:1427CC0038014901488559856A857B850091BA0511270E94B2
:1427E0004D220E9452270E94C9270E8D1F8D0E941F2778C062
:1427F4008091BA05893009F01CC085010E944B22180129019B
:1428080000E611E00E94632138014901488559856A857B85A2
:14281C000091BA0511270E944D220E9452270E94C9278701DA
:142830000E941F2757C08091BA058A3009F01CC085010E940E
:142844004B221801290100E611E00E94632138014901488583
:1428580059856A857B850091BA0511270E944D220E945227EB
:14286C000E94C92786010E941F2736C085010E944B221801B3
:14288000290100E611E00E94632138014901488559856A8500
:142894007B850091BA0511270E944D220E9452270E94C927EA
:1428A80000914E0110914F010E944B220E9452278301940108
:1428BC000E941722810192010E94F723180129010091460141
:1428D000109147010E944B220E9452270E9455280E94DA271F
:1428E4000E94D52B0E94EE2B0E9441280E94212210934301AC
:1428F8000093420180E197E20E94202B08F06EC080911A01DD
:14290C0090911B010A960E9441280E9421228017910708F0C3
:142920002EC0809118018F5F809318018AE0209018018215A7
:1429340008F023C00E94862731F00E94F3292220E1F433201C
:14294800D1F420900C012220B1F401E30E9494270E94A62861
:14295C000E94982C79DB0E947C2784600E9477270E949F28DB
:1429700020902E01222019F00DE60E944D060E9488290E944C
:1429840041280E94B22B90F420900C01222071F42090B70107
:14299800222009F0169A81E080930C010E94572791600E940C
:1429AC005C2714C00E9488290E9441280E94AD2B68F42090DC
:1429C0000C01222049F01698222420920C010E9457279160B7
:1429D4000E945C2722243324309241012092400180912801FC
:1429E800843069F40E9481270E9441280E94AD2B30F40E9435
:1429FC00AD280E944D220E94DA270E9488290E9441280E943E
:142A1000B22B40F40091C5051091C6050E944D220E94DA2726
:142A24000091B9011091BA010E944B220E9452270CE50E943A
:142A3800FD2B04960E944F2B1801290108E511E00E94632165
:142A4C000E9452270E9455280E941B24D4F4CE0104960E9488
:142A6000A6290E94542B9CF40E945E2B8332E0E09E0738F471
:142A740020900C01222019F40E94FB2702C00E94572C81E036
:142A88008093700103C0222420927001209019012220C9F4C1
:142A9C00209070012220A9F40E9424290E942C290E945A281C
:142AB0000E9452270E948D2A21F40E94A6290E94DA270E94D3
:142AC40041280E9421220E94820680910A018F3F19F0282E3D
:142AD80020920B018FEF80930A010E947C270E94ED2961F43E
:142AEC000E942A100E947C2784600E9477270E949F289E7F0B
:142B00000E947727A0960C94F1204A935A9344270E945A2940
:142B140001F504E10E9431290E943B2B8215930508F44395CB
:142B28008AE090E00E94A32B8215930508F44E5F042F0E94A2
:142B3C00942722240E94E62782E390E00E9472270E947C2780
:142B50008E7F0E9477275991499108954A935A9344270E94EC
:142B64005A29E9F40BE20E94DB052090AA0526FC01C0439574
:142B780082E02090BF02821508F44E5F042F0E949427222460
:142B8C002092BF0282E390E00E9472270E947C278E7F0E94BE
:142BA00077275991499108950E9405210E945A2909F013C168
:142BB4000E9457270E94022809F00DC10E947C278E7F0E9466
:142BC8007727409106014423F9F0413009F434C0423009F462
:142BDC0052C0433009F458C0443009F46BC0453009F471C00C
:142BF000463009F48EC0473009F494C0483009F4B1C04930E9
:142C040009F4B7C04A3009F4CEC0E5C00E94112881E080934F
:142C1800340104E511E00E946321180129010091C305109136
:142C2C00C4050E94F42680ED97E00E9472270E946C27CDC02E
:142C400004E50E940B27180129010091340111270E94F426C6
:142C54000E94D42780E991E00E94722780913401843129F4A2
:142C68000E946C2781E0809334010E94862709F0B0C08AE058
:142C7C0080930601ACC00E94992788EE93E00E9472270E9496
:142C90006C27A3C00E94202884EF91E00E9472270E94D42794
:142CA40088E020903401821530F40E946C2781E08093340136
:142CB80090C00E94F0278DC00E94992780EE9EE20E94722727
:142CCC000E946C2784C000E511E00E946321180129010091AB
:142CE000C3051091C4050E94F42680EE9EE20E9472270E9427
:142CF400D42784E020903401821530F40E946C2781E0809324
:142D0800340167C00E94F02764C00E94992780EE9EE20E948C
:142D1C0072270E946C275BC00CE411E00E9463211801290170
:142D30000091C3051091C4050E94F42680EE9EE20E947227E7
:142D44000E94D42784E020903401821530F40E946C2783E141
:142D5800809334013EC00E94F0273BC00E94992780EE9EE21D
:142D6C000E9472270E946C2732C004E50E940B2718012901F1
:142D80000091340111270E94F4260E94072A84EF91E00E942C
:142D94007227209034012220F1F40E946C2781E080933401A8
:142DA80018C00E9420280E942A100E948D292092060181E007
:142DBC00809308010E94FD290FE20E94DB05009108010E9470
:142DD000DB05009107010E9494270C940A210E9405210E94E4
:142DE4005A2909F01BC10E9457270E94022809F015C10E9426
:142DF8007C278E7F0E947727409106014423F9F0413009F441
:142E0C0034C0423009F452C0433009F458C0443009F46BC019
:142E2000453009F471C0463009F48EC0473009F494C04830FA
:142E340009F4B1C0493009F4B7C04A3009F4CFC0EDC00E94DA
:142E4800112881E08093340104E511E00E9463211801290151
:142E5C000091C3051091C4050E94F42680ED97E00E947227C4
:142E70000E946C27D5C004E50E940B271801290100913401BE
:142E840011270E94F4260E94D42780E991E00E947227809183
:142E98003401843129F40E946C2781E0809334010E948627F2
:142EAC0009F0B8C08AE080930601B4C00E94992788EE93E05E
:142EC0000E9472270E946C27ABC00E94202884EF91E00E94B3
:142ED40072270E94D42788E020903401821530F40E946C2777
:142EE80081E08093340198C00E94F02795C00E94992780EEF7
:142EFC009EE20E9472270E946C278CC000E511E00E9463218A
:142F1000180129010091C3051091C4050E94F42680EE9EE2FD
:142F24000E9472270E94D42784E020903401821530F40E941B
:142F38006C2781E0809334016FC00E94F0276CC00E949927D3
:142F4C0080EE9EE20E9472270E946C2763C00CE411E00E946D
:142F60006321180129010091C3051091C4050E94F42680EEA9
:142F74009EE20E9472270E94D42784E020903401821530F4ED
:142F88000E946C2783E18093340146C00E94F02743C00E94F0
:142F9C00992780EE9EE20E9472270E946C273AC004E50E947E
:142FB0000B27180129010091340111270E94F4260E94072A0B
:142FC40084EF91E00E94722720903401222009F025C00E9433
:142FD8006C2781E0809334011FC00E9420280E94862719F484
:142FEC000E948D2904C080E991E00E9472270E944C290E94E7
:143000005C2C0E941A20009307010FE20E94DB0500910801B0
:143014000E94DB05009107010E9494270C940A210E9405219D
:143028000E945A2909F01DC10E9457270E94022809F017C1DB
:14303C000E947C278E7F0E947727409106014423F9F0413055
:1430500009F434C0423009F452C0433009F458C0443009F401
:143064006BC0453009F471C0463009F48EC0473009F494C001
:14307800483009F4B1C0493009F4B7C04A3009F4CFC0EFC0BC
:14308C000E94112881E08093340104E511E00E946321180193
:1430A00029010091C3051091C4050E94F42680E991E00E94F7
:1430B40072270E946C27D7C004E50E940B2718012901009112
:1430C800340111270E94F4260E94D42780E991E00E94722719
:1430DC0080913401843129F40E946C2781E0809334010E9448
:1430F000862709F0BAC08AE080930601B6C00E94992788EEDA
:1431040093E00E9472270E946C27ADC00E94202884EF91E099
:143118000E9472270E94D42788E020903401821530F40E9421
:14312C006C2781E0809334019AC00E94F02797C00E94992787
:1431400080ED97E00E9472270E946C278EC000E511E00E9461
:143154006321180129010091C3051091C4050E94F42680EDB4
:1431680097E00E9472270E94D42784E020903401821530F400
:14317C000E946C2781E08093340171C00E94F0276EC00E94A7
:14319000992780ED97E00E9472270E946C2765C00CE411E011
:1431A4000E946321180129010091C3051091C4050E94F4262F
:1431B80080ED97E00E9472270E94D42784E020903401821567
:1431CC0030F40E946C2783E18093340148C00E94F02745C024
:1431E0000E94992780E991E00E9472270E946C273CC004E54A
:1431F4000E940B27180129010091340111270E94F4260E9454
:14320800072A80E991E00E94722720903401222009F027C065
:14321C000E946C2781E08093340121C00E9420280E948627A6
:1432300019F40E948D2904C080E991E00E9472270E944C2935
:143244002CE030E0082F11270E941A20009307010FE20E94E1
:14325800DB05009108010E94DB05009107010E9494270C94D0
:14326C000A210E9405210E945A2909F01AC10E9457270E94A0
:14328000022809F014C10E947C278E7F0E94772740910601D8
:143294004423F9F0413009F434C0423009F452C0433009F483
:1432A80058C0443009F46BC0453009F471C0463009F48EC0FA
:1432BC00473009F494C0483009F4B1C0493009F4B7C04A30E9
:1432D00009F4CFC0ECC00E94112881E08093340104E511E054
:1432E4000E946321180129010091C3051091C4050E94F426EE
:1432F80080ED97E00E9472270E946C27D4C004E50E940B271D
:14330C00180129010091340111270E94F4260E94D42780E9AA
:1433200091E00E94722780913401843129F40E946C2781E03F
:14333400809334010E94862709F0B7C08AE080930601B3C087
:143348000E94992788EE93E00E9472270E946C27AAC00E94AA
:14335C00202884EF91E00E9472270E94D42788E0209034010C
:14337000821530F40E946C2781E08093340197C00E94F027A0
:1433840094C00E94992780EE9EE20E9472270E946C278BC0D6
:1433980000E511E00E946321180129010091C3051091C4051F
:1433AC000E94F42680EE9EE20E9472270E94D42784E0209077
:1433C0003401821530F40E946C2781E0809334016EC00E945B
:1433D400F0276BC00E94992780EE9EE20E9472270E946C27E3
:1433E80062C00CE411E00E946321180129010091C30510916B
:1433FC00C4050E94F42680EE9EE20E9472270E94D42784E00E
:1434100020903401821530F40E946C2783E18093340145C022
:143424000E94F02742C00E94992780EE9EE20E9472270E94AC
:143438006C2739C004E50E940B2718012901009134011127F6
:14344C000E94F4260E94072A84EF91E00E94722720903401D9
:14346000222009F024C00E946C2781E0809334011EC00E94DB
:1434740020280E94862719F40E948D2904C080E991E00E9408
:1434880072270E944C290E945C2CD0D5009307010FE20E9483
:14349C00DB05009108010E94DB05009107010E9494270C948A
:1434B0000A214A935A930E94972A8F3FEFEF9E071CF4482FD8
:1434C4004F5C03C0409154014F5F129A81E1809381000E946E
:1434D80073290E94992708E010E00E94FC0740902401509090
:1434EC002501242E33244214530459F0C2018233E0E09E072A
:1435000030F40E94F329222071F7332061F70E94F329222080
:1435140011F4332019F00E94862761F420900C01222041F46A
:1435280001E30E9494270E947C279E7F0E9477270E942028C2
:14353C000E94FB275991499108950E940D2A09F066C00E94BC
:1435500091020E947A2982EA95E000913D0111270E944D2296
:143564000E94542B34F40E94EA28A1DF22240E94E6270E943F
:143578007C270E94ED2959F420901901222039F40E942A1082
:14358C000E947C279E7F0E94772788E893E10E94202B60F563
:1435A0008EE591E00E94742A8215930590F420900C01222041
:1435B40071F42090B701222009F0169A81E080930C010E9428
:1435C800572791600E945C270DC020900C01222049F01698A8
:1435DC00222420920C010E94572791600E945C270E94F128E5
:1435F00030924101209240010E9457270E94ED2961F403E1BF
:143604000E94DB0500910C010E9494270E9457279E7F0E9456
:143618005C2708950E9457270E94022809F055C080E797E1A5
:14362C0020903E0130903F018215930508F04BC00E94F329AB
:1436400030927201209271010E94EA280E94F32B0E947F2C5C
:143654008435E1E09E0780F485E020907501821558F40E94BF
:143668007F2C01960E941B2C8C010E948206222420927501FE
:14367C00809175018F5F8093750185EB90E02090710130907A
:14369000720182159305E8F40E94BC282090730130907401C9
:1436A4000E94362B0E9481270E94032981010E9482060E94A9
:1436B800FD290E94F6030E94FD290E942A1088E191E00E941D
:1436CC001B2C0E94C72908950E945F2827E001EE12E00E94C1
:1436E000590408E20E94DB0528E030E001EE12E00E943B0631
:1436F4008AE090E00E947F280E94590428E030E001EE12E0A7
:143708000E941B28249608950E94272A0E941D2A0C94B6043B
:14371C0020905601222061F40E94A6280E9457278D7F0E94BD
:143730005C270E945F2981E0809356010895649721E231E061
:143744008E010E942A2421ED32E08E0129D40DE20E94DB05D5
:1437580022E130E08E010E941B2864960895222420925701EF
:14376C0005E30E9494270E94BC2806E30E94DB050C94E80586
:1437800054D527974427AA24BB240E9457278F7E0E945C27E4
:14379400222420926C0520907E052092C105622D613008F4F1
:1437A800BCC184E3821568F08CE790E0E22DE150FF27EE0FF4
:1437BC00FF1FE80FF91F25903490F1010994613709F452C01D
:1437D000A8C18091570181608093570120907F052092CC0510
:1437E400209080052092CD05209081052092CE052090820526
:1437F8002092CF0522242092D0050E9457278F7E0E945C2718
:14380C008AC18091570182608093570120907F052092C705F5
:14382000209080052092C805209081052092C90520908205F3
:143834002092CA0522242092CB050E9457278F7E0E945C27E5
:143848006CC10E94272A0E94B60467C18DE08093280182E3BA
:14385C0090E00E9472275FC18BE18093280182E390E00E946E
:14387000722757C180E480932F0153C10E9457270E940228EC
:1438840091F00E94592B79F40E94A10F0E9473290E947C2747
:143898008B7F0E94772780912801853009F505DE1FC00E9481
:1438AC0057270E94022819F00E94592BB9F00E942A100E9468
:1438C0007C2784600E9477270E94252821F0833011F08530C4
:1438D40011F40E949F2820902E01222019F00DE60E944D0660
:1438E80016981BC10E94A10F0E947C278B7F0E94772713C18D
:1438FC000E942A100E947C2784600E9477270E94252829F06B
:14391000833019F0853009F004C10E949F2801C120907F0515
:1439240020922801222420927A0000E10E94DB050091280125
:143938000E94942780916C00816080936C0080916B008160E4
:14394C0080936B0060912801643011F0633041F40E94A02709
:143960008FEF80930A0122240E94E62780912801853009F0DA
:14397400D6C081E080934B01D2C080912801853079F420904B
:143988004B01222059F0222420924B0180910B01813009F445
:14399C00C2C082E080930B018091C1008F770E94BC2B8F7EA6
:1439B0008093C1000E94BD100E94FD298091C10080610E94A3
:1439C400BC2B80688093C1000E9457278F7E0E945C270E9458
:1439D800992BA3C00E94CF10A0C00E94E9109DC00E947B11AD
:1439EC009AC00E94C4050E94832909F094C093C020908505DA
:143A00002092B301209086052092B401209087052092B50106
:143A14008091880580538093B601209089052092B70120900B
:143A28008A052092B8010E948E0377C00E947C2781600E945E
:143A3C0077270E94A02984E1809328016CC00E947C2781607A
:143A50000E9477270E94A02985E18093280161C00E947C27AF
:143A640081600E9477270E94A02986E18093280156C00E9467
:143A78007C2781600E9477270E94A02987E1809328014BC05C
:143A8C0020907F05209208012090800520920701209008018F
:143AA000222009F03EC02224209206013AC088E1809328013B
:143AB40080916C008E7F80936C0080916B008E7F80936B00EE
:143AC8002CC004DE2AC020DE28C035DE26C081E0809352018C
:143ADC000E94F1280E94C7291EC020907F0533240E94402B13
:143AF0002090540130905501322C22240E94402B20908005C1
:143B040033244090540150905501422853285092550140920C
:143B180054010E94150401C0FDDD642F4F5F8EE795E00E9421
:143B2C007E2A222420824530B0F327967DC34A936A93279748
:143B40004F9BFECF40919A0520902E01222009F4AAC0443549
:143B540019F40E94BD10A5C0413311F4A8DCA1C0433409F4AA
:143B68009EC0423439F42090B701222009F497C0169A95C045
:143B7C00423611F4169891C0463421F482E00E949E2B8BC012
:143B9000463621F481E00E949E2B85C0473441F40E94A10F7D
:143BA4000E947C278B7F0E9477277BC04D36B1F40E940D2A42
:143BB80009F075C00E942A100E947C2784600E9477270E94E4
:143BCC00252829F0833019F0853009F066C00E949F2863C063
:143BE0004E3441F489B18074803409F05CC00E94BD1059C09B
:143BF4004E3629F44E9955C00E94BD1052C04235B1F484E01F
:143C080080932801222420927A0000E10E94DB0500912801DD
:143C1C000E9494270E94A0278FEF80930A0122240E94E6273D
:143C30003AC0453609F037C080916D05823020F401E010E001
:143C44000E94FC0760919B05605385E0861708F028C0673109
:143C580008F025C06093BA0580E1861710F48093BA050CE009
:143C6C000E94DB058AE090E0998388832091BA0533278E0168
:143C80000E5F1F4F50D622E00E94082808E611E01AD30E94ED
:143C9400E22901D40E9452278101920121D40E94E1284135F6
:143CA800D1F420902E012220B1F483E08093280100E10E945B
:143CBC00DB05009128010E9494270E94992B06E00E94DB052F
:143CD00001E30E94942781E080932E010FC04B3169F42090A4
:143CE4002E01222049F006E00E94DB0500E30E949427222434
:143CF80020922E01222420922D0120926D05042F0E944D0665
:143D0C0027966991499108950E944B0C82B18C6082B90E9480
:143D20007C2784600E94772783E08093280181E08093D805D8
:143D34008AE08093BA0508E611E0C3D20E94E229AAD30E94FF
:143D4800522781019201CAD30E94E1280E94982C0E94ED0498
:143D5C000E9428040E94DF0208EC10E00E94FC070E94BD0317
:143D70000E941F290E94730481E08093DC050E94192B0E945F
:143D8400E42A26E231E001ED12E062D50E94C10121E231E075
:143D980001ED15E05BD500C1319928C01B991FC00E94C40593
:143DAC002A981B9902C0319BFBCF2A9A81E090E00E94C62B0D
:143DC0008215930568F42090EA022092D9052090EB022092E9
:143DD400DA0522242092DB050E94480E0E94A70503C02A9A57
:143DE8000E94A705222420926C05D6C080912F01803439F458
:143DFC00082F0E944D06222420922F01CBC0222430906D055C
:143E1000231410F492DEC4C00E94832911F4B0DCBFC00E946F
:143E240057270E94ED29E9F40E94252821F0833011F085300E
:143E380071F40E94BC2803E10E94DB0500910C010E9494272A
:143E4C0020900C0120920D0102C00E94910F0E9457279E7FA4
:143E60000E945C279DC040912801413008F433C08BE184176B
:143E740008F42FC084EE90E0E42FE150FF27EE0FFF1FE80FF1
:143E8800F91F25903490F10109940E9423125EC00E94C50C9E
:143E9C005BC00E94111258C00E94231255C04DDB53C00E9451
:143EB000D41550C00E94EF164DC00E9412184AC00E94371989
:143EC40047C0AADB45C00E94851542C00E94AE153FC00E9415
:143ED800A70522240E94842C0E94E6278091DC05813019F433
:143EEC008FEE80937A002090040130900501222011F43320A3
:143F000011F00E94830C0E9457270E94752B39F486E0809373
:143F140028018FEE80937A0013C08091220190912301813069
:143F2800E0E09E0759F4222420927A000E94D02B08EC10E0E0
:143F3C000E94FC070E943A0C81E1809381000E9457279061DD
:143F50000E945C2720905201222011F1809153018F5F80938B
:143F6400530184E6209053018215C0F40E94CB288091A901EC
:143F78009091AA0101968215930550F402E30E94942705E038
:143F8C0010E00E94FC072224209252010E94F1282092530180
:143FA000FFCE08950E949D2C2D912223E9F7119721912D933B
:143FB4002223E1F70895E02FF12FA22FB32F01911D91011B01
:143FC80019F41123D1F70027110B0895E02FF12FAA27BB271A
:143FDC000190002011F01196FBCF0A2F1B2F0895888199816B
:143FF0008030980769F0B12FA02FF32FE22F21912D93019729
:1440040029F02223D1F72D930197E9F708950E9452270895F5
:144018000F920990002021F00E94312B0A94FACF0F90089588
:14402C006894DA92D12E04C0E894DA92D12ED32617FF02C09D
:144040000E94AC2C37FF04C0309520952F5F3F4F09D0D7FEB4
:1440540002C00E94AC2CD9900895689401C0E894EA92FA92D5
:144068008A93EE24FF2480E1000F111FEE1CFF1CE216F3063C
:14407C0018F0E21AF30A03958A95A1F716F40E2D1F2D899135
:14409000F990E9900895E89401C0689429D0CC2408C0E89417
:1440A40001C0689423D037FDE2D0B7FD47D077240E942F2C0F
:1440B80039D0B1F03CD0A1F0E8E20E94792A771C881C991CB2
:1440CC00AA1CBB1C88169906AA06BB0628F0881A990AAA0A84
:1440E000BB0A0395EA9569F716F40E94582A11C07A928A9269
:1440F4009A92AA92BA92CA92EA930E94882A8B859C85AD8574
:14410800BE85C32E0EF0CB260895C7FCAED00E945D2AE991FF
:14411C00C990B990A99099908990799024960895E02FE12BF7
:14413000E22BE32B0895E82FE92BEA2BEB2B08958095909596
:14414400A095B0958F5F9F4FAF4FBF4F08950A921A928A9303
:144158009A93029FC001129F900D039F900D8C019991899166
:14416C0019900990089588D07A929BD051F177249ED019F439
:144180008C019D0124C00A921A92089FB02CA12C289F902C01
:14419400812C189FA00C911C871C099FA00C911C871C199F5B
:1441A800900C811C0A9F900C811C389F800C299F800C1A9F78
:1441BC00800C0B9F800C199009900B2D1A2D292D382D7990A8
:1441D00065C00E94022A08950E94022AE990F99008950E943C
:1441E400022AE990F990499159916991799108957A936A932A
:1441F8005A934A93FA92EA92DA92CA92BA92AA9208955A9307
:14420C004A93BA92AA9208950E94A72C08950E94532A0895CE
:14422000499159916991799108950E94532ABA92AA920895E1
:144234000E94A72C6991799108955A934A93DA92CA92BA9282
:14424800AA9208950E94022A4991599108950E94532ADA92CF
:14425C00CA92BA92AA9208950E94022A499159916991799137
:14427000089500951095209530950F5F1F4F2F4F3F4F089564
:144284008A929A92AA92BA92EA930E94882A89859A85AB8528
:14429800BC8508950E945D2AE991B990A99099908990249613
:1442AC000895EE27E02BE12BE22BE32B0895EE27E82BE92B41
:1442C000EA2BEB2B0895EA93FA930A92E02FF12FC895002DC3
:1442D4003196C895102D3196C895202D3196C895302D0990EA
:1442E800F991E99108950F920990002021F00E94792A0A94D3
:1442FC00FACF0F900895C0DFD4DF99F00E942F2CD6DF69F0C3
:144310000E94022C20F4880E991EAA1EBB1E880F991FAA1FAF
:14432400BB1FC3DF99F70E94582AB6CFAA93BA93EA93FA933C
:144338000A92AF81B885ED81FE810030010731F0C8950D9226
:14434C00319601501040F7CF09900E942C2B2496089568944A
:1443600001C0E894E6D17AD109F436C00E94942975D109F475
:1443740039C0842D952D8C199D09A9F062F4909580950196BE
:144388004C2C5D2C883160F50E94312B0197E1F708C0883123
:14439C00E8F4B594A794979487940197D1F766242EF0080D4A
:1443B000191D2A1D3B1D07C0801A910AA20AB30A0E94582A9B
:1443C40033231AF454DF80E8682E6ED101C09FD1BDD10895B5
:1443D8000E94E829DEF745D1C9F380E83827F6CF0E94582AC7
:1443EC004C2C5D2C6E2C332372F73DDF80E8682EEACF0E94EE
:144400001A29AFDFE991F991229608950E941A29A8DFE99198
:14441400F991398328831A930A9308950E9474289EDFE99187
:14442800F991249608950E94742897DFE991F9913B832A837C
:14443C001983088308950E942A2C19D1F1F05520C2F08FE14E
:144450004816A0F487E14816B1F048F4419489EE481A03C052
:144464000E94312B4A94E1F70CC087E1481A0E94792A4A94D7
:14447800E1F705C03FE7232F132F032F03C0662009F0F3DE94
:14448C0089916990599049900895689401C0E89422273327CE
:1444A00046F017FD209517FD309503C0689401C0E8940E9492
:1444B4002A2C87E1482E552466242EF033231AF4D6DE80E81F
:1444C800682EF0D0899169905990499008950E941A291FD044
:1444DC00E991F991229608950E94742818D0E991F99124968F
:1444F00008950E941A2911D0E991F991398328831A930A93A0
:1445040008950E94742807D0E991F9913B832A83198308835B
:1445180008950A921A922A923A9207D10E9452270E94E8297C
:14452C00A6D009F449C0E62CD52CC42CB32EA22E912E802EDE
:144540000E94342C9AD079F16E244C185D0880E84816530617
:144554000CF02DC00E94FC2A0CF42FC080E23324232E122E69
:14456800012E302F2227112700272694179407943795279581
:14457C000E94792A001C111C221C331C28F0081819082A0885
:144590003B0804C0080C191C2A1C3B1C0AF001608A9561F758
:1445A40083D0D4D0399029901990099008950E94112C662046
:1445B800B1F35BDEF4CF0E94C42AF1CF0E94342CF4CFB3D0B7
:1445CC00AA93BA9354D061F1E62CD52CC42CA22E912E802E9B
:1445E000008111812281338148D001F10E94012B0CF50E94E2
:1445F400FC2A0CF188E1782E88279927AA27BB27BB2EB6952B
:14460800A7959795879527951795079520F4880D991DAA1DF0
:14461C00BB1D7A9491F73B2F2A2F192F082F40D0B991A99146
:144630008FD008950E94112CF9CF0E94C42AF6CF0E941A2999
:14464400C2DFE991F991229608950E947428BBDFE991F9918C
:14465800249608950ED021F0662009F006DE989408950023B9
:14466C0029F4112319F4222309F433230895F7DF99F08A932B
:14468000632E80E86822220F331F432E8FE7481A55248827AF
:14469400580A269530E8232B33278991989408954424552471
:1446A80066240895DEDF09F40895AA93BA93D2019A938A93D9
:1446BC008EE790E0332339F00E94022CA817B907CCF41196D0
:1446D000F7CF8095909501962223BAF0000F111F221FA81711
:1446E400B90714F01197F6CF0027112722273327899199914B
:1446F8002D01B991A991089533270FEF102F2FE7322F899137
:14470C0099912D0102C0AA93BA93A9DF49F0D201A158BF4F5A
:144720002D01342D220F369527953629B991A99108954A92E2
:144734005A926A927A928A929A92AA92BA92CA92DA92EA9269
:14474800FA928A939A93089599918991F990E990D990C990E2
:14475C00B990A9909990899079906990599049900895E1DF64
:14477000AA93BA9382DF39F10E9494297EDF19F10E94012B8C
:1447840024F50E94FC2A3CF1A29EB12DA02D919E912D802D8E
:14479800A09E0E940C2C829E0E940C2C929E900DA11DB31F9E
:1447AC00A19E900DA11DB31F2B2F1A2F092F880F001F111FCC
:1447C000221F331F73DFB991A991C2DF08950FEF102F2FE7EB
:1447D4008FE7482EF6CF0E94C42AF3CF0E941A29C4DFE991CC
:1447E800F991229608950E947428BDDFE991F99124960895A9
:1447FC000E947428B6DFE991F9913B832A83198308830895A3
:14481000A6DD332332F029DF11F001E00895002708950FEF50
:1448240008950E941A29F2DFE991F9912296002308950E940F
:144838007428EADFE991F99124960023089511DF21F00F93E6
:14484C0000E830270F9108950E949D2CC89531960D9200208E
:14486000D9F70895F8DCC02ED12E249705C08C2D9D2D01967C
:14487400C82ED92E0E94162C4AD100300107A9F7AA24BB24AF
:14488800EC2DFD2D80818D3239F481E090E0A82EB92E0E94BC
:14489C00872B07C0EC2DFD2D80818B3211F40E94872B0E9493
:1448B0006F2B27C00E942C294AE050E060E070E05A924A92CA
:1448C4003A922A92042F152F262F372F18DD0E94B82AEC2D94
:1448D800FD2D6190CE2EDF2E772488249924260C371C481CBB
:1448EC00591C40E350E060E070E0241A350A460A570A0E9490
:14490000DF2A0E94162C00D10030010799F6AA2011F4BB2074
:1449140021F00E944128ABDC02C00E94412824969FCC97DC87
:14492800422F532FA02EB12E22976A857B85CA2CDB2C4030C6
:14493C00E0E05E0754F46A30E0E07E0731F4409550954F5F8E
:144950005F4F0E94D82A79836883242F352F0C2D1D2DBFD051
:144964000A2D1B2D22967CCC3A932A9366DCA02EB12E24978C
:144978004E855F85CA2CDB2C80E090E0A0E0B0E00E94D229FA
:14498C00281639064A065B066CF44A30A0E05A0749F40E944F
:1449A000942867DC0A871B872C873D870E94D82A5B834A830B
:1449B4000E94D2290E94432C0C2D1D2D46D00A2D1B2D24966F
:1449C80041DC229608953A932A9310DCA02EB12E2497CA8839
:1449DC006C894A2D5B2D0E94662959DB0E94DA270E942C29D4
:1449F000E22CF32C89E090E0821593052CF0822D805D0E9434
:144A0400B62904C08E2D895A0E94B6290E94662940DB0E87FB
:144A18001F87288B398B0E94752C0CF4DECF2E843F84488838
:144A2C0059888894222032044204520409F0D3CF0E947A2C82
:144A400022240E94692B2496CCDB229608953A932A93D6DBF5
:144A5400A02EB12E2597CD84DE8422242C82CA8229843A8487
:144A68004B845C840E94432C0A2D1B2DACDFA7D12596ABDBB7
:144A7C00229608953A932A93B7DBA02EB12EEC846E854A2D2E
:144A90005B2D0E94702CE3DAC02ED12E89E090E0801791079A
:144AA4002CF08C2D805D0E94B62904C08C2D895A0E94B629EA
:144AB8000E94702CD2DA1B870A870E94752C2CF30A841B843E
:144ACC00002009F71120F9F60E947A2C0E94692B82DB229603
:144AE00008958CDBC22ED32EA02EB12E2397E984FA84222435
:144AF4002A82E8822C2D3D2D0A2D1B2DBFDF61D1239668CB9A
:144B08000E94D7290470112708950E94D729007111270895C6
:144B1C007ADAAA92BA922897AE84BF840E94D2290DE712E0F2
:144B3000CADB0E9452270E9494287DDE51F422243324EA2DFF
:144B4400FB2D3182208209E712E0BBDB31C00E94D2290E9438
:144B5800DF2A2A803B80220C331C3B822A82832D99278E57A0
:144B6C009040EA2DFB2D918380838EE78B832A803B8036945D
:144B800027943B822A820E94D2290DE712E09BDB0E945227E9
:144B94000E9494284EDE34F40E94412852DE0E94F62704C09D
:144BA8000E942C290E94DA2B0E9415292896B990A990249681
:144BBC00089529DA2C970E94B12A7FDB0E9452270E94942832
:144BD00032DE54F481E090E09093E6058093E5050DE812E0B6
:144BE40070DBCAC00E94B12A6CDB0E9452270E9494281FDEAE
:144BF80021F40DE812E063DBBDC08C2F9D2F029699838883AC
:144C0C000E94AC2A85DF0E94F6272A8020FE0CC00E94152985
:144C20000E94C129ECDB0E94F6278A819B8101979B838A8384
:144C340009E812E046DB0E94B82A6C807D808E809F8005E8E1
:144C480012E03DDB0E945227062D172D282D392DEADB0E949A
:144C5C009428F7DC0E94F6270DC001E812E02DDB0E94C129BA
:144C7000E7DC0E94F6278A819B81CC979B838A838CE390E01A
:144C84002A803B808215930564F311C00E94362901E812E084
:144C980016DB0E9452270E94942820DC0E94F6278A819B81BC
:144CAC00CC969B838A8384EC9FEF0E94A22C54F381E0888742
:144CC00080E089878A878B87222433244A805B80421453045E
:144CD400BCF0242C352C359427940E94BC292A9204DB0E9427
:144CE800B7280E9436290E94BC29DEDB0E9452270E9494281F
:144CFC00A8DC0E94F6271AC08A819B81809590958F5F9F4F4A
:144D1000959587950E94BC298A93E9DA0E94B7280E94362960
:144D24000E94BC29C3DB0E9452270E949428D8DB0E94F6276B
:144D3800222433243B822A8209E812E0C0DA0E94B82A0E94BE
:144D4C00AC2A0E94C129C1DB0E94C12959DB0E94942877DCE4
:144D60000E94F6278A819B8101969B838A8382E090E00E9423
:144D7400A22C24F30E9415296096089554DA81E090E082173B
:144D88009307E0F4402F512F622F732F640F751F615070401F
:144D9C0010C0E42FF52FA080E62FF72F2080E42FF52F208228
:144DB000E62FF72FA0824F5F5F4F615070404617570768F3BF
:144DC40037CAAA92BA92A02EB12E0A2D1B2D0E94EA1F202F2C
:144DD800312F0A2D1B2DD0DFB990A9900895FFFF0E944D220B
:144DEC003A932A931A930A93810192010E94F7230E94212229
:144E0000580120901A0130901B01A20CB31C85010E94820671
:144E1400089511E00E946321180129010091C3051091C405D0
:144E28000E944D223A932A931A930A93810192010E94F723C0
:144E3C0008950E944B223A932A931A930A93830194010E9427
:144E500010223801490100915001109151010E944B223A93E8
:144E64002A931A930A93830194010E941722810192010E9488
:144E7800F7231801290100914601109147010E944B223A932C
:144E8C002A931A930A93810192010E941022088319832A834E
:144EA0003B8308953A932A931A930A930895809100019091FF
:144EB4000101089590930101809300010895580120901A0151
:144EC80030901B01A20CB31C85010E94820608958091060118
:144EDC008F5F8093060108959093B1058093B00508959093BC
:144EF000030180930201089580910201909103010895209071
:144F04001A0130901B0108954090120150901301209010016D
:144F1800309011018894222032044204520408950E94DB0564
:144F2C000E94E80508950091C5051091C6050E9482060895B7
:144F40000CE00E94DB058AE090E0998388832091BA05332724
:144F54008E010E5F1F4F0E94932422E030E08E010E5F1F4F0A
:144F68000E943B060E94E805089531E08E010B5F1F4F0E940C
:144F7C00DD1F58010030010708950E94DD1F580100300107C8
:144F900008958A019B010E94FE23830194010E94F723380178
:144FA40049010895809134018F5F80933401089508831983D2
:144FB8002A833B83089531E08E010B5F1F4F0E94DD1F08952A
:144FCC0033243092C0052092BF053092BE052092BD050895E7
:144FE0008091060181508093060108950C831D832E833F837B
:144FF400089580E18093810082B1837F82B908958070927018
:145008008030E2E09E07089530E08E010E5F1F4F0E943B0683
:14501C000E94E805089580E080931001809311018093120185
:145030008093130108950E943B060E94E8050895002711273A
:145044000E948206089520902801822D843008950A921A9270
:145058002A923A924A925A926A927A928A929A920A931A935A
:14506C002A933A938A939A93AA93BA93EA93FA930FB60A9267
:145080000895088119812A813B810895999189913991299190
:1450940019910991999089907990699059904990399029903C
:1450A8000895810192010E941022089504E711E00E946321CF
:1450BC00089524978AE090E09B838A834090CF025090D00230
:1450D0002090CD023090CE0248825982910101EE12E00E9403
:1450E400B6240895FA93EA93EC2FFD2F329608959093310136
:1450F8008093300108959B838A834090CB025090CC0220909D
:14510C00C9023090CA0248825982910101EE12E00E94B624A4
:1451200027E001EE12E00895022D132D242D352D089531E026
:1451340009ED15E00E94DD1F0895222433243092AD0520927E
:14514800AC05089500911A0110911B010E9482060895009144
:14515C001A0110911B010895462F6F5F042F112708950887F0
:1451700019872A873B8708950AE010E00E94FC07089580914E
:14518400BB059091BC0501969093BC058093BB0508952090DA
:14519800A7013090A8013092AA012092A9012090BB053090F9
:1451AC00BC053092A8012092A7010895E42FFF27E80FF91F84
:1451C000089510932A010093290130932C0120932B01089547
:1451D40022243324309215012092140108952224332430928F
:1451E800BC052092BB05089533243092B3052092B205809198
:1451FC006C05815080936C0508954090C5055090C60542189D
:1452100053085092C4054092C3050895222433243092B50534
:145224002092B40508950C811D812E813F810895FA93EA932D
:14523800EA81FB81089502E010E00E94FC07089582B18C60AB
:14524C0082B9139881E1809381000895288039804A805B80CF
:1452600008950E94DB058AE090E008952C803D804E805F808E
:145274000895139881E180938100089533243092B3052092C8
:14528800B20508952090B6053090B705222008952224209200
:14529C000601809108018F5F809308010895809130019091D3
:1452B00031010895809102018170813008958CE291E09093C6
:1452C400B5058093B40508952C2C3324442455240E851F85EC
:1452D800288939895A924A923A922A92089588EE93E0909356
:1452EC00AD058093AC0508951093A3050093A2053093A505A9
:145300002093A4050895809100018071803108952090C505D5
:145314003090C6050895222433243092B1052092B005089544
:14532800E62CD52CC42CB32EA22E912E802E0081118122819A
:14533C003381089522242092080120920701089508E611E0D5
:145350000E9463210895A0E0B0E04090C7025090C802209083
:14536400C5023090C6020895E42FF52F81934E2F5F2F089556
:14537800088519852A853B8508958C2F9D2F04969A938A937F
:14538C00089580916B00816080936B0080916C008160809324
:1453A0006C0008952A843B844C845D84089589E791E0202E06
:1453B400312E280E391EE22DF32DC895002D08951801290160
:1453C8000091BA0511270895008111812281338108958070B5
:1453DC0091708030E1E09E07089520901401309015010895D1
:1453F0009093B7058093B605089504E610E00E94FC07089543
:14540400A990B990C990D99008958091340181508093340154
:1454180008958091020180788038089581EE92E0FA01E80FAF
:14542C00F91F0895810192010E947222089580E08093C90291
:145440008093CA028093CB028093CC02089580E08093CD02D9
:145454008093CE028093CF028093D0020895A090C505B090C1
:14546800C605AB2CBB24A7FCB094A88208950E94FA2022978C
:14547C00AA24BB24EE24FF24CC24DD2408952224332430924D
:145490006B0520926A05089584E090E09093B3058093B20561
:1454A40008957A936A935A934A930895082D192D2A2D3B2DAC
:1454B8000895B991A99199918991089580EE93E02090DD056B
:1454CC003090DE058215930508952090240130902501809191
:1454E00054019091550108952090BB053090BC050895000FB2
:1454F400111F221F331F0895E62FFF27E80FF91F0895AB2C86
:14550800BB24A7FCB09408958A939A93AA93BA930895810139
:14551C0092010E941B240895A090C505B090C60508958091B7
:1455300054019091550108958091DD059091DE058035E3E08F
:145544009E07089580916A0590916B058038E2E09E07089544
:145558000C851D852E853F8508952C843D844E845F8401E9E8
:14556C0012E00895202E312E422E532E08950E941F21690115
:1455800058014427552708950027102F202F302F0895F894FD
:1455940022242092C5000895E22DFF27E80FF91F0895262E74
:1455A8006F5F022D112708958DE2EC2DFD2D8193CE2EDF2E4E
:1455BC000895288239824A825B820895222433243092B90576
:1455D0002092B8050895C02EAC2C81E08017089522243324C3
:1455E4003092AF052092AE0508954A935A93442755270895ED
:1455F80081E848168FEF580608956E244C0C5D1C80E8481636
:14560C0053060895222430906C05231408950E94C40524E0DA
:1456200030E00895222420926C05042F0E94DB0508958FEF90
:1456340090E090930501809304010895209040013090410121
:145648008215930508958A939A932FB62A920895F991E991F6
:14565C00B991A9910895359527951795079508953092C60521
:145670002092C50508952090BF053090C0050895309255015F
:1456840020925401089529902FBE99918991089505E010E012
:145698000E94FC0708959A938A930E94F02308959A938A93D6
:1456AC000E9413240895809102018470843008958091B90150
:1456C0009091BA01089501969093B9058093B8050895E42D67
:1456D400F52D20820A2D1B2D089580E0888389838A838B8350
:1456E8000895807094708030E4E09E0708952090AC05309046
:1456FC00AD05222008958093D10282E38093D20208958E2F7D
:145710009F2F0196C82ED92E0895222420920A01209256017A
:14572400089501F041E050E081E08823089504E110E00E9472
:14573800FC0708958093D8050E94CF1008952090BD0530907D
:14574C00BE050895A0905401B090550108950E942122021535
:14576000130508950E942122201631060895E991A9919991B3
:14577400899108958093C1008091C10008958A939A93AA93A0
:14578800EA93089520906A0530906B0508950E94A9200E94FA
:14579C004B2208952090B30120922801089520904201309060
:1457B000430108952C823D824E825F82089520904E0130908A
:1457C4004F01089530922501209224010895309251012092C2
:1457D800500108953092450120924401089530923F0120927F
:1457EC003E010895AA92BA92AA24BB24089511E00E946321E4
:14580000CE0108953695279517950795089520902801822D34
:1458140083300895800D911DA31FB31F08950FEF102F2FE771
:145828003FE70895EC2DFD2D00811127089590937401809365
:14583C007301089590934F0180934E0108952090D805209296
:145850000B0108954A925A926A928A93089588249924AA24E6
:14586400BB2408950991199129913991089580910001847049
:14587800843008952091300130913101089548825982222D65
:14588C00332D0895809100018270823008950C871D872E87CC
:1458A0003F870895088B198B2A8B3B8B089501E010E00E94CF
:1458B4008206089523E030E0082F1127089580910201807296
:1458C800803208958091020180718031089580913E019091B9
:1458DC003F0108952E2D33270A851B850895362E61502224FF
:1458F00023140895442E552E41505040089580917301909177
:145904007401089520928B0020928A0008958091AB01909189
:14591800AC010895288439844A845B840895FA01EA0DFB1D74
:14592C000081089502E310E00E94FC070895A02FB12FE22F72
:14594000F32F08952A803B80281639060895A990B9904991B9
:1459540059910895109500950F5F1F4F089540903201509022
:0E596800330108959093AF058093AE05089526
:00000001FF

