:040000000C94A101BA
:080010000C94610A0C94900AA3
:04001C000C94BF0A77
:040024000C947C08B4
:0C0038000C947A080C947B080C9443078D
:0C0050000C94BD080C9479090C948709ED
:040060000C94F909FA
:140070000C94A6090C94C9090C94D709EB1CF31C711D6E1D0C
:140084003C1D051D6B1D0E1EB01C0E1E0E1E0E1E0E1E0E1E91
:140098000E1E9C1C0E1E741D0E1E0E1EA41CE61D5B1C791C8C
:1400AC000E1E0E1E0E1E971DA21DAD1DB81DD41D0E1E0E1E61
:1400C0000E1E0E1E0E1E0E1E7B1DE21D0E1E0E1E0E1E971CAE
:1400D4000E1E0E1EC31DE41D0E1EE81DF01D0D1E2E20D51F34
:1400E800D81FCF1FDB1FD21FF11F2E202E202E202E20EB1FE2
:1400FC00F11F2E202E20F11FF11F2E202E20DD1FE01FE31F8B
:14011000E61FE91FF11FF11FEE1F4743323930310056323093
:1401240032004E6F7620313720323031340031303A33333AB8
:14013800323500474332393031202020202020202020202096
:14014C009A99593F0000003FCDCC4C3D0000C0405C8F423E08
:14016000C3F5883F000020410000803F00000544666667432D
:14017400000000000020202020202020202030303030302047
:14018800202020202020202020202020202020202090404033
:14019C00404040404040404040404040400C0C0C0C0C0C0CBB
:1401B0000C0C0C40404040404040090909090909010101011D
:1401C400010101010101010101010101010101014040404017
:1401D80040400A0A0A0A0A0A0202020202020202020202023F
:1401EC000202020202020202404040402000000000000000CF
:140200000000000000000000000000000000000000000000EA
:140214000000000000000000000000000000000000000000D6
:140228000000000000000000000000000000000000000000C2
:14023C000000000000000000000000000000000000000000AE
:1402500000000000000000000000000000000000000000009A
:14026400000000000000000000000000000000000000000086
:140278000000000000000000000000804E0000803F000000E5
:14028C003F000000000000000000000000FF0000000000011F
:1402A000020000000000000000000000000000000000280020
:1402B400360128005401000000000100000000000000000081
:1402C800001400000001000000004453484452000100000097
:1402DC000000000000140000000100000100000000000000F8
:1402F000000000004A420041540044460044520044530056CC
:140304004D00564600565200000000180100446563004E6F72
:1403180076004F63740053657000417567004A756C004A7506
:14032C006E004D617900417072004D617200466562004A612D
:140340006E00CFEFD8E0CDBFDEBFC451D0400AEA08830024D4
:14035400EDEAF1E015E0EE3EF10711F00192FBCF0083E5E925
:14036800F2E0A0E0B1E013E000E00BBFE234F10721F0C89585
:14037C0031960D92F9CF0E94071FFFCFAA92BA922E9783E0F9
:1403900090E09983888328ED32E08E010B5F1F4F0E947A20F8
:1403A400222428868091DD02803231F480E38A832090DC028C
:1403B8002B8210C08091DC02803231F480E38A832090DD02EF
:1403CC002B8206C02090DC022A822090DD022B8222242C8240
:1403E0002090E10229862090E2022A8622242B8629EA0E94D7
:1403F40062280030010739F480E38093D80281E38093D90264
:1404080073C025EA0E9462280030010721F480E30E942E2CC6
:14041C0069C021EA0E943C2839F480E38093D80283E380939C
:14043000D9025EC02DE90E943C2839F480E38093D80284E3BF
:140444008093D90253C029E90E943C2839F480E38093D8020E
:1404580085E38093D90248C025E90E943C2839F480E380937B
:14046C00D80286E38093D9023DC021E90E943C2839F480E3AE
:140480008093D80287E38093D90232C02DE80E943C2839F4E9
:1404940080E38093D80288E38093D90227C029E80E943C28AD
:1404A80039F480E38093D80289E38093D9021CC025E80E94DE
:1404BC003C2839F481E38093D80280E38093D90211C021E81F
:1404D0000E943C2831F481E38093D8028093D90207C02DE7D3
:1404E4000E943C2819F481E30E942E2C8FE28093DA022A8087
:1404F8002092DB022B802092DC028093DD022090E1022092EF
:14050C00DE022090E2022092DF0222242092E0022092E10265
:140520002E96B990A99008952C970E94222C80E08C838D83B2
:140534008E838F830E94B3280E944629F8940E94B42B44248D
:1405480055240E94892B0E94782C442455240E94B92C0E9480
:14055C00BD29810192010E94D5270E943D210E9457280E942F
:14057000AE29810192010E94D5270E943D210E947F280E9402
:14058400AE290E94B828020D131D241D351D0E94DA220E94F8
:1405980046290E94AB2A0E9460260E94E5291801290100E767
:1405AC0011E00E94E7210E94D5270E94A62A0E94E5297894D4
:1405C0002C9608950E94162B06E21ED31A014F5F5F4F84EB26
:1405D40091E0F101E80FF91F008114D386E090E048175907A4
:1405E8008CF30091BA010CD30091BB0109D30091BC0106D305
:1405FC000091BD01005D02D30091BE01FFD20091BF01FCD22A
:1406100008D30AE010E039D584E190E00E941B290E94840F23
:1406240003E1F0D200910C01EDD2F9D2599149910895F99901
:14063800FECF12BD01BD20BDFA9AF99A0895F999FECF12BD85
:14064C0001BDF89A00B508950E94AF21AA2413C00A2D112776
:14066000F2DF402F8DE391E0EA2DFF27E80FF91F208084EB0A
:1406740091E0EA2DFF27E80FF91F2082A3948A2D863050F32C
:14068800282E8F5FA82E022D1127D9DFC02E4C2D86E08017C1
:14069C0020F483E08093BA0102C04093BA010E941F2ACBDF20
:1406B0000E94DC2C20F422242092BB0102C04093BB010E94D1
:1406C4001F2ABFDFC02E4C2D83E0801720F481E08093BC0195
:1406D80002C04093BC010E941F2AB1DFC02E4C2D80E18017E2
:1406EC0020F48AE08093BD0102C04093BD010E941F2AA3DFEB
:140700000E94DC2C18F48093BE0102C04093BE016A2D862FBD
:140714008F5F062F112795DFA02E4A2D81E0801718F48093A6
:14072800BF0102C04093BF0181E08093DF0506E210E085DF14
:14073C00A02E4A2D023019F482E08093DF050C94B6210E94B3
:14075000912166270BC08DE391E0E62FFF27E80FF91F2081BF
:14076400062F112766DF6395663098F32091BA010E94B42CC8
:140778005EDF2091BB010E94B42C59DF2091BC010E94F92AD6
:14078C0054DF2091BD010E94F92A4FDF2091BE010E94F92A8F
:1407A0004ADF2091BF010E94F92A45DF0C9494210E94D52ACC
:1407B40002E210E046DF602F03E210E042DF402F6F3F71F035
:1407C8000F3F61F0E62EFF24FE2CEE24C42EDD2417012C28AC
:1407DC003D280E946E2B06C020901F01309020010E946E2BB7
:1407F0000E9417280E949C290E94CB2A0E940C2BA98204E12D
:1408040010E041D40EE2FED10881FCD10981FAD106D20AE0AF
:1408180010E037D422960C947521AA92BA9222970E94CB2A0B
:14082C002A2D02E210E001DF0E940C2BA9822A2D03E210E07D
:14084000FADE0E9417280E949C290EE2DDD10881DBD1098127
:14085400D9D1E5D12296B990A9900895AA92BA920E945F2CA4
:140868000E94112B2A2D04E210E0E1DE0E945F2C2A2D05E247
:14087C0010E0DBDEB990A99008950E94D52A04E210E0DBDE70
:14089000602F05E210E0D7DE402F6F3F21F40F3F11F4662727
:1408A4004427E62EFF24FE2CEE24C42EDD2417012C283D289E
:1408B8000E945A2B51010E94112BA8825101A98204E110E059
:1408CC00DED303E39BD1088199D1098197D1A3D104E110E0E7
:1408E000D4D322960C9475210E948221C22E580185010E94B9
:1408F4006E20E02E07C0EE2DFF27EA0DFB1D80E28083E39461
:14090800EC14B8F3EC2DFF27EA0DFB1D222420820C947021C9
:14091C000E94162B09C08A01085D1F4F8EDE0E943E2A0083C4
:140930004F5F5F4F88E090E04817590790F322242092F00253
:1409440008EE12E00E94B6241093D5020093D4023093D702BC
:140958002093D6024427552709C08A01085E1F4F6EDE0E9403
:14096C003E2A00834F5F5F4F88E090E04817590790F32224D0
:140980002092F00208EE12E00E94B6241093D1020093D00280
:140994003093D3022093D2025991499108954A935A930E9463
:1409A800FD284427552709C00E943E2A20818A01085D1F4F5D
:1409BC003CDE4F5F5F4F88E090E04817590790F38AE00E948B
:1409D0002B298ADF4427552709C00E943E2A20818A01085E0A
:1409E4001F4F27DE4F5F5F4F88E090E04817590790F380E0B6
:1409F8008093CC028093CD028093CE028093CF0224965991BD
:140A0C00499108950E949921662777271DDE442710C084EB33
:140A200091E00E945F29A0808DE391E00E945F292080A214A6
:140A340019F061E070E045E04395453070F36030670721F12F
:140A480044270BC08DE391E00E945F29208084EB91E00E9437
:140A5C005F2920824395463098F383E08093BA01222420925A
:140A7000BB0181E08093BC018AE08093BD0181E08093BE0117
:140A84008093BF010E94B72A8ADF5FDE2090BB01222031F093
:140A98000E94FA2792600E94FF2705C00E94FA279D7F0E9487
:140AAC00FF272090BC01209243012090BD012092C10586B190
:140AC0008170813019F40E944B2C03C0222420922C010C94D2
:140AD4009E214A935A930E9484284427552702E310E0C6D2E3
:140AE8004F5F5F4F82E390E048175907B4F30E94CC295991E2
:140AFC00499108950E9489215801442755270E94842805C0D0
:140B100002E010E0BAD24E5F5F4F4A155B0568F40E94092D25
:140B2400803DE7E09E0738F488E090E00E94252B2816390621
:140B380058F30E94CC290C948E21AA92BA9258010E94842849
:140B4C0085019DD20E94CC29B990A9900895AA92BA92AA2494
:140B6000BB240E94DA278D7F0E94DF270E94E52B2090DF0505
:140B740020920A010E944B29EAD00E94E62A0E94912821F0C2
:140B8800833011F0853029F40E94DA2791600E94DF27B9904E
:140B9C00A990089520903B012220A1F020904F01222039F045
:140BB0000E94D42B8FE08093C400789406C00E94D42B8FEB5D
:140BC4008093C400789401E010E05DD22998222420923B0145
:140BD800089520903B01222049F40E94D42B86E08093C40023
:140BEC00789401E010E04BD2299A81E080933B010E94DA27E5
:140C00008F7E0E94DF27089520903B01222011F4479A469A9A
:140C14002090C00025FEFCCF0093C60008950E94DA27877FCF
:140C28000E94DF278B7F0E94DF270E94B02A0DE0E7DF20907F
:140C3C000001822D8870883021F0822D84708430B1F7209084
:140C50003B01222011F44798469801E010E015C22090C00038
:140C640027FC02C021E001C022271B9902C001E001C000274D
:140C7800222E202289F71B9B03C00027112703C00091C60064
:140C8C00112708950E94892144275527E3DFA02E1A014F5FF3
:140CA0005F4F85E895E0F101E80FF91FA0821B9BF3CF2A9A51
:140CB40085E895E0FA010E94592D8A010C948E210E94BE2BC2
:140CC8000AC00E94DA27877F0E94DF270E942C2D97DF4F5FDE
:140CDC005F4F4C155D059CF30C94AA212090C80025FEFCCF33
:140CF0000093CE00112708950E94BE2B05C00E942C2DF2DF9E
:140D04004F5F5F4F4C155D05C4F30C94AA218CEC81B98DE378
:140D180082B986EB84B985EE85B980ED87B98CE288B98AE166
:140D2C008AB98AE68BB9089582E080936E00222425BA84BDD6
:140D400085E085BD88EB86BD88E487BD88BD23BC08950E942F
:140D5400162B0E94EB2C61F0843051F0843141F0853131F08E
:140D6800863121F0873111F0853029F48091C805853009F098
:140D7C0035C000300107C1F00E945F2A201631060CF42CC001
:140D90000E94DA2792600E94DF270E94D4290E94DA279061DF
:140DA4000E94DF278D7F0E94DF270E948E291AC00E94DA2709
:140DB8009D7F0E94DF270E94842880912C01823039F40E9456
:140DCC00ED280E94ED282224209252010E94DA279F7E0E949A
:140DE000DF2782B18C6082B90E94912839F0833029F0863099
:140DF40019F0853009F03AC00030010791F00E94DA279260EC
:140E08000E94DF270E94D4290E94DA2790610E94DF278D7F47
:140E1C000E94DF270E948E2925C00E94DA279D7F0E94DF2775
:140E30000E94842880915201813039F40E94ED280E94ED28B0
:140E44002224209252010E94DA279F7E0E94DF2782B18C60C8
:140E580082B90E94DA279F7B0E94DF27222420920C019160F0
:140E6C000E94DF2710938B0000938A001093370100933601DA
:140E80005991499108950E94BD2880912C018831F1F4809189
:140E9400BF059091C0058039E1E09E0710F40E94282C0E94E5
:140EA800DF2919F4332009F4D8C0C10101970E94802A8030E3
:140EBC00890709F0D0C00E94DA2781600E94DF27CAC0809142
:140ED000BF059091C0058039E1E09E0710F40E94282C80913A
:140EE400CA029091CB0201969093CB028093CA028CE39EE2EB
:140EF8002090CA023090CB0282159305E0F42224332430927B
:140F0C00CB022092CA028091C7028F5F8093C7028BE32090C4
:140F2000C702821560F422242092C7028091C8029091C90281
:140F340001969093C9028093C8020E94DF2911F4332061F0F4
:140F4800C10101970E94802A8030890729F40E94DA2781600E
:140F5C000E94DF272090BB053090BC05222011F43320F1F06D
:140F7000C10101979093BC058093BB0580308907A9F40E94DD
:140F8400DA2782600E94DF270E94542D8396209036013090EB
:140F980037012816390630F481E080931C0100271127D3DECB
:140FAC002090B9053090BA05222011F4332071F0C1010197EF
:140FC0009093BA058093B9058030890729F40E94DA27846086
:140FD4000E94DF272090B7053090B805222011F4332061F08D
:140FE800C10101970E94EF278030890729F40E94FA278160E2
:140FFC000E94FF272090B5053090B605222011F4332071F039
:14101000C10101979093B6058093B5058030890729F40E94C8
:14102400FA2780610E94FF272090B3053090B405222011F4C6
:14103800332099F0C10101979093B4058093B3058030890787
:14104C0051F40E94EB2C11F0853029F40E94FA2791600E9469
:14106000FF2709900FBE0E945F2B0E94DE281990099018952D
:141074000E94162B02C04F5F5F4F40175107D8F35991499129
:1410880008950030010711F401E010E01093BE050093BD05EE
:14109C000E94DA278E7F0E94DF278091000181708130D9F764
:1410B000089522242092810084E080936F0026BA209282001C
:1410C4008EEF8093850084E38093840081E08093890080E7A1
:1410D800809388000E94FA2C81E0809387008CEC8093860095
:1410EC0081E2809380000895189518950E94C82C8FB78A930A
:141100000E94092D0196909345018093440180914601909132
:141114004701883AE1E69E0728F401969093470180934601D9
:1411280089918FBF0E94552C1895222427BA82E08093B0002F
:14113C008093B1002092B20084E28093B3002092B400209233
:14115000B60023BC089522242092C60082E08093C00088EDF1
:141164008093C10086E08093C2002092C5008FEB8093C400A0
:1411780008952A923A920A930E94C82CFA932FB62A9220902D
:14118C003B01222009F06AC00E94B02A0E94DA278B7F0E94E3
:1411A000DF270091C60020904E01822D8F5F80934E0186EC6E
:1411B40091E00E94F62B00830E941A2A09F48EC02090730517
:1411C800822D8F5F8093730585E895E00E94F62B0083209013
:1411DC003C01222009F42FC00D3049F40E94DA2780610E94F4
:1411F000DF2722240E94832973C0013181F481E080935001B2
:1412040022240E9483298091C4019091C50101969093C50105
:141218008093C40161C0033109F05EC02224209250010E9493
:14122C0083298091C2019091C30101969093C3018093C201F5
:141240004FC00D3049F40E94DA2780610E94DF2722240E94FD
:14125400D92944C00E94F52C09F040C02224209273053CC058
:141268000E94462B08F02CC00E94B02A0E94DA278B7F0E94B0
:14127C00DF278071803109F42DC00091C6000E94462CC1019F
:141290000196909372058093710581EF92E0F101E80FF91FAD
:1412A40000830D3049F40E94DA2780610E94DF2722240E9425
:1412B800D92912C00E94F52C79F40E94ED2A0CC00E94462B86
:1412CC0031F40E94DA2781600E94DF2703C02224209273058A
:1412E00029902FBEF9910E94552C09913990299018958A93C1
:1412F4009A938FB78A930E94DA2780620E94DF2789918FBFC1
:141308009991899118958A939A938FB78A930E94DA278860A8
:14131C000E94DF2789918FBF99918991189522242092CE00F6
:141330002092C80088ED8093C90086E08093CA002092CD001C
:1413440087E08093CC0008952A928A939A93EA93FA932FB6BD
:141358002A9280917405883080F4282E8F5F8093740581EAD4
:14136C0095E00E94F62B2090CE0020824F9B03C081E08093F4
:14138000310129902FBEF991E99199918991299018958A93B6
:141394009A938FB78A930E94DA2780680E94DF2789918FBF1A
:1413A8009991899118958A939A938FB78A930E94DA2780640C
:1413BC000E94DF2789918FBF999189911895222420927A00AA
:1413D00081E480937C0080E880BF20927B0020927900209264
:1413E400780082E480937E0020927A0008952A923A924A9259
:1413F8005A926A927A928A929A920A931A932A933A938A93B4
:14140C009A932FB62A928091E305803408F04EC02090780023
:1414200033243092EB052092EA05209079003324322C2224EA
:141434004090EA055090EB05422853285092EB054092EA059D
:141448001201442455248090E8059090E9056090E6057090B6
:14145C00E705620C731C841C951C7092E7056092E605909255
:14147000E9058092E8058F5F8093E3058034E1F486E090E033
:14148400830194018A930E9490201093E5050093E40522247D
:141498002092E30580E08093E6058093E7058093E805809336
:1414AC00E9050E94DA2798600E94DF2729902FBE0E94DE28AD
:1414C00018952A923A920E94CF2B0E94912841F0833031F0E7
:1414D400873021F08C3011F0853061F48091C6059091C705AC
:1414E80001969093C7058093C6050E9455290FC02224332400
:1414FC003092C7052092C60520905901222019F00E9455295C
:1415100002C00E94A7290E948E2B3990299018952A923A9281
:141524000E94CF2B0E94912841F0833031F0873021F08C3033
:1415380011F0853061F48091C4059091C50501969093C5054B
:14154C008093C4050E9455290FC0222433243092C5052092E5
:14156000C40520905901222019F00E94552902C00E94A72905
:141574000E948E2B3990299018950E94BD28AA92BA9289B190
:1415880080768093B1052090B205382E821509F482C1A82E16
:14159C00A22485FD34C0809127019091280101969093280199
:1415B000809327018091C6028F5F8093C60281E090E0A0E0F9
:1415C400B0E00E941229280E391E4A1E5B1E309215012092AE
:1415D80014015092170140921601809118019091190101960B
:1415EC00909319018093180180E390E00E94CA2B82159305E9
:1416000020F4222433240E94912CA6FE73C02090B10526FC67
:141614002CC081E090E0A0E0B0E0409012015090130120906E
:14162800100130901101280E391E4A1E5B1E309211012092D7
:14163C00100150921301409212012091BF053091C00505E0CE
:1416500010E00E942D2110930F0100930E010E94732B0E946F
:14166400912C81E08093DE0543C082E08093DE0581E090E032
:14167800A0E0B0E04090D6025090D7022090D4023090D502D0
:14168C00280E391E4A1E5B1E3092D5022092D4025092D70200
:1416A0004092D60281E090E00E94642A280E391E4A1E5B1E1D
:1416B4003092CD022092CC025092CF024092CE0281E090E0EB
:1416C800A0E0B0E04090D2025090D3022090D0023090D10290
:1416DC00280E391E4A1E5B1E3092D1022092D0025092D302BC
:1416F0004092D20280915D01813029F50E94CA2B0E942F2B6F
:1417040040962816390631F08BE490E08215930508F0BFC0D8
:14171800002711271ADB0E948E290E94DA278D7F0E94DF27B9
:14172C0082E080935D0181E18093810082B18C6082B982E024
:1417400080930B01A8C088EC90E020900E0130900F01821504
:14175400930528F080912901813009F09AC080910A018130C5
:1417680029F080912901813009F043C00E94CA2B0E942F2BD9
:14177C000B962816390631F082E390E08215930508F035C029
:1417900000271127DEDA81E080930B0180912901813039F495
:1417A4000E943A2C26FE03C082E080930B010E948E290E94C6
:1417B800DA278D7F0E94DF279F7B0E94DF279F770E94DF27E8
:1417CC0020902C01822D843131F0853121F0863111F0873170
:1417E00029F40E94DA279D7F0E94DF270E94FA278D7F0E9400
:1417F400FF270E94402C80910A01823029F0809129018130DA
:1418080009F045C0A0902701B09028010E942F2B8096A8163D
:14181C00B90631F082E390E08A159B0508F035C00027112778
:1418300090DA82E080930B0180912901813039F40E943A2C98
:1418440026FC03C081E080930B010E948E290E94DA278D7F23
:141858000E94DF279F7B0E94DF279F770E94DF2720902C0177
:14186C00822D843131F0853121F0863111F0873129F40E94ED
:14188000DA279D7F0E94DF270E94FA278D7F0E94FF270E9456
:14189400402C2090B1052092B205B990A99009900FBE0E947B
:1418A8005F2B0E94DE281990099018950EE00E9404060091E0
:1418BC002C010E94042822D303E10E94040600910C010E9458
:1418D00004060C941106F8941CDA2CDAEADB29DC3ADC23DDDB
:1418E40072DD82E080936E0084E080936F0082E080937000F3
:1418F80081E080936B0080936C00222420926D0080EE809398
:14190C0073002DBA209269008BE08093680025BE2092640073
:14192000789408954A93402F89E0841708F449E00FE00E9404
:141934000406042F0E9404280FE010E0A4DB499108950E941D
:14194800DA27807098708030E8E09E0709F035C00E94FE2ABD
:14195C0080F40E943E2B11F001E0DEDF81E00E941C2C0E946C
:14197000D9280E94DA279B7F0E94DF271DC00E94EC2B8932AC
:14198400E2E09E0760F480308907A1F082E00E941C2C0E94D5
:14199800DA2794600E94DF270BC022243324309205012092BC
:1419AC0004010E94DA2794600E94DF270E94DA27977F0E9488
:1419C000DF2708950E9499212C9780910401909105018F3F46
:1419D400E0E09E0711F4B5DFA7C00E94FE2A18F40E94AD2B4A
:1419E800A1C04090E4055090E50589E292E048165906C0F0BD
:1419FC0082EA93E08415950598F080910A018F3F09F08EC00C
:141A10000E944B290E94A90604E110E036DB82E390E00E94FE
:141A24001B290E94AD0580C00E94EC2B8932A2E09A0708F047
:141A380079C00E94DA27807098708030A8E09A0709F070C0C4
:141A4C000E94EC2B8832A2E09A0708F064C00E945F2A6091B8
:141A60001D0170911E016219730944E152E08B010E94D122C5
:141A74000E9446290E94732C8A010E94D1220E94D5270E94AC
:141A8800A62A0E9446298B01009510950F5F1F4F0E94D12232
:141A9C000E9457280CE60E94E62C0E94842B0E9457280E945B
:141AB000BD298A010E94D1220E94D5270E94A62A0E945728EB
:141AC4000E94BD290E946D290E94D1220E94D5270E94F82859
:141AD8000E9457280091E4051091E5050E94CF220E947F28F8
:141AEC000E94C729CE0108960E94842B0E947F280E94C729BB
:141B0000CE019A938A930E9483220E947F280E94C7290E94F4
:141B1400A52258010E94A9068FEF80930A010E94DA27977FF7
:141B28000E94DF270E94042D39F40E94D9280E94DA278D7FAF
:141B3C000E94DF272090E4053090E505C1018A3EE2E09E07B9
:141B500070F486E892E08215930548F40E94402DA9F00E9488
:141B6400FA2780620E94FF270FC00E94402D61F423D304E68F
:141B780010E087DA04E110E084DA0E94FA278F7D0E94FF273E
:141B8C002C960C949E214A930E94D0050E94DA278F7E0E947E
:141BA000DF2720903C01222019F449E20E949F2B2091710531
:141BB4003091720501EF12E00E9462060E94ED2A49910895C9
:141BC80084E690E00E94802A0E941A2A29F00E94DF29D1F772
:141BDC003320C1F702E010E052DA0E94ED050E949A2B30F4CD
:141BF000232D332705E815E00E94620622242092730502E0F9
:141C040010E041CA4A930E94D00549E20E94DA278F7E0E9400
:141C1800DF270E949F2BB9DF0E94110681E080933B01809332
:141C2C004F010E94D005222420927305809173058130E0F360
:141C4000409185052224209273050E94ED05042F0E94040652
:141C54003199FECF13C01B9911C020905001222069F00E944F
:141C6800ED052A981B9BFECF2A9A02E010E009DA8CDF0E94AB
:141C7C001106A4DF319BEBCF02E010E000DA222420924F0140
:141C90000E94D00502E010E0F8D90C940000499108950E946D
:141CA400992161972FE50E9440290030010709F057C0209063
:141CB8003C01222049F541E050E080918705843209F0442753
:141CCC0080918805853511F044275527809189058A3A11F060
:141CE0004427552780918A05833311F04427552780918B052A
:141CF400863611F04427552780918C058C3C0E94102C09F4F3
:141D0800F5C00C940038F2C041E050E08091F302843209F082
:141D1C0044278091F402843411F0442755278091F5028934DC
:141D300011F0442755278091F602833511F0442755278091FD
:141D4400F702803511F0442755278091F8028C340E94102C4C
:141D580009F056DF222420923C01C8C022E60E944029003049
:141D6C000107F9F48BE391E0FE0101E110E0FA93EA939A9387
:141D80008A930E941C22442755272224298ABA014F5F5F4F5B
:141D9400CE01FB01E80FF91F00810E94040681E190E0481703
:141DA80059078CF3A3C025E631E000EE15E00E94462869F479
:141DBC00EADE0E94110602DF80918605863409F093C081E0AE
:141DD00080933C018FC028E631E000EE15E00E94462869F4F1
:141DE400D6DE0E941106EEDE80918605823509F07FC081E0C6
:141DF80080933C017BC02BE631E000EE15E00E94462869F4DA
:141E0C00C2DE0E941106DADE80918605833509F06BC081E0D8
:141E200080933C0167C02EE631E000EE15E00E94462839F4F2
:141E34000E947A2B08ED15E00E94D42859C021E731E000EEAB
:141E480015E00E94462831F50E94DA278F7E0E94DF270E9461
:141E5C00D00505E30E94042884E690E00E94802A0E941A2ADB
:141E700029F00E94DF29D1F73320C1F70E94642B0E949A2B30
:141E840040F40E94321C0E947A2B03ED15E00E94D4280E94BA
:141E9800ED052CC024E731E000EE15E00E94462829F50E9489
:141EAC00DA278F7E0E94DF270E94D00506E30E94042884E6D4
:141EC00090E00E94802A0E941A2A29F00E94DF29D1F733208E
:141ED400C1F70E94642B0E949A2B40F40E94321C0E947A2B3F
:141EE8000EEC15E00E94D4280E94ED050E94ED2A0E94DA2769
:141EFC008F7E0E94DF2761960C949E21279709E110E00E948D
:141F100045080BE00E94B829998388830E94BE2C8E010E5F53
:141F24001F4F0E94172523E00E949628279608954A9301E1E1
:141F38000E9404068091DF05813011F443E001C044E0042F03
:141F4C000E940428499108950E9489212224209229010E942C
:141F60009F280E94A9280E94342C20921C0120902C01822DD6
:141F7400843131F0853121F0863111F0873129F40E94DA278C
:141F88000E948B2851F40E94912839F0833029F0853019F09D
:141F9C00883109F028C00E94DA2792600E94DF270E94D429BB
:141FB0000E94DA2790610E94DF2722240E946F2840912C0164
:141FC400443169F0453159F0463149F0473139F0453029F09D
:141FD800483119F0463009F035C08FEF80930A0181E090E0A2
:141FEC000E94EF272DC00E94DA2792600E94DF27A090CA0500
:14200000B090CB050E94BE2C85010E942D2124E630E00E94FE
:142014009E200E94E42740910B01442311F04F3F21F42090B5
:14202800DF0520920B018FEF80930A0180912C01823041F441
:14203C0065DF0E94FA278F770E94FF270E94642B0E94FB2BC2
:1420500069F001E00E9404280E94152A01E00E9404280E9442
:14206400152A01E00E9404280E94FA2780680E94FF270C9467
:142078008E210E94892180912C01823009F032C085E090E0A9
:14208C00A0E0B0E00E9412290E94272D48F58FEF80930A0184
:1420A0000E942A2B0E94A92825E030E0009134011091350110
:1420B4000E949E20A02E88E0801770F44A2D552706C003E0EB
:1420C80010E00E9445084150504088E090E084179507ACF356
:1420DC000E9484280E94152A82B18C6082B925C080912C0144
:1420F000853021F4169882B18C6082B90E94912811F08330FB
:14210400C1F40E942A2B442755270E94052C8E31E0E09E073D
:1421180018F44AE050E004C004E010E00E9445084F5F5F4F6A
:14212C008AE090E04817590764F302E00E9404288FEF80936E
:142140000A010E94E52B222420920C010E94AD0580912C0137
:14215400823081F00E94FA2784600E94FF270E94DA279F7B28
:142168000E94DF27222420920C0191600E94DF270E94FA275A
:14217C008F770E94FF270E94DA279D7F0E94DF279F7E0E945B
:14219000DF270E94B92B02E00E94042888EE93E00E94642AE6
:1421A4000E94272D24F40E94B3290E94D10422240E94342CDC
:1421B8000C948E210E94A92883E020900B01282620920A0127
:1421CC0080912C018B3169F400911D0110911E01025E1F4F6B
:1421E0000E94A90686E490E00E94EF2704C00E944B290E948C
:1421F400A9060E94DA278D7F0E94DF270E94E62A089583E01F
:142208002090DF0528262092DF05222D06E210E00E941B0363
:14221C008BCE0E948921279744270BC085E895E00E945F2909
:142230002080CE0102960E945F2920824395453098F38091DE
:142244002C01823009F044C084E690E02090340130903501F5
:142258008215930514F40E941B298B81823381F42AE030E005
:14226C0000913401109135010E949A20002331F40E940B2A46
:142280000A970E941B2905C00E940B2A05970E941B290E9403
:142294000B2A8530E0E09E0724F485E090E00E941B290E9472
:1422A800DA270E948B2881F42091CA053091CB050091340180
:1422BC00109135010E942D2124E630E00E949E200E94E42720
:1422D0001BDE34C00E94912819F0833009F019C08091C1054D
:1422E40081508093C105843018F484E08093C1050E94232852
:1422F8000E944F2A0E946F2A0E94D1220E94D5270E94A62AD7
:14230C000E94642915C080912C01853089F480914301815023
:1423200080934301813018F481E0809343010AE00E94040647
:14233400009143010E94042827960C948E210E9489212797DC
:1423480044270BC085E895E00E945F292080CE0102960E9496
:14235C005F2920824395453098F380912C01823009F044C07E
:142370000E940B2A8530E0E09E0724F485E090E00E941B2995
:142384008B81823381F42AE030E000913401109135010E94B6
:142398009A20002331F40E940B2A0A960E941B2905C00E946B
:1423AC000B2A05960E941B2984E690E02090340130903501B2
:1423C0008215930514F40E941B290E94DA270E948B2881F47F
:1423D4002091CA053091CB0500913401109135010E942D2157
:1423E80024E630E00E949E200E94E42789DD38C00E94912801
:1423FC0019F0833009F01BC08091C1058F5F8093C10580E13E
:142410002090C105821510F48093C1050E9423280E944F2AC6
:142424000E946F2A0E94D1220E94D5270E94A62A0E94642995
:1424380017C080912C01853099F4809143018F5F809343019F
:14244C0083E020904301821510F4809343010AE00E9404069D
:14246000009143010E94042827960C948E214A930E94042D09
:1424740011F441E001C04427413039F40E94D9280E94DA271E
:142488008D7F0E94DF27499108950E947E21A0970E94B32820
:14249C000E945A2C0E94B3280E946E2C0E94B3280E947F2885
:1424B0000E94B3280E9446290E94B3280E9457280024112493
:1424C4001D8A0C8AAA24BB2487E090E09F8B8E8B88E0998F70
:1424D800888F87E09B8F8A8F86E09D8F8C8F9F8F8E8F84E0D3
:1424EC007C0185E06C010E94002C09F41EC380ED97E020904D
:142500004401309045018215930508F00AC30E94B42B3D8A40
:142514002C8AA090C405B090C5050E94722922240E946F283E
:142528003092C3052092C2050E94C32C209277010E94502CC3
:14253C003092C1012092C00122243324309219012092180150
:142550002C893D8989010E94642C0E945A2C950185010E945A
:14256400642C0E946E2C0E94E02BCE0140969A938A930E9459
:1425780083220E947F280E94AE290E944F2A0E94D5270E948D
:14258C00342B84F481E090E090935401809353012224332417
:1425A0003092B3012092B20182E30E94222D33C020905301FF
:1425B40030905401222011F43320C1F00E944F2D8233E0E020
:1425C8009E0790F481E090E00E948C2C8215930520F4C101A6
:1425DC0002970E94222D0E944F2D02969093B3018093B2010E
:1425F00082E390E02090B2013090B3012816390650F0222428
:142604003324309254012092530130925601209255010E948B
:14261800AE290E94B3280E94D5270E94342B61F50E94B328E8
:14262C000E94462922242092770120904A0130904B012220D0
:1426400041F4332031F40E94872C222011F4332041F18091A7
:142654002C01833021F50E94052C8232E0E09E0720F408E292
:1426680010E00E948005222433240E94AF2C3092490120926F
:14267C00480111C00E94C7290E9460260E94462980912C0127
:14269000833039F40E94FA279E7F0E94FF270E94DF2A0E9461
:1426A400732C0E94B3280E94D5270E94342B19F4AA24BB24AD
:1426B80003C081E090E05C01CE01049604E611E00E94E7212F
:1426CC009A938A930E9497242CF40E948C2C0E94AA2C04C09D
:1426E000222433240E94AA2C8091C105843009F01DC08501EA
:1426F4000E94CF221801290100E611E00E94E72138014901F8
:14270800488559856A857B850091C10511270E94D1220E945D
:14271C00D5270E944C280E891F890E94A22700C18091C10555
:14273000853009F01DC085010E94CF221801290100E611E0D7
:142744000E94E72138014901488559856A857B850091C10563
:1427580011270E94D1220E94D5270E944C28088D198D0E940F
:14276C00A227DEC08091C105863009F01DC085010E94CF2276
:142780001801290100E611E00E94E721380149014885598553
:142794006A857B850091C10511270E94D1220E94D5270E94DE
:1427A8004C280A8D1B8D0E94A227BCC08091C105873009F0FC
:1427BC001DC085010E94CF221801290100E611E00E94E7214F
:1427D00038014901488559856A857B850091C10511270E94A7
:1427E400D1220E94D5270E944C280C8D1D8D0E94A2279AC032
:1427F8008091C105883009F01DC085010E94CF22180129010C
:14280C0000E611E00E94E72138014901488559856A857B851A
:142820000091C10511270E94D1220E94D5270E944C280E8D31
:142834001F8D0E94A22778C08091C105893009F01CC0850156
:142848000E94CF221801290100E611E00E94E72138014901A2
:14285C00488559856A857B850091C10511270E94D1220E9408
:14287000D5270E944C2887010E94A22757C08091C1058A30A7
:1428840009F01CC085010E94CF221801290100E611E00E9496
:14289800E72138014901488559856A857B850091C105112778
:1428AC000E94D1220E94D5270E944C2886010E94A22736C0E7
:1428C00085010E94CF221801290100E611E00E94E7213801EE
:1428D4004901488559856A857B850091C10511270E94D122E8
:1428E8000E94D5270E944C2800915501109156010E94CF22B6
:1428FC000E94D527830194010E949B22810192010E947B245C
:142910001801290100914C0110914D010E94CF220E94D52772
:142924000E94F8280E9457280E94872C0E94AF2C0E94B82868
:142938000E94A522109349010093480180E197E20E94A62B0C
:14294C0008F074C00E94542D0A960E94B8280E94A522801706
:14296000910708F036C080911A0190911B01019690931B019E
:1429740080931A018A30A0E09A0709F028C00E94092829F079
:142988000E9412290E94692801F520900C012220E1F401E37D
:14299C000E9404280E94B3280E9457280E946D290E94A90632
:1429B0000E94A52C62DB0E94FA2784600E94FF270E94952994
:1429C40020903201222019F00DE60E9474060E945F2A0E94F5
:1429D800B8280E94822C90F420900C01222071F42090BE0164
:1429EC00222009F0169A81E080930C010E94DA2791600E9435
:142A0000DF2714C00E945F2A0E94B8280E947D2C68F42090E4
:142A14000C01222049F01698222420920C010E94DA279160DF
:142A28000E94DF2722243324309247012092460180912C0114
:142A3C00843069F40E9417280E94B8280E947D2C30F40E9401
:142A50006D290E94D1220E9457280E945F2A0E94B8280E94D7
:142A6400822C40F40091CC051091CD050E94D1220E945728F1
:142A78000091C0011091C1010E94CF220E94D5270CE50E94D1
:142A8C00E62C04960E94842B1801290108E511E00E94E7216E
:142AA0000E94D5270E94F8280E949F24D4F4CE0104960E948A
:142AB4004F2A0E947F2B9CF40E94052C8132E0E09E0738F4A2
:142AC80020900C01222019F40E94842802C00E942A2B81E086
:142ADC008093770103C022242092770120901C012220C9F45C
:142AF000209077012220A9F40E94CC290E94BD290E94B3282F
:142B04000E94D5270E94342B21F40E944F2A0E9457280E942B
:142B1800B8280E94A5220E94A90680910A018F3F19F0282EC6
:142B2C0020920B018FEF80930A010E94FA270E94542A61F403
:142B40000E943D100E94FA2784600E94FF270E9495299E7FA6
:142B54000E94FF27A0960C9475214A935A9344270E94102A28
:142B680001F504E10E94B8290E94B42B8215930508F4439577
:142B7C008AE090E00E94782C8215930508F44E5F042F0E9478
:142B9000042822240E946F2882E390E00E94EF270E94FA2736
:142BA4008E7F0E94FF275991499108954A9344270E94102AC3
:142BB800F1F42090B10526FC01C041E081E02090C60282154A
:142BCC0008F442E00BE20E940406042F0E9404282224209245
:142BE000C60286E490E00E94EF270E94FA278E7F0E94FF27EF
:142BF4004427499108950E9489210E94102A09F013C10E9454
:142C0800DA270E948B2809F00DC10E94FA278E7F0E94FF2703
:142C1C00409106014423F9F0413009F434C0423009F452C099
:142C3000433009F458C0443009F46BC0453009F471C0463053
:142C440009F48EC0473009F494C0483009F4B1C0493009F40D
:142C5800B7C04A3009F4CEC0E5C00E949F2881E08093380131
:142C6C0004E511E00E94E721180129010091CA051091CB05BC
:142C80000E94772780ED97E00E94EF270E94F427CDC004E531
:142C94000E948E27180129010091380111270E9477270E94AE
:142CA8005C2880E991E00E94EF2780913801843129F40E9444
:142CBC00F42781E0809338010E94092809F0B0C08AE0809383
:142CD0000601ACC00E941C2888EE93E00E94EF270E94F42739
:142CE400A3C00E94D92884EF91E00E94EF270E945C2888E0AC
:142CF80020903801821530F40E94F42781E08093380190C06A
:142D0C000E9479288DC00E941C2880EE9EE20E94EF270E94F5
:142D2000F42784C000E511E00E94E721180129010091CA051D
:142D34001091CB050E94772780EE9EE20E94EF270E945C280E
:142D480084E020903801821530F40E94F42781E08093380105
:142D5C0067C00E94792864C00E941C2880EE9EE20E94EF2749
:142D70000E94F4275BC00CE411E00E94E72118012901009118
:142D8400CA051091CB050E94772780EE9EE20E94EF270E9473
:142D98005C2884E020903801821530F40E94F42783E1809367
:142DAC0038013EC00E9479283BC00E941C2880EE9EE20E9428
:142DC000EF270E94F42732C004E50E948E2718012901009126
:142DD400380111270E9477270E947A2A84EF91E00E94EF2758
:142DE800209038012220F1F40E94F42781E08093380118C085
:142DFC000E94D9280E943D100E94EE292092060181E080934B
:142E100008010E94B3290FE20E940406009108010E94040644
:142E2400009107010E9404280C948E210E9489210E94102ABC
:142E380009F01DC10E94DA270E948B2809F017C10E94FA2723
:142E4C008E7F0E94FF27409106014423F9F0413009F434C013
:142E6000423009F452C0433009F458C0443009F46BC0453044
:142E740009F471C0463009F48EC0473009F494C0483009F41E
:142E8800B1C0493009F4B7C04A3009F4CFC0EFC00E949F28BA
:142E9C0081E08093380104E511E00E94E7211801290100911D
:142EB000CA051091CB050E94772780ED97E00E94EF270E9450
:142EC400F427D7C004E50E948E2718012901009138011127C3
:142ED8000E9477270E945C2880E991E00E94EF2780913801A4
:142EEC00843129F40E94F42781E0809338010E94092809F0CA
:142F0000BAC08AE080930601B6C00E941C2888EE93E00E94D8
:142F1400EF270E94F427ADC00E94D92884EF91E00E94EF272A
:142F28000E945C2888E020903801821530F40E94F42781E045
:142F3C00809338019AC00E94792897C00E941C2880EE9EE26D
:142F50000E94EF270E94F4278EC000E511E00E94E721180111
:142F640029010091CA051091CB050E94772780EE9EE20E948E
:142F7800EF270E945C2884E020903801821530F40E94F42744
:142F8C0081E08093380171C00E9479286EC00E941C2880EE8E
:142FA0009EE20E94EF270E94F42765C00CE411E00E94E72178
:142FB400180129010091CA051091CB050E94772780EE9EE2C7
:142FC8000E94EF270E945C2884E020903801821530F40E946D
:142FDC00F42783E18093380148C00E94792845C00E941C28E0
:142FF00080EE9EE20E94EF270E94F4273CC004E50E948E272E
:14300400180129010091380111270E9477270E947A2A84EF7A
:1430180091E00E94EF2720903801222009F027C00E94F427B3
:14302C0081E08093380121C00E94D9280E94092819F40E94DD
:14304000EE2904C080E991E00E94EF270E94F52923E030E03C
:14305400082F11270E949E20009307010FE20E9404060091D0
:1430680008010E940406009107010E9404280C948E210E9447
:14307C0089210E94102A09F01DC10E94DA270E948B2809F0F2
:1430900017C10E94FA278E7F0E94FF27409106014423F9F094
:1430A400413009F434C0423009F452C0433009F458C0443039
:1430B80009F46BC0453009F471C0463009F48EC0473009F404
:1430CC0094C0483009F4B1C0493009F4B7C04A3009F4CFC0C3
:1430E000EFC00E949F2881E08093380104E511E00E94E72193
:1430F400180129010091CA051091CB050E94772780E991E09A
:143108000E94EF270E94F427D7C004E50E948E271801290124
:14311C000091380111270E9477270E945C2880E991E00E94BB
:14313000EF2780913801843129F40E94F42781E080933801EF
:143144000E94092809F0BAC08AE080930601B6C00E941C2851
:1431580088EE93E00E94EF270E94F427ADC00E94D92884EF82
:14316C0091E00E94EF270E945C2888E020903801821530F4F4
:143180000E94F42781E0809338019AC00E94792897C00E943B
:143194001C2880ED97E00E94EF270E94F4278EC000E511E066
:1431A8000E94E721180129010091CA051091CB050E94772715
:1431BC0080ED97E00E94EF270E945C2884E020903801821559
:1431D00030F40E94F42781E08093380171C00E9479286EC0BB
:1431E4000E941C2880ED97E00E94EF270E94F42765C00CE483
:1431F80011E00E94E721180129010091CA051091CB050E9472
:14320C00772780ED97E00E94EF270E945C2884E02090380101
:14322000821530F40E94F42783E18093380148C00E94792827
:1432340045C00E941C2880E991E00E94EF270E94F4273CC050
:1432480004E50E948E27180129010091380111270E947727AD
:14325C000E947A2A80E991E00E94EF2720903801222009F062
:1432700027C00E94F42781E08093380121C00E94D9280E94D3
:14328400092819F40E94EE2904C080E991E00E94EF270E9447
:14329800F5292CE030E0082F11270E949E20009307010FE28D
:1432AC000E940406009108010E940406009107010E940428B5
:1432C0000C948E210E9489210E94102A09F04FC10E94DA27D7
:1432D4000E948B2809F049C10E94FA278E7F0E94FF27409125
:1432E80006014423F9F0413009F434C0423009F452C0433025
:1432FC0009F489C0443009F49DC0453009F4A3C0463009F462
:14331000C0C0473009F4C6C0483009F4E3C0493009F4E9C0F8
:143324004A3009F401C121C10E949F2881E08093380104E57B
:1433380011E00E94E721180129010091CA051091CB050E9430
:14334C00772784E690E00E94EF270E94F42709C104E50E942B
:143360008E27180129010091380111270E9477270E945C28F9
:1433740084E690E00E94EF2780913801843129F40E94F427DA
:1433880081E0809338010E94092809F0ECC08AE08093060188
:14339C00E8C081E180938100129A0E941C2880E991E00E9471
:1433B000EF270E94F4278091390190913A01019690933A019A
:1433C40080933901809108018F5F8093080184E893E02090F5
:1433D800390130903A018215930558F4809107018F5F809317
:1433EC0007012224332430923A01209239010FE20E940406A2
:14340000009108010E940406009107010E940428AEC00E94FB
:143414002A2B80E991E00E94EF270E94442A02C00E94442ADB
:143428008EE190E00E94502C82159305B8F30E9484280E94C9
:14343C00792897C00E941C2880EE9EE20E94EF270E94F4273B
:143450008EC000E511E00E94E721180129010091CA05109156
:14346400CB050E94772780EE9EE20E94EF270E945C2884E014
:1434780020903801821530F40E94F42781E08093380171C001
:14348C000E9479286EC00E941C2880EE9EE20E94EF270E948D
:1434A000F42765C00CE411E00E94E721180129010091CA05AA
:1434B4001091CB050E94772780EE9EE20E94EF270E945C2887
:1434C80084E020903801821530F40E94F42783E1809338017B
:1434DC0048C00E94792845C00E941C2880EE9EE20E94EF2700
:1434F0000E94F4273CC004E50E948E271801290100913801C2
:1435040011270E9477270E947A2A84EF91E00E94EF272090A9
:143518003801222009F027C00E94F42781E08093380121C0F9
:14352C000E94D9280E94092819F40E94EE2904C080E991E0B1
:143540000E94EF270E94F52923E030E0082F11270E949E201D
:14355400009307010FE20E940406009108010E940406009154
:1435680007010E9404280C948E214A935A930E942F2B8F3F96
:14357C00EFEF9E071CF4482F4F5C03C040915B014F5F129A3C
:1435900081E1809381000E94DF2A0E941C2808E010E00E9426
:1435A40045084090270150902801242E33244214530451F02E
:1435B800C2018233A0E09A0728F40E9412290E94692869F7DA
:1435CC000E9412290E94692819F00E94092861F420900C01ED
:1435E000222041F401E30E9404280E94FA279E7F0E94FF2706
:1435F4000E94D9280E9484285991499108950E94FB2B09F0B0
:1436080074C00E9494020E94E52989EA95E00091430111279D
:14361C000E94D1220E947F2B34F40E94A928A3DF22240E94B4
:143630006F280E94FA270E94542AA1F420901C01222081F4F3
:143644001698222420920C010E94DA2791600E94DF270E94E1
:143658003D100E94FA279E7F0E94FF2788E893E10E94A62B12
:14366C0060F58EE591E00E94252B8215930590F420900C01AF
:14368000222071F42090BE01222009F0169A81E080930C01B4
:143694000E94DA2791600E94DF270DC020900C01222049F0E1
:1436A8001698222420920C010E94DA2791600E94DF270E947D
:1436BC00A72930924701209246010E94DA270E94542A89F4E7
:1436D00020900C01222009F4169803E10E94040600910C010E
:1436E4000E9404280E94DA279E7F0E94DF2708950E94DA275C
:1436F8000E948B2809F059C080E797E120904401309045017D
:14370C008215930508F04FC02090140130901501309279019C
:14372000209278010E94A928222433240E94C32C0E940E2DEC
:143734008435E1E09E0780F485E020907C01821558F40E94D7
:143748000E2D01960E941D2D8C010E94A906222420927C015C
:14375C0080917C018F5F80937C0185EB90E020907801309084
:14377000790182159305E8F40E94152A20907A0130907B0178
:143784000E946E2B0E9417280E949C2981010E94A9060E9439
:14379800B3290E9411040E94B3290E943D1088E191E00E94A1
:1437AC001D2D0E948A2A08950E94FD2827E008EE12E00E9474
:1437C000740408E20E94040628E030E008EE12E00E946206DD
:1437D4008AE090E00E942B290E94740428E030E008EE12E0F7
:1437E8000E94D428249608950E94C12A0E94B72A0C94D10453
:1437FC0020905D01222071F40E944B290E94A9060E94DA27FA
:143810008D7F0E94DF270E94E62A81E080935D0108956497D4
:1438240021E231E08E010E94AE2428ED32E08E013BD40DE2C5
:143838000E94040622E130E08E010E94D428649608952224B3
:14384C0020925E0105E30E9404280E94152A06E30E9404062B
:143860000C94110666D527974427AA24BB240E94DA278F7EDC
:143874000E94DF27222420927305209085052092C805622DE0
:14388800613008F4C7C184E3821568F08CE790E0E22DE1509E
:14389C00FF27EE0FFF1FE80FF91F25903490F1010994613728
:1438B00009F452C0B3C180915E01816080935E012090860583
:1438C4002092D305209087052092D405209088052092D505D6
:1438D800209089052092D60522242092D7050E94DA278F7E8D
:1438EC000E94DF2795C180915E01826080935E0120908605CB
:143900002092CE05209087052092CF05209088052092D005A8
:14391400209089052092D10522242092D2050E94DA278F7E5A
:143928000E94DF2777C10E94C12A0E94D10472C18CE08093F5
:14393C002C0182E390E00E94EF276AC18BE180932C0182E381
:1439500090E00E94EF2762C180E4809333015EC10E94DA27AB
:143964000E948B2891F00E94002C79F40E94AA0F0E94DF2A38
:143978000E94FA278B7F0E94FF2780912C01853021F5F3DDCD
:14398C0022C00E94DA270E948B2819F00E94002CD1F00E9413
:1439A000FA2784600E94FF278F770E94FF270E943D100E94E7
:1439B400912821F0833011F0853011F40E9495292090320184
:1439C800222019F00DE60E947406169823C10E94AA0F0E9402
:1439DC00FA278B7F0E94FF271BC10E943D100E94FA27846072
:1439F0000E94FF270E94912829F0833019F0853009F00CC150
:143A04000E94952909C186B18170813029F4209086052092A1
:143A18002C0103C0222420922C01222420927A0000E10E9490
:143A2C00040600912C010E94042880916C00816080936C0013
:143A400080916B00816080936B0060912C01643011F0633051
:143A540041F40E9423288FEF80930A0122240E946F28809110
:143A68002C01853009F0D6C081E080935101D2C080912C0143
:143A7C00853079F420905101222059F022242092510180912C
:143A90000B01813009F4C2C082E080930B018091C1008F778D
:143AA4000E94452D8F7E8093C1000E94DE100E94B3298091FA
:143AB800C10080610E94452D80688093C1000E94DA278F7ED8
:143ACC000E94DF270E94B92BA3C00E940311A0C00E940F117D
:143AE0009DC00E94A1119AC00E94ED050E941A2A09F094C000
:143AF40093C020908C052092BA0120908D052092BB0120905D
:143B08008E052092BC0180918F0580538093BD012090900519
:143B1C002092BE01209091052092BF010E94A70377C00E9447
:143B3000FA2781600E94FF270E94322A84E180932C016CC0E8
:143B44000E94FA2781600E94FF270E94322A85E180932C015D
:143B580061C00E94FA2781600E94FF270E94322A86E1809354
:143B6C002C0156C00E94FA2781600E94FF270E94322A87E130
:143B800080932C014BC0209086052092080120908705209202
:143B9400070120900801222009F03EC02224209206013AC02A
:143BA80088E180932C0180916C008E7F80936C0080916B00DB
:143BBC008E7F80936B002CC0F7DD2AC013DE28C02ADE26C0F9
:143BD00081E0809359010E94A7290E948A2A1EC02090860532
:143BE40033240E945A2B20905B0130905C01322C22240E94E0
:143BF8005A2B20908705332440905B0150905C014228532853
:143C0C0050925C0140925B010E94300401C0F0DD642F4F5F92
:143C200085E895E0E62FFF270E94592D4530B0F3279684C32F
:143C34004A936A9327974F9BFECF4091A10520903201222091
:143C480009F4AAC0443519F40E94DE10A5C0413311F48BDCA6
:143C5C00A1C0433409F49EC0423439F42090BE01222009F4D0
:143C700097C0169A95C0423611F4169891C0463421F482E077
:143C84000E949B2C8BC0463621F481E00E949B2C85C047345D
:143C980041F40E94AA0F0E94FA278B7F0E94FF277BC04D3635
:143CAC00B1F40E94FB2B09F075C00E943D100E94FA278460D3
:143CC0000E94FF270E94912829F0833019F0853009F066C024
:143CD4000E94952963C04E3441F489B18074803409F05CC0AB
:143CE8000E94DE1059C04E3629F44E9955C00E94DE1052C0E0
:143CFC004235B1F484E080932C01222420927A0000E10E94FF
:143D1000040600912C010E9404280E9423288FEF80930A0180
:143D240022240E946F283AC0453609F037C08091740582306B
:143D380020F401E010E00E9445086091A205605385E0861756
:143D4C0008F028C0673108F025C06093C10580E1861710F453
:143D60008093C1050CE00E9404068AE090E09983888320912C
:143D7400C10533278E010E5F1F4F57D622E00E94962808E634
:143D880011E021D30E946F2A08D40E94D5278101920128D47C
:143D9C000E9464294135D1F4209032012220B1F483E0809369
:143DB0002C0100E10E94040600912C010E9404280E94B92B33
:143DC40006E00E94040601E30E94042881E0809332010FC031
:143DD8004B3169F420903201222049F006E00E94040600E32B
:143DEC000E9404282224209232012224209231012092740575
:143E0000042F0E94740627966991499108950E946B0C82B1E5
:143E14008C6082B90E94FA2784600E94FF2786B1817081302B
:143E280021F483E080932C0103C0222420922C018AE0809369
:143E3C00C10508E611E0C5D20E946F2AACD30E94D52781015C
:143E50009201CCD30E9464290E94A52C0E9408050E944304F2
:143E64000E94E20208EC10E00E9445080E949A0F0E94B32928
:143E78000E94D8030E94B3290E948E0481E08093E3050E9409
:143E8C00AD2B0E94732B26E231E008ED12E060D50E94C4016E
:143EA00021E231E008ED15E059D5FEC0319928C01B991FC0DF
:143EB4000E94ED052A981B9902C0319BFBCF2A9A81E090E003
:143EC8000E94462C8215930568F42090F1022092E00520905D
:143EDC00F2022092E10522242092E2050E94510E0E94D005EF
:143EF00003C02A9A0E94D005222420927305D4C08091330177
:143F0400803439F4082F0E947406222420923301C9C022247A
:143F180030907405231410F489DEC2C00E941A2A11F49CDCD5
:143F2C00BDC00E94DA270E94542AE9F40E94912821F0833045
:143F400011F0853071F40E94152A03E10E94040600910C0143
:143F54000E94042820900C0120920D0102C00E949A0F0E945F
:143F6800DA279E7F0E94DF279BC040912C01413008F433C0C6
:143F7C008BE1841708F42FC084EE90E0E42FE150FF27EE0FF6
:143F9000FF1FE80FF91F25903490F10109940E9449125CC0CF
:143FA4000E94E20C59C00E94371256C00E94491253C025DB4F
:143FB80051C00E94FD154EC00E9418174BC00E943D1848C047
:143FCC000E94621945C090DB43C00E94AF1540C00E94D8155C
:143FE0003DC00E94D00522240E94FA2C0E946F288091E30519
:143FF400813019F48FEE80937A002090040130900501222034
:1440080011F4332011F00E94A30C0E94DA27807094708030B3
:14401C00E4E09E0739F486E080932C018FEE80937A000EC07C
:144030000E943E2B59F4222420927A000E944B2C08EC10E0B5
:144044000E9445080E945A0C81E1809381000E94DA279061E7
:144058000E94DF2720905901222011F180915A018F5F8093F1
:14406C005A0184E620905A018215C0F40E9472298091B00126
:144080009091B10101968215930550F402E30E94042805E0B7
:1440940010E00E9445082224209259010E94A72920925A0168
:1440A80001CF08950E94A02C2D912223E9F7119721912D932C
:1440BC002223E1F70895E02FF12FA22FB32F01911D91011BF8
:1440D00019F41123D1F70027110B0895E02FF12FAA27BB2711
:1440E4000190002011F01196FBCF0A2F1B2F08958881998162
:1440F8008030980769F0B12FA02FF32FE22F21912D93019720
:14410C0029F02223D1F72D930197E9F708950E94D527089569
:144120000F920990002021F00E94692B0A94FACF0F90089547
:144134006894DA92D12E04C0E894DA92D12ED32617FF02C094
:144148000E94962C37FF04C0309520952F5F3F4F09D0D7FEC1
:14415C0002C00E94962CD9900895689401C0E894EA92FA92E2
:144170008A93EE24FF2480E1000F111FEE1CFF1CE216F30633
:1441840018F0E21AF30A03958A95A1F716F40E2D1F2D89912C
:14419800F990E9900895E89401C0689429D0CC2408C0E8940E
:1441AC0001C0689423D037FDE2D0B7FD47D077240E94FF2C36
:1441C00039D0B1F03CD0A1F0E8E20E94F42A771C881C991C2E
:1441D400AA1CBB1C88169906AA06BB0628F0881A990AAA0A7B
:1441E800BB0A0395EA9569F716F40E941B2B11C07A928A929C
:1441FC009A92AA92BA92CA92EA930E94392B8B859C85AD85B9
:14421000BE85C32E0EF0CB260895C7FCAED00E94202BE99132
:14422400C990B990A99099908990799024960895E02FE12BEE
:14423800E22BE32B0895E82FE92BEA2BEB2B0895809590958D
:14424C00A095B0958F5F9F4FAF4FBF4F08950A921A928A93FA
:144260009A93029FC001129F900D039F900D8C01999189915D
:1442740019900990089588D07A929BD051F177249ED019F430
:144288008C019D0124C00A921A92089FB02CA12C289F902CF8
:14429C00812C189FA00C911C871C099FA00C911C871C199F52
:1442B000900C811C0A9F900C811C389F800C299F800C1A9F6F
:1442C400800C0B9F800C199009900B2D1A2D292D382D79909F
:1442D80065C00E94852A08950E94852AE990F99008950E942D
:1442EC00852AE990F990499159916991799108957A936A939E
:144300005A934A93FA92EA92DA92CA92BA92AA9208955A93FD
:144314004A93BA92AA9208950E94132D08950E94072B0895A3
:14432800499159916991799108950E94072BBA92AA92089523
:14433C000E94132D6991799108955A934A93DA92CA92BA920C
:14435000AA9208950E94852A4991599108950E94072BDA928E
:14436400CA92BA92AA9208950E94852A4991599169917991AB
:14437800089500951095209530950F5F1F4F2F4F3F4F08955B
:14438C008A929A92AA92BA92EA930E94392B89859A85AB856D
:1443A000BC8508950E94202BE991B990A99099908990249646
:1443B4000895EE27E02BE12BE22BE32B0895EE27E82BE92B38
:1443C800EA2BEB2B0895EA93FA930A92E02FF12FC895002DBA
:1443DC003196C895102D3196C895202D3196C895302D0990E1
:1443F000F991E99108950F920990002021F00E94F42A0A944F
:14440400FACF0F900895C0DFD4DF99F00E94FF2CD6DF69F0E9
:144418000E94CD2C20F4880E991EAA1EBB1E880F991FAA1FDB
:14442C00BB1FC3DF99F70E941B2BB6CFAA93BA93EA93FA936F
:144440000A92AF81B885ED81FE810030010731F0C8950D921D
:14445400319601501040F7CF09900E945F2B2496089568940E
:1444680001C0E894E6D17AD109F436C00E94262A75D109F4D9
:14447C0039C0842D952D8C199D09A9F062F4909580950196B5
:144490004C2C5D2C883160F50E94692B0197E1F708C08831E2
:1444A400E8F4B594A794979487940197D1F766242EF0080D41
:1444B800191D2A1D3B1D07C0801A910AA20AB30A0E941B2BCE
:1444CC0033231AF454DF80E8682E6ED101C09FD1BDD10895AC
:1444E0000E945A2ADEF745D1C9F380E83827F6CF0E941B2B87
:1444F4004C2C5D2C6E2C332372F73DDF80E8682EEACF0E94E5
:14450800C229AFDFE991F991229608950E94C229A8DFE9913F
:14451C00F991398328831A930A9308950E9425299EDFE991CC
:14453000F991249608950E94252997DFE991F9913B832A83C1
:144544001983088308950E94F02C19D1F1F05520C2F08FE17F
:144558004816A0F487E14816B1F048F4419489EE481A03C049
:14456C000E94692B4A94E1F70CC087E1481A0E94F42A4A941B
:14458000E1F705C03FE7232F132F032F03C0662009F0F3DE8B
:1445940089916990599049900895689401C0E89422273327C5
:1445A80046F017FD209517FD309503C0689401C0E8940E9489
:1445BC00F02C87E1482E552466242EF033231AF4D6DE80E850
:1445D000682EF0D0899169905990499008950E94C2291FD093
:1445E400E991F991229608950E94252918D0E991F9912496D4
:1445F80008950E94C22911D0E991F991398328831A930A93EF
:14460C0008950E94252907D0E991F9913B832A8319830883A0
:1446200008950A921A922A923A9207D10E94D5270E945A2A7D
:14463400A6D009F449C0E62CD52CC42CB32EA22E912E802ED5
:144648000E94692C9AD079F16E244C185D0880E848165306D9
:14465C000CF02DC00E94552B0CF42FC080E23324232E122E06
:14467000012E302F2227112700272694179407943795279578
:144684000E94F42A001C111C221C331C28F0081819082A0801
:144698003B0804C0080C191C2A1C3B1C0AF001608A9561F74F
:1446AC0083D0D4D0399029901990099008950E94D72C662077
:1446C000B1F35BDEF4CF0E94F12BF1CF0E94692CF4CFB3D04B
:1446D400AA93BA9354D061F1E62CD52CC42CA22E912E802E92
:1446E800008111812281338148D001F10E944E2B0CF50E948C
:1446FC00552B0CF188E1782E88279927AA27BB27BB2EB695C8
:14471000A7959795879527951795079520F4880D991DAA1DE7
:14472400BB1D7A9491F73B2F2A2F192F082F40D0B991A9913D
:144738008FD008950E94D72CF9CF0E94F12BF6CF0E94C229F4
:14474C00C2DFE991F991229608950E942529BBDFE991F991D1
:14476000249608950ED021F0662009F006DE989408950023B0
:1447740029F4112319F4222309F433230895F7DF99F08A9322
:14478800632E80E86822220F331F432E8FE7481A55248827A6
:14479C00580A269530E8232B33278991989408954424552468
:1447B00066240895DEDF09F40895AA93BA93D2019A938A93D0
:1447C4008EE790E0332339F00E94CD2CA817B907CCF41196FC
:1447D800F7CF8095909501962223BAF0000F111F221FA81708
:1447EC00B90714F01197F6CF00271127222733278991999142
:144800002D01B991A991089533270FEF102F2FE7322F89912D
:1448140099912D0102C0AA93BA93A9DF49F0D201A158BF4F51
:144828002D01342D220F369527953629B991A99108954A92D9
:14483C005A926A927A928A929A92AA92BA92CA92DA92EA9260
:14485000FA928A939A93089599918991F990E990D990C990D9
:14486400B990A9909990899079906990599049900895E1DF5B
:14487800AA93BA9382DF39F10E94262A7EDF19F10E944E2BA3
:14488C0024F50E94552B3CF1A29EB12DA02D919E912D802D2B
:1448A000A09E0E94D22C829E0E94D22C929E900DA11DB31F09
:1448B400A19E900DA11DB31F2B2F1A2F092F880F001F111FC3
:1448C800221F331F73DFB991A991C2DF08950FEF102F2FE7E2
:1448DC008FE7482EF6CF0E94F12BF3CF0E94C229C4DFE991ED
:1448F000F991229608950E942529BDDFE991F99124960895EE
:144904000E942529B6DFE991F9913B832A83198308830895E7
:14491800A6DD332332F029DF11F001E00895002708950FEF47
:14492C0008950E94C229F2DFE991F9912296002308950E945E
:144940002529EADFE991F99124960023089511DF21F00F932B
:1449540000E830270F9108950E94A02CC89531960D92002082
:14496800D9F70895F8DCC02ED12E249705C08C2D9D2D019673
:14497C00C82ED92E0E94E12C47D100300107A9F7AA24BB24DE
:14499000EC2DFD2D80818D3239F481E090E0A82EB92E0E94B3
:1449A400162C07C0EC2DFD2D80818B3211F40E94162C0E946A
:1449B800222C27C00E94BD294AE050E060E070E05A924A927C
:1449CC003A922A92042F152F262F372F18DD0E94C52BEC2D7D
:1449E000FD2D6190CE2EDF2E772488249924260C371C481CB2
:1449F400591C40E350E060E070E0241A350A460A570A0E9487
:144A0800892B0E94E12CFDD00030010799F6AA2011F4BB20F9
:144A1C0021F00E94B828ABDC02C00E94B82824969FCC97DC90
:144A3000422F532FA02EB12E22976A857B85CA2CDB2C4030BD
:144A4400E0E05E0754F46A30E0E07E0731F4409550954F5F85
:144A58005F4F0E94932B79836883242F352F0C2D1D2DBCD08F
:144A6C000A2D1B2D22967CCC3A932A9366DCA02EB12E249783
:144A80004E855F85CA2CDB2C80E090E0A0E0B0E00E94752A4D
:144A9400281639064A065B066CF44A30A0E05A0749F40E9446
:144AA800202967DC0A871B872C873D870E94932B5B834A83B9
:144ABC000E94752A0E94182D0C2D1D2D43D00A2D1B2D2496EF
:144AD00041DC229608953A932A9310DCA02EB12E2497CA8830
:144AE4006C894A2D5B2D0E94FE2959DB0E9457280E94BD2924
:144AF800E22CF32C89E090E0821593052CF0822D805D0E942B
:144B0C00382A04C08E2D895A0E94382A0E94FE2940DB0E8754
:144B20001F87288B398B0E94362D0CF4DECF2E843F8448886D
:144B340059880E94692809F0D6CF0E943B2D22240E940A2C93
:144B48002496CFDB229608953A932A93D9DBA02EB12E2597F9
:144B5C00CD84DE8422242C82CA8229843A844B845C840E9496
:144B7000182D0A2D1B2DAFDFA9D12596AEDB229608953A93FF
:144B84002A93BADBA02EB12EEC846E854A2D5B2D0E94312DBC
:144B9800E6DAC02ED12E89E090E0801791072CF08C2D805DA2
:144BAC000E94382A04C08C2D895A0E94382A0E94312DD5DADE
:144BC0001B870A870E94362D2CF30A841B84002009F711200C
:144BD400F9F60E943B2D0E940A2C85DB229608958FDBC22EED
:144BE800D32EA02EB12E2397E984FA8422242A82E8822C2DB1
:144BFC003D2D0A2D1B2DBFDF63D123966BCB0E94952A047026
:144C1000112708950E94952A0071112708957DDAAA92BA9235
:144C24002897AE84BF840E94752A0DE712E0CDDB0E94D527DB
:144C38000E94202980DE51F422243324EA2DFB2D31822082A9
:144C4C0009E712E0BEDB31C00E94752A0E94892B2A803B80EC
:144C6000220C331C3B822A82832D99278E579040EA2DFB2DF6
:144C7400918380838EE78B832A803B80369427943B822A823F
:144C88000E94752A0DE712E09EDB0E94D5270E94202951DEC0
:144C9C0034F40E94B82855DE0E947F2804C00E94BD290E94F0
:144CB000B92C0E94C7292896B990A990249608952CDA2C9719
:144CC4000E94D92B82DB0E94D5270E94202935DE54F481E094
:144CD80090E09093ED058093EC050DE812E073DBCCC00E94DC
:144CEC00D92B6FDB0E94D5270E94202922DE21F40DE812E0E1
:144D000066DBBFC08C2F9D2F0296998388830E94E02B85DF88
:144D14000E947F282A8020FE0CC00E94C7290E94A02AEFDBE6
:144D28000E947F288A819B8101979B838A8309E812E049DB3D
:144D3C000E94C52B6C807D808E809F8005E812E040DB0E941F
:144D5000D527062D172D282D392DEDDB0E942029FADC0E94F6
:144D64007F280DC001E812E030DB0E94A02AEADC0E947F2866
:144D78008A819B81CC979B838A838CE390E02A803B80821597
:144D8C00930564F313C00E94AE2901E812E019DB0E94D5276B
:144DA000022D132D242D352D21DC0E947F288A819B81CC960E
:144DB4009B838A8384EC9FEF0E944A2D44F381E0888780E0A2
:144DC80089878A878B87222433244A805B8042145304BCF009
:144DDC00242C352C359427940E94AB2A2A9205DB0E9446296A
:144DF0000E94AE290E94AB2ADFDB0E94D5270E942029A9DCF7
:144E04000E947F281AC08A819B81809590958F5F9F4F959510
:144E180087950E94AB2A8A93EADA0E9446290E94AE290E94E6
:144E2C00AB2AC4DB0E94D5270E942029D9DB0E947F28222432
:144E400033243B822A8209E812E0C1DA0E94C52B0E94E02BE1
:144E54000E94A02AC2DB0E94A02A5ADB0E94202978DC0E94BF
:144E68007F288A819B8101969B838A8382E090E00E944A2DBB
:144E7C0024F30E94C7296096089555DA81E090E082179307B3
:144E9000E0F4402F512F622F732F640F751F6150704010C0E0
:144EA400E42FF52FA080E62FF72F2080E42FF52F2082E62FDA
:144EB800F72FA0824F5F5F4F615070404617570768F338CAC9
:144ECC00AA92BA92A02EB12E0A2D1B2D0E946E20202F312F3F
:144EE0000A2D1B2DD0DFB990A9900895FFFF0E94D1223A9311
:144EF4002A931A930A93810192010E947B240E94A52258018B
:144F080020901D0130901E01A20CB31C85010E94A9060895F7
:144F1C0011E00E94E721180129010091CA051091CB050E9430
:144F3000D1223A932A931A930A93810192010E947B240895B3
:144F44000E94CF223A932A931A930A93830194010E94942281
:144F58003801490100915701109158010E94CF223A932A93C2
:144F6C001A930A93830194010E949B22810192010E947B2419
:144F80001801290100914C0110914D010E94CF223A932A93F0
:144F94001A930A93810192010E949422088319832A833B83C0
:144FA80008953A932A931A930A9308958091000190910101B2
:144FBC00089590930101809300010895580120901D01309087
:144FD0001E01A20CB31C85010E94A90608959093B8058093CA
:144FE400B7050895809106018F5F809306010895809102018F
:144FF800909103010895909303018093020108950E9404065D
:14500C000E94110608954090120150901301209010013090E2
:14502000110188942220320442045204089520901D0130900F
:145034001E0108950091CC051091CD050E94A90608950CE0FD
:145048000E9404068AE090E0998388832091C10533278E0147
:14505C000E5F1F4F0E94172522E030E08E010E5F1F4F0E9469
:1450700062060E941106089531E08E010B5F1F4F0E946120D3
:1450840058010030010708950E946120580100300107089599
:145098008A019B010E948224830194010E947B2438014901B8
:1450AC000895088319832A833B830895809138018F5F8093D9
:1450C0003801089531E08E010B5F1F4F0E94612008958894B2
:1450D4002220320442045204089533243092C7052092C605B5
:1450E8003092C5052092C4050895809106018150809306010D
:1450FC0008950C831D832E833F83089580E18093810082B19C
:14511000837F82B90895807092708030E2E09E07089520905B
:145124002C01822D8430089530E08E010E5F1F4F0E946206C6
:145138000E941106089580E08093100180931101809312013E
:14514C0080931301089580E0809314018093150180931601B0
:1451600080931701089504E711E00E94E7210895088119812D
:145174002A813B8108950A921A922A923A924A925A926A928F
:145188007A928A929A920A931A932A933A938A939A93AA9364
:14519C00BA93EA93FA930FB60A9208950E9462060E941106E7
:1451B0000895002711270E94A9060895999189913991299139
:1451C40019910991999089907990699059904990399029900B
:1451D80008954427552702C04F5F5F4F80E395E74817590783
:1451EC00C8F30895810192010E949422089524978AE090E0B8
:145200009B838A834090D6025090D7022090D4023090D502F1
:1452140048825982910108EE12E00E943A25089540901601E2
:145228005090170120901401309015010895909335018093D6
:14523C0034010895022D132D242D352D0895FA93EA93EC2FA8
:14525000FD2F329608959B838A834090D2025090D302209085
:14526400D0023090D10248825982910108EE12E00E943A25B1
:1452780027E008EE12E0089531E000EE15E00E9461200895E2
:14528C00088719872A873B87089581E08093520100911D0159
:1452A00010911E01025E1F4F08958091C2059091C305019677
:1452B4009093C3058093C2050895E42FFF27E80FF91F08959F
:1452C80010932E0100932D013093300120932F01089500913A
:1452DC001D0110911E0108952090AE013090AF013092B10100
:1452F0002092B0012090C2053090C3053092AF012092AE0175
:14530400089533243092BA052092B905809173058150809343
:1453180073050895222433243092BC052092BB0508952224F7
:14532C0033243092B4052092B30508954090CC055090CD0541
:14534000421853085092CB054092CA05089522243324309255
:14535400C3052092C20508952C803D804E805F80089504E6CA
:1453680010E00E94450808950E9404068AE090E008952880EA
:14537C0039804A805B800895FA93EA93EA81FB8108950C8107
:145390001D812E813F81089582B18C6082B9139881E18093E5
:1453A40081000895139881E180938100089533243092BA05C1
:1453B8002092B90508952090BD053090BE052220089510935D
:1453CC00AA050093A9053093AC052093AB05089522243324CC
:1453E0003092B8052092B70508952224209206018091080116
:1453F4008F5F8093080108952C2C3324442455240E851F8537
:14540800288939895A924A923A922A920895809134019091C9
:14541C0035010895809102018170813008950AE010E00E94DA
:1454300045080895809100018071803108956A2D862F8F5FF3
:14544400A82E062F11270895E62CD52CC42CB32EA22E912E01
:14545800802E008111812281338108952224209208012092D8
:14546C0007010895E42FF52F81934E2F5F2F089588EE92E0AC
:14548000FA01E80FF91F08952224332430921901209218012D
:1454940009E010E00E944508089508E611E00E94E721089579
:1454A800807091708030E1E09E0708950081118122813381E2
:1454BC0008952090CC053090CD050895A0E0B0E04090CE02DF
:1454D0005090CF022090CC023090CD02089518012901009199
:1454E400C105112708952A843B844C845D8408958091380114
:1454F80081508093380108959093BE058093BD050895A99055
:14550C00B990C990D990089580916B00816080936B008091F7
:145520006C00816080936C00089589E791E0202E312E280E4A
:14553400391EE22DF32DC895002D08958C2F9D2F04969A9368
:145548008A930895810192010E94F6220895088519852A854F
:14555C003B85089584E090E09093BA058093B905089580E05A
:145570008093D0028093D1028093D2028093D302089580E090
:145584008093D4028093D5028093D6028093D7020895A0909C
:14559800CC05B090CD05AB2CBB24A7FCB094A88208950E9416
:1455AC007E212297AA24BB24EE24FF24CC24DD24089588EEAD
:1455C00093E09093B4058093B305089586E990E09093BC055D
:1455D4008093BB0508952224332430927205209271050895B8
:1455E800000F111F221F331F0895462F6F5F042F11270895F5
:1455FC0082EA93E02090E4053090E5058215930508957A93A0
:145610006A935A934A930895A090CC05B090CD050895AB2C9B
:14562400BB24A7FCB09408954A935A93442755270895082D8C
:14563800192D2A2D3B2D0895B991A9919991899108952090A7
:14564C00C2053090C305089501E010E00E94A906089580918E
:145660005B0190915C010895810192010E949F2408958A938B
:145674009A93AA93BA93089580912501909126018130E0E0DE
:145688009E07089580917105909172058038E2E09E070895F1
:14569C006E244C0C5D1C80E848165306089581E848168FEF96
:1456B0005806089530925C0120925B010895F991E991B991D3
:1456C400A991089502E010E00E94450808953595279517956B
:1456D800079508953092CD052092CC05089522243324309272
:1456EC00C0052092BF0508950E94ED0524E030E008959A9360
:145700008A930E94972408959A938A930E94742408952882B3
:1457140039824A825B82089529902FBE9991899108958DE28A
:14572800EC2DFD2D8193CE2EDF2E08952224309073052314BB
:14573C000895222420927305042F0E940406089520904601D9
:14575000309047018215930508958FEF90E090930501809347
:14576400040108952090C6053090C705089504E110E00E9474
:14577800450808950E94A32169015801442755270895202E38
:14578C00312E422E532E0895209027013090280108958A93A1
:1457A0009A932FB62A920895F89422242092C50008952C84F4
:1457B4003D844E845F8401E912E008950C851D852E853F8548
:1457C800089583E02090DF05282620920B0108958091E40596
:1457DC009091E50508950027102F202F302F0895E22DFF272B
:1457F000E80FF91F0895809102018078803808958091020184
:145804008470843008958091C0019091C1010895E42DF52DC6
:1458180020820A2D1B2D089501F041E050E081E088230895D3
:14582C008E2F9F2F0196C82ED92E089590E0909326018093DF
:145840002501089580E0888389838A838B83089501969093A8
:14585400C0058093BF0508958093D80282E38093D90208952A
:14586800332430921B0120921A0108952224209229012090BB
:14587C00B1050895222420920A0120925D01089520907105EF
:145890003090720508952090BA0120922C0108952090180180
:1458A400309019010895E991A9919991899108950C871D87AD
:1458B8002E873F870895A0905B01B0905C0108950E942D210E
:1458CC000E94CF22089509911991299139910895088B198BFC
:1458E0002A8B3B8B0895288439844A845B8408952090C40570
:1458F4003090C50508950E94A5220215130508950E94A522DB
:145908002016310608952090480130904901089520905501DB
:14591C00309056010895309228012092270108951095009527
:145930000F5F1F4F08958093DF050E9403110895A02FB12FF1
:14594400E22FF32F089502E310E00E94450808953092580103
:1459580020925701089530924B0120924A010895262E6F5FCA
:14596C00022D112708952C823D824E825F8208952091340182
:14598000309135010895309245012092440108958A939A9399
:14599400AA93EA93089536952795179507950895800D911D01
:1459A800A31FB31F08950FEF102F2FE73FE70895C02E4C2D3D
:1459BC0081E080170895EC2DFD2D00811127089511E00E9416
:1459D000E721CE01089520902C01822D833008954A925A92AB
:1459E4006A928A9308958091000184708430089520928B0065
:1459F80020928A00089588249924AA24BB24089580910001FD
:145A0C008270823008958091440190914501089580917A015F
:145A200090917B010895A990B99049915991089548825982B0
:145A3400222D332D089590937B0180937A01089590935601CE
:145A480080935501089582159305A405B5050895FA01EA0D23
:145A5C00FB1D008108952E2D33270A851B850895362E61506A
:145A7000222423140895442E552E4150504008958091020141
:145A84008072803208958093C1008091C10008952A803B8025
:145A98002816390608958091B2019091B301089580911D017B
:105AAC0090911E010895E80FF91F22242082089579
:00000001FF
